{
  "contractName": "UserContract",
  "abi": [
    {
      "inputs": [
        {
          "internalType": "address",
          "name": "nftAddress",
          "type": "address"
        },
        {
          "internalType": "address",
          "name": "ownerAddress",
          "type": "address"
        }
      ],
      "stateMutability": "nonpayable",
      "type": "constructor"
    },
    {
      "anonymous": false,
      "inputs": [
        {
          "indexed": false,
          "internalType": "string",
          "name": "post",
          "type": "string"
        },
        {
          "indexed": false,
          "internalType": "address",
          "name": "owner",
          "type": "address"
        },
        {
          "indexed": false,
          "internalType": "address",
          "name": "seller",
          "type": "address"
        },
        {
          "indexed": false,
          "internalType": "uint256",
          "name": "price",
          "type": "uint256"
        }
      ],
      "name": "PostSold",
      "type": "event"
    },
    {
      "anonymous": false,
      "inputs": [
        {
          "indexed": false,
          "internalType": "string",
          "name": "title",
          "type": "string"
        },
        {
          "indexed": false,
          "internalType": "string",
          "name": "post",
          "type": "string"
        },
        {
          "indexed": false,
          "internalType": "bytes32",
          "name": "postId",
          "type": "bytes32"
        },
        {
          "indexed": false,
          "internalType": "uint256",
          "name": "tokenId",
          "type": "uint256"
        },
        {
          "indexed": false,
          "internalType": "uint256",
          "name": "priceByOwner",
          "type": "uint256"
        },
        {
          "indexed": false,
          "internalType": "uint256",
          "name": "basePrice",
          "type": "uint256"
        },
        {
          "indexed": false,
          "internalType": "address",
          "name": "owner",
          "type": "address"
        },
        {
          "indexed": false,
          "internalType": "address",
          "name": "seller",
          "type": "address"
        }
      ],
      "name": "PostUploaded",
      "type": "event"
    },
    {
      "anonymous": false,
      "inputs": [
        {
          "indexed": false,
          "internalType": "string",
          "name": "name",
          "type": "string"
        },
        {
          "indexed": false,
          "internalType": "string",
          "name": "userName",
          "type": "string"
        },
        {
          "indexed": false,
          "internalType": "string",
          "name": "avatarUrl",
          "type": "string"
        },
        {
          "indexed": false,
          "internalType": "address",
          "name": "userAddress",
          "type": "address"
        }
      ],
      "name": "UserCreated",
      "type": "event"
    },
    {
      "inputs": [],
      "name": "userCount",
      "outputs": [
        {
          "internalType": "uint256",
          "name": "_value",
          "type": "uint256"
        }
      ],
      "stateMutability": "view",
      "type": "function",
      "constant": true
    },
    {
      "inputs": [
        {
          "internalType": "address",
          "name": "",
          "type": "address"
        }
      ],
      "name": "userIsRegistered",
      "outputs": [
        {
          "internalType": "bool",
          "name": "",
          "type": "bool"
        }
      ],
      "stateMutability": "view",
      "type": "function",
      "constant": true
    },
    {
      "inputs": [
        {
          "internalType": "address",
          "name": "account",
          "type": "address"
        },
        {
          "internalType": "string",
          "name": "name",
          "type": "string"
        },
        {
          "internalType": "string",
          "name": "userName",
          "type": "string"
        },
        {
          "internalType": "string",
          "name": "avatarUrl",
          "type": "string"
        },
        {
          "internalType": "string",
          "name": "email",
          "type": "string"
        },
        {
          "internalType": "string",
          "name": "bio",
          "type": "string"
        },
        {
          "internalType": "string",
          "name": "wallUrl",
          "type": "string"
        }
      ],
      "name": "createUser",
      "outputs": [],
      "stateMutability": "nonpayable",
      "type": "function"
    },
    {
      "inputs": [
        {
          "internalType": "string",
          "name": "title",
          "type": "string"
        },
        {
          "internalType": "string",
          "name": "post",
          "type": "string"
        },
        {
          "internalType": "bool",
          "name": "isNft",
          "type": "bool"
        },
        {
          "internalType": "uint256",
          "name": "priceByOwner",
          "type": "uint256"
        },
        {
          "internalType": "bool",
          "name": "isForSale",
          "type": "bool"
        },
        {
          "internalType": "address",
          "name": "account",
          "type": "address"
        }
      ],
      "name": "uploadPost",
      "outputs": [
        {
          "internalType": "bytes32",
          "name": "",
          "type": "bytes32"
        }
      ],
      "stateMutability": "nonpayable",
      "type": "function"
    },
    {
      "inputs": [
        {
          "internalType": "address",
          "name": "ownerAddress",
          "type": "address"
        },
        {
          "internalType": "bytes32",
          "name": "postId",
          "type": "bytes32"
        },
        {
          "internalType": "address",
          "name": "newOwnerAddress",
          "type": "address"
        }
      ],
      "name": "buyPost",
      "outputs": [],
      "stateMutability": "payable",
      "type": "function",
      "payable": true
    },
    {
      "inputs": [],
      "name": "getUserList",
      "outputs": [
        {
          "components": [
            {
              "internalType": "string",
              "name": "name",
              "type": "string"
            },
            {
              "internalType": "string",
              "name": "userName",
              "type": "string"
            },
            {
              "internalType": "string",
              "name": "avatarUrl",
              "type": "string"
            },
            {
              "internalType": "string",
              "name": "bio",
              "type": "string"
            },
            {
              "internalType": "string",
              "name": "wallUrl",
              "type": "string"
            },
            {
              "internalType": "string",
              "name": "email",
              "type": "string"
            },
            {
              "internalType": "uint256",
              "name": "followersCount",
              "type": "uint256"
            },
            {
              "internalType": "uint256",
              "name": "followingCount",
              "type": "uint256"
            },
            {
              "internalType": "bytes32[]",
              "name": "postCount",
              "type": "bytes32[]"
            },
            {
              "internalType": "address",
              "name": "userAddress",
              "type": "address"
            },
            {
              "internalType": "address[]",
              "name": "followers",
              "type": "address[]"
            },
            {
              "internalType": "address[]",
              "name": "following",
              "type": "address[]"
            }
          ],
          "internalType": "struct UserContract.User[]",
          "name": "",
          "type": "tuple[]"
        }
      ],
      "stateMutability": "view",
      "type": "function",
      "constant": true
    },
    {
      "inputs": [
        {
          "internalType": "bytes32",
          "name": "id",
          "type": "bytes32"
        },
        {
          "internalType": "bool",
          "name": "isForSale",
          "type": "bool"
        },
        {
          "internalType": "address",
          "name": "account",
          "type": "address"
        }
      ],
      "name": "updatePostForSale",
      "outputs": [],
      "stateMutability": "nonpayable",
      "type": "function"
    },
    {
      "inputs": [
        {
          "internalType": "address",
          "name": "sender",
          "type": "address"
        }
      ],
      "name": "getUserPosts",
      "outputs": [
        {
          "components": [
            {
              "internalType": "string",
              "name": "post",
              "type": "string"
            },
            {
              "internalType": "bytes32",
              "name": "postId",
              "type": "bytes32"
            },
            {
              "internalType": "uint256",
              "name": "likes",
              "type": "uint256"
            },
            {
              "internalType": "string",
              "name": "title",
              "type": "string"
            },
            {
              "internalType": "bool",
              "name": "isForSale",
              "type": "bool"
            },
            {
              "internalType": "bool",
              "name": "postIsBought",
              "type": "bool"
            },
            {
              "internalType": "uint256",
              "name": "commentsCount",
              "type": "uint256"
            },
            {
              "internalType": "address",
              "name": "owner",
              "type": "address"
            },
            {
              "internalType": "address payable",
              "name": "seller",
              "type": "address"
            },
            {
              "internalType": "string[]",
              "name": "comments",
              "type": "string[]"
            },
            {
              "internalType": "uint256",
              "name": "priceByOwner",
              "type": "uint256"
            },
            {
              "internalType": "uint256",
              "name": "basePrice",
              "type": "uint256"
            },
            {
              "internalType": "bool",
              "name": "isNft",
              "type": "bool"
            },
            {
              "internalType": "uint256",
              "name": "tokenId",
              "type": "uint256"
            }
          ],
          "internalType": "struct UserContract.Post[]",
          "name": "userPosts",
          "type": "tuple[]"
        }
      ],
      "stateMutability": "view",
      "type": "function",
      "constant": true
    },
    {
      "inputs": [
        {
          "internalType": "address",
          "name": "postOwner",
          "type": "address"
        },
        {
          "internalType": "bytes32",
          "name": "postId",
          "type": "bytes32"
        },
        {
          "internalType": "address",
          "name": "userAddress",
          "type": "address"
        }
      ],
      "name": "likePost",
      "outputs": [],
      "stateMutability": "nonpayable",
      "type": "function"
    },
    {
      "inputs": [
        {
          "internalType": "address",
          "name": "postOwner",
          "type": "address"
        },
        {
          "internalType": "string",
          "name": "comment",
          "type": "string"
        },
        {
          "internalType": "bytes32",
          "name": "postId",
          "type": "bytes32"
        },
        {
          "internalType": "address",
          "name": "sender",
          "type": "address"
        }
      ],
      "name": "postComment",
      "outputs": [],
      "stateMutability": "nonpayable",
      "type": "function"
    },
    {
      "inputs": [
        {
          "internalType": "address",
          "name": "userAddress",
          "type": "address"
        }
      ],
      "name": "getAllPost",
      "outputs": [
        {
          "components": [
            {
              "internalType": "string",
              "name": "post",
              "type": "string"
            },
            {
              "internalType": "bytes32",
              "name": "postId",
              "type": "bytes32"
            },
            {
              "internalType": "uint256",
              "name": "likes",
              "type": "uint256"
            },
            {
              "internalType": "string",
              "name": "title",
              "type": "string"
            },
            {
              "internalType": "bool",
              "name": "isForSale",
              "type": "bool"
            },
            {
              "internalType": "bool",
              "name": "postIsBought",
              "type": "bool"
            },
            {
              "internalType": "uint256",
              "name": "commentsCount",
              "type": "uint256"
            },
            {
              "internalType": "address",
              "name": "owner",
              "type": "address"
            },
            {
              "internalType": "address payable",
              "name": "seller",
              "type": "address"
            },
            {
              "internalType": "string[]",
              "name": "comments",
              "type": "string[]"
            },
            {
              "internalType": "uint256",
              "name": "priceByOwner",
              "type": "uint256"
            },
            {
              "internalType": "uint256",
              "name": "basePrice",
              "type": "uint256"
            },
            {
              "internalType": "bool",
              "name": "isNft",
              "type": "bool"
            },
            {
              "internalType": "uint256",
              "name": "tokenId",
              "type": "uint256"
            }
          ],
          "internalType": "struct UserContract.Post[]",
          "name": "",
          "type": "tuple[]"
        }
      ],
      "stateMutability": "view",
      "type": "function",
      "constant": true
    },
    {
      "inputs": [
        {
          "internalType": "address",
          "name": "account",
          "type": "address"
        }
      ],
      "name": "getUserData",
      "outputs": [
        {
          "components": [
            {
              "internalType": "string",
              "name": "name",
              "type": "string"
            },
            {
              "internalType": "string",
              "name": "userName",
              "type": "string"
            },
            {
              "internalType": "string",
              "name": "avatarUrl",
              "type": "string"
            },
            {
              "internalType": "string",
              "name": "bio",
              "type": "string"
            },
            {
              "internalType": "string",
              "name": "wallUrl",
              "type": "string"
            },
            {
              "internalType": "string",
              "name": "email",
              "type": "string"
            },
            {
              "internalType": "uint256",
              "name": "followersCount",
              "type": "uint256"
            },
            {
              "internalType": "uint256",
              "name": "followingCount",
              "type": "uint256"
            },
            {
              "internalType": "bytes32[]",
              "name": "postCount",
              "type": "bytes32[]"
            },
            {
              "internalType": "address",
              "name": "userAddress",
              "type": "address"
            },
            {
              "internalType": "address[]",
              "name": "followers",
              "type": "address[]"
            },
            {
              "internalType": "address[]",
              "name": "following",
              "type": "address[]"
            }
          ],
          "internalType": "struct UserContract.User",
          "name": "",
          "type": "tuple"
        }
      ],
      "stateMutability": "view",
      "type": "function",
      "constant": true
    },
    {
      "inputs": [
        {
          "internalType": "string",
          "name": "post",
          "type": "string"
        }
      ],
      "name": "callKeccak256",
      "outputs": [
        {
          "internalType": "bytes32",
          "name": "result",
          "type": "bytes32"
        }
      ],
      "stateMutability": "pure",
      "type": "function",
      "constant": true
    }
  ],
  "bytecode": "0x60806040523480156200001157600080fd5b50604051620051f7380380620051f78339818101604052810190620000379190620001a2565b600160008190555081600460006101000a81548173ffffffffffffffffffffffffffffffffffffffff021916908373ffffffffffffffffffffffffffffffffffffffff16021790555080600560006101000a81548173ffffffffffffffffffffffffffffffffffffffff021916908373ffffffffffffffffffffffffffffffffffffffff1602179055508173ffffffffffffffffffffffffffffffffffffffff1663bdf3e088306040518263ffffffff1660e01b8152600401620000fc9190620001fa565b600060405180830381600087803b1580156200011757600080fd5b505af11580156200012c573d6000803e3d6000fd5b50505050505062000217565b600080fd5b600073ffffffffffffffffffffffffffffffffffffffff82169050919050565b60006200016a826200013d565b9050919050565b6200017c816200015d565b81146200018857600080fd5b50565b6000815190506200019c8162000171565b92915050565b60008060408385031215620001bc57620001bb62000138565b5b6000620001cc858286016200018b565b9250506020620001df858286016200018b565b9150509250929050565b620001f4816200015d565b82525050565b6000602082019050620002116000830184620001e9565b92915050565b614fd080620002276000396000f3fe6080604052600436106100c25760003560e01c806393f726851161007f578063b852204311610059578063b85220431461027d578063cb224411146102a8578063f6f19715146102d1578063ffc9896b1461030e576100c2565b806393f72685146101da5780639a2194a914610217578063a4b2467414610254576100c2565b806307973ccf146100c757806308acdddf146100f25780632b9462521461012f5780634546a98e146101585780635c8557fd146101745780636c216d061461019d575b600080fd5b3480156100d357600080fd5b506100dc61034b565b6040516100e991906134f2565b60405180910390f35b3480156100fe57600080fd5b5061011960048036038101906101149190613729565b610357565b6040516101269190613807565b60405180910390f35b34801561013b57600080fd5b5061015660048036038101906101519190613822565b610a8b565b005b610172600480360381019061016d9190613998565b610e52565b005b34801561018057600080fd5b5061019b600480360381019061019691906139eb565b6116c1565b005b3480156101a957600080fd5b506101c460048036038101906101bf9190613a3e565b6117c4565b6040516101d19190613807565b60405180910390f35b3480156101e657600080fd5b5061020160048036038101906101fc9190613a87565b6117f4565b60405161020e9190613e59565b60405180910390f35b34801561022357600080fd5b5061023e60048036038101906102399190613a87565b611ca5565b60405161024b9190613e59565b60405180910390f35b34801561026057600080fd5b5061027b60048036038101906102769190613e7b565b6121f2565b005b34801561028957600080fd5b50610292612333565b60405161029f919061425a565b60405180910390f35b3480156102b457600080fd5b506102cf60048036038101906102ca9190613998565b6128dd565b005b3480156102dd57600080fd5b506102f860048036038101906102f39190613a87565b6129e6565b604051610305919061428b565b60405180910390f35b34801561031a57600080fd5b5061033560048036038101906103309190613a87565b612a06565b60405161034291906143e2565b60405180910390f35b60018060000154905081565b600060026000540361039e576040517f08c379a000000000000000000000000000000000000000000000000000000000815260040161039590614461565b60405180910390fd5b600260008190555060011515600260008473ffffffffffffffffffffffffffffffffffffffff1673ffffffffffffffffffffffffffffffffffffffff16815260200190815260200160002060009054906101000a900460ff16151514610439576040517f08c379a0000000000000000000000000000000000000000000000000000000008152600401610430906144cd565b60405180910390fd5b6000600360008473ffffffffffffffffffffffffffffffffffffffff1673ffffffffffffffffffffffffffffffffffffffff16815260200190815260200160002090506000861561052557600460009054906101000a900473ffffffffffffffffffffffffffffffffffffffff1673ffffffffffffffffffffffffffffffffffffffff166333eba49a896040518263ffffffff1660e01b81526004016104df9190614526565b6020604051808303816000875af11580156104fe573d6000803e3d6000fd5b505050506040513d601f19601f82011682018060405250810190610522919061455d565b90505b81600801610532896117c4565b90806001815401808255809150506001900390600052602060002001600090919091909150556000604051806101c001604052808a81526020016105758b6117c4565b8152602001600081526020018b815260200189610593576000610595565b875b1515815260200160001515815260200160008152602001896105b85760006105ba565b305b73ffffffffffffffffffffffffffffffffffffffff168152602001896105e15760006105e3565b865b73ffffffffffffffffffffffffffffffffffffffff168152602001600067ffffffffffffffff8111156106195761061861353c565b5b60405190808252806020026020018201604052801561064c57816020015b60608152602001906001900390816106375790505b5081526020018961065e576000610660565b885b815260200189610671576000610674565b600a5b60ff168152602001891515815260200189610690576000610692565b835b81525090506106a1600761303d565b80600860006106b06007613053565b815260200190815260200160002060008201518160000190816106d39190614796565b50602082015181600101556040820151816002015560608201518160030190816106fd9190614796565b5060808201518160040160006101000a81548160ff02191690831515021790555060a08201518160040160016101000a81548160ff02191690831515021790555060c0820151816005015560e08201518160060160006101000a81548173ffffffffffffffffffffffffffffffffffffffff021916908373ffffffffffffffffffffffffffffffffffffffff1602179055506101008201518160070160006101000a81548173ffffffffffffffffffffffffffffffffffffffff021916908373ffffffffffffffffffffffffffffffffffffffff1602179055506101208201518160080190805190602001906107f49291906131a5565b50610140820151816009015561016082015181600a015561018082015181600b0160006101000a81548160ff0219169083151502179055506101a082015181600c015590505080600960008773ffffffffffffffffffffffffffffffffffffffff1673ffffffffffffffffffffffffffffffffffffffff16815260200190815260200160002060006108858c6117c4565b815260200190815260200160002060008201518160000190816108a89190614796565b50602082015181600101556040820151816002015560608201518160030190816108d29190614796565b5060808201518160040160006101000a81548160ff02191690831515021790555060a08201518160040160016101000a81548160ff02191690831515021790555060c0820151816005015560e08201518160060160006101000a81548173ffffffffffffffffffffffffffffffffffffffff021916908373ffffffffffffffffffffffffffffffffffffffff1602179055506101008201518160070160006101000a81548173ffffffffffffffffffffffffffffffffffffffff021916908373ffffffffffffffffffffffffffffffffffffffff1602179055506101208201518160080190805190602001906109c99291906131a5565b50610140820151816009015561016082015181600a015561018082015181600b0160006101000a81548160ff0219169083151502179055506101a082015181600c01559050507f72d2ff68e942d073bdcb19dbadc9e768208026219f8d884b765175ff7f671a9c816060015182600001518360200151846101a001518b600a8760e00151886101000151604051610a67989796959493929190614907565b60405180910390a18060200151935050505060016000819055509695505050505050565b60011515600260008973ffffffffffffffffffffffffffffffffffffffff1673ffffffffffffffffffffffffffffffffffffffff16815260200190815260200160002060009054906101000a900460ff16151503610b1e576040517f08c379a0000000000000000000000000000000000000000000000000000000008152600401610b15906149df565b60405180910390fd5b6000600360008973ffffffffffffffffffffffffffffffffffffffff1673ffffffffffffffffffffffffffffffffffffffff168152602001908152602001600020905086816000019081610b729190614796565b5085816001019081610b849190614796565b5084816002019081610b969190614796565b5082816003019081610ba89190614796565b5081816004019081610bba9190614796565b50878160090160006101000a81548173ffffffffffffffffffffffffffffffffffffffff021916908373ffffffffffffffffffffffffffffffffffffffff16021790555083816005019081610c0f9190614796565b50610c1a600161303d565b6001600260008a73ffffffffffffffffffffffffffffffffffffffff1673ffffffffffffffffffffffffffffffffffffffff16815260200190815260200160002060006101000a81548160ff02191690831515021790555060068190806001815401808255809150506001900390600052602060002090600c020160009091909190915060008201816000019081610cb29190614a15565b5060018201816001019081610cc79190614a15565b5060028201816002019081610cdc9190614a15565b5060038201816003019081610cf19190614a15565b5060048201816004019081610d069190614a15565b5060058201816005019081610d1b9190614a15565b5060068201548160060155600782015481600701556008820181600801908054610d469291906131fe565b506009820160009054906101000a900473ffffffffffffffffffffffffffffffffffffffff168160090160006101000a81548173ffffffffffffffffffffffffffffffffffffffff021916908373ffffffffffffffffffffffffffffffffffffffff160217905550600a820181600a01908054610dc4929190613250565b50600b820181600b01908054610ddb929190613250565b5050507f3500268ebdfdd25b305294ab9516187c34eb908aa8b91d7a48ea6ccfafe4158a8160000182600101836002018460090160009054906101000a900473ffffffffffffffffffffffffffffffffffffffff16604051610e409493929190614b81565b60405180910390a15050505050505050565b600260005403610e97576040517f08c379a0000000000000000000000000000000000000000000000000000000008152600401610e8e90614461565b60405180910390fd5b60026000819055506000600960008573ffffffffffffffffffffffffffffffffffffffff1673ffffffffffffffffffffffffffffffffffffffff1681526020019081526020016000206000848152602001908152602001600020905060011515600260008473ffffffffffffffffffffffffffffffffffffffff1673ffffffffffffffffffffffffffffffffffffffff16815260200190815260200160002060009054906101000a900460ff16151514610f86576040517f08c379a0000000000000000000000000000000000000000000000000000000008152600401610f7d90614c27565b60405180910390fd5b6001151581600b0160009054906101000a900460ff16151514610fde576040517f08c379a0000000000000000000000000000000000000000000000000000000008152600401610fd590614c93565b60405180910390fd5b60011515600260008673ffffffffffffffffffffffffffffffffffffffff1673ffffffffffffffffffffffffffffffffffffffff16815260200190815260200160002060009054906101000a900460ff16151514611071576040517f08c379a000000000000000000000000000000000000000000000000000000000815260040161106890614c27565b60405180910390fd5b600115158160040160009054906101000a900460ff161515146110c9576040517f08c379a00000000000000000000000000000000000000000000000000000000081526004016110c090614cff565b60405180910390fd5b60003490506000600360008573ffffffffffffffffffffffffffffffffffffffff1673ffffffffffffffffffffffffffffffffffffffff168152602001908152602001600020905082600a0154821015611158576040517f08c379a000000000000000000000000000000000000000000000000000000000815260040161114f90614d91565b60405180910390fd5b600015158360040160019054906101000a900460ff1615150361120b57600460009054906101000a900473ffffffffffffffffffffffffffffffffffffffff1673ffffffffffffffffffffffffffffffffffffffff166323b872dd308686600c01546040518463ffffffff1660e01b81526004016111d893929190614db1565b600060405180830381600087803b1580156111f257600080fd5b505af1158015611206573d6000803e3d6000fd5b505050505b8260070160009054906101000a900473ffffffffffffffffffffffffffffffffffffffff1673ffffffffffffffffffffffffffffffffffffffff166108fc349081150290604051600060405180830381858888f19350505050158015611275573d6000803e3d6000fd5b50838360060160006101000a81548173ffffffffffffffffffffffffffffffffffffffff021916908373ffffffffffffffffffffffffffffffffffffffff160217905550838360070160006101000a81548173ffffffffffffffffffffffffffffffffffffffff021916908373ffffffffffffffffffffffffffffffffffffffff1602179055506113068587613061565b60018360040160016101000a81548160ff02191690831515021790555082600960008673ffffffffffffffffffffffffffffffffffffffff1673ffffffffffffffffffffffffffffffffffffffff1681526020019081526020016000206000878152602001908152602001600020600082018160000190816113889190614a15565b506001820154816001015560028201548160020155600382018160030190816113b19190614a15565b506004820160009054906101000a900460ff168160040160006101000a81548160ff0219169083151502179055506004820160019054906101000a900460ff168160040160016101000a81548160ff021916908315150217905550600582015481600501556006820160009054906101000a900473ffffffffffffffffffffffffffffffffffffffff168160060160006101000a81548173ffffffffffffffffffffffffffffffffffffffff021916908373ffffffffffffffffffffffffffffffffffffffff1602179055506007820160009054906101000a900473ffffffffffffffffffffffffffffffffffffffff168160070160006101000a81548173ffffffffffffffffffffffffffffffffffffffff021916908373ffffffffffffffffffffffffffffffffffffffff16021790555060088201816008019080546114fa9291906132a2565b5060098201548160090155600a82015481600a0155600b820160009054906101000a900460ff1681600b0160006101000a81548160ff021916908315150217905550600c82015481600c0155905050600960008773ffffffffffffffffffffffffffffffffffffffff1673ffffffffffffffffffffffffffffffffffffffff1681526020019081526020016000206000868152602001908152602001600020600080820160006115aa91906132ff565b600182016000905560028201600090556003820160006115ca91906132ff565b6004820160006101000a81549060ff02191690556004820160016101000a81549060ff021916905560058201600090556006820160006101000a81549073ffffffffffffffffffffffffffffffffffffffff02191690556007820160006101000a81549073ffffffffffffffffffffffffffffffffffffffff0219169055600882016000611658919061333f565b6009820160009055600a820160009055600b820160006101000a81549060ff0219169055600c8201600090555050806008018590806001815401808255809150506001900390600052602060002001600090919091909150555050506001600081905550505050565b60011515600260008373ffffffffffffffffffffffffffffffffffffffff1673ffffffffffffffffffffffffffffffffffffffff16815260200190815260200160002060009054906101000a900460ff16151514611754576040517f08c379a000000000000000000000000000000000000000000000000000000000815260040161174b90614c27565b60405180910390fd5b81600960008373ffffffffffffffffffffffffffffffffffffffff1673ffffffffffffffffffffffffffffffffffffffff168152602001908152602001600020600085815260200190815260200160002060040160006101000a81548160ff021916908315150217905550505050565b6000816040516020016117d79190614e24565b604051602081830303815290604052805190602001209050919050565b606060011515600260008473ffffffffffffffffffffffffffffffffffffffff1673ffffffffffffffffffffffffffffffffffffffff16815260200190815260200160002060009054906101000a900460ff16151514611889576040517f08c379a0000000000000000000000000000000000000000000000000000000008152600401611880906144cd565b60405180910390fd5b60006118956007613053565b90506000808267ffffffffffffffff8111156118b4576118b361353c565b5b6040519080825280602002602001820160405280156118ed57816020015b6118da613360565b8152602001906001900390816118d25790505b5090506000600190505b838111611c9957600060086000838152602001908152602001600020905080604051806101c0016040529081600082018054611932906145b9565b80601f016020809104026020016040519081016040528092919081815260200182805461195e906145b9565b80156119ab5780601f10611980576101008083540402835291602001916119ab565b820191906000526020600020905b81548152906001019060200180831161198e57829003601f168201915b5050505050815260200160018201548152602001600282015481526020016003820180546119d8906145b9565b80601f0160208091040260200160405190810160405280929190818152602001828054611a04906145b9565b8015611a515780601f10611a2657610100808354040283529160200191611a51565b820191906000526020600020905b815481529060010190602001808311611a3457829003601f168201915b505050505081526020016004820160009054906101000a900460ff161515151581526020016004820160019054906101000a900460ff16151515158152602001600582015481526020016006820160009054906101000a900473ffffffffffffffffffffffffffffffffffffffff1673ffffffffffffffffffffffffffffffffffffffff1673ffffffffffffffffffffffffffffffffffffffff1681526020016007820160009054906101000a900473ffffffffffffffffffffffffffffffffffffffff1673ffffffffffffffffffffffffffffffffffffffff1673ffffffffffffffffffffffffffffffffffffffff16815260200160088201805480602002602001604051908101604052809291908181526020016000905b82821015611c17578382906000526020600020018054611b8a906145b9565b80601f0160208091040260200160405190810160405280929190818152602001828054611bb6906145b9565b8015611c035780601f10611bd857610100808354040283529160200191611c03565b820191906000526020600020905b815481529060010190602001808311611be657829003601f168201915b505050505081526020019060010190611b6b565b50505050815260200160098201548152602001600a8201548152602001600b820160009054906101000a900460ff16151515158152602001600c82015481525050838581518110611c6b57611c6a614e3b565b5b6020026020010181905250600184611c839190614e99565b9350508080611c9190614eef565b9150506118f7565b50809350505050919050565b606060011515600260008473ffffffffffffffffffffffffffffffffffffffff1673ffffffffffffffffffffffffffffffffffffffff16815260200190815260200160002060009054906101000a900460ff16151514611d3a576040517f08c379a0000000000000000000000000000000000000000000000000000000008152600401611d31906144cd565b60405180910390fd5b6000600360008473ffffffffffffffffffffffffffffffffffffffff1673ffffffffffffffffffffffffffffffffffffffff168152602001908152602001600020905060008160080180549050905060008167ffffffffffffffff811115611da557611da461353c565b5b604051908082528060200260200182016040528015611dde57816020015b611dcb613360565b815260200190600190039081611dc35790505b5090506000805b838110156121e5576000600960008973ffffffffffffffffffffffffffffffffffffffff1673ffffffffffffffffffffffffffffffffffffffff1681526020019081526020016000206000876008018581548110611e4657611e45614e3b565b5b90600052602060002001548152602001908152602001600020905080604051806101c0016040529081600082018054611e7e906145b9565b80601f0160208091040260200160405190810160405280929190818152602001828054611eaa906145b9565b8015611ef75780601f10611ecc57610100808354040283529160200191611ef7565b820191906000526020600020905b815481529060010190602001808311611eda57829003601f168201915b505050505081526020016001820154815260200160028201548152602001600382018054611f24906145b9565b80601f0160208091040260200160405190810160405280929190818152602001828054611f50906145b9565b8015611f9d5780601f10611f7257610100808354040283529160200191611f9d565b820191906000526020600020905b815481529060010190602001808311611f8057829003601f168201915b505050505081526020016004820160009054906101000a900460ff161515151581526020016004820160019054906101000a900460ff16151515158152602001600582015481526020016006820160009054906101000a900473ffffffffffffffffffffffffffffffffffffffff1673ffffffffffffffffffffffffffffffffffffffff1673ffffffffffffffffffffffffffffffffffffffff1681526020016007820160009054906101000a900473ffffffffffffffffffffffffffffffffffffffff1673ffffffffffffffffffffffffffffffffffffffff1673ffffffffffffffffffffffffffffffffffffffff16815260200160088201805480602002602001604051908101604052809291908181526020016000905b828210156121635783829060005260206000200180546120d6906145b9565b80601f0160208091040260200160405190810160405280929190818152602001828054612102906145b9565b801561214f5780601f106121245761010080835404028352916020019161214f565b820191906000526020600020905b81548152906001019060200180831161213257829003601f168201915b5050505050815260200190600101906120b7565b50505050815260200160098201548152602001600a8201548152602001600b820160009054906101000a900460ff16151515158152602001600c820154815250508484815181106121b7576121b6614e3b565b5b60200260200101819052506001836121cf9190614e99565b92505080806121dd90614eef565b915050611de5565b5081945050505050919050565b60011515600260008373ffffffffffffffffffffffffffffffffffffffff1673ffffffffffffffffffffffffffffffffffffffff16815260200190815260200160002060009054906101000a900460ff16151514612285576040517f08c379a000000000000000000000000000000000000000000000000000000000815260040161227c90614c27565b60405180910390fd5b6000600960008673ffffffffffffffffffffffffffffffffffffffff1673ffffffffffffffffffffffffffffffffffffffff1681526020019081526020016000206000848152602001908152602001600020905060018160050160008282546122ee9190614e99565b92505081905550806008018490806001815401808255809150506001900390600052602060002001600090919091909150908161232b9190614796565b505050505050565b60606006805480602002602001604051908101604052809291908181526020016000905b828210156128d457838290600052602060002090600c02016040518061018001604052908160008201805461238b906145b9565b80601f01602080910402602001604051908101604052809291908181526020018280546123b7906145b9565b80156124045780601f106123d957610100808354040283529160200191612404565b820191906000526020600020905b8154815290600101906020018083116123e757829003601f168201915b5050505050815260200160018201805461241d906145b9565b80601f0160208091040260200160405190810160405280929190818152602001828054612449906145b9565b80156124965780601f1061246b57610100808354040283529160200191612496565b820191906000526020600020905b81548152906001019060200180831161247957829003601f168201915b505050505081526020016002820180546124af906145b9565b80601f01602080910402602001604051908101604052809291908181526020018280546124db906145b9565b80156125285780601f106124fd57610100808354040283529160200191612528565b820191906000526020600020905b81548152906001019060200180831161250b57829003601f168201915b50505050508152602001600382018054612541906145b9565b80601f016020809104026020016040519081016040528092919081815260200182805461256d906145b9565b80156125ba5780601f1061258f576101008083540402835291602001916125ba565b820191906000526020600020905b81548152906001019060200180831161259d57829003601f168201915b505050505081526020016004820180546125d3906145b9565b80601f01602080910402602001604051908101604052809291908181526020018280546125ff906145b9565b801561264c5780601f106126215761010080835404028352916020019161264c565b820191906000526020600020905b81548152906001019060200180831161262f57829003601f168201915b50505050508152602001600582018054612665906145b9565b80601f0160208091040260200160405190810160405280929190818152602001828054612691906145b9565b80156126de5780601f106126b3576101008083540402835291602001916126de565b820191906000526020600020905b8154815290600101906020018083116126c157829003601f168201915b5050505050815260200160068201548152602001600782015481526020016008820180548060200260200160405190810160405280929190818152602001828054801561274a57602002820191906000526020600020905b815481526020019060010190808311612736575b505050505081526020016009820160009054906101000a900473ffffffffffffffffffffffffffffffffffffffff1673ffffffffffffffffffffffffffffffffffffffff1673ffffffffffffffffffffffffffffffffffffffff168152602001600a820180548060200260200160405190810160405280929190818152602001828054801561282e57602002820191906000526020600020905b8160009054906101000a900473ffffffffffffffffffffffffffffffffffffffff1673ffffffffffffffffffffffffffffffffffffffff16815260200190600101908083116127e4575b50505050508152602001600b82018054806020026020016040519081016040528092919081815260200182805480156128bc57602002820191906000526020600020905b8160009054906101000a900473ffffffffffffffffffffffffffffffffffffffff1673ffffffffffffffffffffffffffffffffffffffff1681526020019060010190808311612872575b50505050508152505081526020019060010190612357565b50505050905090565b60011515600260008373ffffffffffffffffffffffffffffffffffffffff1673ffffffffffffffffffffffffffffffffffffffff16815260200190815260200160002060009054906101000a900460ff16151514612970576040517f08c379a000000000000000000000000000000000000000000000000000000000815260040161296790614c27565b60405180910390fd5b6000600960008573ffffffffffffffffffffffffffffffffffffffff1673ffffffffffffffffffffffffffffffffffffffff1681526020019081526020016000206000848152602001908152602001600020905060018160020160008282546129d99190614e99565b9250508190555050505050565b60026020528060005260406000206000915054906101000a900460ff1681565b612a0e613404565b60011515600260008473ffffffffffffffffffffffffffffffffffffffff1673ffffffffffffffffffffffffffffffffffffffff16815260200190815260200160002060009054906101000a900460ff16151514612aa1576040517f08c379a0000000000000000000000000000000000000000000000000000000008152600401612a98906144cd565b60405180910390fd5b600360008373ffffffffffffffffffffffffffffffffffffffff1673ffffffffffffffffffffffffffffffffffffffff16815260200190815260200160002060405180610180016040529081600082018054612afc906145b9565b80601f0160208091040260200160405190810160405280929190818152602001828054612b28906145b9565b8015612b755780601f10612b4a57610100808354040283529160200191612b75565b820191906000526020600020905b815481529060010190602001808311612b5857829003601f168201915b50505050508152602001600182018054612b8e906145b9565b80601f0160208091040260200160405190810160405280929190818152602001828054612bba906145b9565b8015612c075780601f10612bdc57610100808354040283529160200191612c07565b820191906000526020600020905b815481529060010190602001808311612bea57829003601f168201915b50505050508152602001600282018054612c20906145b9565b80601f0160208091040260200160405190810160405280929190818152602001828054612c4c906145b9565b8015612c995780601f10612c6e57610100808354040283529160200191612c99565b820191906000526020600020905b815481529060010190602001808311612c7c57829003601f168201915b50505050508152602001600382018054612cb2906145b9565b80601f0160208091040260200160405190810160405280929190818152602001828054612cde906145b9565b8015612d2b5780601f10612d0057610100808354040283529160200191612d2b565b820191906000526020600020905b815481529060010190602001808311612d0e57829003601f168201915b50505050508152602001600482018054612d44906145b9565b80601f0160208091040260200160405190810160405280929190818152602001828054612d70906145b9565b8015612dbd5780601f10612d9257610100808354040283529160200191612dbd565b820191906000526020600020905b815481529060010190602001808311612da057829003601f168201915b50505050508152602001600582018054612dd6906145b9565b80601f0160208091040260200160405190810160405280929190818152602001828054612e02906145b9565b8015612e4f5780601f10612e2457610100808354040283529160200191612e4f565b820191906000526020600020905b815481529060010190602001808311612e3257829003601f168201915b50505050508152602001600682015481526020016007820154815260200160088201805480602002602001604051908101604052809291908181526020018280548015612ebb57602002820191906000526020600020905b815481526020019060010190808311612ea7575b505050505081526020016009820160009054906101000a900473ffffffffffffffffffffffffffffffffffffffff1673ffffffffffffffffffffffffffffffffffffffff1673ffffffffffffffffffffffffffffffffffffffff168152602001600a8201805480602002602001604051908101604052809291908181526020018280548015612f9f57602002820191906000526020600020905b8160009054906101000a900473ffffffffffffffffffffffffffffffffffffffff1673ffffffffffffffffffffffffffffffffffffffff1681526020019060010190808311612f55575b50505050508152602001600b820180548060200260200160405190810160405280929190818152602001828054801561302d57602002820191906000526020600020905b8160009054906101000a900473ffffffffffffffffffffffffffffffffffffffff1673ffffffffffffffffffffffffffffffffffffffff1681526020019060010190808311612fe3575b5050505050815250509050919050565b6001816000016000828254019250508190555050565b600081600001549050919050565b6000600360008373ffffffffffffffffffffffffffffffffffffffff1673ffffffffffffffffffffffffffffffffffffffff1681526020019081526020016000206008019050600080600090505b82805490508110156130fa57848382815481106130cf576130ce614e3b565b5b9060005260206000200154036130e7578091506130fa565b80806130f290614eef565b9150506130af565b5060008190505b600183805490506131129190614f37565b81101561317757826001826131279190614e99565b8154811061313857613137614e3b565b5b906000526020600020015483828154811061315657613155614e3b565b5b9060005260206000200181905550808061316f90614eef565b915050613101565b508180548061318957613188614f6b565b5b6001900381819060005260206000200160009055905550505050565b8280548282559060005260206000209081019282156131ed579160200282015b828111156131ec5782518290816131dc9190614796565b50916020019190600101906131c5565b5b5090506131fa919061347b565b5090565b82805482825590600052602060002090810192821561323f5760005260206000209182015b8281111561323e578254825591600101919060010190613223565b5b50905061324c919061349f565b5090565b8280548282559060005260206000209081019282156132915760005260206000209182015b82811115613290578254825591600101919060010190613275565b5b50905061329e91906134bc565b5090565b8280548282559060005260206000209081019282156132ee5760005260206000209182015b828111156132ed57828290816132dd9190614a15565b50916001019190600101906132c7565b5b5090506132fb919061347b565b5090565b50805461330b906145b9565b6000825580601f1061331d575061333c565b601f01602090049060005260206000209081019061333b91906134bc565b5b50565b508054600082559060005260206000209081019061335d919061347b565b50565b604051806101c001604052806060815260200160008019168152602001600081526020016060815260200160001515815260200160001515815260200160008152602001600073ffffffffffffffffffffffffffffffffffffffff168152602001600073ffffffffffffffffffffffffffffffffffffffff168152602001606081526020016000815260200160008152602001600015158152602001600081525090565b604051806101800160405280606081526020016060815260200160608152602001606081526020016060815260200160608152602001600081526020016000815260200160608152602001600073ffffffffffffffffffffffffffffffffffffffff16815260200160608152602001606081525090565b5b8082111561349b576000818161349291906132ff565b5060010161347c565b5090565b5b808211156134b85760008160009055506001016134a0565b5090565b5b808211156134d55760008160009055506001016134bd565b5090565b6000819050919050565b6134ec816134d9565b82525050565b600060208201905061350760008301846134e3565b92915050565b6000604051905090565b600080fd5b600080fd5b600080fd5b600080fd5b6000601f19601f8301169050919050565b7f4e487b7100000000000000000000000000000000000000000000000000000000600052604160045260246000fd5b6135748261352b565b810181811067ffffffffffffffff821117156135935761359261353c565b5b80604052505050565b60006135a661350d565b90506135b2828261356b565b919050565b600067ffffffffffffffff8211156135d2576135d161353c565b5b6135db8261352b565b9050602081019050919050565b82818337600083830152505050565b600061360a613605846135b7565b61359c565b90508281526020810184848401111561362657613625613526565b5b6136318482856135e8565b509392505050565b600082601f83011261364e5761364d613521565b5b813561365e8482602086016135f7565b91505092915050565b60008115159050919050565b61367c81613667565b811461368757600080fd5b50565b60008135905061369981613673565b92915050565b6136a8816134d9565b81146136b357600080fd5b50565b6000813590506136c58161369f565b92915050565b600073ffffffffffffffffffffffffffffffffffffffff82169050919050565b60006136f6826136cb565b9050919050565b613706816136eb565b811461371157600080fd5b50565b600081359050613723816136fd565b92915050565b60008060008060008060c0878903121561374657613745613517565b5b600087013567ffffffffffffffff8111156137645761376361351c565b5b61377089828a01613639565b965050602087013567ffffffffffffffff8111156137915761379061351c565b5b61379d89828a01613639565b95505060406137ae89828a0161368a565b94505060606137bf89828a016136b6565b93505060806137d089828a0161368a565b92505060a06137e189828a01613714565b9150509295509295509295565b6000819050919050565b613801816137ee565b82525050565b600060208201905061381c60008301846137f8565b92915050565b600080600080600080600060e0888a03121561384157613840613517565b5b600061384f8a828b01613714565b975050602088013567ffffffffffffffff8111156138705761386f61351c565b5b61387c8a828b01613639565b965050604088013567ffffffffffffffff81111561389d5761389c61351c565b5b6138a98a828b01613639565b955050606088013567ffffffffffffffff8111156138ca576138c961351c565b5b6138d68a828b01613639565b945050608088013567ffffffffffffffff8111156138f7576138f661351c565b5b6139038a828b01613639565b93505060a088013567ffffffffffffffff8111156139245761392361351c565b5b6139308a828b01613639565b92505060c088013567ffffffffffffffff8111156139515761395061351c565b5b61395d8a828b01613639565b91505092959891949750929550565b613975816137ee565b811461398057600080fd5b50565b6000813590506139928161396c565b92915050565b6000806000606084860312156139b1576139b0613517565b5b60006139bf86828701613714565b93505060206139d086828701613983565b92505060406139e186828701613714565b9150509250925092565b600080600060608486031215613a0457613a03613517565b5b6000613a1286828701613983565b9350506020613a238682870161368a565b9250506040613a3486828701613714565b9150509250925092565b600060208284031215613a5457613a53613517565b5b600082013567ffffffffffffffff811115613a7257613a7161351c565b5b613a7e84828501613639565b91505092915050565b600060208284031215613a9d57613a9c613517565b5b6000613aab84828501613714565b91505092915050565b600081519050919050565b600082825260208201905092915050565b6000819050602082019050919050565b600081519050919050565b600082825260208201905092915050565b60005b83811015613b1a578082015181840152602081019050613aff565b83811115613b29576000848401525b50505050565b6000613b3a82613ae0565b613b448185613aeb565b9350613b54818560208601613afc565b613b5d8161352b565b840191505092915050565b613b71816137ee565b82525050565b613b80816134d9565b82525050565b613b8f81613667565b82525050565b613b9e816136eb565b82525050565b6000613baf826136cb565b9050919050565b613bbf81613ba4565b82525050565b600081519050919050565b600082825260208201905092915050565b6000819050602082019050919050565b6000613bfd8383613b2f565b905092915050565b6000602082019050919050565b6000613c1d82613bc5565b613c278185613bd0565b935083602082028501613c3985613be1565b8060005b85811015613c755784840389528151613c568582613bf1565b9450613c6183613c05565b925060208a01995050600181019050613c3d565b50829750879550505050505092915050565b60006101c0830160008301518482036000860152613ca58282613b2f565b9150506020830151613cba6020860182613b68565b506040830151613ccd6040860182613b77565b5060608301518482036060860152613ce58282613b2f565b9150506080830151613cfa6080860182613b86565b5060a0830151613d0d60a0860182613b86565b5060c0830151613d2060c0860182613b77565b5060e0830151613d3360e0860182613b95565b50610100830151613d48610100860182613bb6565b50610120830151848203610120860152613d628282613c12565b915050610140830151613d79610140860182613b77565b50610160830151613d8e610160860182613b77565b50610180830151613da3610180860182613b86565b506101a0830151613db86101a0860182613b77565b508091505092915050565b6000613dcf8383613c87565b905092915050565b6000602082019050919050565b6000613def82613ab4565b613df98185613abf565b935083602082028501613e0b85613ad0565b8060005b85811015613e475784840389528151613e288582613dc3565b9450613e3383613dd7565b925060208a01995050600181019050613e0f565b50829750879550505050505092915050565b60006020820190508181036000830152613e738184613de4565b905092915050565b60008060008060808587031215613e9557613e94613517565b5b6000613ea387828801613714565b945050602085013567ffffffffffffffff811115613ec457613ec361351c565b5b613ed087828801613639565b9350506040613ee187828801613983565b9250506060613ef287828801613714565b91505092959194509250565b600081519050919050565b600082825260208201905092915050565b6000819050602082019050919050565b600081519050919050565b600082825260208201905092915050565b6000819050602082019050919050565b6000613f628383613b68565b60208301905092915050565b6000602082019050919050565b6000613f8682613f2a565b613f908185613f35565b9350613f9b83613f46565b8060005b83811015613fcc578151613fb38882613f56565b9750613fbe83613f6e565b925050600181019050613f9f565b5085935050505092915050565b600081519050919050565b600082825260208201905092915050565b6000819050602082019050919050565b60006140118383613b95565b60208301905092915050565b6000602082019050919050565b600061403582613fd9565b61403f8185613fe4565b935061404a83613ff5565b8060005b8381101561407b5781516140628882614005565b975061406d8361401d565b92505060018101905061404e565b5085935050505092915050565b60006101808301600083015184820360008601526140a68282613b2f565b915050602083015184820360208601526140c08282613b2f565b915050604083015184820360408601526140da8282613b2f565b915050606083015184820360608601526140f48282613b2f565b9150506080830151848203608086015261410e8282613b2f565b91505060a083015184820360a08601526141288282613b2f565b91505060c083015161413d60c0860182613b77565b5060e083015161415060e0860182613b77565b5061010083015184820361010086015261416a8282613f7b565b915050610120830151614181610120860182613b95565b5061014083015184820361014086015261419b828261402a565b9150506101608301518482036101608601526141b7828261402a565b9150508091505092915050565b60006141d08383614088565b905092915050565b6000602082019050919050565b60006141f082613efe565b6141fa8185613f09565b93508360208202850161420c85613f1a565b8060005b85811015614248578484038952815161422985826141c4565b9450614234836141d8565b925060208a01995050600181019050614210565b50829750879550505050505092915050565b6000602082019050818103600083015261427481846141e5565b905092915050565b61428581613667565b82525050565b60006020820190506142a0600083018461427c565b92915050565b60006101808301600083015184820360008601526142c48282613b2f565b915050602083015184820360208601526142de8282613b2f565b915050604083015184820360408601526142f88282613b2f565b915050606083015184820360608601526143128282613b2f565b9150506080830151848203608086015261432c8282613b2f565b91505060a083015184820360a08601526143468282613b2f565b91505060c083015161435b60c0860182613b77565b5060e083015161436e60e0860182613b77565b506101008301518482036101008601526143888282613f7b565b91505061012083015161439f610120860182613b95565b506101408301518482036101408601526143b9828261402a565b9150506101608301518482036101608601526143d5828261402a565b9150508091505092915050565b600060208201905081810360008301526143fc81846142a6565b905092915050565b600082825260208201905092915050565b7f5265656e7472616e637947756172643a207265656e7472616e742063616c6c00600082015250565b600061444b601f83614404565b915061445682614415565b602082019050919050565b6000602082019050818103600083015261447a8161443e565b9050919050565b7f55736572206e6f7420726567697374657265642e000000000000000000000000600082015250565b60006144b7601483614404565b91506144c282614481565b602082019050919050565b600060208201905081810360008301526144e6816144aa565b9050919050565b60006144f882613ae0565b6145028185614404565b9350614512818560208601613afc565b61451b8161352b565b840191505092915050565b6000602082019050818103600083015261454081846144ed565b905092915050565b6000815190506145578161369f565b92915050565b60006020828403121561457357614572613517565b5b600061458184828501614548565b91505092915050565b7f4e487b7100000000000000000000000000000000000000000000000000000000600052602260045260246000fd5b600060028204905060018216806145d157607f821691505b6020821081036145e4576145e361458a565b5b50919050565b60008190508160005260206000209050919050565b60006020601f8301049050919050565b600082821b905092915050565b60006008830261464c7fffffffffffffffffffffffffffffffffffffffffffffffffffffffffffffffff8261460f565b614656868361460f565b95508019841693508086168417925050509392505050565b6000819050919050565b600061469361468e614689846134d9565b61466e565b6134d9565b9050919050565b6000819050919050565b6146ad83614678565b6146c16146b98261469a565b84845461461c565b825550505050565b600090565b6146d66146c9565b6146e18184846146a4565b505050565b5b81811015614705576146fa6000826146ce565b6001810190506146e7565b5050565b601f82111561474a5761471b816145ea565b614724846145ff565b81016020851015614733578190505b61474761473f856145ff565b8301826146e6565b50505b505050565b600082821c905092915050565b600061476d6000198460080261474f565b1980831691505092915050565b6000614786838361475c565b9150826002028217905092915050565b61479f82613ae0565b67ffffffffffffffff8111156147b8576147b761353c565b5b6147c282546145b9565b6147cd828285614709565b600060209050601f83116001811461480057600084156147ee578287015190505b6147f8858261477a565b865550614860565b601f19841661480e866145ea565b60005b8281101561483657848901518255600182019150602085019450602081019050614811565b86831015614853578489015161484f601f89168261475c565b8355505b6001600288020188555050505b505050505050565b6000819050919050565b600061488d61488861488384614868565b61466e565b6134d9565b9050919050565b61489d81614872565b82525050565b6148ac816136eb565b82525050565b60006148cd6148c86148c3846136cb565b61466e565b6136cb565b9050919050565b60006148df826148b2565b9050919050565b60006148f1826148d4565b9050919050565b614901816148e6565b82525050565b6000610100820190508181036000830152614922818b6144ed565b90508181036020830152614936818a6144ed565b905061494560408301896137f8565b61495260608301886134e3565b61495f60808301876134e3565b61496c60a0830186614894565b61497960c08301856148a3565b61498660e08301846148f8565b9998505050505050505050565b7f5573657220616c72656164792065786973747300000000000000000000000000600082015250565b60006149c9601383614404565b91506149d482614993565b602082019050919050565b600060208201905081810360008301526149f8816149bc565b9050919050565b600081549050614a0e816145b9565b9050919050565b818103614a23575050614afb565b614a2c826149ff565b67ffffffffffffffff811115614a4557614a4461353c565b5b614a4f82546145b9565b614a5a828285614709565b6000601f831160018114614a895760008415614a77578287015490505b614a81858261477a565b865550614af4565b601f198416614a97876145ea565b9650614aa2866145ea565b60005b82811015614aca57848901548255600182019150600185019450602081019050614aa5565b86831015614ae75784890154614ae3601f89168261475c565b8355505b6001600288020188555050505b5050505050505b565b60008154614b0a816145b9565b614b148186614404565b94506001821660008114614b2f5760018114614b4557614b78565b60ff198316865281151560200286019350614b78565b614b4e856145ea565b60005b83811015614b7057815481890152600182019150602081019050614b51565b808801955050505b50505092915050565b60006080820190508181036000830152614b9b8187614afd565b90508181036020830152614baf8186614afd565b90508181036040830152614bc38185614afd565b9050614bd260608301846148a3565b95945050505050565b7f55736572206e6f74207265676973746572656400000000000000000000000000600082015250565b6000614c11601383614404565b9150614c1c82614bdb565b602082019050919050565b60006020820190508181036000830152614c4081614c04565b9050919050565b7f506f7374206973206e6f7420616e206e66740000000000000000000000000000600082015250565b6000614c7d601283614404565b9150614c8882614c47565b602082019050919050565b60006020820190508181036000830152614cac81614c70565b9050919050565b7f506f7374206e6f7420666f722073616c65000000000000000000000000000000600082015250565b6000614ce9601183614404565b9150614cf482614cb3565b602082019050919050565b60006020820190508181036000830152614d1881614cdc565b9050919050565b7f416d6f756e742073686f756c642062652067726561746572207468616e20626160008201527f7365207072696365206f662074686520706f73742e0000000000000000000000602082015250565b6000614d7b603583614404565b9150614d8682614d1f565b604082019050919050565b60006020820190508181036000830152614daa81614d6e565b9050919050565b6000606082019050614dc660008301866148a3565b614dd360208301856148a3565b614de060408301846134e3565b949350505050565b600081905092915050565b6000614dfe82613ae0565b614e088185614de8565b9350614e18818560208601613afc565b80840191505092915050565b6000614e308284614df3565b915081905092915050565b7f4e487b7100000000000000000000000000000000000000000000000000000000600052603260045260246000fd5b7f4e487b7100000000000000000000000000000000000000000000000000000000600052601160045260246000fd5b6000614ea4826134d9565b9150614eaf836134d9565b9250827fffffffffffffffffffffffffffffffffffffffffffffffffffffffffffffffff03821115614ee457614ee3614e6a565b5b828201905092915050565b6000614efa826134d9565b91507fffffffffffffffffffffffffffffffffffffffffffffffffffffffffffffffff8203614f2c57614f2b614e6a565b5b600182019050919050565b6000614f42826134d9565b9150614f4d836134d9565b925082821015614f6057614f5f614e6a565b5b828203905092915050565b7f4e487b7100000000000000000000000000000000000000000000000000000000600052603160045260246000fdfea2646970667358221220344fecad87a23f7e4e9db6fee155c5e19c4ef09b51c6ab3b370eaa9dcd44d12464736f6c634300080f0033",
  "immutableReferences": {},
  "source": "// SPDX-License-Identifier: GPL-3.0\n\npragma solidity >=0.7.0 <0.9.0;\n\nimport \"@openzeppelin/contracts/utils/Counters.sol\";\nimport \"@openzeppelin/contracts/utils/Counters.sol\";\nimport \"@openzeppelin/contracts/token/ERC721/extensions/ERC721URIStorage.sol\";\nimport \"@openzeppelin/contracts/security/ReentrancyGuard.sol\";\nimport \"@openzeppelin/contracts/token/ERC721/ERC721.sol\";\n\ncontract TrisNFT is ERC721URIStorage{\n    using Counters for Counters.Counter;\n    \n    constructor() ERC721(\"TrisNFT\", \"TRI\"){}   \n    Counters.Counter private _tokenId;\n    address contractAddress = address(this);\n\n    function mintToken(string memory tokenUri) public returns(uint256 itemId){\n        require(contractAddress == msg.sender, \"Only the marketplace contract can call this function\");\n        _tokenId.increment();\n        uint256 currentId = _tokenId.current();\n        _mint(contractAddress, currentId);\n        _setTokenURI(currentId, tokenUri);\n        return currentId;\n    }\n\n    function updateContractAddress( address marketPlaceAddress) public  {\n        require(contractAddress == address(this) || contractAddress == msg.sender, \"Address is already declared or only the  owner contract can change the address.\");\n        contractAddress = marketPlaceAddress;\n    }\n\n    function returnCurrentUser() public view returns(address){\n        return msg.sender;\n    }\n\n    /*\n        A custom function to transfer ownership from on owner to another.\n    */\n    function transferNft(address currOwner, address newOwner, uint tokenId) public {\n        transferFrom(currOwner, newOwner, tokenId);\n    }\n\n    function getLatestTokenId() public view returns(uint256 itemId){\n        return _tokenId.current();\n    }\n\n    function returnOwner(uint id) public view returns(address){\n        return ownerOf(id);\n    }\n}\n\ncontract UserContract is ReentrancyGuard{\n    using Counters for Counters.Counter;\n    Counters.Counter public userCount;\n    mapping(address => bool) public userIsRegistered;\n    mapping(address => User) private mapToUser;\n    address private trisNftAddress;\n    address private owner;\n    User[] private usersList;\n    Counters.Counter totalPostCount;\n    mapping(uint256 => Post) totalPost;\n    mapping(address => mapping(bytes32 => Post)) private _postsOfUsers;\n\n    constructor(address nftAddress, address ownerAddress){\n        trisNftAddress = nftAddress;\n        owner = ownerAddress;\n        TrisNFT(nftAddress).updateContractAddress(address(this));\n    }\n\n    \n\n    /*\n        User struct for storing user data. \n        name, userName, userAddress are required as in the UI the rest can be 0 or empty.\n     */\n    struct User{\n        string name;\n        string userName;\n        string avatarUrl;\n        string bio;\n        string wallUrl;\n        string email;\n        uint256 followersCount;\n        uint256 followingCount;\n        bytes32[] postCount;\n        address userAddress;\n        address[] followers;\n        address[] following;\n    }\n\n    /*\n        Post struct for storing the posts of each user.\n        The token id connects post to the nft in ./Tris_NFT.sol\n\n        A post can be either NFT or a regular post\n     */\n    struct Post{\n        string post;\n        bytes32 postId;\n        uint256 likes;\n        string title;\n        bool isForSale;\n        bool postIsBought;\n        uint256 commentsCount;\n        address owner;\n        address payable seller;\n        string[] comments;\n        uint256 priceByOwner;\n        uint256 basePrice;\n        bool isNft;\n        uint256 tokenId;\n    }\n\n    /*\n        Events \n     */\n    event UserCreated (string name, string userName, string avatarUrl, address userAddress);\n    event PostUploaded(string title, string post, bytes32 postId, uint256 tokenId, uint256 priceByOwner, uint256 basePrice, address owner, address seller);\n    event PostSold(string post, address owner, address seller, uint256 price);\n\n    function createUser(address account, string memory name, string memory userName, string memory avatarUrl, string memory email, string memory bio, string memory wallUrl) public {\n        require(userIsRegistered[account] != true, \"User already exists\");\n        User storage userData = mapToUser[account];\n        userData.name = name;\n        userData.userName = userName;\n        userData.avatarUrl = avatarUrl;\n        userData.bio = bio;\n        userData.wallUrl = wallUrl;\n        userData.userAddress = account;\n        userData.email = email;\n        userCount.increment();\n        userIsRegistered[account] = true;\n        usersList.push(userData);\n        emit UserCreated(userData.name, userData.userName, userData.avatarUrl, userData.userAddress);\n    }\n\n    /*\n        Function to upload post. This requires the post parameters, \n        and uploads the post as either nft or a regular post.\n    */\n    function uploadPost(string memory title, string memory post, bool isNft, uint256 priceByOwner, bool isForSale, address account) public nonReentrant returns(bytes32){\n        require(userIsRegistered[account] == true, \"User not registered.\");\n        User storage currUser = mapToUser[account];\n\n        uint256 tokenId;\n\n        if(isNft){\n            tokenId = TrisNFT(trisNftAddress).mintToken(post);\n        }\n\n        currUser.postCount.push(callKeccak256(post));\n        Post memory currPost = Post(\n            {\n                post: post,\n                postId: callKeccak256(post),\n                likes: 0,\n                title: title,\n                postIsBought: false,\n                isForSale: isNft ? isForSale : false,\n                isNft: isNft,\n                commentsCount: 0,\n                priceByOwner: isNft ? priceByOwner : 0,\n                comments: new string[](0),\n                tokenId: isNft ? tokenId : 0,\n                basePrice: isNft ? 10 : 0,\n                owner: isNft ? (address(this)) : (address(0)),\n                seller: isNft ? payable(account) : payable(address(0))\n            }\n        );\n        totalPostCount.increment();\n        totalPost[totalPostCount.current()] = currPost;\n        _postsOfUsers[account][callKeccak256(post)] = currPost;\n        emit PostUploaded(currPost.title, currPost.post, currPost.postId, currPost.tokenId, priceByOwner, 10, currPost.owner, currPost.seller);\n        return currPost.postId;\n    }\n\n\n    /*\n        Dedicated function to buy/sell nfts before selling the nft owner should make sure he has \n        made the NFT avaialbe for sale and the post is NFT. \n        Before call this function the transferNFT in TrisNFT contract should be called to transfer the ownership.\n        That function can't be called form this function because that checks for msg.sender to be equal to \n        post owner but when called from here msg.sender is the address of this contract and not the owner.\n        - If the post is already sold then it will be checked in the frontend throught the postIsBought parameter\n          only if the postIsBought turns out to be true then the the method in the TrisNft will be called.\n    */\n    function buyPost(address ownerAddress, bytes32 postId, address newOwnerAddress) public payable nonReentrant{\n        Post storage currPost = _postsOfUsers[ownerAddress][postId];\n        require(userIsRegistered[newOwnerAddress] == true, \"User not registered\");\n        require(currPost.isNft == true, \"Post is not an nft\");\n        require(userIsRegistered[ownerAddress] == true, \"User not registered\");\n        require(currPost.isForSale == true, \"Post not for sale\");\n        uint256 price = msg.value;\n        User storage newUser = mapToUser[newOwnerAddress];\n        require(price >= currPost.basePrice, \"Amount should be greater than base price of the post.\");\n        if(currPost.postIsBought == false){\n            IERC721(trisNftAddress).transferFrom(address(this), newOwnerAddress, currPost.tokenId);\n        }\n        currPost.seller.transfer(msg.value);\n        currPost.owner = (newOwnerAddress);\n        currPost.seller = payable(newOwnerAddress);\n        removePost(postId, ownerAddress);\n        currPost.postIsBought = true;\n        _postsOfUsers[newOwnerAddress][postId] = currPost;\n        delete _postsOfUsers[ownerAddress][postId];\n        newUser.postCount.push(postId);\n    }\n\n    function getUserList() public view returns(User[] memory){\n        return usersList;\n    }\n\n    function updatePostForSale(bytes32 id, bool isForSale, address account) public {\n        require(userIsRegistered[account] == true, \"User not registered\");\n        _postsOfUsers[account][id].isForSale = isForSale;\n    }\n\n    \n\n    function getUserPosts(address sender) public view returns (Post[] memory userPosts){\n        require(userIsRegistered[sender] == true, \"User not registered.\");\n        User storage currUser = mapToUser[sender];\n        uint userPostCount = currUser.postCount.length;\n        Post[] memory currUserPosts = new Post[](userPostCount);\n        uint currentIndex = 0;\n        for(uint i = 0; i < userPostCount; i++){\n           Post storage currPost = _postsOfUsers[sender][currUser.postCount[currentIndex]];\n           currUserPosts[currentIndex] = currPost;\n           currentIndex += 1;\n        }\n\n        return currUserPosts;\n    }\n\n    function removePost(bytes32 postId, address postOwner) internal {\n        bytes32[] storage postCount = mapToUser[postOwner].postCount;\n        uint index;\n        for(uint i = 0; i < postCount.length; i++){\n            if(postCount[i] == postId){\n                index = i;\n                break;\n            }\n        }\n        for(uint i = index; i < postCount.length - 1; i++){\n            postCount[i] = postCount[i + 1];\n        }\n        postCount.pop();\n    }\n\n    function likePost(address postOwner, bytes32 postId, address userAddress) public {\n        require(userIsRegistered[userAddress] == true, \"User not registered\");\n        Post storage currPost = _postsOfUsers[postOwner][postId];\n        currPost.likes += 1;\n    }\n\n    function postComment( address postOwner, string memory comment, bytes32 postId, address sender ) public {\n        require(userIsRegistered[sender] == true, \"User not registered\");\n        Post storage currPost = _postsOfUsers[postOwner][postId];\n        currPost.commentsCount += 1;\n        currPost.comments.push(comment);\n    }\n\n    function getAllPost(address userAddress) public view returns(Post[] memory){\n        require(userIsRegistered[userAddress] == true, \"User not registered.\");\n        uint256 allPostCount = totalPostCount.current();\n        uint256 currentIndex = 0;\n        Post[] memory posts = new Post[](allPostCount);\n        for(uint i = 1; i <= allPostCount; i++){\n            Post storage currPost = totalPost[i];\n            posts[currentIndex] = currPost;\n            currentIndex += 1;\n        }\n        return posts;\n    } \n\n    function getUserData(address account) public view returns(User memory){\n        require(userIsRegistered[account] == true, \"User not registered.\");\n        return mapToUser[account];\n    } \n\n    function callKeccak256(string memory post) public pure returns( bytes32 result){\n      return keccak256(abi.encodePacked(post));\n   }  \n\n}\n",
  "sourcePath": "/home/astar/Documents/tris/contracts/User.sol",
  "compiler": {
    "name": "solc",
    "version": "0.8.15+commit.e14f2714.Emscripten.clang"
  },
  "schemaVersion": "3.4.8",
  "updatedAt": "2022-08-03T08:38:42.818Z",
  "networkType": "ethereum",
  "devdoc": {
    "kind": "dev",
    "methods": {},
    "version": 1
  },
  "userdoc": {
    "kind": "user",
    "methods": {},
    "version": 1
  }
}