{
  "contractName": "UserContract",
  "abi": [
    {
      "inputs": [
        {
          "internalType": "address",
          "name": "nftAddress",
          "type": "address"
        },
        {
          "internalType": "address",
          "name": "ownerAddress",
          "type": "address"
        }
      ],
      "stateMutability": "nonpayable",
      "type": "constructor"
    },
    {
      "anonymous": false,
      "inputs": [
        {
          "indexed": false,
          "internalType": "string",
          "name": "post",
          "type": "string"
        },
        {
          "indexed": false,
          "internalType": "address",
          "name": "owner",
          "type": "address"
        },
        {
          "indexed": false,
          "internalType": "address",
          "name": "seller",
          "type": "address"
        },
        {
          "indexed": false,
          "internalType": "uint256",
          "name": "price",
          "type": "uint256"
        }
      ],
      "name": "PostSold",
      "type": "event"
    },
    {
      "anonymous": false,
      "inputs": [
        {
          "indexed": false,
          "internalType": "string",
          "name": "title",
          "type": "string"
        },
        {
          "indexed": false,
          "internalType": "string",
          "name": "post",
          "type": "string"
        },
        {
          "indexed": false,
          "internalType": "bytes32",
          "name": "postId",
          "type": "bytes32"
        },
        {
          "indexed": false,
          "internalType": "uint256",
          "name": "tokenId",
          "type": "uint256"
        },
        {
          "indexed": false,
          "internalType": "uint256",
          "name": "priceByOwner",
          "type": "uint256"
        },
        {
          "indexed": false,
          "internalType": "uint256",
          "name": "basePrice",
          "type": "uint256"
        },
        {
          "indexed": false,
          "internalType": "address",
          "name": "owner",
          "type": "address"
        },
        {
          "indexed": false,
          "internalType": "address",
          "name": "seller",
          "type": "address"
        }
      ],
      "name": "PostUploaded",
      "type": "event"
    },
    {
      "anonymous": false,
      "inputs": [
        {
          "indexed": false,
          "internalType": "string",
          "name": "name",
          "type": "string"
        },
        {
          "indexed": false,
          "internalType": "string",
          "name": "userName",
          "type": "string"
        },
        {
          "indexed": false,
          "internalType": "string",
          "name": "avatarUrl",
          "type": "string"
        },
        {
          "indexed": false,
          "internalType": "address",
          "name": "userAddress",
          "type": "address"
        }
      ],
      "name": "UserCreated",
      "type": "event"
    },
    {
      "inputs": [],
      "name": "userCount",
      "outputs": [
        {
          "internalType": "uint256",
          "name": "_value",
          "type": "uint256"
        }
      ],
      "stateMutability": "view",
      "type": "function"
    },
    {
      "inputs": [
        {
          "internalType": "address",
          "name": "",
          "type": "address"
        }
      ],
      "name": "userIsRegistered",
      "outputs": [
        {
          "internalType": "bool",
          "name": "",
          "type": "bool"
        }
      ],
      "stateMutability": "view",
      "type": "function"
    },
    {
      "inputs": [
        {
          "internalType": "address",
          "name": "account",
          "type": "address"
        },
        {
          "internalType": "string",
          "name": "name",
          "type": "string"
        },
        {
          "internalType": "string",
          "name": "userName",
          "type": "string"
        },
        {
          "internalType": "string",
          "name": "avatarUrl",
          "type": "string"
        },
        {
          "internalType": "string",
          "name": "email",
          "type": "string"
        },
        {
          "internalType": "string",
          "name": "bio",
          "type": "string"
        },
        {
          "internalType": "string",
          "name": "wallUrl",
          "type": "string"
        }
      ],
      "name": "createUser",
      "outputs": [],
      "stateMutability": "nonpayable",
      "type": "function"
    },
    {
      "inputs": [
        {
          "internalType": "string",
          "name": "title",
          "type": "string"
        },
        {
          "internalType": "string",
          "name": "post",
          "type": "string"
        },
        {
          "internalType": "bool",
          "name": "isNft",
          "type": "bool"
        },
        {
          "internalType": "uint256",
          "name": "priceByOwner",
          "type": "uint256"
        },
        {
          "internalType": "bool",
          "name": "isForSale",
          "type": "bool"
        },
        {
          "internalType": "address",
          "name": "account",
          "type": "address"
        }
      ],
      "name": "uploadPost",
      "outputs": [],
      "stateMutability": "nonpayable",
      "type": "function"
    },
    {
      "inputs": [
        {
          "internalType": "address",
          "name": "ownerAddress",
          "type": "address"
        },
        {
          "internalType": "bytes32",
          "name": "postId",
          "type": "bytes32"
        },
        {
          "internalType": "address",
          "name": "newOwnerAddress",
          "type": "address"
        }
      ],
      "name": "buyPost",
      "outputs": [],
      "stateMutability": "payable",
      "type": "function"
    },
    {
      "inputs": [],
      "name": "getUserList",
      "outputs": [
        {
          "components": [
            {
              "internalType": "string",
              "name": "name",
              "type": "string"
            },
            {
              "internalType": "string",
              "name": "userName",
              "type": "string"
            },
            {
              "internalType": "string",
              "name": "avatarUrl",
              "type": "string"
            },
            {
              "internalType": "string",
              "name": "bio",
              "type": "string"
            },
            {
              "internalType": "string",
              "name": "wallUrl",
              "type": "string"
            },
            {
              "internalType": "string",
              "name": "email",
              "type": "string"
            },
            {
              "internalType": "uint256",
              "name": "followersCount",
              "type": "uint256"
            },
            {
              "internalType": "uint256",
              "name": "followingCount",
              "type": "uint256"
            },
            {
              "internalType": "bytes32[]",
              "name": "postCount",
              "type": "bytes32[]"
            },
            {
              "internalType": "address",
              "name": "userAddress",
              "type": "address"
            },
            {
              "internalType": "address[]",
              "name": "followers",
              "type": "address[]"
            },
            {
              "internalType": "address[]",
              "name": "following",
              "type": "address[]"
            }
          ],
          "internalType": "struct UserContract.User[]",
          "name": "",
          "type": "tuple[]"
        }
      ],
      "stateMutability": "view",
      "type": "function"
    },
    {
      "inputs": [
        {
          "internalType": "bytes32",
          "name": "id",
          "type": "bytes32"
        },
        {
          "internalType": "bool",
          "name": "isForSale",
          "type": "bool"
        },
        {
          "internalType": "address",
          "name": "account",
          "type": "address"
        }
      ],
      "name": "updatePostForSale",
      "outputs": [],
      "stateMutability": "nonpayable",
      "type": "function"
    },
    {
      "inputs": [
        {
          "internalType": "address",
          "name": "sender",
          "type": "address"
        }
      ],
      "name": "getUserPosts",
      "outputs": [
        {
          "components": [
            {
              "internalType": "string",
              "name": "post",
              "type": "string"
            },
            {
              "internalType": "bytes32",
              "name": "postId",
              "type": "bytes32"
            },
            {
              "internalType": "uint256",
              "name": "likes",
              "type": "uint256"
            },
            {
              "internalType": "string",
              "name": "title",
              "type": "string"
            },
            {
              "internalType": "bool",
              "name": "isForSale",
              "type": "bool"
            },
            {
              "internalType": "bool",
              "name": "postIsBought",
              "type": "bool"
            },
            {
              "internalType": "uint256",
              "name": "commentsCount",
              "type": "uint256"
            },
            {
              "internalType": "address",
              "name": "owner",
              "type": "address"
            },
            {
              "internalType": "address payable",
              "name": "seller",
              "type": "address"
            },
            {
              "internalType": "string[]",
              "name": "comments",
              "type": "string[]"
            },
            {
              "internalType": "uint256",
              "name": "priceByOwner",
              "type": "uint256"
            },
            {
              "internalType": "uint256",
              "name": "basePrice",
              "type": "uint256"
            },
            {
              "internalType": "bool",
              "name": "isNft",
              "type": "bool"
            },
            {
              "internalType": "uint256",
              "name": "tokenId",
              "type": "uint256"
            }
          ],
          "internalType": "struct UserContract.Post[]",
          "name": "userPosts",
          "type": "tuple[]"
        }
      ],
      "stateMutability": "view",
      "type": "function"
    },
    {
      "inputs": [
        {
          "internalType": "address",
          "name": "postOwner",
          "type": "address"
        },
        {
          "internalType": "bytes32",
          "name": "postId",
          "type": "bytes32"
        },
        {
          "internalType": "address",
          "name": "userAddress",
          "type": "address"
        }
      ],
      "name": "likePost",
      "outputs": [],
      "stateMutability": "nonpayable",
      "type": "function"
    },
    {
      "inputs": [
        {
          "internalType": "address",
          "name": "postOwner",
          "type": "address"
        },
        {
          "internalType": "string",
          "name": "comment",
          "type": "string"
        },
        {
          "internalType": "bytes32",
          "name": "postId",
          "type": "bytes32"
        },
        {
          "internalType": "address",
          "name": "sender",
          "type": "address"
        }
      ],
      "name": "postComment",
      "outputs": [],
      "stateMutability": "nonpayable",
      "type": "function"
    },
    {
      "inputs": [
        {
          "internalType": "address",
          "name": "account",
          "type": "address"
        }
      ],
      "name": "getUserData",
      "outputs": [
        {
          "components": [
            {
              "internalType": "string",
              "name": "name",
              "type": "string"
            },
            {
              "internalType": "string",
              "name": "userName",
              "type": "string"
            },
            {
              "internalType": "string",
              "name": "avatarUrl",
              "type": "string"
            },
            {
              "internalType": "string",
              "name": "bio",
              "type": "string"
            },
            {
              "internalType": "string",
              "name": "wallUrl",
              "type": "string"
            },
            {
              "internalType": "string",
              "name": "email",
              "type": "string"
            },
            {
              "internalType": "uint256",
              "name": "followersCount",
              "type": "uint256"
            },
            {
              "internalType": "uint256",
              "name": "followingCount",
              "type": "uint256"
            },
            {
              "internalType": "bytes32[]",
              "name": "postCount",
              "type": "bytes32[]"
            },
            {
              "internalType": "address",
              "name": "userAddress",
              "type": "address"
            },
            {
              "internalType": "address[]",
              "name": "followers",
              "type": "address[]"
            },
            {
              "internalType": "address[]",
              "name": "following",
              "type": "address[]"
            }
          ],
          "internalType": "struct UserContract.User",
          "name": "",
          "type": "tuple"
        }
      ],
      "stateMutability": "view",
      "type": "function"
    },
    {
      "inputs": [
        {
          "internalType": "string",
          "name": "post",
          "type": "string"
        }
      ],
      "name": "callKeccak256",
      "outputs": [
        {
          "internalType": "bytes32",
          "name": "result",
          "type": "bytes32"
        }
      ],
      "stateMutability": "pure",
      "type": "function"
    }
  ],
  "bytecode": "0x60806040523480156200001157600080fd5b5060405162004b1e38038062004b1e8339818101604052810190620000379190620001a2565b600160008190555081600460006101000a81548173ffffffffffffffffffffffffffffffffffffffff021916908373ffffffffffffffffffffffffffffffffffffffff16021790555080600560006101000a81548173ffffffffffffffffffffffffffffffffffffffff021916908373ffffffffffffffffffffffffffffffffffffffff1602179055508173ffffffffffffffffffffffffffffffffffffffff1663bdf3e088306040518263ffffffff1660e01b8152600401620000fc9190620001fa565b600060405180830381600087803b1580156200011757600080fd5b505af11580156200012c573d6000803e3d6000fd5b50505050505062000217565b600080fd5b600073ffffffffffffffffffffffffffffffffffffffff82169050919050565b60006200016a826200013d565b9050919050565b6200017c816200015d565b81146200018857600080fd5b50565b6000815190506200019c8162000171565b92915050565b60008060408385031215620001bc57620001bb62000138565b5b6000620001cc858286016200018b565b9250506020620001df858286016200018b565b9150509250929050565b620001f4816200015d565b82525050565b6000602082019050620002116000830184620001e9565b92915050565b6148f780620002276000396000f3fe6080604052600436106100a75760003560e01c80639a2194a9116100645780639a2194a9146101ab578063a4b24674146101e8578063b852204314610211578063cb2244111461023c578063f6f1971514610265578063ffc9896b146102a2576100a7565b806307973ccf146100ac57806308acdddf146100d75780632b946252146101005780634546a98e146101295780635c8557fd146101455780636c216d061461016e575b600080fd5b3480156100b857600080fd5b506100c16102df565b6040516100ce9190612e19565b60405180910390f35b3480156100e357600080fd5b506100fe60048036038101906100f99190613050565b6102eb565b005b34801561010c57600080fd5b5061012760048036038101906101229190613115565b610871565b005b610143600480360381019061013e9190613295565b610c38565b005b34801561015157600080fd5b5061016c600480360381019061016791906132e8565b6114a7565b005b34801561017a57600080fd5b506101956004803603810190610190919061333b565b6115aa565b6040516101a29190613393565b60405180910390f35b3480156101b757600080fd5b506101d260048036038101906101cd91906133ae565b6115da565b6040516101df9190613780565b60405180910390f35b3480156101f457600080fd5b5061020f600480360381019061020a91906137a2565b611b27565b005b34801561021d57600080fd5b50610226611c68565b6040516102339190613b81565b60405180910390f35b34801561024857600080fd5b50610263600480360381019061025e9190613295565b612212565b005b34801561027157600080fd5b5061028c600480360381019061028791906133ae565b61231b565b6040516102999190613bb2565b60405180910390f35b3480156102ae57600080fd5b506102c960048036038101906102c491906133ae565b61233b565b6040516102d69190613d09565b60405180910390f35b60018060000154905081565b600260005403610330576040517f08c379a000000000000000000000000000000000000000000000000000000000815260040161032790613d88565b60405180910390fd5b600260008190555060011515600260008373ffffffffffffffffffffffffffffffffffffffff1673ffffffffffffffffffffffffffffffffffffffff16815260200190815260200160002060009054906101000a900460ff161515146103cb576040517f08c379a00000000000000000000000000000000000000000000000000000000081526004016103c290613df4565b60405180910390fd5b6000600360008373ffffffffffffffffffffffffffffffffffffffff1673ffffffffffffffffffffffffffffffffffffffff1681526020019081526020016000209050600085156104b757600460009054906101000a900473ffffffffffffffffffffffffffffffffffffffff1673ffffffffffffffffffffffffffffffffffffffff166333eba49a886040518263ffffffff1660e01b81526004016104719190613e4d565b6020604051808303816000875af1158015610490573d6000803e3d6000fd5b505050506040513d601f19601f820116820180604052508101906104b49190613e84565b90505b816008016104c4886115aa565b90806001815401808255809150506001900390600052602060002001600090919091909150556000604051806101c001604052808981526020016105078a6115aa565b8152602001600081526020018a815260200188610525576000610527565b865b15158152602001600015158152602001600081526020018861054a57600061054c565b305b73ffffffffffffffffffffffffffffffffffffffff16815260200188610573576000610575565b855b73ffffffffffffffffffffffffffffffffffffffff168152602001600067ffffffffffffffff8111156105ab576105aa612e63565b5b6040519080825280602002602001820160405280156105de57816020015b60608152602001906001900390816105c95790505b508152602001886105f05760006105f2565b875b815260200188610603576000610606565b600a5b60ff168152602001881515815260200188610622576000610624565b835b815250905080600760008673ffffffffffffffffffffffffffffffffffffffff1673ffffffffffffffffffffffffffffffffffffffff16815260200190815260200160002060006106748b6115aa565b8152602001908152602001600020600082015181600001908161069791906140bd565b50602082015181600101556040820151816002015560608201518160030190816106c191906140bd565b5060808201518160040160006101000a81548160ff02191690831515021790555060a08201518160040160016101000a81548160ff02191690831515021790555060c0820151816005015560e08201518160060160006101000a81548173ffffffffffffffffffffffffffffffffffffffff021916908373ffffffffffffffffffffffffffffffffffffffff1602179055506101008201518160070160006101000a81548173ffffffffffffffffffffffffffffffffffffffff021916908373ffffffffffffffffffffffffffffffffffffffff1602179055506101208201518160080190805190602001906107b8929190612acc565b50610140820151816009015561016082015181600a015561018082015181600b0160006101000a81548160ff0219169083151502179055506101a082015181600c01559050507f72d2ff68e942d073bdcb19dbadc9e768208026219f8d884b765175ff7f671a9c816060015182600001518360200151846101a001518a600a8760e0015188610100015160405161085698979695949392919061422e565b60405180910390a15050506001600081905550505050505050565b60011515600260008973ffffffffffffffffffffffffffffffffffffffff1673ffffffffffffffffffffffffffffffffffffffff16815260200190815260200160002060009054906101000a900460ff16151503610904576040517f08c379a00000000000000000000000000000000000000000000000000000000081526004016108fb90614306565b60405180910390fd5b6000600360008973ffffffffffffffffffffffffffffffffffffffff1673ffffffffffffffffffffffffffffffffffffffff16815260200190815260200160002090508681600001908161095891906140bd565b508581600101908161096a91906140bd565b508481600201908161097c91906140bd565b508281600301908161098e91906140bd565b50818160040190816109a091906140bd565b50878160090160006101000a81548173ffffffffffffffffffffffffffffffffffffffff021916908373ffffffffffffffffffffffffffffffffffffffff160217905550838160050190816109f591906140bd565b50610a006001612972565b6001600260008a73ffffffffffffffffffffffffffffffffffffffff1673ffffffffffffffffffffffffffffffffffffffff16815260200190815260200160002060006101000a81548160ff02191690831515021790555060068190806001815401808255809150506001900390600052602060002090600c020160009091909190915060008201816000019081610a98919061433c565b5060018201816001019081610aad919061433c565b5060028201816002019081610ac2919061433c565b5060038201816003019081610ad7919061433c565b5060048201816004019081610aec919061433c565b5060058201816005019081610b01919061433c565b5060068201548160060155600782015481600701556008820181600801908054610b2c929190612b25565b506009820160009054906101000a900473ffffffffffffffffffffffffffffffffffffffff168160090160006101000a81548173ffffffffffffffffffffffffffffffffffffffff021916908373ffffffffffffffffffffffffffffffffffffffff160217905550600a820181600a01908054610baa929190612b77565b50600b820181600b01908054610bc1929190612b77565b5050507f3500268ebdfdd25b305294ab9516187c34eb908aa8b91d7a48ea6ccfafe4158a8160000182600101836002018460090160009054906101000a900473ffffffffffffffffffffffffffffffffffffffff16604051610c2694939291906144a8565b60405180910390a15050505050505050565b600260005403610c7d576040517f08c379a0000000000000000000000000000000000000000000000000000000008152600401610c7490613d88565b60405180910390fd5b60026000819055506000600760008573ffffffffffffffffffffffffffffffffffffffff1673ffffffffffffffffffffffffffffffffffffffff1681526020019081526020016000206000848152602001908152602001600020905060011515600260008473ffffffffffffffffffffffffffffffffffffffff1673ffffffffffffffffffffffffffffffffffffffff16815260200190815260200160002060009054906101000a900460ff16151514610d6c576040517f08c379a0000000000000000000000000000000000000000000000000000000008152600401610d639061454e565b60405180910390fd5b6001151581600b0160009054906101000a900460ff16151514610dc4576040517f08c379a0000000000000000000000000000000000000000000000000000000008152600401610dbb906145ba565b60405180910390fd5b60011515600260008673ffffffffffffffffffffffffffffffffffffffff1673ffffffffffffffffffffffffffffffffffffffff16815260200190815260200160002060009054906101000a900460ff16151514610e57576040517f08c379a0000000000000000000000000000000000000000000000000000000008152600401610e4e9061454e565b60405180910390fd5b600115158160040160009054906101000a900460ff16151514610eaf576040517f08c379a0000000000000000000000000000000000000000000000000000000008152600401610ea690614626565b60405180910390fd5b60003490506000600360008573ffffffffffffffffffffffffffffffffffffffff1673ffffffffffffffffffffffffffffffffffffffff168152602001908152602001600020905082600a0154821015610f3e576040517f08c379a0000000000000000000000000000000000000000000000000000000008152600401610f35906146b8565b60405180910390fd5b600015158360040160019054906101000a900460ff16151503610ff157600460009054906101000a900473ffffffffffffffffffffffffffffffffffffffff1673ffffffffffffffffffffffffffffffffffffffff166323b872dd308686600c01546040518463ffffffff1660e01b8152600401610fbe939291906146d8565b600060405180830381600087803b158015610fd857600080fd5b505af1158015610fec573d6000803e3d6000fd5b505050505b8260070160009054906101000a900473ffffffffffffffffffffffffffffffffffffffff1673ffffffffffffffffffffffffffffffffffffffff166108fc349081150290604051600060405180830381858888f1935050505015801561105b573d6000803e3d6000fd5b50838360060160006101000a81548173ffffffffffffffffffffffffffffffffffffffff021916908373ffffffffffffffffffffffffffffffffffffffff160217905550838360070160006101000a81548173ffffffffffffffffffffffffffffffffffffffff021916908373ffffffffffffffffffffffffffffffffffffffff1602179055506110ec8587612988565b60018360040160016101000a81548160ff02191690831515021790555082600760008673ffffffffffffffffffffffffffffffffffffffff1673ffffffffffffffffffffffffffffffffffffffff16815260200190815260200160002060008781526020019081526020016000206000820181600001908161116e919061433c565b50600182015481600101556002820154816002015560038201816003019081611197919061433c565b506004820160009054906101000a900460ff168160040160006101000a81548160ff0219169083151502179055506004820160019054906101000a900460ff168160040160016101000a81548160ff021916908315150217905550600582015481600501556006820160009054906101000a900473ffffffffffffffffffffffffffffffffffffffff168160060160006101000a81548173ffffffffffffffffffffffffffffffffffffffff021916908373ffffffffffffffffffffffffffffffffffffffff1602179055506007820160009054906101000a900473ffffffffffffffffffffffffffffffffffffffff168160070160006101000a81548173ffffffffffffffffffffffffffffffffffffffff021916908373ffffffffffffffffffffffffffffffffffffffff16021790555060088201816008019080546112e0929190612bc9565b5060098201548160090155600a82015481600a0155600b820160009054906101000a900460ff1681600b0160006101000a81548160ff021916908315150217905550600c82015481600c0155905050600760008773ffffffffffffffffffffffffffffffffffffffff1673ffffffffffffffffffffffffffffffffffffffff1681526020019081526020016000206000868152602001908152602001600020600080820160006113909190612c26565b600182016000905560028201600090556003820160006113b09190612c26565b6004820160006101000a81549060ff02191690556004820160016101000a81549060ff021916905560058201600090556006820160006101000a81549073ffffffffffffffffffffffffffffffffffffffff02191690556007820160006101000a81549073ffffffffffffffffffffffffffffffffffffffff021916905560088201600061143e9190612c66565b6009820160009055600a820160009055600b820160006101000a81549060ff0219169055600c8201600090555050806008018590806001815401808255809150506001900390600052602060002001600090919091909150555050506001600081905550505050565b60011515600260008373ffffffffffffffffffffffffffffffffffffffff1673ffffffffffffffffffffffffffffffffffffffff16815260200190815260200160002060009054906101000a900460ff1615151461153a576040517f08c379a00000000000000000000000000000000000000000000000000000000081526004016115319061454e565b60405180910390fd5b81600760008373ffffffffffffffffffffffffffffffffffffffff1673ffffffffffffffffffffffffffffffffffffffff168152602001908152602001600020600085815260200190815260200160002060040160006101000a81548160ff021916908315150217905550505050565b6000816040516020016115bd919061474b565b604051602081830303815290604052805190602001209050919050565b606060011515600260008473ffffffffffffffffffffffffffffffffffffffff1673ffffffffffffffffffffffffffffffffffffffff16815260200190815260200160002060009054906101000a900460ff1615151461166f576040517f08c379a000000000000000000000000000000000000000000000000000000000815260040161166690613df4565b60405180910390fd5b6000600360008473ffffffffffffffffffffffffffffffffffffffff1673ffffffffffffffffffffffffffffffffffffffff168152602001908152602001600020905060008160080180549050905060008167ffffffffffffffff8111156116da576116d9612e63565b5b60405190808252806020026020018201604052801561171357816020015b611700612c87565b8152602001906001900390816116f85790505b5090506000805b83811015611b1a576000600760008973ffffffffffffffffffffffffffffffffffffffff1673ffffffffffffffffffffffffffffffffffffffff168152602001908152602001600020600087600801858154811061177b5761177a614762565b5b90600052602060002001548152602001908152602001600020905080604051806101c00160405290816000820180546117b390613ee0565b80601f01602080910402602001604051908101604052809291908181526020018280546117df90613ee0565b801561182c5780601f106118015761010080835404028352916020019161182c565b820191906000526020600020905b81548152906001019060200180831161180f57829003601f168201915b50505050508152602001600182015481526020016002820154815260200160038201805461185990613ee0565b80601f016020809104026020016040519081016040528092919081815260200182805461188590613ee0565b80156118d25780601f106118a7576101008083540402835291602001916118d2565b820191906000526020600020905b8154815290600101906020018083116118b557829003601f168201915b505050505081526020016004820160009054906101000a900460ff161515151581526020016004820160019054906101000a900460ff16151515158152602001600582015481526020016006820160009054906101000a900473ffffffffffffffffffffffffffffffffffffffff1673ffffffffffffffffffffffffffffffffffffffff1673ffffffffffffffffffffffffffffffffffffffff1681526020016007820160009054906101000a900473ffffffffffffffffffffffffffffffffffffffff1673ffffffffffffffffffffffffffffffffffffffff1673ffffffffffffffffffffffffffffffffffffffff16815260200160088201805480602002602001604051908101604052809291908181526020016000905b82821015611a98578382906000526020600020018054611a0b90613ee0565b80601f0160208091040260200160405190810160405280929190818152602001828054611a3790613ee0565b8015611a845780601f10611a5957610100808354040283529160200191611a84565b820191906000526020600020905b815481529060010190602001808311611a6757829003601f168201915b5050505050815260200190600101906119ec565b50505050815260200160098201548152602001600a8201548152602001600b820160009054906101000a900460ff16151515158152602001600c82015481525050848481518110611aec57611aeb614762565b5b6020026020010181905250600183611b0491906147c0565b9250508080611b1290614816565b91505061171a565b5081945050505050919050565b60011515600260008373ffffffffffffffffffffffffffffffffffffffff1673ffffffffffffffffffffffffffffffffffffffff16815260200190815260200160002060009054906101000a900460ff16151514611bba576040517f08c379a0000000000000000000000000000000000000000000000000000000008152600401611bb19061454e565b60405180910390fd5b6000600760008673ffffffffffffffffffffffffffffffffffffffff1673ffffffffffffffffffffffffffffffffffffffff168152602001908152602001600020600084815260200190815260200160002090506001816005016000828254611c2391906147c0565b925050819055508060080184908060018154018082558091505060019003906000526020600020016000909190919091509081611c6091906140bd565b505050505050565b60606006805480602002602001604051908101604052809291908181526020016000905b8282101561220957838290600052602060002090600c020160405180610180016040529081600082018054611cc090613ee0565b80601f0160208091040260200160405190810160405280929190818152602001828054611cec90613ee0565b8015611d395780601f10611d0e57610100808354040283529160200191611d39565b820191906000526020600020905b815481529060010190602001808311611d1c57829003601f168201915b50505050508152602001600182018054611d5290613ee0565b80601f0160208091040260200160405190810160405280929190818152602001828054611d7e90613ee0565b8015611dcb5780601f10611da057610100808354040283529160200191611dcb565b820191906000526020600020905b815481529060010190602001808311611dae57829003601f168201915b50505050508152602001600282018054611de490613ee0565b80601f0160208091040260200160405190810160405280929190818152602001828054611e1090613ee0565b8015611e5d5780601f10611e3257610100808354040283529160200191611e5d565b820191906000526020600020905b815481529060010190602001808311611e4057829003601f168201915b50505050508152602001600382018054611e7690613ee0565b80601f0160208091040260200160405190810160405280929190818152602001828054611ea290613ee0565b8015611eef5780601f10611ec457610100808354040283529160200191611eef565b820191906000526020600020905b815481529060010190602001808311611ed257829003601f168201915b50505050508152602001600482018054611f0890613ee0565b80601f0160208091040260200160405190810160405280929190818152602001828054611f3490613ee0565b8015611f815780601f10611f5657610100808354040283529160200191611f81565b820191906000526020600020905b815481529060010190602001808311611f6457829003601f168201915b50505050508152602001600582018054611f9a90613ee0565b80601f0160208091040260200160405190810160405280929190818152602001828054611fc690613ee0565b80156120135780601f10611fe857610100808354040283529160200191612013565b820191906000526020600020905b815481529060010190602001808311611ff657829003601f168201915b5050505050815260200160068201548152602001600782015481526020016008820180548060200260200160405190810160405280929190818152602001828054801561207f57602002820191906000526020600020905b81548152602001906001019080831161206b575b505050505081526020016009820160009054906101000a900473ffffffffffffffffffffffffffffffffffffffff1673ffffffffffffffffffffffffffffffffffffffff1673ffffffffffffffffffffffffffffffffffffffff168152602001600a820180548060200260200160405190810160405280929190818152602001828054801561216357602002820191906000526020600020905b8160009054906101000a900473ffffffffffffffffffffffffffffffffffffffff1673ffffffffffffffffffffffffffffffffffffffff1681526020019060010190808311612119575b50505050508152602001600b82018054806020026020016040519081016040528092919081815260200182805480156121f157602002820191906000526020600020905b8160009054906101000a900473ffffffffffffffffffffffffffffffffffffffff1673ffffffffffffffffffffffffffffffffffffffff16815260200190600101908083116121a7575b50505050508152505081526020019060010190611c8c565b50505050905090565b60011515600260008373ffffffffffffffffffffffffffffffffffffffff1673ffffffffffffffffffffffffffffffffffffffff16815260200190815260200160002060009054906101000a900460ff161515146122a5576040517f08c379a000000000000000000000000000000000000000000000000000000000815260040161229c9061454e565b60405180910390fd5b6000600760008573ffffffffffffffffffffffffffffffffffffffff1673ffffffffffffffffffffffffffffffffffffffff16815260200190815260200160002060008481526020019081526020016000209050600181600201600082825461230e91906147c0565b9250508190555050505050565b60026020528060005260406000206000915054906101000a900460ff1681565b612343612d2b565b60011515600260008473ffffffffffffffffffffffffffffffffffffffff1673ffffffffffffffffffffffffffffffffffffffff16815260200190815260200160002060009054906101000a900460ff161515146123d6576040517f08c379a00000000000000000000000000000000000000000000000000000000081526004016123cd90613df4565b60405180910390fd5b600360008373ffffffffffffffffffffffffffffffffffffffff1673ffffffffffffffffffffffffffffffffffffffff1681526020019081526020016000206040518061018001604052908160008201805461243190613ee0565b80601f016020809104026020016040519081016040528092919081815260200182805461245d90613ee0565b80156124aa5780601f1061247f576101008083540402835291602001916124aa565b820191906000526020600020905b81548152906001019060200180831161248d57829003601f168201915b505050505081526020016001820180546124c390613ee0565b80601f01602080910402602001604051908101604052809291908181526020018280546124ef90613ee0565b801561253c5780601f106125115761010080835404028352916020019161253c565b820191906000526020600020905b81548152906001019060200180831161251f57829003601f168201915b5050505050815260200160028201805461255590613ee0565b80601f016020809104026020016040519081016040528092919081815260200182805461258190613ee0565b80156125ce5780601f106125a3576101008083540402835291602001916125ce565b820191906000526020600020905b8154815290600101906020018083116125b157829003601f168201915b505050505081526020016003820180546125e790613ee0565b80601f016020809104026020016040519081016040528092919081815260200182805461261390613ee0565b80156126605780601f1061263557610100808354040283529160200191612660565b820191906000526020600020905b81548152906001019060200180831161264357829003601f168201915b5050505050815260200160048201805461267990613ee0565b80601f01602080910402602001604051908101604052809291908181526020018280546126a590613ee0565b80156126f25780601f106126c7576101008083540402835291602001916126f2565b820191906000526020600020905b8154815290600101906020018083116126d557829003601f168201915b5050505050815260200160058201805461270b90613ee0565b80601f016020809104026020016040519081016040528092919081815260200182805461273790613ee0565b80156127845780601f1061275957610100808354040283529160200191612784565b820191906000526020600020905b81548152906001019060200180831161276757829003601f168201915b505050505081526020016006820154815260200160078201548152602001600882018054806020026020016040519081016040528092919081815260200182805480156127f057602002820191906000526020600020905b8154815260200190600101908083116127dc575b505050505081526020016009820160009054906101000a900473ffffffffffffffffffffffffffffffffffffffff1673ffffffffffffffffffffffffffffffffffffffff1673ffffffffffffffffffffffffffffffffffffffff168152602001600a82018054806020026020016040519081016040528092919081815260200182805480156128d457602002820191906000526020600020905b8160009054906101000a900473ffffffffffffffffffffffffffffffffffffffff1673ffffffffffffffffffffffffffffffffffffffff168152602001906001019080831161288a575b50505050508152602001600b820180548060200260200160405190810160405280929190818152602001828054801561296257602002820191906000526020600020905b8160009054906101000a900473ffffffffffffffffffffffffffffffffffffffff1673ffffffffffffffffffffffffffffffffffffffff1681526020019060010190808311612918575b5050505050815250509050919050565b6001816000016000828254019250508190555050565b6000600360008373ffffffffffffffffffffffffffffffffffffffff1673ffffffffffffffffffffffffffffffffffffffff1681526020019081526020016000206008019050600080600090505b8280549050811015612a2157848382815481106129f6576129f5614762565b5b906000526020600020015403612a0e57809150612a21565b8080612a1990614816565b9150506129d6565b5060008190505b60018380549050612a39919061485e565b811015612a9e5782600182612a4e91906147c0565b81548110612a5f57612a5e614762565b5b9060005260206000200154838281548110612a7d57612a7c614762565b5b90600052602060002001819055508080612a9690614816565b915050612a28565b5081805480612ab057612aaf614892565b5b6001900381819060005260206000200160009055905550505050565b828054828255906000526020600020908101928215612b14579160200282015b82811115612b13578251829081612b0391906140bd565b5091602001919060010190612aec565b5b509050612b219190612da2565b5090565b828054828255906000526020600020908101928215612b665760005260206000209182015b82811115612b65578254825591600101919060010190612b4a565b5b509050612b739190612dc6565b5090565b828054828255906000526020600020908101928215612bb85760005260206000209182015b82811115612bb7578254825591600101919060010190612b9c565b5b509050612bc59190612de3565b5090565b828054828255906000526020600020908101928215612c155760005260206000209182015b82811115612c145782829081612c04919061433c565b5091600101919060010190612bee565b5b509050612c229190612da2565b5090565b508054612c3290613ee0565b6000825580601f10612c445750612c63565b601f016020900490600052602060002090810190612c629190612de3565b5b50565b5080546000825590600052602060002090810190612c849190612da2565b50565b604051806101c001604052806060815260200160008019168152602001600081526020016060815260200160001515815260200160001515815260200160008152602001600073ffffffffffffffffffffffffffffffffffffffff168152602001600073ffffffffffffffffffffffffffffffffffffffff168152602001606081526020016000815260200160008152602001600015158152602001600081525090565b604051806101800160405280606081526020016060815260200160608152602001606081526020016060815260200160608152602001600081526020016000815260200160608152602001600073ffffffffffffffffffffffffffffffffffffffff16815260200160608152602001606081525090565b5b80821115612dc25760008181612db99190612c26565b50600101612da3565b5090565b5b80821115612ddf576000816000905550600101612dc7565b5090565b5b80821115612dfc576000816000905550600101612de4565b5090565b6000819050919050565b612e1381612e00565b82525050565b6000602082019050612e2e6000830184612e0a565b92915050565b6000604051905090565b600080fd5b600080fd5b600080fd5b600080fd5b6000601f19601f8301169050919050565b7f4e487b7100000000000000000000000000000000000000000000000000000000600052604160045260246000fd5b612e9b82612e52565b810181811067ffffffffffffffff82111715612eba57612eb9612e63565b5b80604052505050565b6000612ecd612e34565b9050612ed98282612e92565b919050565b600067ffffffffffffffff821115612ef957612ef8612e63565b5b612f0282612e52565b9050602081019050919050565b82818337600083830152505050565b6000612f31612f2c84612ede565b612ec3565b905082815260208101848484011115612f4d57612f4c612e4d565b5b612f58848285612f0f565b509392505050565b600082601f830112612f7557612f74612e48565b5b8135612f85848260208601612f1e565b91505092915050565b60008115159050919050565b612fa381612f8e565b8114612fae57600080fd5b50565b600081359050612fc081612f9a565b92915050565b612fcf81612e00565b8114612fda57600080fd5b50565b600081359050612fec81612fc6565b92915050565b600073ffffffffffffffffffffffffffffffffffffffff82169050919050565b600061301d82612ff2565b9050919050565b61302d81613012565b811461303857600080fd5b50565b60008135905061304a81613024565b92915050565b60008060008060008060c0878903121561306d5761306c612e3e565b5b600087013567ffffffffffffffff81111561308b5761308a612e43565b5b61309789828a01612f60565b965050602087013567ffffffffffffffff8111156130b8576130b7612e43565b5b6130c489828a01612f60565b95505060406130d589828a01612fb1565b94505060606130e689828a01612fdd565b93505060806130f789828a01612fb1565b92505060a061310889828a0161303b565b9150509295509295509295565b600080600080600080600060e0888a03121561313457613133612e3e565b5b60006131428a828b0161303b565b975050602088013567ffffffffffffffff81111561316357613162612e43565b5b61316f8a828b01612f60565b965050604088013567ffffffffffffffff8111156131905761318f612e43565b5b61319c8a828b01612f60565b955050606088013567ffffffffffffffff8111156131bd576131bc612e43565b5b6131c98a828b01612f60565b945050608088013567ffffffffffffffff8111156131ea576131e9612e43565b5b6131f68a828b01612f60565b93505060a088013567ffffffffffffffff81111561321757613216612e43565b5b6132238a828b01612f60565b92505060c088013567ffffffffffffffff81111561324457613243612e43565b5b6132508a828b01612f60565b91505092959891949750929550565b6000819050919050565b6132728161325f565b811461327d57600080fd5b50565b60008135905061328f81613269565b92915050565b6000806000606084860312156132ae576132ad612e3e565b5b60006132bc8682870161303b565b93505060206132cd86828701613280565b92505060406132de8682870161303b565b9150509250925092565b60008060006060848603121561330157613300612e3e565b5b600061330f86828701613280565b935050602061332086828701612fb1565b92505060406133318682870161303b565b9150509250925092565b60006020828403121561335157613350612e3e565b5b600082013567ffffffffffffffff81111561336f5761336e612e43565b5b61337b84828501612f60565b91505092915050565b61338d8161325f565b82525050565b60006020820190506133a86000830184613384565b92915050565b6000602082840312156133c4576133c3612e3e565b5b60006133d28482850161303b565b91505092915050565b600081519050919050565b600082825260208201905092915050565b6000819050602082019050919050565b600081519050919050565b600082825260208201905092915050565b60005b83811015613441578082015181840152602081019050613426565b83811115613450576000848401525b50505050565b600061346182613407565b61346b8185613412565b935061347b818560208601613423565b61348481612e52565b840191505092915050565b6134988161325f565b82525050565b6134a781612e00565b82525050565b6134b681612f8e565b82525050565b6134c581613012565b82525050565b60006134d682612ff2565b9050919050565b6134e6816134cb565b82525050565b600081519050919050565b600082825260208201905092915050565b6000819050602082019050919050565b60006135248383613456565b905092915050565b6000602082019050919050565b6000613544826134ec565b61354e81856134f7565b93508360208202850161356085613508565b8060005b8581101561359c578484038952815161357d8582613518565b94506135888361352c565b925060208a01995050600181019050613564565b50829750879550505050505092915050565b60006101c08301600083015184820360008601526135cc8282613456565b91505060208301516135e1602086018261348f565b5060408301516135f4604086018261349e565b506060830151848203606086015261360c8282613456565b915050608083015161362160808601826134ad565b5060a083015161363460a08601826134ad565b5060c083015161364760c086018261349e565b5060e083015161365a60e08601826134bc565b5061010083015161366f6101008601826134dd565b506101208301518482036101208601526136898282613539565b9150506101408301516136a061014086018261349e565b506101608301516136b561016086018261349e565b506101808301516136ca6101808601826134ad565b506101a08301516136df6101a086018261349e565b508091505092915050565b60006136f683836135ae565b905092915050565b6000602082019050919050565b6000613716826133db565b61372081856133e6565b935083602082028501613732856133f7565b8060005b8581101561376e578484038952815161374f85826136ea565b945061375a836136fe565b925060208a01995050600181019050613736565b50829750879550505050505092915050565b6000602082019050818103600083015261379a818461370b565b905092915050565b600080600080608085870312156137bc576137bb612e3e565b5b60006137ca8782880161303b565b945050602085013567ffffffffffffffff8111156137eb576137ea612e43565b5b6137f787828801612f60565b935050604061380887828801613280565b92505060606138198782880161303b565b91505092959194509250565b600081519050919050565b600082825260208201905092915050565b6000819050602082019050919050565b600081519050919050565b600082825260208201905092915050565b6000819050602082019050919050565b6000613889838361348f565b60208301905092915050565b6000602082019050919050565b60006138ad82613851565b6138b7818561385c565b93506138c28361386d565b8060005b838110156138f35781516138da888261387d565b97506138e583613895565b9250506001810190506138c6565b5085935050505092915050565b600081519050919050565b600082825260208201905092915050565b6000819050602082019050919050565b600061393883836134bc565b60208301905092915050565b6000602082019050919050565b600061395c82613900565b613966818561390b565b93506139718361391c565b8060005b838110156139a2578151613989888261392c565b975061399483613944565b925050600181019050613975565b5085935050505092915050565b60006101808301600083015184820360008601526139cd8282613456565b915050602083015184820360208601526139e78282613456565b91505060408301518482036040860152613a018282613456565b91505060608301518482036060860152613a1b8282613456565b91505060808301518482036080860152613a358282613456565b91505060a083015184820360a0860152613a4f8282613456565b91505060c0830151613a6460c086018261349e565b5060e0830151613a7760e086018261349e565b50610100830151848203610100860152613a9182826138a2565b915050610120830151613aa86101208601826134bc565b50610140830151848203610140860152613ac28282613951565b915050610160830151848203610160860152613ade8282613951565b9150508091505092915050565b6000613af783836139af565b905092915050565b6000602082019050919050565b6000613b1782613825565b613b218185613830565b935083602082028501613b3385613841565b8060005b85811015613b6f5784840389528151613b508582613aeb565b9450613b5b83613aff565b925060208a01995050600181019050613b37565b50829750879550505050505092915050565b60006020820190508181036000830152613b9b8184613b0c565b905092915050565b613bac81612f8e565b82525050565b6000602082019050613bc76000830184613ba3565b92915050565b6000610180830160008301518482036000860152613beb8282613456565b91505060208301518482036020860152613c058282613456565b91505060408301518482036040860152613c1f8282613456565b91505060608301518482036060860152613c398282613456565b91505060808301518482036080860152613c538282613456565b91505060a083015184820360a0860152613c6d8282613456565b91505060c0830151613c8260c086018261349e565b5060e0830151613c9560e086018261349e565b50610100830151848203610100860152613caf82826138a2565b915050610120830151613cc66101208601826134bc565b50610140830151848203610140860152613ce08282613951565b915050610160830151848203610160860152613cfc8282613951565b9150508091505092915050565b60006020820190508181036000830152613d238184613bcd565b905092915050565b600082825260208201905092915050565b7f5265656e7472616e637947756172643a207265656e7472616e742063616c6c00600082015250565b6000613d72601f83613d2b565b9150613d7d82613d3c565b602082019050919050565b60006020820190508181036000830152613da181613d65565b9050919050565b7f55736572206e6f7420726567697374657265642e000000000000000000000000600082015250565b6000613dde601483613d2b565b9150613de982613da8565b602082019050919050565b60006020820190508181036000830152613e0d81613dd1565b9050919050565b6000613e1f82613407565b613e298185613d2b565b9350613e39818560208601613423565b613e4281612e52565b840191505092915050565b60006020820190508181036000830152613e678184613e14565b905092915050565b600081519050613e7e81612fc6565b92915050565b600060208284031215613e9a57613e99612e3e565b5b6000613ea884828501613e6f565b91505092915050565b7f4e487b7100000000000000000000000000000000000000000000000000000000600052602260045260246000fd5b60006002820490506001821680613ef857607f821691505b602082108103613f0b57613f0a613eb1565b5b50919050565b60008190508160005260206000209050919050565b60006020601f8301049050919050565b600082821b905092915050565b600060088302613f737fffffffffffffffffffffffffffffffffffffffffffffffffffffffffffffffff82613f36565b613f7d8683613f36565b95508019841693508086168417925050509392505050565b6000819050919050565b6000613fba613fb5613fb084612e00565b613f95565b612e00565b9050919050565b6000819050919050565b613fd483613f9f565b613fe8613fe082613fc1565b848454613f43565b825550505050565b600090565b613ffd613ff0565b614008818484613fcb565b505050565b5b8181101561402c57614021600082613ff5565b60018101905061400e565b5050565b601f8211156140715761404281613f11565b61404b84613f26565b8101602085101561405a578190505b61406e61406685613f26565b83018261400d565b50505b505050565b600082821c905092915050565b600061409460001984600802614076565b1980831691505092915050565b60006140ad8383614083565b9150826002028217905092915050565b6140c682613407565b67ffffffffffffffff8111156140df576140de612e63565b5b6140e98254613ee0565b6140f4828285614030565b600060209050601f8311600181146141275760008415614115578287015190505b61411f85826140a1565b865550614187565b601f19841661413586613f11565b60005b8281101561415d57848901518255600182019150602085019450602081019050614138565b8683101561417a5784890151614176601f891682614083565b8355505b6001600288020188555050505b505050505050565b6000819050919050565b60006141b46141af6141aa8461418f565b613f95565b612e00565b9050919050565b6141c481614199565b82525050565b6141d381613012565b82525050565b60006141f46141ef6141ea84612ff2565b613f95565b612ff2565b9050919050565b6000614206826141d9565b9050919050565b6000614218826141fb565b9050919050565b6142288161420d565b82525050565b6000610100820190508181036000830152614249818b613e14565b9050818103602083015261425d818a613e14565b905061426c6040830189613384565b6142796060830188612e0a565b6142866080830187612e0a565b61429360a08301866141bb565b6142a060c08301856141ca565b6142ad60e083018461421f565b9998505050505050505050565b7f5573657220616c72656164792065786973747300000000000000000000000000600082015250565b60006142f0601383613d2b565b91506142fb826142ba565b602082019050919050565b6000602082019050818103600083015261431f816142e3565b9050919050565b60008154905061433581613ee0565b9050919050565b81810361434a575050614422565b61435382614326565b67ffffffffffffffff81111561436c5761436b612e63565b5b6143768254613ee0565b614381828285614030565b6000601f8311600181146143b0576000841561439e578287015490505b6143a885826140a1565b86555061441b565b601f1984166143be87613f11565b96506143c986613f11565b60005b828110156143f1578489015482556001820191506001850194506020810190506143cc565b8683101561440e578489015461440a601f891682614083565b8355505b6001600288020188555050505b5050505050505b565b6000815461443181613ee0565b61443b8186613d2b565b94506001821660008114614456576001811461446c5761449f565b60ff19831686528115156020028601935061449f565b61447585613f11565b60005b8381101561449757815481890152600182019150602081019050614478565b808801955050505b50505092915050565b600060808201905081810360008301526144c28187614424565b905081810360208301526144d68186614424565b905081810360408301526144ea8185614424565b90506144f960608301846141ca565b95945050505050565b7f55736572206e6f74207265676973746572656400000000000000000000000000600082015250565b6000614538601383613d2b565b915061454382614502565b602082019050919050565b600060208201905081810360008301526145678161452b565b9050919050565b7f506f7374206973206e6f7420616e206e66740000000000000000000000000000600082015250565b60006145a4601283613d2b565b91506145af8261456e565b602082019050919050565b600060208201905081810360008301526145d381614597565b9050919050565b7f506f7374206e6f7420666f722073616c65000000000000000000000000000000600082015250565b6000614610601183613d2b565b915061461b826145da565b602082019050919050565b6000602082019050818103600083015261463f81614603565b9050919050565b7f416d6f756e742073686f756c642062652067726561746572207468616e20626160008201527f7365207072696365206f662074686520706f73742e0000000000000000000000602082015250565b60006146a2603583613d2b565b91506146ad82614646565b604082019050919050565b600060208201905081810360008301526146d181614695565b9050919050565b60006060820190506146ed60008301866141ca565b6146fa60208301856141ca565b6147076040830184612e0a565b949350505050565b600081905092915050565b600061472582613407565b61472f818561470f565b935061473f818560208601613423565b80840191505092915050565b6000614757828461471a565b915081905092915050565b7f4e487b7100000000000000000000000000000000000000000000000000000000600052603260045260246000fd5b7f4e487b7100000000000000000000000000000000000000000000000000000000600052601160045260246000fd5b60006147cb82612e00565b91506147d683612e00565b9250827fffffffffffffffffffffffffffffffffffffffffffffffffffffffffffffffff0382111561480b5761480a614791565b5b828201905092915050565b600061482182612e00565b91507fffffffffffffffffffffffffffffffffffffffffffffffffffffffffffffffff820361485357614852614791565b5b600182019050919050565b600061486982612e00565b915061487483612e00565b92508282101561488757614886614791565b5b828203905092915050565b7f4e487b7100000000000000000000000000000000000000000000000000000000600052603160045260246000fdfea2646970667358221220269d1c1506794baed2a93b07bb1143d1d4244db68d5ebcca4b7dbc9f838ec9ac64736f6c634300080f0033",
  "immutableReferences": {},
  "source": "// SPDX-License-Identifier: GPL-3.0\n\npragma solidity >=0.7.0 <0.9.0;\n\nimport \"@openzeppelin/contracts/utils/Counters.sol\";\nimport \"@openzeppelin/contracts/utils/Counters.sol\";\nimport \"@openzeppelin/contracts/token/ERC721/extensions/ERC721URIStorage.sol\";\nimport \"@openzeppelin/contracts/security/ReentrancyGuard.sol\";\nimport \"@openzeppelin/contracts/token/ERC721/ERC721.sol\";\n\ncontract TrisNFT is ERC721URIStorage{\n    using Counters for Counters.Counter;\n    \n    constructor() ERC721(\"TrisNFT\", \"TRI\"){}   \n    Counters.Counter private _tokenId;\n    address contractAddress = address(this);\n\n    function mintToken(string memory tokenUri) public returns(uint256 itemId){\n        require(contractAddress == msg.sender, \"Only the marketplace contract can call this function\");\n        _tokenId.increment();\n        uint256 currentId = _tokenId.current();\n        _mint(contractAddress, currentId);\n        _setTokenURI(currentId, tokenUri);\n        return currentId;\n    }\n\n    function updateContractAddress( address marketPlaceAddress) public  {\n        require(contractAddress == address(this) || contractAddress == msg.sender, \"Address is already declared or only the  owner contract can change the address.\");\n        contractAddress = marketPlaceAddress;\n    }\n\n    function returnCurrentUser() public view returns(address){\n        return msg.sender;\n    }\n\n    /*\n        A custom function to transfer ownership from on owner to another.\n    */\n    function transferNft(address currOwner, address newOwner, uint tokenId) public {\n        transferFrom(currOwner, newOwner, tokenId);\n    }\n\n    function getLatestTokenId() public view returns(uint256 itemId){\n        return _tokenId.current();\n    }\n\n    function returnOwner(uint id) public view returns(address){\n        return ownerOf(id);\n    }\n}\n\ncontract UserContract is ReentrancyGuard{\n    using Counters for Counters.Counter;\n    Counters.Counter public userCount;\n    mapping(address => bool) public userIsRegistered;\n    mapping(address => User) private mapToUser;\n    address private trisNftAddress;\n    address private owner;\n    User[] private usersList;\n    mapping(address => mapping(bytes32 => Post)) private _postsOfUsers;\n\n    constructor(address nftAddress, address ownerAddress){\n        trisNftAddress = nftAddress;\n        owner = ownerAddress;\n        TrisNFT(nftAddress).updateContractAddress(address(this));\n    }\n\n    \n\n    /*\n        User struct for storing user data. \n        name, userName, userAddress are required as in the UI the rest can be 0 or empty.\n     */\n    struct User{\n        string name;\n        string userName;\n        string avatarUrl;\n        string bio;\n        string wallUrl;\n        string email;\n        uint256 followersCount;\n        uint256 followingCount;\n        bytes32[] postCount;\n        address userAddress;\n        address[] followers;\n        address[] following;\n    }\n\n    /*\n        Post struct for storing the posts of each user.\n        The token id connects post to the nft in ./Tris_NFT.sol\n\n        A post can be either NFT or a regular post\n     */\n    struct Post{\n        string post;\n        bytes32 postId;\n        uint256 likes;\n        string title;\n        bool isForSale;\n        bool postIsBought;\n        uint256 commentsCount;\n        address owner;\n        address payable seller;\n        string[] comments;\n        uint256 priceByOwner;\n        uint256 basePrice;\n        bool isNft;\n        uint256 tokenId;\n    }\n\n    /*\n        Events \n     */\n    event UserCreated (string name, string userName, string avatarUrl, address userAddress);\n    event PostUploaded(string title, string post, bytes32 postId, uint256 tokenId, uint256 priceByOwner, uint256 basePrice, address owner, address seller);\n    event PostSold(string post, address owner, address seller, uint256 price);\n\n    function createUser(address account, string memory name, string memory userName, string memory avatarUrl, string memory email, string memory bio, string memory wallUrl) public {\n        require(userIsRegistered[account] != true, \"User already exists\");\n        User storage userData = mapToUser[account];\n        userData.name = name;\n        userData.userName = userName;\n        userData.avatarUrl = avatarUrl;\n        userData.bio = bio;\n        userData.wallUrl = wallUrl;\n        userData.userAddress = account;\n        userData.email = email;\n        userCount.increment();\n        userIsRegistered[account] = true;\n        usersList.push(userData);\n        emit UserCreated(userData.name, userData.userName, userData.avatarUrl, userData.userAddress);\n    }\n\n    /*\n        Function to upload post. This requires the post parameters, \n        and uploads the post as either nft or a regular post.\n    */\n    function uploadPost(string memory title, string memory post, bool isNft, uint256 priceByOwner, bool isForSale, address account) public nonReentrant{\n        require(userIsRegistered[account] == true, \"User not registered.\");\n        User storage currUser = mapToUser[account];\n\n        uint256 tokenId;\n\n        if(isNft){\n            tokenId = TrisNFT(trisNftAddress).mintToken(post);\n        }\n\n        currUser.postCount.push(callKeccak256(post));\n        Post memory currPost = Post(\n            {\n                post: post,\n                postId: callKeccak256(post),\n                likes: 0,\n                title: title,\n                postIsBought: false,\n                isForSale: isNft ? isForSale : false,\n                isNft: isNft,\n                commentsCount: 0,\n                priceByOwner: isNft ? priceByOwner : 0,\n                comments: new string[](0),\n                tokenId: isNft ? tokenId : 0,\n                basePrice: isNft ? 10 : 0,\n                owner: isNft ? (address(this)) : (address(0)),\n                seller: isNft ? payable(account) : payable(address(0))\n            }\n        );\n\n        _postsOfUsers[account][callKeccak256(post)] = currPost;\n        emit PostUploaded(currPost.title, currPost.post, currPost.postId, currPost.tokenId, priceByOwner, 10, currPost.owner, currPost.seller);\n    }\n\n\n    /*\n        Dedicated function to buy/sell nfts before selling the nft owner should make sure he has \n        made the NFT avaialbe for sale and the post is NFT. \n        Before call this function the transferNFT in TrisNFT contract should be called to transfer the ownership.\n        That function can't be called form this function because that checks for msg.sender to be equal to \n        post owner but when called from here msg.sender is the address of this contract and not the owner.\n        - If the post is already sold then it will be checked in the frontend throught the postIsBought parameter\n          only if the postIsBought turns out to be true then the the method in the TrisNft will be called.\n    */\n    function buyPost(address ownerAddress, bytes32 postId, address newOwnerAddress) public payable nonReentrant{\n        Post storage currPost = _postsOfUsers[ownerAddress][postId];\n        require(userIsRegistered[newOwnerAddress] == true, \"User not registered\");\n        require(currPost.isNft == true, \"Post is not an nft\");\n        require(userIsRegistered[ownerAddress] == true, \"User not registered\");\n        require(currPost.isForSale == true, \"Post not for sale\");\n        uint256 price = msg.value;\n        User storage newUser = mapToUser[newOwnerAddress];\n        require(price >= currPost.basePrice, \"Amount should be greater than base price of the post.\");\n        if(currPost.postIsBought == false){\n            IERC721(trisNftAddress).transferFrom(address(this), newOwnerAddress, currPost.tokenId);\n        }\n        currPost.seller.transfer(msg.value);\n        currPost.owner = (newOwnerAddress);\n        currPost.seller = payable(newOwnerAddress);\n        removePost(postId, ownerAddress);\n        currPost.postIsBought = true;\n        _postsOfUsers[newOwnerAddress][postId] = currPost;\n        delete _postsOfUsers[ownerAddress][postId];\n        newUser.postCount.push(postId);\n    }\n\n    function getUserList() public view returns(User[] memory){\n        return usersList;\n    }\n\n    function updatePostForSale(bytes32 id, bool isForSale, address account) public {\n        require(userIsRegistered[account] == true, \"User not registered\");\n        _postsOfUsers[account][id].isForSale = isForSale;\n    }\n\n    \n\n    function getUserPosts(address sender) public view returns (Post[] memory userPosts){\n        require(userIsRegistered[sender] == true, \"User not registered.\");\n        User storage currUser = mapToUser[sender];\n        uint userPostCount = currUser.postCount.length;\n        Post[] memory currUserPosts = new Post[](userPostCount);\n        uint currentIndex = 0;\n        for(uint i = 0; i < userPostCount; i++){\n           Post storage currPost = _postsOfUsers[sender][currUser.postCount[currentIndex]];\n           currUserPosts[currentIndex] = currPost;\n           currentIndex += 1;\n        }\n\n        return currUserPosts;\n    }\n\n    function removePost(bytes32 postId, address postOwner) internal {\n        bytes32[] storage postCount = mapToUser[postOwner].postCount;\n        uint index;\n        for(uint i = 0; i < postCount.length; i++){\n            if(postCount[i] == postId){\n                index = i;\n                break;\n            }\n        }\n        for(uint i = index; i < postCount.length - 1; i++){\n            postCount[i] = postCount[i + 1];\n        }\n        postCount.pop();\n    }\n\n    function likePost(address postOwner, bytes32 postId, address userAddress) public {\n        require(userIsRegistered[userAddress] == true, \"User not registered\");\n        Post storage currPost = _postsOfUsers[postOwner][postId];\n        currPost.likes += 1;\n    }\n\n    function postComment( address postOwner, string memory comment, bytes32 postId, address sender ) public {\n        require(userIsRegistered[sender] == true, \"User not registered\");\n        Post storage currPost = _postsOfUsers[postOwner][postId];\n        currPost.commentsCount += 1;\n        currPost.comments.push(comment);\n    }\n\n    function getUserData(address account) public view returns(User memory){\n        require(userIsRegistered[account] == true, \"User not registered.\");\n        return mapToUser[account];\n    } \n\n    function callKeccak256(string memory post) public pure returns( bytes32 result){\n      return keccak256(abi.encodePacked(post));\n   }  \n\n}\n",
  "sourcePath": "/home/astar/Documents/tris/contracts/User.sol",
  "compiler": {
    "name": "solc",
    "version": "0.8.15+commit.e14f2714.Emscripten.clang"
  },
  "80001": {
    "links": {},
    "address": "0xA48Ce9ED7F1719056cb053ee62D573733E22E6eB",
    "transactionHash": "0x0d76f069bc3a3e3962f2f8702e91f35b1e11c65be9cb1bd2b1794105db89b861"
  },
  "schemaVersion": "3.4.8",
  "updatedAt": "2022-07-24T13:22:50.658Z",
  "devdoc": {
    "kind": "dev",
    "methods": {},
    "version": 1
  },
  "userdoc": {
    "kind": "user",
    "methods": {},
    "version": 1
  }
}