{
  "contractName": "UserContract",
  "abi": [
    {
      "inputs": [
        {
          "internalType": "address",
          "name": "nftAddress",
          "type": "address"
        },
        {
          "internalType": "address",
          "name": "ownerAddress",
          "type": "address"
        }
      ],
      "stateMutability": "nonpayable",
      "type": "constructor"
    },
    {
      "anonymous": false,
      "inputs": [
        {
          "indexed": false,
          "internalType": "string",
          "name": "post",
          "type": "string"
        },
        {
          "indexed": false,
          "internalType": "address",
          "name": "owner",
          "type": "address"
        },
        {
          "indexed": false,
          "internalType": "address",
          "name": "seller",
          "type": "address"
        },
        {
          "indexed": false,
          "internalType": "uint256",
          "name": "price",
          "type": "uint256"
        }
      ],
      "name": "PostSold",
      "type": "event"
    },
    {
      "anonymous": false,
      "inputs": [
        {
          "indexed": false,
          "internalType": "string",
          "name": "title",
          "type": "string"
        },
        {
          "indexed": false,
          "internalType": "string",
          "name": "post",
          "type": "string"
        },
        {
          "indexed": false,
          "internalType": "bytes32",
          "name": "postId",
          "type": "bytes32"
        },
        {
          "indexed": false,
          "internalType": "uint256",
          "name": "tokenId",
          "type": "uint256"
        },
        {
          "indexed": false,
          "internalType": "uint256",
          "name": "priceByOwner",
          "type": "uint256"
        },
        {
          "indexed": false,
          "internalType": "uint256",
          "name": "basePrice",
          "type": "uint256"
        },
        {
          "indexed": false,
          "internalType": "address",
          "name": "owner",
          "type": "address"
        },
        {
          "indexed": false,
          "internalType": "address",
          "name": "seller",
          "type": "address"
        }
      ],
      "name": "PostUploaded",
      "type": "event"
    },
    {
      "anonymous": false,
      "inputs": [
        {
          "indexed": false,
          "internalType": "string",
          "name": "name",
          "type": "string"
        },
        {
          "indexed": false,
          "internalType": "string",
          "name": "userName",
          "type": "string"
        },
        {
          "indexed": false,
          "internalType": "string",
          "name": "avatarUrl",
          "type": "string"
        },
        {
          "indexed": false,
          "internalType": "address",
          "name": "userAddress",
          "type": "address"
        }
      ],
      "name": "UserCreated",
      "type": "event"
    },
    {
      "inputs": [],
      "name": "userCount",
      "outputs": [
        {
          "internalType": "uint256",
          "name": "_value",
          "type": "uint256"
        }
      ],
      "stateMutability": "view",
      "type": "function",
      "constant": true
    },
    {
      "inputs": [
        {
          "internalType": "address",
          "name": "",
          "type": "address"
        }
      ],
      "name": "userIsRegistered",
      "outputs": [
        {
          "internalType": "bool",
          "name": "",
          "type": "bool"
        }
      ],
      "stateMutability": "view",
      "type": "function",
      "constant": true
    },
    {
      "inputs": [
        {
          "internalType": "address",
          "name": "account",
          "type": "address"
        },
        {
          "internalType": "string",
          "name": "name",
          "type": "string"
        },
        {
          "internalType": "string",
          "name": "userName",
          "type": "string"
        },
        {
          "internalType": "string",
          "name": "avatarUrl",
          "type": "string"
        },
        {
          "internalType": "string",
          "name": "email",
          "type": "string"
        },
        {
          "internalType": "string",
          "name": "bio",
          "type": "string"
        },
        {
          "internalType": "string",
          "name": "wallUrl",
          "type": "string"
        }
      ],
      "name": "createUser",
      "outputs": [],
      "stateMutability": "nonpayable",
      "type": "function"
    },
    {
      "inputs": [
        {
          "internalType": "string",
          "name": "title",
          "type": "string"
        },
        {
          "internalType": "string",
          "name": "post",
          "type": "string"
        },
        {
          "internalType": "bool",
          "name": "isNft",
          "type": "bool"
        },
        {
          "internalType": "uint256",
          "name": "priceByOwner",
          "type": "uint256"
        },
        {
          "internalType": "bool",
          "name": "isForSale",
          "type": "bool"
        },
        {
          "internalType": "address",
          "name": "account",
          "type": "address"
        }
      ],
      "name": "uploadPost",
      "outputs": [
        {
          "internalType": "bytes32",
          "name": "",
          "type": "bytes32"
        }
      ],
      "stateMutability": "nonpayable",
      "type": "function"
    },
    {
      "inputs": [
        {
          "internalType": "address",
          "name": "ownerAddress",
          "type": "address"
        },
        {
          "internalType": "bytes32",
          "name": "postId",
          "type": "bytes32"
        },
        {
          "internalType": "address",
          "name": "newOwnerAddress",
          "type": "address"
        }
      ],
      "name": "buyPost",
      "outputs": [],
      "stateMutability": "payable",
      "type": "function",
      "payable": true
    },
    {
      "inputs": [],
      "name": "getUserList",
      "outputs": [
        {
          "components": [
            {
              "internalType": "string",
              "name": "name",
              "type": "string"
            },
            {
              "internalType": "string",
              "name": "userName",
              "type": "string"
            },
            {
              "internalType": "string",
              "name": "avatarUrl",
              "type": "string"
            },
            {
              "internalType": "string",
              "name": "bio",
              "type": "string"
            },
            {
              "internalType": "string",
              "name": "wallUrl",
              "type": "string"
            },
            {
              "internalType": "string",
              "name": "email",
              "type": "string"
            },
            {
              "internalType": "uint256",
              "name": "followersCount",
              "type": "uint256"
            },
            {
              "internalType": "uint256",
              "name": "followingCount",
              "type": "uint256"
            },
            {
              "internalType": "bytes32[]",
              "name": "postCount",
              "type": "bytes32[]"
            },
            {
              "internalType": "address",
              "name": "userAddress",
              "type": "address"
            },
            {
              "internalType": "address[]",
              "name": "followers",
              "type": "address[]"
            },
            {
              "internalType": "address[]",
              "name": "following",
              "type": "address[]"
            }
          ],
          "internalType": "struct UserContract.User[]",
          "name": "",
          "type": "tuple[]"
        }
      ],
      "stateMutability": "view",
      "type": "function",
      "constant": true
    },
    {
      "inputs": [
        {
          "internalType": "bytes32",
          "name": "id",
          "type": "bytes32"
        },
        {
          "internalType": "bool",
          "name": "isForSale",
          "type": "bool"
        },
        {
          "internalType": "address",
          "name": "account",
          "type": "address"
        }
      ],
      "name": "updatePostForSale",
      "outputs": [],
      "stateMutability": "nonpayable",
      "type": "function"
    },
    {
      "inputs": [
        {
          "internalType": "address",
          "name": "follower",
          "type": "address"
        },
        {
          "internalType": "address",
          "name": "account",
          "type": "address"
        }
      ],
      "name": "follow",
      "outputs": [],
      "stateMutability": "nonpayable",
      "type": "function"
    },
    {
      "inputs": [
        {
          "internalType": "address",
          "name": "sender",
          "type": "address"
        }
      ],
      "name": "getUserPosts",
      "outputs": [
        {
          "components": [
            {
              "internalType": "string",
              "name": "post",
              "type": "string"
            },
            {
              "internalType": "bytes32",
              "name": "postId",
              "type": "bytes32"
            },
            {
              "internalType": "uint256",
              "name": "likes",
              "type": "uint256"
            },
            {
              "internalType": "string",
              "name": "title",
              "type": "string"
            },
            {
              "internalType": "bool",
              "name": "isForSale",
              "type": "bool"
            },
            {
              "internalType": "bool",
              "name": "postIsBought",
              "type": "bool"
            },
            {
              "internalType": "uint256",
              "name": "commentsCount",
              "type": "uint256"
            },
            {
              "internalType": "address",
              "name": "owner",
              "type": "address"
            },
            {
              "internalType": "address payable",
              "name": "seller",
              "type": "address"
            },
            {
              "internalType": "string[]",
              "name": "comments",
              "type": "string[]"
            },
            {
              "internalType": "uint256",
              "name": "priceByOwner",
              "type": "uint256"
            },
            {
              "internalType": "uint256",
              "name": "basePrice",
              "type": "uint256"
            },
            {
              "internalType": "bool",
              "name": "isNft",
              "type": "bool"
            },
            {
              "internalType": "uint256",
              "name": "tokenId",
              "type": "uint256"
            }
          ],
          "internalType": "struct UserContract.Post[]",
          "name": "userPosts",
          "type": "tuple[]"
        }
      ],
      "stateMutability": "view",
      "type": "function",
      "constant": true
    },
    {
      "inputs": [
        {
          "internalType": "address",
          "name": "postOwner",
          "type": "address"
        },
        {
          "internalType": "bytes32",
          "name": "postId",
          "type": "bytes32"
        },
        {
          "internalType": "address",
          "name": "userAddress",
          "type": "address"
        }
      ],
      "name": "likePost",
      "outputs": [],
      "stateMutability": "nonpayable",
      "type": "function"
    },
    {
      "inputs": [
        {
          "internalType": "address",
          "name": "postOwner",
          "type": "address"
        },
        {
          "internalType": "bytes32",
          "name": "postId",
          "type": "bytes32"
        },
        {
          "internalType": "address",
          "name": "sender",
          "type": "address"
        }
      ],
      "name": "getComment",
      "outputs": [
        {
          "internalType": "string[]",
          "name": "",
          "type": "string[]"
        }
      ],
      "stateMutability": "view",
      "type": "function",
      "constant": true
    },
    {
      "inputs": [
        {
          "internalType": "address",
          "name": "postOwner",
          "type": "address"
        },
        {
          "internalType": "string",
          "name": "comment",
          "type": "string"
        },
        {
          "internalType": "bytes32",
          "name": "postId",
          "type": "bytes32"
        },
        {
          "internalType": "address",
          "name": "sender",
          "type": "address"
        }
      ],
      "name": "postComment",
      "outputs": [],
      "stateMutability": "nonpayable",
      "type": "function"
    },
    {
      "inputs": [
        {
          "internalType": "address",
          "name": "account",
          "type": "address"
        }
      ],
      "name": "getUserData",
      "outputs": [
        {
          "components": [
            {
              "internalType": "string",
              "name": "name",
              "type": "string"
            },
            {
              "internalType": "string",
              "name": "userName",
              "type": "string"
            },
            {
              "internalType": "string",
              "name": "avatarUrl",
              "type": "string"
            },
            {
              "internalType": "string",
              "name": "bio",
              "type": "string"
            },
            {
              "internalType": "string",
              "name": "wallUrl",
              "type": "string"
            },
            {
              "internalType": "string",
              "name": "email",
              "type": "string"
            },
            {
              "internalType": "uint256",
              "name": "followersCount",
              "type": "uint256"
            },
            {
              "internalType": "uint256",
              "name": "followingCount",
              "type": "uint256"
            },
            {
              "internalType": "bytes32[]",
              "name": "postCount",
              "type": "bytes32[]"
            },
            {
              "internalType": "address",
              "name": "userAddress",
              "type": "address"
            },
            {
              "internalType": "address[]",
              "name": "followers",
              "type": "address[]"
            },
            {
              "internalType": "address[]",
              "name": "following",
              "type": "address[]"
            }
          ],
          "internalType": "struct UserContract.User",
          "name": "",
          "type": "tuple"
        }
      ],
      "stateMutability": "view",
      "type": "function",
      "constant": true
    }
  ],
  "bytecode": "0x60806040523480156200001157600080fd5b50604051620052be380380620052be8339818101604052810190620000379190620001a2565b600160008190555081600460006101000a81548173ffffffffffffffffffffffffffffffffffffffff021916908373ffffffffffffffffffffffffffffffffffffffff16021790555080600560006101000a81548173ffffffffffffffffffffffffffffffffffffffff021916908373ffffffffffffffffffffffffffffffffffffffff1602179055508173ffffffffffffffffffffffffffffffffffffffff1663bdf3e088306040518263ffffffff1660e01b8152600401620000fc9190620001fa565b600060405180830381600087803b1580156200011757600080fd5b505af11580156200012c573d6000803e3d6000fd5b50505050505062000217565b600080fd5b600073ffffffffffffffffffffffffffffffffffffffff82169050919050565b60006200016a826200013d565b9050919050565b6200017c816200015d565b81146200018857600080fd5b50565b6000815190506200019c8162000171565b92915050565b60008060408385031215620001bc57620001bb62000138565b5b6000620001cc858286016200018b565b9250506020620001df858286016200018b565b9150509250929050565b620001f4816200015d565b82525050565b6000602082019050620002116000830184620001e9565b92915050565b61509780620002276000396000f3fe6080604052600436106100c25760003560e01c806399d147c21161007f578063b852204311610059578063b852204314610269578063cb22441114610294578063f6f19715146102bd578063ffc9896b146102fa576100c2565b806399d147c2146101da5780639a2194a914610203578063a4b2467414610240576100c2565b806307973ccf146100c757806308acdddf146100f25780632b9462521461012f5780634546a98e14610158578063550d8e28146101745780635c8557fd146101b1575b600080fd5b3480156100d357600080fd5b506100dc610337565b6040516100e9919061351a565b60405180910390f35b3480156100fe57600080fd5b5061011960048036038101906101149190613751565b610343565b604051610126919061382f565b60405180910390f35b34801561013b57600080fd5b506101566004803603810190610151919061384a565b610a77565b005b610172600480360381019061016d91906139c0565b610e3e565b005b34801561018057600080fd5b5061019b600480360381019061019691906139c0565b6116ca565b6040516101a89190613b5d565b60405180910390f35b3480156101bd57600080fd5b506101d860048036038101906101d39190613b7f565b6118e6565b005b3480156101e657600080fd5b5061020160048036038101906101fc9190613bd2565b6119e9565b005b34801561020f57600080fd5b5061022a60048036038101906102259190613c12565b611c9d565b6040516102379190613f20565b60405180910390f35b34801561024c57600080fd5b5061026760048036038101906102629190613f42565b6121ea565b005b34801561027557600080fd5b5061027e61232b565b60405161028b9190614321565b60405180910390f35b3480156102a057600080fd5b506102bb60048036038101906102b691906139c0565b6128d5565b005b3480156102c957600080fd5b506102e460048036038101906102df9190613c12565b6129de565b6040516102f19190614352565b60405180910390f35b34801561030657600080fd5b50610321600480360381019061031c9190613c12565b6129fe565b60405161032e91906144a9565b60405180910390f35b60018060000154905081565b600060026000540361038a576040517f08c379a000000000000000000000000000000000000000000000000000000000815260040161038190614528565b60405180910390fd5b600260008190555060011515600260008473ffffffffffffffffffffffffffffffffffffffff1673ffffffffffffffffffffffffffffffffffffffff16815260200190815260200160002060009054906101000a900460ff16151514610425576040517f08c379a000000000000000000000000000000000000000000000000000000000815260040161041c90614594565b60405180910390fd5b6000600360008473ffffffffffffffffffffffffffffffffffffffff1673ffffffffffffffffffffffffffffffffffffffff16815260200190815260200160002090506000861561051157600460009054906101000a900473ffffffffffffffffffffffffffffffffffffffff1673ffffffffffffffffffffffffffffffffffffffff166333eba49a896040518263ffffffff1660e01b81526004016104cb91906145ed565b6020604051808303816000875af11580156104ea573d6000803e3d6000fd5b505050506040513d601f19601f8201168201806040525081019061050e9190614624565b90505b8160080161051e89613035565b90806001815401808255809150506001900390600052602060002001600090919091909150556000604051806101c001604052808a81526020016105618b613035565b8152602001600081526020018b81526020018961057f576000610581565b875b1515815260200160001515815260200160008152602001896105a45760006105a6565b305b73ffffffffffffffffffffffffffffffffffffffff168152602001896105cd5760006105cf565b865b73ffffffffffffffffffffffffffffffffffffffff168152602001600067ffffffffffffffff81111561060557610604613564565b5b60405190808252806020026020018201604052801561063857816020015b60608152602001906001900390816106235790505b5081526020018961064a57600061064c565b885b81526020018961065d576000610660565b600a5b60ff16815260200189151581526020018961067c57600061067e565b835b815250905061068d6007613065565b806008600061069c600761307b565b815260200190815260200160002060008201518160000190816106bf919061485d565b50602082015181600101556040820151816002015560608201518160030190816106e9919061485d565b5060808201518160040160006101000a81548160ff02191690831515021790555060a08201518160040160016101000a81548160ff02191690831515021790555060c0820151816005015560e08201518160060160006101000a81548173ffffffffffffffffffffffffffffffffffffffff021916908373ffffffffffffffffffffffffffffffffffffffff1602179055506101008201518160070160006101000a81548173ffffffffffffffffffffffffffffffffffffffff021916908373ffffffffffffffffffffffffffffffffffffffff1602179055506101208201518160080190805190602001906107e09291906131cd565b50610140820151816009015561016082015181600a015561018082015181600b0160006101000a81548160ff0219169083151502179055506101a082015181600c015590505080600960008773ffffffffffffffffffffffffffffffffffffffff1673ffffffffffffffffffffffffffffffffffffffff16815260200190815260200160002060006108718c613035565b81526020019081526020016000206000820151816000019081610894919061485d565b50602082015181600101556040820151816002015560608201518160030190816108be919061485d565b5060808201518160040160006101000a81548160ff02191690831515021790555060a08201518160040160016101000a81548160ff02191690831515021790555060c0820151816005015560e08201518160060160006101000a81548173ffffffffffffffffffffffffffffffffffffffff021916908373ffffffffffffffffffffffffffffffffffffffff1602179055506101008201518160070160006101000a81548173ffffffffffffffffffffffffffffffffffffffff021916908373ffffffffffffffffffffffffffffffffffffffff1602179055506101208201518160080190805190602001906109b59291906131cd565b50610140820151816009015561016082015181600a015561018082015181600b0160006101000a81548160ff0219169083151502179055506101a082015181600c01559050507f72d2ff68e942d073bdcb19dbadc9e768208026219f8d884b765175ff7f671a9c816060015182600001518360200151846101a001518b600a8760e00151886101000151604051610a539897969594939291906149ce565b60405180910390a18060200151935050505060016000819055509695505050505050565b60011515600260008973ffffffffffffffffffffffffffffffffffffffff1673ffffffffffffffffffffffffffffffffffffffff16815260200190815260200160002060009054906101000a900460ff16151503610b0a576040517f08c379a0000000000000000000000000000000000000000000000000000000008152600401610b0190614aa6565b60405180910390fd5b6000600360008973ffffffffffffffffffffffffffffffffffffffff1673ffffffffffffffffffffffffffffffffffffffff168152602001908152602001600020905086816000019081610b5e919061485d565b5085816001019081610b70919061485d565b5084816002019081610b82919061485d565b5082816003019081610b94919061485d565b5081816004019081610ba6919061485d565b50878160090160006101000a81548173ffffffffffffffffffffffffffffffffffffffff021916908373ffffffffffffffffffffffffffffffffffffffff16021790555083816005019081610bfb919061485d565b50610c066001613065565b6001600260008a73ffffffffffffffffffffffffffffffffffffffff1673ffffffffffffffffffffffffffffffffffffffff16815260200190815260200160002060006101000a81548160ff02191690831515021790555060068190806001815401808255809150506001900390600052602060002090600c020160009091909190915060008201816000019081610c9e9190614adc565b5060018201816001019081610cb39190614adc565b5060028201816002019081610cc89190614adc565b5060038201816003019081610cdd9190614adc565b5060048201816004019081610cf29190614adc565b5060058201816005019081610d079190614adc565b5060068201548160060155600782015481600701556008820181600801908054610d32929190613226565b506009820160009054906101000a900473ffffffffffffffffffffffffffffffffffffffff168160090160006101000a81548173ffffffffffffffffffffffffffffffffffffffff021916908373ffffffffffffffffffffffffffffffffffffffff160217905550600a820181600a01908054610db0929190613278565b50600b820181600b01908054610dc7929190613278565b5050507f3500268ebdfdd25b305294ab9516187c34eb908aa8b91d7a48ea6ccfafe4158a8160000182600101836002018460090160009054906101000a900473ffffffffffffffffffffffffffffffffffffffff16604051610e2c9493929190614c48565b60405180910390a15050505050505050565b600260005403610e83576040517f08c379a0000000000000000000000000000000000000000000000000000000008152600401610e7a90614528565b60405180910390fd5b60026000819055506000600960008573ffffffffffffffffffffffffffffffffffffffff1673ffffffffffffffffffffffffffffffffffffffff1681526020019081526020016000206000848152602001908152602001600020905060011515600260008473ffffffffffffffffffffffffffffffffffffffff1673ffffffffffffffffffffffffffffffffffffffff16815260200190815260200160002060009054906101000a900460ff16151514610f72576040517f08c379a0000000000000000000000000000000000000000000000000000000008152600401610f6990614cee565b60405180910390fd5b6001151581600b0160009054906101000a900460ff16151514610fca576040517f08c379a0000000000000000000000000000000000000000000000000000000008152600401610fc190614d5a565b60405180910390fd5b60011515600260008673ffffffffffffffffffffffffffffffffffffffff1673ffffffffffffffffffffffffffffffffffffffff16815260200190815260200160002060009054906101000a900460ff1615151461105d576040517f08c379a000000000000000000000000000000000000000000000000000000000815260040161105490614cee565b60405180910390fd5b600115158160040160009054906101000a900460ff161515146110b5576040517f08c379a00000000000000000000000000000000000000000000000000000000081526004016110ac90614dc6565b60405180910390fd5b60003490506000600360008573ffffffffffffffffffffffffffffffffffffffff1673ffffffffffffffffffffffffffffffffffffffff168152602001908152602001600020905082600a0154821015611144576040517f08c379a000000000000000000000000000000000000000000000000000000000815260040161113b90614e58565b60405180910390fd5b600015158360040160019054906101000a900460ff161515036111f757600460009054906101000a900473ffffffffffffffffffffffffffffffffffffffff1673ffffffffffffffffffffffffffffffffffffffff166323b872dd308686600c01546040518463ffffffff1660e01b81526004016111c493929190614e78565b600060405180830381600087803b1580156111de57600080fd5b505af11580156111f2573d6000803e3d6000fd5b505050505b8260070160009054906101000a900473ffffffffffffffffffffffffffffffffffffffff1673ffffffffffffffffffffffffffffffffffffffff166108fc349081150290604051600060405180830381858888f19350505050158015611261573d6000803e3d6000fd5b50838360060160006101000a81548173ffffffffffffffffffffffffffffffffffffffff021916908373ffffffffffffffffffffffffffffffffffffffff160217905550838360070160006101000a81548173ffffffffffffffffffffffffffffffffffffffff021916908373ffffffffffffffffffffffffffffffffffffffff1602179055506112f28587613089565b60018360040160016101000a81548160ff02191690831515021790555060008360040160006101000a81548160ff02191690831515021790555082600960008673ffffffffffffffffffffffffffffffffffffffff1673ffffffffffffffffffffffffffffffffffffffff1681526020019081526020016000206000878152602001908152602001600020600082018160000190816113919190614adc565b506001820154816001015560028201548160020155600382018160030190816113ba9190614adc565b506004820160009054906101000a900460ff168160040160006101000a81548160ff0219169083151502179055506004820160019054906101000a900460ff168160040160016101000a81548160ff021916908315150217905550600582015481600501556006820160009054906101000a900473ffffffffffffffffffffffffffffffffffffffff168160060160006101000a81548173ffffffffffffffffffffffffffffffffffffffff021916908373ffffffffffffffffffffffffffffffffffffffff1602179055506007820160009054906101000a900473ffffffffffffffffffffffffffffffffffffffff168160070160006101000a81548173ffffffffffffffffffffffffffffffffffffffff021916908373ffffffffffffffffffffffffffffffffffffffff16021790555060088201816008019080546115039291906132ca565b5060098201548160090155600a82015481600a0155600b820160009054906101000a900460ff1681600b0160006101000a81548160ff021916908315150217905550600c82015481600c0155905050600960008773ffffffffffffffffffffffffffffffffffffffff1673ffffffffffffffffffffffffffffffffffffffff1681526020019081526020016000206000868152602001908152602001600020600080820160006115b39190613327565b600182016000905560028201600090556003820160006115d39190613327565b6004820160006101000a81549060ff02191690556004820160016101000a81549060ff021916905560058201600090556006820160006101000a81549073ffffffffffffffffffffffffffffffffffffffff02191690556007820160006101000a81549073ffffffffffffffffffffffffffffffffffffffff02191690556008820160006116619190613367565b6009820160009055600a820160009055600b820160006101000a81549060ff0219169055600c8201600090555050806008018590806001815401808255809150506001900390600052602060002001600090919091909150555050506001600081905550505050565b6060600260008373ffffffffffffffffffffffffffffffffffffffff1673ffffffffffffffffffffffffffffffffffffffff16815260200190815260200160002060009054906101000a900460ff168015611775575060011515600260008673ffffffffffffffffffffffffffffffffffffffff1673ffffffffffffffffffffffffffffffffffffffff16815260200190815260200160002060009054906101000a900460ff161515145b6117b4576040517f08c379a00000000000000000000000000000000000000000000000000000000081526004016117ab90614cee565b60405180910390fd5b6000600960008673ffffffffffffffffffffffffffffffffffffffff1673ffffffffffffffffffffffffffffffffffffffff1681526020019081526020016000206000858152602001908152602001600020905080600801805480602002602001604051908101604052809291908181526020016000905b828210156118d857838290600052602060002001805461184b90614680565b80601f016020809104026020016040519081016040528092919081815260200182805461187790614680565b80156118c45780601f10611899576101008083540402835291602001916118c4565b820191906000526020600020905b8154815290600101906020018083116118a757829003601f168201915b50505050508152602001906001019061182c565b505050509150509392505050565b60011515600260008373ffffffffffffffffffffffffffffffffffffffff1673ffffffffffffffffffffffffffffffffffffffff16815260200190815260200160002060009054906101000a900460ff16151514611979576040517f08c379a000000000000000000000000000000000000000000000000000000000815260040161197090614cee565b60405180910390fd5b81600960008373ffffffffffffffffffffffffffffffffffffffff1673ffffffffffffffffffffffffffffffffffffffff168152602001908152602001600020600085815260200190815260200160002060040160006101000a81548160ff021916908315150217905550505050565b60011515600260008473ffffffffffffffffffffffffffffffffffffffff1673ffffffffffffffffffffffffffffffffffffffff16815260200190815260200160002060009054906101000a900460ff16151514611a7c576040517f08c379a0000000000000000000000000000000000000000000000000000000008152600401611a7390614cee565b60405180910390fd5b60011515600260008373ffffffffffffffffffffffffffffffffffffffff1673ffffffffffffffffffffffffffffffffffffffff16815260200190815260200160002060009054906101000a900460ff16151514611b0f576040517f08c379a0000000000000000000000000000000000000000000000000000000008152600401611b0690614cee565b60405180910390fd5b6000600360008373ffffffffffffffffffffffffffffffffffffffff1673ffffffffffffffffffffffffffffffffffffffff16815260200190815260200160002090506000600360008573ffffffffffffffffffffffffffffffffffffffff1673ffffffffffffffffffffffffffffffffffffffff16815260200190815260200160002090506001826006016000828254611baa9190614ede565b925050819055506001816007016000828254611bc69190614ede565b9250508190555081600a01849080600181540180825580915050600190039060005260206000200160009091909190916101000a81548173ffffffffffffffffffffffffffffffffffffffff021916908373ffffffffffffffffffffffffffffffffffffffff16021790555080600b01839080600181540180825580915050600190039060005260206000200160009091909190916101000a81548173ffffffffffffffffffffffffffffffffffffffff021916908373ffffffffffffffffffffffffffffffffffffffff16021790555050505050565b606060011515600260008473ffffffffffffffffffffffffffffffffffffffff1673ffffffffffffffffffffffffffffffffffffffff16815260200190815260200160002060009054906101000a900460ff16151514611d32576040517f08c379a0000000000000000000000000000000000000000000000000000000008152600401611d2990614594565b60405180910390fd5b6000600360008473ffffffffffffffffffffffffffffffffffffffff1673ffffffffffffffffffffffffffffffffffffffff168152602001908152602001600020905060008160080180549050905060008167ffffffffffffffff811115611d9d57611d9c613564565b5b604051908082528060200260200182016040528015611dd657816020015b611dc3613388565b815260200190600190039081611dbb5790505b5090506000805b838110156121dd576000600960008973ffffffffffffffffffffffffffffffffffffffff1673ffffffffffffffffffffffffffffffffffffffff1681526020019081526020016000206000876008018581548110611e3e57611e3d614f34565b5b90600052602060002001548152602001908152602001600020905080604051806101c0016040529081600082018054611e7690614680565b80601f0160208091040260200160405190810160405280929190818152602001828054611ea290614680565b8015611eef5780601f10611ec457610100808354040283529160200191611eef565b820191906000526020600020905b815481529060010190602001808311611ed257829003601f168201915b505050505081526020016001820154815260200160028201548152602001600382018054611f1c90614680565b80601f0160208091040260200160405190810160405280929190818152602001828054611f4890614680565b8015611f955780601f10611f6a57610100808354040283529160200191611f95565b820191906000526020600020905b815481529060010190602001808311611f7857829003601f168201915b505050505081526020016004820160009054906101000a900460ff161515151581526020016004820160019054906101000a900460ff16151515158152602001600582015481526020016006820160009054906101000a900473ffffffffffffffffffffffffffffffffffffffff1673ffffffffffffffffffffffffffffffffffffffff1673ffffffffffffffffffffffffffffffffffffffff1681526020016007820160009054906101000a900473ffffffffffffffffffffffffffffffffffffffff1673ffffffffffffffffffffffffffffffffffffffff1673ffffffffffffffffffffffffffffffffffffffff16815260200160088201805480602002602001604051908101604052809291908181526020016000905b8282101561215b5783829060005260206000200180546120ce90614680565b80601f01602080910402602001604051908101604052809291908181526020018280546120fa90614680565b80156121475780601f1061211c57610100808354040283529160200191612147565b820191906000526020600020905b81548152906001019060200180831161212a57829003601f168201915b5050505050815260200190600101906120af565b50505050815260200160098201548152602001600a8201548152602001600b820160009054906101000a900460ff16151515158152602001600c820154815250508484815181106121af576121ae614f34565b5b60200260200101819052506001836121c79190614ede565b92505080806121d590614f63565b915050611ddd565b5081945050505050919050565b60011515600260008373ffffffffffffffffffffffffffffffffffffffff1673ffffffffffffffffffffffffffffffffffffffff16815260200190815260200160002060009054906101000a900460ff1615151461227d576040517f08c379a000000000000000000000000000000000000000000000000000000000815260040161227490614cee565b60405180910390fd5b6000600960008673ffffffffffffffffffffffffffffffffffffffff1673ffffffffffffffffffffffffffffffffffffffff1681526020019081526020016000206000848152602001908152602001600020905060018160050160008282546122e69190614ede565b925050819055508060080184908060018154018082558091505060019003906000526020600020016000909190919091509081612323919061485d565b505050505050565b60606006805480602002602001604051908101604052809291908181526020016000905b828210156128cc57838290600052602060002090600c02016040518061018001604052908160008201805461238390614680565b80601f01602080910402602001604051908101604052809291908181526020018280546123af90614680565b80156123fc5780601f106123d1576101008083540402835291602001916123fc565b820191906000526020600020905b8154815290600101906020018083116123df57829003601f168201915b5050505050815260200160018201805461241590614680565b80601f016020809104026020016040519081016040528092919081815260200182805461244190614680565b801561248e5780601f106124635761010080835404028352916020019161248e565b820191906000526020600020905b81548152906001019060200180831161247157829003601f168201915b505050505081526020016002820180546124a790614680565b80601f01602080910402602001604051908101604052809291908181526020018280546124d390614680565b80156125205780601f106124f557610100808354040283529160200191612520565b820191906000526020600020905b81548152906001019060200180831161250357829003601f168201915b5050505050815260200160038201805461253990614680565b80601f016020809104026020016040519081016040528092919081815260200182805461256590614680565b80156125b25780601f10612587576101008083540402835291602001916125b2565b820191906000526020600020905b81548152906001019060200180831161259557829003601f168201915b505050505081526020016004820180546125cb90614680565b80601f01602080910402602001604051908101604052809291908181526020018280546125f790614680565b80156126445780601f1061261957610100808354040283529160200191612644565b820191906000526020600020905b81548152906001019060200180831161262757829003601f168201915b5050505050815260200160058201805461265d90614680565b80601f016020809104026020016040519081016040528092919081815260200182805461268990614680565b80156126d65780601f106126ab576101008083540402835291602001916126d6565b820191906000526020600020905b8154815290600101906020018083116126b957829003601f168201915b5050505050815260200160068201548152602001600782015481526020016008820180548060200260200160405190810160405280929190818152602001828054801561274257602002820191906000526020600020905b81548152602001906001019080831161272e575b505050505081526020016009820160009054906101000a900473ffffffffffffffffffffffffffffffffffffffff1673ffffffffffffffffffffffffffffffffffffffff1673ffffffffffffffffffffffffffffffffffffffff168152602001600a820180548060200260200160405190810160405280929190818152602001828054801561282657602002820191906000526020600020905b8160009054906101000a900473ffffffffffffffffffffffffffffffffffffffff1673ffffffffffffffffffffffffffffffffffffffff16815260200190600101908083116127dc575b50505050508152602001600b82018054806020026020016040519081016040528092919081815260200182805480156128b457602002820191906000526020600020905b8160009054906101000a900473ffffffffffffffffffffffffffffffffffffffff1673ffffffffffffffffffffffffffffffffffffffff168152602001906001019080831161286a575b5050505050815250508152602001906001019061234f565b50505050905090565b60011515600260008373ffffffffffffffffffffffffffffffffffffffff1673ffffffffffffffffffffffffffffffffffffffff16815260200190815260200160002060009054906101000a900460ff16151514612968576040517f08c379a000000000000000000000000000000000000000000000000000000000815260040161295f90614cee565b60405180910390fd5b6000600960008573ffffffffffffffffffffffffffffffffffffffff1673ffffffffffffffffffffffffffffffffffffffff1681526020019081526020016000206000848152602001908152602001600020905060018160020160008282546129d19190614ede565b9250508190555050505050565b60026020528060005260406000206000915054906101000a900460ff1681565b612a0661342c565b60011515600260008473ffffffffffffffffffffffffffffffffffffffff1673ffffffffffffffffffffffffffffffffffffffff16815260200190815260200160002060009054906101000a900460ff16151514612a99576040517f08c379a0000000000000000000000000000000000000000000000000000000008152600401612a9090614594565b60405180910390fd5b600360008373ffffffffffffffffffffffffffffffffffffffff1673ffffffffffffffffffffffffffffffffffffffff16815260200190815260200160002060405180610180016040529081600082018054612af490614680565b80601f0160208091040260200160405190810160405280929190818152602001828054612b2090614680565b8015612b6d5780601f10612b4257610100808354040283529160200191612b6d565b820191906000526020600020905b815481529060010190602001808311612b5057829003601f168201915b50505050508152602001600182018054612b8690614680565b80601f0160208091040260200160405190810160405280929190818152602001828054612bb290614680565b8015612bff5780601f10612bd457610100808354040283529160200191612bff565b820191906000526020600020905b815481529060010190602001808311612be257829003601f168201915b50505050508152602001600282018054612c1890614680565b80601f0160208091040260200160405190810160405280929190818152602001828054612c4490614680565b8015612c915780601f10612c6657610100808354040283529160200191612c91565b820191906000526020600020905b815481529060010190602001808311612c7457829003601f168201915b50505050508152602001600382018054612caa90614680565b80601f0160208091040260200160405190810160405280929190818152602001828054612cd690614680565b8015612d235780601f10612cf857610100808354040283529160200191612d23565b820191906000526020600020905b815481529060010190602001808311612d0657829003601f168201915b50505050508152602001600482018054612d3c90614680565b80601f0160208091040260200160405190810160405280929190818152602001828054612d6890614680565b8015612db55780601f10612d8a57610100808354040283529160200191612db5565b820191906000526020600020905b815481529060010190602001808311612d9857829003601f168201915b50505050508152602001600582018054612dce90614680565b80601f0160208091040260200160405190810160405280929190818152602001828054612dfa90614680565b8015612e475780601f10612e1c57610100808354040283529160200191612e47565b820191906000526020600020905b815481529060010190602001808311612e2a57829003601f168201915b50505050508152602001600682015481526020016007820154815260200160088201805480602002602001604051908101604052809291908181526020018280548015612eb357602002820191906000526020600020905b815481526020019060010190808311612e9f575b505050505081526020016009820160009054906101000a900473ffffffffffffffffffffffffffffffffffffffff1673ffffffffffffffffffffffffffffffffffffffff1673ffffffffffffffffffffffffffffffffffffffff168152602001600a8201805480602002602001604051908101604052809291908181526020018280548015612f9757602002820191906000526020600020905b8160009054906101000a900473ffffffffffffffffffffffffffffffffffffffff1673ffffffffffffffffffffffffffffffffffffffff1681526020019060010190808311612f4d575b50505050508152602001600b820180548060200260200160405190810160405280929190818152602001828054801561302557602002820191906000526020600020905b8160009054906101000a900473ffffffffffffffffffffffffffffffffffffffff1673ffffffffffffffffffffffffffffffffffffffff1681526020019060010190808311612fdb575b5050505050815250509050919050565b6000816040516020016130489190614fe7565b604051602081830303815290604052805190602001209050919050565b6001816000016000828254019250508190555050565b600081600001549050919050565b6000600360008373ffffffffffffffffffffffffffffffffffffffff1673ffffffffffffffffffffffffffffffffffffffff1681526020019081526020016000206008019050600080600090505b828054905081101561312257848382815481106130f7576130f6614f34565b5b90600052602060002001540361310f57809150613122565b808061311a90614f63565b9150506130d7565b5060008190505b6001838054905061313a9190614ffe565b81101561319f578260018261314f9190614ede565b815481106131605761315f614f34565b5b906000526020600020015483828154811061317e5761317d614f34565b5b9060005260206000200181905550808061319790614f63565b915050613129565b50818054806131b1576131b0615032565b5b6001900381819060005260206000200160009055905550505050565b828054828255906000526020600020908101928215613215579160200282015b82811115613214578251829081613204919061485d565b50916020019190600101906131ed565b5b50905061322291906134a3565b5090565b8280548282559060005260206000209081019282156132675760005260206000209182015b8281111561326657825482559160010191906001019061324b565b5b50905061327491906134c7565b5090565b8280548282559060005260206000209081019282156132b95760005260206000209182015b828111156132b857825482559160010191906001019061329d565b5b5090506132c691906134e4565b5090565b8280548282559060005260206000209081019282156133165760005260206000209182015b8281111561331557828290816133059190614adc565b50916001019190600101906132ef565b5b50905061332391906134a3565b5090565b50805461333390614680565b6000825580601f106133455750613364565b601f01602090049060005260206000209081019061336391906134e4565b5b50565b508054600082559060005260206000209081019061338591906134a3565b50565b604051806101c001604052806060815260200160008019168152602001600081526020016060815260200160001515815260200160001515815260200160008152602001600073ffffffffffffffffffffffffffffffffffffffff168152602001600073ffffffffffffffffffffffffffffffffffffffff168152602001606081526020016000815260200160008152602001600015158152602001600081525090565b604051806101800160405280606081526020016060815260200160608152602001606081526020016060815260200160608152602001600081526020016000815260200160608152602001600073ffffffffffffffffffffffffffffffffffffffff16815260200160608152602001606081525090565b5b808211156134c357600081816134ba9190613327565b506001016134a4565b5090565b5b808211156134e05760008160009055506001016134c8565b5090565b5b808211156134fd5760008160009055506001016134e5565b5090565b6000819050919050565b61351481613501565b82525050565b600060208201905061352f600083018461350b565b92915050565b6000604051905090565b600080fd5b600080fd5b600080fd5b600080fd5b6000601f19601f8301169050919050565b7f4e487b7100000000000000000000000000000000000000000000000000000000600052604160045260246000fd5b61359c82613553565b810181811067ffffffffffffffff821117156135bb576135ba613564565b5b80604052505050565b60006135ce613535565b90506135da8282613593565b919050565b600067ffffffffffffffff8211156135fa576135f9613564565b5b61360382613553565b9050602081019050919050565b82818337600083830152505050565b600061363261362d846135df565b6135c4565b90508281526020810184848401111561364e5761364d61354e565b5b613659848285613610565b509392505050565b600082601f83011261367657613675613549565b5b813561368684826020860161361f565b91505092915050565b60008115159050919050565b6136a48161368f565b81146136af57600080fd5b50565b6000813590506136c18161369b565b92915050565b6136d081613501565b81146136db57600080fd5b50565b6000813590506136ed816136c7565b92915050565b600073ffffffffffffffffffffffffffffffffffffffff82169050919050565b600061371e826136f3565b9050919050565b61372e81613713565b811461373957600080fd5b50565b60008135905061374b81613725565b92915050565b60008060008060008060c0878903121561376e5761376d61353f565b5b600087013567ffffffffffffffff81111561378c5761378b613544565b5b61379889828a01613661565b965050602087013567ffffffffffffffff8111156137b9576137b8613544565b5b6137c589828a01613661565b95505060406137d689828a016136b2565b94505060606137e789828a016136de565b93505060806137f889828a016136b2565b92505060a061380989828a0161373c565b9150509295509295509295565b6000819050919050565b61382981613816565b82525050565b60006020820190506138446000830184613820565b92915050565b600080600080600080600060e0888a0312156138695761386861353f565b5b60006138778a828b0161373c565b975050602088013567ffffffffffffffff81111561389857613897613544565b5b6138a48a828b01613661565b965050604088013567ffffffffffffffff8111156138c5576138c4613544565b5b6138d18a828b01613661565b955050606088013567ffffffffffffffff8111156138f2576138f1613544565b5b6138fe8a828b01613661565b945050608088013567ffffffffffffffff81111561391f5761391e613544565b5b61392b8a828b01613661565b93505060a088013567ffffffffffffffff81111561394c5761394b613544565b5b6139588a828b01613661565b92505060c088013567ffffffffffffffff81111561397957613978613544565b5b6139858a828b01613661565b91505092959891949750929550565b61399d81613816565b81146139a857600080fd5b50565b6000813590506139ba81613994565b92915050565b6000806000606084860312156139d9576139d861353f565b5b60006139e78682870161373c565b93505060206139f8868287016139ab565b9250506040613a098682870161373c565b9150509250925092565b600081519050919050565b600082825260208201905092915050565b6000819050602082019050919050565b600081519050919050565b600082825260208201905092915050565b60005b83811015613a79578082015181840152602081019050613a5e565b83811115613a88576000848401525b50505050565b6000613a9982613a3f565b613aa38185613a4a565b9350613ab3818560208601613a5b565b613abc81613553565b840191505092915050565b6000613ad38383613a8e565b905092915050565b6000602082019050919050565b6000613af382613a13565b613afd8185613a1e565b935083602082028501613b0f85613a2f565b8060005b85811015613b4b5784840389528151613b2c8582613ac7565b9450613b3783613adb565b925060208a01995050600181019050613b13565b50829750879550505050505092915050565b60006020820190508181036000830152613b778184613ae8565b905092915050565b600080600060608486031215613b9857613b9761353f565b5b6000613ba6868287016139ab565b9350506020613bb7868287016136b2565b9250506040613bc88682870161373c565b9150509250925092565b60008060408385031215613be957613be861353f565b5b6000613bf78582860161373c565b9250506020613c088582860161373c565b9150509250929050565b600060208284031215613c2857613c2761353f565b5b6000613c368482850161373c565b91505092915050565b600081519050919050565b600082825260208201905092915050565b6000819050602082019050919050565b613c7481613816565b82525050565b613c8381613501565b82525050565b613c928161368f565b82525050565b613ca181613713565b82525050565b6000613cb2826136f3565b9050919050565b613cc281613ca7565b82525050565b600082825260208201905092915050565b6000613ce482613a13565b613cee8185613cc8565b935083602082028501613d0085613a2f565b8060005b85811015613d3c5784840389528151613d1d8582613ac7565b9450613d2883613adb565b925060208a01995050600181019050613d04565b50829750879550505050505092915050565b60006101c0830160008301518482036000860152613d6c8282613a8e565b9150506020830151613d816020860182613c6b565b506040830151613d946040860182613c7a565b5060608301518482036060860152613dac8282613a8e565b9150506080830151613dc16080860182613c89565b5060a0830151613dd460a0860182613c89565b5060c0830151613de760c0860182613c7a565b5060e0830151613dfa60e0860182613c98565b50610100830151613e0f610100860182613cb9565b50610120830151848203610120860152613e298282613cd9565b915050610140830151613e40610140860182613c7a565b50610160830151613e55610160860182613c7a565b50610180830151613e6a610180860182613c89565b506101a0830151613e7f6101a0860182613c7a565b508091505092915050565b6000613e968383613d4e565b905092915050565b6000602082019050919050565b6000613eb682613c3f565b613ec08185613c4a565b935083602082028501613ed285613c5b565b8060005b85811015613f0e5784840389528151613eef8582613e8a565b9450613efa83613e9e565b925060208a01995050600181019050613ed6565b50829750879550505050505092915050565b60006020820190508181036000830152613f3a8184613eab565b905092915050565b60008060008060808587031215613f5c57613f5b61353f565b5b6000613f6a8782880161373c565b945050602085013567ffffffffffffffff811115613f8b57613f8a613544565b5b613f9787828801613661565b9350506040613fa8878288016139ab565b9250506060613fb98782880161373c565b91505092959194509250565b600081519050919050565b600082825260208201905092915050565b6000819050602082019050919050565b600081519050919050565b600082825260208201905092915050565b6000819050602082019050919050565b60006140298383613c6b565b60208301905092915050565b6000602082019050919050565b600061404d82613ff1565b6140578185613ffc565b93506140628361400d565b8060005b8381101561409357815161407a888261401d565b975061408583614035565b925050600181019050614066565b5085935050505092915050565b600081519050919050565b600082825260208201905092915050565b6000819050602082019050919050565b60006140d88383613c98565b60208301905092915050565b6000602082019050919050565b60006140fc826140a0565b61410681856140ab565b9350614111836140bc565b8060005b8381101561414257815161412988826140cc565b9750614134836140e4565b925050600181019050614115565b5085935050505092915050565b600061018083016000830151848203600086015261416d8282613a8e565b915050602083015184820360208601526141878282613a8e565b915050604083015184820360408601526141a18282613a8e565b915050606083015184820360608601526141bb8282613a8e565b915050608083015184820360808601526141d58282613a8e565b91505060a083015184820360a08601526141ef8282613a8e565b91505060c083015161420460c0860182613c7a565b5060e083015161421760e0860182613c7a565b506101008301518482036101008601526142318282614042565b915050610120830151614248610120860182613c98565b5061014083015184820361014086015261426282826140f1565b91505061016083015184820361016086015261427e82826140f1565b9150508091505092915050565b6000614297838361414f565b905092915050565b6000602082019050919050565b60006142b782613fc5565b6142c18185613fd0565b9350836020820285016142d385613fe1565b8060005b8581101561430f57848403895281516142f0858261428b565b94506142fb8361429f565b925060208a019950506001810190506142d7565b50829750879550505050505092915050565b6000602082019050818103600083015261433b81846142ac565b905092915050565b61434c8161368f565b82525050565b60006020820190506143676000830184614343565b92915050565b600061018083016000830151848203600086015261438b8282613a8e565b915050602083015184820360208601526143a58282613a8e565b915050604083015184820360408601526143bf8282613a8e565b915050606083015184820360608601526143d98282613a8e565b915050608083015184820360808601526143f38282613a8e565b91505060a083015184820360a086015261440d8282613a8e565b91505060c083015161442260c0860182613c7a565b5060e083015161443560e0860182613c7a565b5061010083015184820361010086015261444f8282614042565b915050610120830151614466610120860182613c98565b5061014083015184820361014086015261448082826140f1565b91505061016083015184820361016086015261449c82826140f1565b9150508091505092915050565b600060208201905081810360008301526144c3818461436d565b905092915050565b600082825260208201905092915050565b7f5265656e7472616e637947756172643a207265656e7472616e742063616c6c00600082015250565b6000614512601f836144cb565b915061451d826144dc565b602082019050919050565b6000602082019050818103600083015261454181614505565b9050919050565b7f55736572206e6f7420726567697374657265642e000000000000000000000000600082015250565b600061457e6014836144cb565b915061458982614548565b602082019050919050565b600060208201905081810360008301526145ad81614571565b9050919050565b60006145bf82613a3f565b6145c981856144cb565b93506145d9818560208601613a5b565b6145e281613553565b840191505092915050565b6000602082019050818103600083015261460781846145b4565b905092915050565b60008151905061461e816136c7565b92915050565b60006020828403121561463a5761463961353f565b5b60006146488482850161460f565b91505092915050565b7f4e487b7100000000000000000000000000000000000000000000000000000000600052602260045260246000fd5b6000600282049050600182168061469857607f821691505b6020821081036146ab576146aa614651565b5b50919050565b60008190508160005260206000209050919050565b60006020601f8301049050919050565b600082821b905092915050565b6000600883026147137fffffffffffffffffffffffffffffffffffffffffffffffffffffffffffffffff826146d6565b61471d86836146d6565b95508019841693508086168417925050509392505050565b6000819050919050565b600061475a61475561475084613501565b614735565b613501565b9050919050565b6000819050919050565b6147748361473f565b61478861478082614761565b8484546146e3565b825550505050565b600090565b61479d614790565b6147a881848461476b565b505050565b5b818110156147cc576147c1600082614795565b6001810190506147ae565b5050565b601f821115614811576147e2816146b1565b6147eb846146c6565b810160208510156147fa578190505b61480e614806856146c6565b8301826147ad565b50505b505050565b600082821c905092915050565b600061483460001984600802614816565b1980831691505092915050565b600061484d8383614823565b9150826002028217905092915050565b61486682613a3f565b67ffffffffffffffff81111561487f5761487e613564565b5b6148898254614680565b6148948282856147d0565b600060209050601f8311600181146148c757600084156148b5578287015190505b6148bf8582614841565b865550614927565b601f1984166148d5866146b1565b60005b828110156148fd578489015182556001820191506020850194506020810190506148d8565b8683101561491a5784890151614916601f891682614823565b8355505b6001600288020188555050505b505050505050565b6000819050919050565b600061495461494f61494a8461492f565b614735565b613501565b9050919050565b61496481614939565b82525050565b61497381613713565b82525050565b600061499461498f61498a846136f3565b614735565b6136f3565b9050919050565b60006149a682614979565b9050919050565b60006149b88261499b565b9050919050565b6149c8816149ad565b82525050565b60006101008201905081810360008301526149e9818b6145b4565b905081810360208301526149fd818a6145b4565b9050614a0c6040830189613820565b614a19606083018861350b565b614a26608083018761350b565b614a3360a083018661495b565b614a4060c083018561496a565b614a4d60e08301846149bf565b9998505050505050505050565b7f5573657220616c72656164792065786973747300000000000000000000000000600082015250565b6000614a906013836144cb565b9150614a9b82614a5a565b602082019050919050565b60006020820190508181036000830152614abf81614a83565b9050919050565b600081549050614ad581614680565b9050919050565b818103614aea575050614bc2565b614af382614ac6565b67ffffffffffffffff811115614b0c57614b0b613564565b5b614b168254614680565b614b218282856147d0565b6000601f831160018114614b505760008415614b3e578287015490505b614b488582614841565b865550614bbb565b601f198416614b5e876146b1565b9650614b69866146b1565b60005b82811015614b9157848901548255600182019150600185019450602081019050614b6c565b86831015614bae5784890154614baa601f891682614823565b8355505b6001600288020188555050505b5050505050505b565b60008154614bd181614680565b614bdb81866144cb565b94506001821660008114614bf65760018114614c0c57614c3f565b60ff198316865281151560200286019350614c3f565b614c15856146b1565b60005b83811015614c3757815481890152600182019150602081019050614c18565b808801955050505b50505092915050565b60006080820190508181036000830152614c628187614bc4565b90508181036020830152614c768186614bc4565b90508181036040830152614c8a8185614bc4565b9050614c99606083018461496a565b95945050505050565b7f55736572206e6f74207265676973746572656400000000000000000000000000600082015250565b6000614cd86013836144cb565b9150614ce382614ca2565b602082019050919050565b60006020820190508181036000830152614d0781614ccb565b9050919050565b7f506f7374206973206e6f7420616e206e66740000000000000000000000000000600082015250565b6000614d446012836144cb565b9150614d4f82614d0e565b602082019050919050565b60006020820190508181036000830152614d7381614d37565b9050919050565b7f506f7374206e6f7420666f722073616c65000000000000000000000000000000600082015250565b6000614db06011836144cb565b9150614dbb82614d7a565b602082019050919050565b60006020820190508181036000830152614ddf81614da3565b9050919050565b7f416d6f756e742073686f756c642062652067726561746572207468616e20626160008201527f7365207072696365206f662074686520706f73742e0000000000000000000000602082015250565b6000614e426035836144cb565b9150614e4d82614de6565b604082019050919050565b60006020820190508181036000830152614e7181614e35565b9050919050565b6000606082019050614e8d600083018661496a565b614e9a602083018561496a565b614ea7604083018461350b565b949350505050565b7f4e487b7100000000000000000000000000000000000000000000000000000000600052601160045260246000fd5b6000614ee982613501565b9150614ef483613501565b9250827fffffffffffffffffffffffffffffffffffffffffffffffffffffffffffffffff03821115614f2957614f28614eaf565b5b828201905092915050565b7f4e487b7100000000000000000000000000000000000000000000000000000000600052603260045260246000fd5b6000614f6e82613501565b91507fffffffffffffffffffffffffffffffffffffffffffffffffffffffffffffffff8203614fa057614f9f614eaf565b5b600182019050919050565b600081905092915050565b6000614fc182613a3f565b614fcb8185614fab565b9350614fdb818560208601613a5b565b80840191505092915050565b6000614ff38284614fb6565b915081905092915050565b600061500982613501565b915061501483613501565b92508282101561502757615026614eaf565b5b828203905092915050565b7f4e487b7100000000000000000000000000000000000000000000000000000000600052603160045260246000fdfea2646970667358221220d8371e0d21114000c4c6764cbe5994027979ddbb38cc26924f00f51051a6b06b64736f6c634300080f0033",
  "immutableReferences": {},
  "source": "// SPDX-License-Identifier: GPL-3.0\n\npragma solidity >=0.7.0 <0.9.0;\n\nimport \"@openzeppelin/contracts/utils/Counters.sol\";\nimport \"@openzeppelin/contracts/utils/Counters.sol\";\nimport \"@openzeppelin/contracts/token/ERC721/extensions/ERC721URIStorage.sol\";\nimport \"@openzeppelin/contracts/security/ReentrancyGuard.sol\";\nimport \"@openzeppelin/contracts/token/ERC721/ERC721.sol\";\n\ncontract TrisNFT is ERC721URIStorage{\n    using Counters for Counters.Counter;\n    \n    constructor() ERC721(\"TrisNFT\", \"TRI\"){}   \n    Counters.Counter private _tokenId;\n    address contractAddress = address(this);\n\n    function mintToken(string memory tokenUri) public returns(uint256 itemId){\n        require(contractAddress == msg.sender, \"Only the marketplace contract can call this function\");\n        _tokenId.increment();\n        uint256 currentId = _tokenId.current();\n        _mint(contractAddress, currentId);\n        _setTokenURI(currentId, tokenUri);\n        return currentId;\n    }\n\n    function updateContractAddress( address marketPlaceAddress) public  {\n        require(contractAddress == address(this) || contractAddress == msg.sender, \"Address is already declared or only the  owner contract can change the address.\");\n        contractAddress = marketPlaceAddress;\n    }\n\n    function returnCurrentUser() public view returns(address){\n        return msg.sender;\n    }\n\n    /*\n        A custom function to transfer ownership from on owner to another.\n    */\n    function transferNft(address currOwner, address newOwner, uint tokenId) public {\n        transferFrom(currOwner, newOwner, tokenId);\n    }\n\n    function getLatestTokenId() public view returns(uint256 itemId){\n        return _tokenId.current();\n    }\n\n    function returnOwner(uint id) public view returns(address){\n        return ownerOf(id);\n    }\n}\n\ncontract UserContract is ReentrancyGuard{\n    using Counters for Counters.Counter;\n    Counters.Counter public userCount;\n    mapping(address => bool) public userIsRegistered;\n    mapping(address => User) private mapToUser;\n    address private trisNftAddress;\n    address private owner;\n    User[] private usersList;\n    Counters.Counter totalPostCount;\n    mapping(uint256 => Post) totalPost;\n    mapping(address => mapping(bytes32 => Post)) private _postsOfUsers;\n\n    constructor(address nftAddress, address ownerAddress){\n        trisNftAddress = nftAddress;\n        owner = ownerAddress;\n        TrisNFT(nftAddress).updateContractAddress(address(this));\n    }\n\n    \n\n    /*\n        User struct for storing user data. \n        name, userName, userAddress are required as in the UI the rest can be 0 or empty.\n     */\n    struct User{\n        string name;\n        string userName;\n        string avatarUrl;\n        string bio;\n        string wallUrl;\n        string email;\n        uint256 followersCount;\n        uint256 followingCount;\n        bytes32[] postCount;\n        address userAddress;\n        address[] followers;\n        address[] following;\n    }\n\n    /*\n        Post struct for storing the posts of each user.\n        The token id connects post to the nft in ./Tris_NFT.sol\n\n        A post can be either NFT or a regular post\n     */\n    struct Post{\n        string post;\n        bytes32 postId;\n        uint256 likes;\n        string title;\n        bool isForSale;\n        bool postIsBought;\n        uint256 commentsCount;\n        address owner;\n        address payable seller;\n        string[] comments;\n        uint256 priceByOwner;\n        uint256 basePrice;\n        bool isNft;\n        uint256 tokenId;\n    }\n\n    /*\n        Events \n     */\n    event UserCreated (string name, string userName, string avatarUrl, address userAddress);\n    event PostUploaded(string title, string post, bytes32 postId, uint256 tokenId, uint256 priceByOwner, uint256 basePrice, address owner, address seller);\n    event PostSold(string post, address owner, address seller, uint256 price);\n\n    function createUser(address account, string memory name, string memory userName, string memory avatarUrl, string memory email, string memory bio, string memory wallUrl) public {\n        require(userIsRegistered[account] != true, \"User already exists\");\n        User storage userData = mapToUser[account];\n        userData.name = name;\n        userData.userName = userName;\n        userData.avatarUrl = avatarUrl;\n        userData.bio = bio;\n        userData.wallUrl = wallUrl;\n        userData.userAddress = account;\n        userData.email = email;\n        userCount.increment();\n        userIsRegistered[account] = true;\n        usersList.push(userData);\n        emit UserCreated(userData.name, userData.userName, userData.avatarUrl, userData.userAddress);\n    }\n\n    /*\n        Function to upload post. This requires the post parameters, \n        and uploads the post as either nft or a regular post.\n    */\n    function uploadPost(string memory title, string memory post, bool isNft, uint256 priceByOwner, bool isForSale, address account) public nonReentrant returns(bytes32){\n        require(userIsRegistered[account] == true, \"User not registered.\");\n        User storage currUser = mapToUser[account];\n\n        uint256 tokenId;\n\n        if(isNft){\n            tokenId = TrisNFT(trisNftAddress).mintToken(post);\n        }\n\n        currUser.postCount.push(callKeccak256(post));\n        Post memory currPost = Post(\n            {\n                post: post,\n                postId: callKeccak256(post),\n                likes: 0,\n                title: title,\n                postIsBought: false,\n                isForSale: isNft ? isForSale : false,\n                isNft: isNft,\n                commentsCount: 0,\n                priceByOwner: isNft ? priceByOwner : 0,\n                comments: new string[](0),\n                tokenId: isNft ? tokenId : 0,\n                basePrice: isNft ? 10 : 0,\n                owner: isNft ? (address(this)) : (address(0)),\n                seller: isNft ? payable(account) : payable(address(0))\n            }\n        );\n        totalPostCount.increment();\n        totalPost[totalPostCount.current()] = currPost;\n        _postsOfUsers[account][callKeccak256(post)] = currPost;\n        emit PostUploaded(currPost.title, currPost.post, currPost.postId, currPost.tokenId, priceByOwner, 10, currPost.owner, currPost.seller);\n        return currPost.postId;\n    }\n\n\n    /*\n        Dedicated function to buy/sell nfts before selling the nft owner should make sure he has \n        made the NFT avaialbe for sale and the post is NFT. \n        Before call this function the transferNFT in TrisNFT contract should be called to transfer the ownership.\n        That function can't be called form this function because that checks for msg.sender to be equal to \n        post owner but when called from here msg.sender is the address of this contract and not the owner.\n        - If the post is already sold then it will be checked in the frontend throught the postIsBought parameter\n          only if the postIsBought turns out to be true then the the method in the TrisNft will be called.\n    */\n    function buyPost(address ownerAddress, bytes32 postId, address newOwnerAddress) public payable nonReentrant{\n        Post storage currPost = _postsOfUsers[ownerAddress][postId];\n        require(userIsRegistered[newOwnerAddress] == true, \"User not registered\");\n        require(currPost.isNft == true, \"Post is not an nft\");\n        require(userIsRegistered[ownerAddress] == true, \"User not registered\");\n        require(currPost.isForSale == true, \"Post not for sale\");\n        uint256 price = msg.value;\n        User storage newUser = mapToUser[newOwnerAddress];\n        require(price >= currPost.basePrice, \"Amount should be greater than base price of the post.\");\n        if(currPost.postIsBought == false){\n            IERC721(trisNftAddress).transferFrom(address(this), newOwnerAddress, currPost.tokenId);\n        }\n        currPost.seller.transfer(msg.value);\n        currPost.owner = (newOwnerAddress);\n        currPost.seller = payable(newOwnerAddress);\n        removePost(postId, ownerAddress);\n        currPost.postIsBought = true;\n        currPost.isForSale = false;\n        _postsOfUsers[newOwnerAddress][postId] = currPost;\n        delete _postsOfUsers[ownerAddress][postId];\n        newUser.postCount.push(postId);\n    }\n\n    function getUserList() public view returns(User[] memory){\n        return usersList;\n    }\n\n    function updatePostForSale(bytes32 id, bool isForSale, address account) public {\n        require(userIsRegistered[account] == true, \"User not registered\");\n        _postsOfUsers[account][id].isForSale = isForSale;\n    }\n\n    function follow (address follower, address account) public {\n     require(userIsRegistered[follower] == true, \"User not registered\");\n     require(userIsRegistered[account] == true, \"User not registered\"); \n     User storage currUser = mapToUser[account];\n     User storage currFollower = mapToUser[follower];\n     currUser.followersCount += 1;\n     currFollower.followingCount += 1;\n     currUser.followers.push(follower);\n     currFollower.following.push(account);\n    }\n\n    function getUserPosts(address sender) public view returns (Post[] memory userPosts){\n        require(userIsRegistered[sender] == true, \"User not registered.\");\n        User storage currUser = mapToUser[sender];\n        uint userPostCount = currUser.postCount.length;\n        Post[] memory currUserPosts = new Post[](userPostCount);\n        uint currentIndex = 0;\n        for(uint i = 0; i < userPostCount; i++){\n           Post storage currPost = _postsOfUsers[sender][currUser.postCount[currentIndex]];\n           currUserPosts[currentIndex] = currPost;\n           currentIndex += 1;\n        }\n\n        return currUserPosts;\n    }\n\n    function removePost(bytes32 postId, address postOwner) internal {\n        bytes32[] storage postCount = mapToUser[postOwner].postCount;\n        uint index;\n        for(uint i = 0; i < postCount.length; i++){\n            if(postCount[i] == postId){\n                index = i;\n                break;\n            }\n        }\n        for(uint i = index; i < postCount.length - 1; i++){\n            postCount[i] = postCount[i + 1];\n        }\n        postCount.pop();\n    }\n\n    function likePost(address postOwner, bytes32 postId, address userAddress) public {\n        require(userIsRegistered[userAddress] == true, \"User not registered\");\n        Post storage currPost = _postsOfUsers[postOwner][postId];\n        currPost.likes += 1;\n    }\n\n    function getComment ( address postOwner, bytes32 postId, address sender ) public view returns(string[] memory){\n        require(userIsRegistered[sender] && userIsRegistered[postOwner] == true, \"User not registered\");\n        Post storage currPost = _postsOfUsers[postOwner][postId];\n        return currPost.comments;\n    }\n\n    function postComment( address postOwner, string memory comment, bytes32 postId, address sender ) public {\n        require(userIsRegistered[sender] == true, \"User not registered\");\n        Post storage currPost = _postsOfUsers[postOwner][postId];\n        currPost.commentsCount += 1;\n        currPost.comments.push(comment);\n    }\n\n    function getUserData(address account) public view returns(User memory){\n        require(userIsRegistered[account] == true, \"User not registered.\");\n        return mapToUser[account];\n    }\n\n    function callKeccak256(string memory post) private pure returns( bytes32 result){\n      return keccak256(abi.encodePacked(post));\n   }  \n\n}\n",
  "sourcePath": "/home/astar/Documents/tris/contracts/User.sol",
  "compiler": {
    "name": "solc",
    "version": "0.8.15+commit.e14f2714.Emscripten.clang"
  },
  "schemaVersion": "3.4.9",
  "updatedAt": "2022-08-21T08:33:54.012Z",
  "networkType": "ethereum",
  "devdoc": {
    "kind": "dev",
    "methods": {},
    "version": 1
  },
  "userdoc": {
    "kind": "user",
    "methods": {},
    "version": 1
  }
}