{
  "contractName": "UserContract",
  "abi": [
    {
      "inputs": [
        {
          "internalType": "address",
          "name": "nftAddress",
          "type": "address"
        },
        {
          "internalType": "address",
          "name": "ownerAddress",
          "type": "address"
        }
      ],
      "stateMutability": "nonpayable",
      "type": "constructor"
    },
    {
      "anonymous": false,
      "inputs": [
        {
          "indexed": false,
          "internalType": "string",
          "name": "post",
          "type": "string"
        },
        {
          "indexed": false,
          "internalType": "address",
          "name": "owner",
          "type": "address"
        },
        {
          "indexed": false,
          "internalType": "address",
          "name": "seller",
          "type": "address"
        },
        {
          "indexed": false,
          "internalType": "uint256",
          "name": "price",
          "type": "uint256"
        }
      ],
      "name": "PostSold",
      "type": "event"
    },
    {
      "anonymous": false,
      "inputs": [
        {
          "indexed": false,
          "internalType": "string",
          "name": "title",
          "type": "string"
        },
        {
          "indexed": false,
          "internalType": "string",
          "name": "post",
          "type": "string"
        },
        {
          "indexed": false,
          "internalType": "bytes32",
          "name": "postId",
          "type": "bytes32"
        },
        {
          "indexed": false,
          "internalType": "uint256",
          "name": "tokenId",
          "type": "uint256"
        },
        {
          "indexed": false,
          "internalType": "uint256",
          "name": "priceByOwner",
          "type": "uint256"
        },
        {
          "indexed": false,
          "internalType": "uint256",
          "name": "basePrice",
          "type": "uint256"
        },
        {
          "indexed": false,
          "internalType": "address",
          "name": "owner",
          "type": "address"
        },
        {
          "indexed": false,
          "internalType": "address",
          "name": "seller",
          "type": "address"
        }
      ],
      "name": "PostUploaded",
      "type": "event"
    },
    {
      "anonymous": false,
      "inputs": [
        {
          "indexed": false,
          "internalType": "string",
          "name": "name",
          "type": "string"
        },
        {
          "indexed": false,
          "internalType": "string",
          "name": "userName",
          "type": "string"
        },
        {
          "indexed": false,
          "internalType": "string",
          "name": "avatarUrl",
          "type": "string"
        },
        {
          "indexed": false,
          "internalType": "address",
          "name": "userAddress",
          "type": "address"
        }
      ],
      "name": "UserCreated",
      "type": "event"
    },
    {
      "inputs": [],
      "name": "userCount",
      "outputs": [
        {
          "internalType": "uint256",
          "name": "_value",
          "type": "uint256"
        }
      ],
      "stateMutability": "view",
      "type": "function",
      "constant": true
    },
    {
      "inputs": [
        {
          "internalType": "address",
          "name": "",
          "type": "address"
        }
      ],
      "name": "userIsRegistered",
      "outputs": [
        {
          "internalType": "bool",
          "name": "",
          "type": "bool"
        }
      ],
      "stateMutability": "view",
      "type": "function",
      "constant": true
    },
    {
      "inputs": [
        {
          "internalType": "string",
          "name": "name",
          "type": "string"
        },
        {
          "internalType": "string",
          "name": "userName",
          "type": "string"
        },
        {
          "internalType": "string",
          "name": "avatarUrl",
          "type": "string"
        },
        {
          "internalType": "string",
          "name": "bio",
          "type": "string"
        },
        {
          "internalType": "string",
          "name": "wallUrl",
          "type": "string"
        }
      ],
      "name": "createUser",
      "outputs": [],
      "stateMutability": "nonpayable",
      "type": "function"
    },
    {
      "inputs": [
        {
          "internalType": "string",
          "name": "title",
          "type": "string"
        },
        {
          "internalType": "string",
          "name": "post",
          "type": "string"
        },
        {
          "internalType": "bool",
          "name": "isNft",
          "type": "bool"
        },
        {
          "internalType": "uint256",
          "name": "priceByOwner",
          "type": "uint256"
        },
        {
          "internalType": "bool",
          "name": "isForSale",
          "type": "bool"
        }
      ],
      "name": "uploadPost",
      "outputs": [],
      "stateMutability": "nonpayable",
      "type": "function"
    },
    {
      "inputs": [
        {
          "internalType": "address",
          "name": "ownerAddress",
          "type": "address"
        },
        {
          "internalType": "bytes32",
          "name": "postId",
          "type": "bytes32"
        },
        {
          "internalType": "address",
          "name": "newOwnerAddress",
          "type": "address"
        }
      ],
      "name": "buyPost",
      "outputs": [],
      "stateMutability": "payable",
      "type": "function",
      "payable": true
    },
    {
      "inputs": [],
      "name": "getUserList",
      "outputs": [
        {
          "components": [
            {
              "internalType": "string",
              "name": "name",
              "type": "string"
            },
            {
              "internalType": "string",
              "name": "userName",
              "type": "string"
            },
            {
              "internalType": "string",
              "name": "avatarUrl",
              "type": "string"
            },
            {
              "internalType": "string",
              "name": "bio",
              "type": "string"
            },
            {
              "internalType": "string",
              "name": "wallUrl",
              "type": "string"
            },
            {
              "internalType": "uint256",
              "name": "followers",
              "type": "uint256"
            },
            {
              "internalType": "uint256",
              "name": "following",
              "type": "uint256"
            },
            {
              "internalType": "bytes32[]",
              "name": "postCount",
              "type": "bytes32[]"
            },
            {
              "internalType": "address",
              "name": "userAddress",
              "type": "address"
            },
            {
              "internalType": "address[]",
              "name": "friends",
              "type": "address[]"
            }
          ],
          "internalType": "struct UserContract.User[]",
          "name": "",
          "type": "tuple[]"
        }
      ],
      "stateMutability": "view",
      "type": "function",
      "constant": true
    },
    {
      "inputs": [
        {
          "internalType": "bytes32",
          "name": "id",
          "type": "bytes32"
        },
        {
          "internalType": "bool",
          "name": "isForSale",
          "type": "bool"
        }
      ],
      "name": "updatePostForSale",
      "outputs": [],
      "stateMutability": "nonpayable",
      "type": "function"
    },
    {
      "inputs": [],
      "name": "getUserPosts",
      "outputs": [
        {
          "components": [
            {
              "internalType": "string",
              "name": "post",
              "type": "string"
            },
            {
              "internalType": "bytes32",
              "name": "postId",
              "type": "bytes32"
            },
            {
              "internalType": "uint256",
              "name": "likes",
              "type": "uint256"
            },
            {
              "internalType": "string",
              "name": "title",
              "type": "string"
            },
            {
              "internalType": "bool",
              "name": "isForSale",
              "type": "bool"
            },
            {
              "internalType": "bool",
              "name": "postIsBought",
              "type": "bool"
            },
            {
              "internalType": "uint256",
              "name": "commentsCount",
              "type": "uint256"
            },
            {
              "internalType": "address",
              "name": "owner",
              "type": "address"
            },
            {
              "internalType": "address payable",
              "name": "seller",
              "type": "address"
            },
            {
              "internalType": "string[]",
              "name": "comments",
              "type": "string[]"
            },
            {
              "internalType": "uint256",
              "name": "priceByOwner",
              "type": "uint256"
            },
            {
              "internalType": "uint256",
              "name": "basePrice",
              "type": "uint256"
            },
            {
              "internalType": "bool",
              "name": "isNft",
              "type": "bool"
            },
            {
              "internalType": "uint256",
              "name": "tokenId",
              "type": "uint256"
            }
          ],
          "internalType": "struct UserContract.Post[]",
          "name": "userPosts",
          "type": "tuple[]"
        }
      ],
      "stateMutability": "view",
      "type": "function",
      "constant": true
    },
    {
      "inputs": [
        {
          "internalType": "address",
          "name": "postOwner",
          "type": "address"
        },
        {
          "internalType": "bytes32",
          "name": "postId",
          "type": "bytes32"
        }
      ],
      "name": "likeAPost",
      "outputs": [],
      "stateMutability": "nonpayable",
      "type": "function"
    },
    {
      "inputs": [
        {
          "internalType": "address",
          "name": "postOwner",
          "type": "address"
        },
        {
          "internalType": "string",
          "name": "comment",
          "type": "string"
        },
        {
          "internalType": "bytes32",
          "name": "postId",
          "type": "bytes32"
        }
      ],
      "name": "postComment",
      "outputs": [],
      "stateMutability": "nonpayable",
      "type": "function"
    },
    {
      "inputs": [],
      "name": "getUserData",
      "outputs": [
        {
          "components": [
            {
              "internalType": "string",
              "name": "name",
              "type": "string"
            },
            {
              "internalType": "string",
              "name": "userName",
              "type": "string"
            },
            {
              "internalType": "string",
              "name": "avatarUrl",
              "type": "string"
            },
            {
              "internalType": "string",
              "name": "bio",
              "type": "string"
            },
            {
              "internalType": "string",
              "name": "wallUrl",
              "type": "string"
            },
            {
              "internalType": "uint256",
              "name": "followers",
              "type": "uint256"
            },
            {
              "internalType": "uint256",
              "name": "following",
              "type": "uint256"
            },
            {
              "internalType": "bytes32[]",
              "name": "postCount",
              "type": "bytes32[]"
            },
            {
              "internalType": "address",
              "name": "userAddress",
              "type": "address"
            },
            {
              "internalType": "address[]",
              "name": "friends",
              "type": "address[]"
            }
          ],
          "internalType": "struct UserContract.User",
          "name": "",
          "type": "tuple"
        }
      ],
      "stateMutability": "view",
      "type": "function",
      "constant": true
    },
    {
      "inputs": [
        {
          "internalType": "string",
          "name": "post",
          "type": "string"
        }
      ],
      "name": "callKeccak256",
      "outputs": [
        {
          "internalType": "bytes32",
          "name": "result",
          "type": "bytes32"
        }
      ],
      "stateMutability": "pure",
      "type": "function",
      "constant": true
    }
  ],
  "bytecode": "0x60806040523480156200001157600080fd5b50604051620049b8380380620049b88339818101604052810190620000379190620001a2565b600160008190555081600460006101000a81548173ffffffffffffffffffffffffffffffffffffffff021916908373ffffffffffffffffffffffffffffffffffffffff16021790555080600560006101000a81548173ffffffffffffffffffffffffffffffffffffffff021916908373ffffffffffffffffffffffffffffffffffffffff1602179055508173ffffffffffffffffffffffffffffffffffffffff1663bdf3e088306040518263ffffffff1660e01b8152600401620000fc9190620001fa565b600060405180830381600087803b1580156200011757600080fd5b505af11580156200012c573d6000803e3d6000fd5b50505050505062000217565b600080fd5b600073ffffffffffffffffffffffffffffffffffffffff82169050919050565b60006200016a826200013d565b9050919050565b6200017c816200015d565b81146200018857600080fd5b50565b6000815190506200019c8162000171565b92915050565b60008060408385031215620001bc57620001bb62000138565b5b6000620001cc858286016200018b565b9250506020620001df858286016200018b565b9150509250929050565b620001f4816200015d565b82525050565b6000602082019050620002116000830184620001e9565b92915050565b61479180620002276000396000f3fe6080604052600436106100a75760003560e01c806365c06f701161006457806365c06f70146101995780636c216d06146101c2578063b8522043146101ff578063c19c4d261461022a578063cc4ef2cc14610253578063f6f197151461027e576100a7565b806307973ccf146100ac57806322e8c87d146100d75780632b89a7111461010257806333898b4f1461012b5780634546a98e14610154578063548627ba14610170575b600080fd5b3480156100b857600080fd5b506100c16102bb565b6040516100ce9190612ccd565b60405180910390f35b3480156100e357600080fd5b506100ec6102c7565b6040516100f9919061304c565b60405180910390f35b34801561010e57600080fd5b50610129600480360381019061012491906130da565b6107dc565b005b34801561013757600080fd5b50610152600480360381019061014d91906132b3565b6108e4565b005b61016e60048036038101906101699190613366565b610e69565b005b34801561017c57600080fd5b50610197600480360381019061019291906133b9565b611746565b005b3480156101a557600080fd5b506101c060048036038101906101bb9190613428565b611886565b005b3480156101ce57600080fd5b506101e960048036038101906101e4919061352f565b611c83565b6040516101f69190613587565b60405180910390f35b34801561020b57600080fd5b50610214611cb3565b6040516102219190613768565b60405180910390f35b34801561023657600080fd5b50610251600480360381019061024c919061378a565b61213d565b005b34801561025f57600080fd5b5061026861223f565b6040516102759190613aba565b60405180910390f35b34801561028a57600080fd5b506102a560048036038101906102a09190613adc565b61278a565b6040516102b29190613b18565b60405180910390f35b60018060000154905081565b6102cf612904565b60011515600260003373ffffffffffffffffffffffffffffffffffffffff1673ffffffffffffffffffffffffffffffffffffffff16815260200190815260200160002060009054906101000a900460ff16151514610362576040517f08c379a000000000000000000000000000000000000000000000000000000000815260040161035990613b90565b60405180910390fd5b600360003373ffffffffffffffffffffffffffffffffffffffff1673ffffffffffffffffffffffffffffffffffffffff168152602001908152602001600020604051806101400160405290816000820180546103bd90613bdf565b80601f01602080910402602001604051908101604052809291908181526020018280546103e990613bdf565b80156104365780601f1061040b57610100808354040283529160200191610436565b820191906000526020600020905b81548152906001019060200180831161041957829003601f168201915b5050505050815260200160018201805461044f90613bdf565b80601f016020809104026020016040519081016040528092919081815260200182805461047b90613bdf565b80156104c85780601f1061049d576101008083540402835291602001916104c8565b820191906000526020600020905b8154815290600101906020018083116104ab57829003601f168201915b505050505081526020016002820180546104e190613bdf565b80601f016020809104026020016040519081016040528092919081815260200182805461050d90613bdf565b801561055a5780601f1061052f5761010080835404028352916020019161055a565b820191906000526020600020905b81548152906001019060200180831161053d57829003601f168201915b5050505050815260200160038201805461057390613bdf565b80601f016020809104026020016040519081016040528092919081815260200182805461059f90613bdf565b80156105ec5780601f106105c1576101008083540402835291602001916105ec565b820191906000526020600020905b8154815290600101906020018083116105cf57829003601f168201915b5050505050815260200160048201805461060590613bdf565b80601f016020809104026020016040519081016040528092919081815260200182805461063190613bdf565b801561067e5780601f106106535761010080835404028352916020019161067e565b820191906000526020600020905b81548152906001019060200180831161066157829003601f168201915b505050505081526020016005820154815260200160068201548152602001600782018054806020026020016040519081016040528092919081815260200182805480156106ea57602002820191906000526020600020905b8154815260200190600101908083116106d6575b505050505081526020016008820160009054906101000a900473ffffffffffffffffffffffffffffffffffffffff1673ffffffffffffffffffffffffffffffffffffffff1673ffffffffffffffffffffffffffffffffffffffff168152602001600982018054806020026020016040519081016040528092919081815260200182805480156107ce57602002820191906000526020600020905b8160009054906101000a900473ffffffffffffffffffffffffffffffffffffffff1673ffffffffffffffffffffffffffffffffffffffff1681526020019060010190808311610784575b505050505081525050905090565b60011515600260003373ffffffffffffffffffffffffffffffffffffffff1673ffffffffffffffffffffffffffffffffffffffff16815260200190815260200160002060009054906101000a900460ff1615151461086f576040517f08c379a000000000000000000000000000000000000000000000000000000000815260040161086690613c5c565b60405180910390fd5b6000600760008473ffffffffffffffffffffffffffffffffffffffff1673ffffffffffffffffffffffffffffffffffffffff1681526020019081526020016000206000838152602001908152602001600020905060018160020160008282546108d89190613cab565b92505081905550505050565b600260005403610929576040517f08c379a000000000000000000000000000000000000000000000000000000000815260040161092090613d4d565b60405180910390fd5b600260008190555060011515600260003373ffffffffffffffffffffffffffffffffffffffff1673ffffffffffffffffffffffffffffffffffffffff16815260200190815260200160002060009054906101000a900460ff161515146109c4576040517f08c379a00000000000000000000000000000000000000000000000000000000081526004016109bb90613b90565b60405180910390fd5b6000600360003373ffffffffffffffffffffffffffffffffffffffff1673ffffffffffffffffffffffffffffffffffffffff168152602001908152602001600020905060008415610ab057600460009054906101000a900473ffffffffffffffffffffffffffffffffffffffff1673ffffffffffffffffffffffffffffffffffffffff166333eba49a876040518263ffffffff1660e01b8152600401610a6a9190613da6565b6020604051808303816000875af1158015610a89573d6000803e3d6000fd5b505050506040513d601f19601f82011682018060405250810190610aad9190613ddd565b90505b81600701610abd87611c83565b90806001815401808255809150506001900390600052602060002001600090919091909150556000604051806101c00160405280888152602001610b0089611c83565b81526020016000815260200189815260200187610b1e576000610b20565b855b151581526020016000151581526020016000815260200187610b43576000610b45565b305b73ffffffffffffffffffffffffffffffffffffffff16815260200187610b6c576000610b6e565b335b73ffffffffffffffffffffffffffffffffffffffff168152602001600067ffffffffffffffff811115610ba457610ba3613124565b5b604051908082528060200260200182016040528015610bd757816020015b6060815260200190600190039081610bc25790505b50815260200187610be9576000610beb565b865b815260200187610bfc576000610bff565b600a5b60ff168152602001871515815260200187610c1b576000610c1d565b835b815250905080600760003373ffffffffffffffffffffffffffffffffffffffff1673ffffffffffffffffffffffffffffffffffffffff1681526020019081526020016000206000610c6d8a611c83565b81526020019081526020016000206000820151816000019081610c909190613fb6565b5060208201518160010155604082015181600201556060820151816003019081610cba9190613fb6565b5060808201518160040160006101000a81548160ff02191690831515021790555060a08201518160040160016101000a81548160ff02191690831515021790555060c0820151816005015560e08201518160060160006101000a81548173ffffffffffffffffffffffffffffffffffffffff021916908373ffffffffffffffffffffffffffffffffffffffff1602179055506101008201518160070160006101000a81548173ffffffffffffffffffffffffffffffffffffffff021916908373ffffffffffffffffffffffffffffffffffffffff160217905550610120820151816008019080519060200190610db192919061296d565b50610140820151816009015561016082015181600a015561018082015181600b0160006101000a81548160ff0219169083151502179055506101a082015181600c01559050507f72d2ff68e942d073bdcb19dbadc9e768208026219f8d884b765175ff7f671a9c816060015182600001518360200151846101a0015189600a8760e00151886101000151604051610e4f989796959493929190614127565b60405180910390a150505060016000819055505050505050565b600260005403610eae576040517f08c379a0000000000000000000000000000000000000000000000000000000008152600401610ea590613d4d565b60405180910390fd5b60026000819055506000600760008573ffffffffffffffffffffffffffffffffffffffff1673ffffffffffffffffffffffffffffffffffffffff1681526020019081526020016000206000848152602001908152602001600020905060011515600260003373ffffffffffffffffffffffffffffffffffffffff1673ffffffffffffffffffffffffffffffffffffffff16815260200190815260200160002060009054906101000a900460ff16151514610f9d576040517f08c379a0000000000000000000000000000000000000000000000000000000008152600401610f9490613c5c565b60405180910390fd5b6001151581600b0160009054906101000a900460ff16151514610ff5576040517f08c379a0000000000000000000000000000000000000000000000000000000008152600401610fec906141ff565b60405180910390fd5b8173ffffffffffffffffffffffffffffffffffffffff163373ffffffffffffffffffffffffffffffffffffffff1614611063576040517f08c379a000000000000000000000000000000000000000000000000000000000815260040161105a90614291565b60405180910390fd5b60011515600260008673ffffffffffffffffffffffffffffffffffffffff1673ffffffffffffffffffffffffffffffffffffffff16815260200190815260200160002060009054906101000a900460ff161515146110f6576040517f08c379a00000000000000000000000000000000000000000000000000000000081526004016110ed90613c5c565b60405180910390fd5b600115158160040160009054906101000a900460ff1615151461114e576040517f08c379a0000000000000000000000000000000000000000000000000000000008152600401611145906142fd565b60405180910390fd5b60003490506000600360008573ffffffffffffffffffffffffffffffffffffffff1673ffffffffffffffffffffffffffffffffffffffff168152602001908152602001600020905082600a01548210156111dd576040517f08c379a00000000000000000000000000000000000000000000000000000000081526004016111d49061438f565b60405180910390fd5b600015158360040160019054906101000a900460ff1615150361129057600460009054906101000a900473ffffffffffffffffffffffffffffffffffffffff1673ffffffffffffffffffffffffffffffffffffffff166323b872dd308686600c01546040518463ffffffff1660e01b815260040161125d939291906143af565b600060405180830381600087803b15801561127757600080fd5b505af115801561128b573d6000803e3d6000fd5b505050505b8260070160009054906101000a900473ffffffffffffffffffffffffffffffffffffffff1673ffffffffffffffffffffffffffffffffffffffff166108fc349081150290604051600060405180830381858888f193505050501580156112fa573d6000803e3d6000fd5b50838360060160006101000a81548173ffffffffffffffffffffffffffffffffffffffff021916908373ffffffffffffffffffffffffffffffffffffffff160217905550838360070160006101000a81548173ffffffffffffffffffffffffffffffffffffffff021916908373ffffffffffffffffffffffffffffffffffffffff16021790555061138b85876127aa565b60018360040160016101000a81548160ff02191690831515021790555082600760008673ffffffffffffffffffffffffffffffffffffffff1673ffffffffffffffffffffffffffffffffffffffff16815260200190815260200160002060008781526020019081526020016000206000820181600001908161140d91906143fc565b5060018201548160010155600282015481600201556003820181600301908161143691906143fc565b506004820160009054906101000a900460ff168160040160006101000a81548160ff0219169083151502179055506004820160019054906101000a900460ff168160040160016101000a81548160ff021916908315150217905550600582015481600501556006820160009054906101000a900473ffffffffffffffffffffffffffffffffffffffff168160060160006101000a81548173ffffffffffffffffffffffffffffffffffffffff021916908373ffffffffffffffffffffffffffffffffffffffff1602179055506007820160009054906101000a900473ffffffffffffffffffffffffffffffffffffffff168160070160006101000a81548173ffffffffffffffffffffffffffffffffffffffff021916908373ffffffffffffffffffffffffffffffffffffffff160217905550600882018160080190805461157f9291906129c6565b5060098201548160090155600a82015481600a0155600b820160009054906101000a900460ff1681600b0160006101000a81548160ff021916908315150217905550600c82015481600c0155905050600760008773ffffffffffffffffffffffffffffffffffffffff1673ffffffffffffffffffffffffffffffffffffffff16815260200190815260200160002060008681526020019081526020016000206000808201600061162f9190612a23565b6001820160009055600282016000905560038201600061164f9190612a23565b6004820160006101000a81549060ff02191690556004820160016101000a81549060ff021916905560058201600090556006820160006101000a81549073ffffffffffffffffffffffffffffffffffffffff02191690556007820160006101000a81549073ffffffffffffffffffffffffffffffffffffffff02191690556008820160006116dd9190612a63565b6009820160009055600a820160009055600b820160006101000a81549060ff0219169055600c8201600090555050806007018590806001815401808255809150506001900390600052602060002001600090919091909150555050506001600081905550505050565b60011515600260003373ffffffffffffffffffffffffffffffffffffffff1673ffffffffffffffffffffffffffffffffffffffff16815260200190815260200160002060009054906101000a900460ff161515146117d9576040517f08c379a00000000000000000000000000000000000000000000000000000000081526004016117d090613c5c565b60405180910390fd5b6000600760008573ffffffffffffffffffffffffffffffffffffffff1673ffffffffffffffffffffffffffffffffffffffff1681526020019081526020016000206000838152602001908152602001600020905060018160050160008282546118429190613cab565b92505081905550806008018390806001815401808255809150506001900390600052602060002001600090919091909150908161187f9190613fb6565b5050505050565b60011515600260003373ffffffffffffffffffffffffffffffffffffffff1673ffffffffffffffffffffffffffffffffffffffff16815260200190815260200160002060009054906101000a900460ff16151503611919576040517f08c379a000000000000000000000000000000000000000000000000000000000815260040161191090614530565b60405180910390fd5b6000600360003373ffffffffffffffffffffffffffffffffffffffff1673ffffffffffffffffffffffffffffffffffffffff16815260200190815260200160002090508581600001908161196d9190613fb6565b508481600101908161197f9190613fb6565b50838160020190816119919190613fb6565b50828160030190816119a39190613fb6565b50818160040190816119b59190613fb6565b506000816005018190555060008160060181905550338160080160006101000a81548173ffffffffffffffffffffffffffffffffffffffff021916908373ffffffffffffffffffffffffffffffffffffffff160217905550600067ffffffffffffffff811115611a2857611a27613124565b5b604051908082528060200260200182016040528015611a565781602001602082028036833780820191505090505b50816009019080519060200190611a6e929190612a84565b50611a7960016128ee565b6001600260003373ffffffffffffffffffffffffffffffffffffffff1673ffffffffffffffffffffffffffffffffffffffff16815260200190815260200160002060006101000a81548160ff02191690831515021790555060068190806001815401808255809150506001900390600052602060002090600a020160009091909190915060008201816000019081611b1191906143fc565b5060018201816001019081611b2691906143fc565b5060028201816002019081611b3b91906143fc565b5060038201816003019081611b5091906143fc565b5060048201816004019081611b6591906143fc565b5060058201548160050155600682015481600601556007820181600701908054611b90929190612b0e565b506008820160009054906101000a900473ffffffffffffffffffffffffffffffffffffffff168160080160006101000a81548173ffffffffffffffffffffffffffffffffffffffff021916908373ffffffffffffffffffffffffffffffffffffffff1602179055506009820181600901908054611c0e929190612b60565b5050507f3500268ebdfdd25b305294ab9516187c34eb908aa8b91d7a48ea6ccfafe4158a8160000182600101836002018460080160009054906101000a900473ffffffffffffffffffffffffffffffffffffffff16604051611c7394939291906145d4565b60405180910390a1505050505050565b600081604051602001611c96919061466a565b604051602081830303815290604052805190602001209050919050565b60606006805480602002602001604051908101604052809291908181526020016000905b8282101561213457838290600052602060002090600a020160405180610140016040529081600082018054611d0b90613bdf565b80601f0160208091040260200160405190810160405280929190818152602001828054611d3790613bdf565b8015611d845780601f10611d5957610100808354040283529160200191611d84565b820191906000526020600020905b815481529060010190602001808311611d6757829003601f168201915b50505050508152602001600182018054611d9d90613bdf565b80601f0160208091040260200160405190810160405280929190818152602001828054611dc990613bdf565b8015611e165780601f10611deb57610100808354040283529160200191611e16565b820191906000526020600020905b815481529060010190602001808311611df957829003601f168201915b50505050508152602001600282018054611e2f90613bdf565b80601f0160208091040260200160405190810160405280929190818152602001828054611e5b90613bdf565b8015611ea85780601f10611e7d57610100808354040283529160200191611ea8565b820191906000526020600020905b815481529060010190602001808311611e8b57829003601f168201915b50505050508152602001600382018054611ec190613bdf565b80601f0160208091040260200160405190810160405280929190818152602001828054611eed90613bdf565b8015611f3a5780601f10611f0f57610100808354040283529160200191611f3a565b820191906000526020600020905b815481529060010190602001808311611f1d57829003601f168201915b50505050508152602001600482018054611f5390613bdf565b80601f0160208091040260200160405190810160405280929190818152602001828054611f7f90613bdf565b8015611fcc5780601f10611fa157610100808354040283529160200191611fcc565b820191906000526020600020905b815481529060010190602001808311611faf57829003601f168201915b5050505050815260200160058201548152602001600682015481526020016007820180548060200260200160405190810160405280929190818152602001828054801561203857602002820191906000526020600020905b815481526020019060010190808311612024575b505050505081526020016008820160009054906101000a900473ffffffffffffffffffffffffffffffffffffffff1673ffffffffffffffffffffffffffffffffffffffff1673ffffffffffffffffffffffffffffffffffffffff1681526020016009820180548060200260200160405190810160405280929190818152602001828054801561211c57602002820191906000526020600020905b8160009054906101000a900473ffffffffffffffffffffffffffffffffffffffff1673ffffffffffffffffffffffffffffffffffffffff16815260200190600101908083116120d2575b50505050508152505081526020019060010190611cd7565b50505050905090565b60011515600260003373ffffffffffffffffffffffffffffffffffffffff1673ffffffffffffffffffffffffffffffffffffffff16815260200190815260200160002060009054906101000a900460ff161515146121d0576040517f08c379a00000000000000000000000000000000000000000000000000000000081526004016121c790613c5c565b60405180910390fd5b80600760003373ffffffffffffffffffffffffffffffffffffffff1673ffffffffffffffffffffffffffffffffffffffff168152602001908152602001600020600084815260200190815260200160002060040160006101000a81548160ff0219169083151502179055505050565b606060011515600260003373ffffffffffffffffffffffffffffffffffffffff1673ffffffffffffffffffffffffffffffffffffffff16815260200190815260200160002060009054906101000a900460ff161515146122d4576040517f08c379a00000000000000000000000000000000000000000000000000000000081526004016122cb90613b90565b60405180910390fd5b6000600360003373ffffffffffffffffffffffffffffffffffffffff1673ffffffffffffffffffffffffffffffffffffffff168152602001908152602001600020905060008160070180549050905060008167ffffffffffffffff81111561233f5761233e613124565b5b60405190808252806020026020018201604052801561237857816020015b612365612bb2565b81526020019060019003908161235d5790505b5090506000805b8381101561277f576000600760003373ffffffffffffffffffffffffffffffffffffffff1673ffffffffffffffffffffffffffffffffffffffff16815260200190815260200160002060008760070185815481106123e0576123df614681565b5b90600052602060002001548152602001908152602001600020905080604051806101c001604052908160008201805461241890613bdf565b80601f016020809104026020016040519081016040528092919081815260200182805461244490613bdf565b80156124915780601f1061246657610100808354040283529160200191612491565b820191906000526020600020905b81548152906001019060200180831161247457829003601f168201915b5050505050815260200160018201548152602001600282015481526020016003820180546124be90613bdf565b80601f01602080910402602001604051908101604052809291908181526020018280546124ea90613bdf565b80156125375780601f1061250c57610100808354040283529160200191612537565b820191906000526020600020905b81548152906001019060200180831161251a57829003601f168201915b505050505081526020016004820160009054906101000a900460ff161515151581526020016004820160019054906101000a900460ff16151515158152602001600582015481526020016006820160009054906101000a900473ffffffffffffffffffffffffffffffffffffffff1673ffffffffffffffffffffffffffffffffffffffff1673ffffffffffffffffffffffffffffffffffffffff1681526020016007820160009054906101000a900473ffffffffffffffffffffffffffffffffffffffff1673ffffffffffffffffffffffffffffffffffffffff1673ffffffffffffffffffffffffffffffffffffffff16815260200160088201805480602002602001604051908101604052809291908181526020016000905b828210156126fd57838290600052602060002001805461267090613bdf565b80601f016020809104026020016040519081016040528092919081815260200182805461269c90613bdf565b80156126e95780601f106126be576101008083540402835291602001916126e9565b820191906000526020600020905b8154815290600101906020018083116126cc57829003601f168201915b505050505081526020019060010190612651565b50505050815260200160098201548152602001600a8201548152602001600b820160009054906101000a900460ff16151515158152602001600c8201548152505084848151811061275157612750614681565b5b60200260200101819052506001836127699190613cab565b9250508080612777906146b0565b91505061237f565b508194505050505090565b60026020528060005260406000206000915054906101000a900460ff1681565b6000600360008373ffffffffffffffffffffffffffffffffffffffff1673ffffffffffffffffffffffffffffffffffffffff1681526020019081526020016000206007019050600080600090505b8280549050811015612843578483828154811061281857612817614681565b5b90600052602060002001540361283057809150612843565b808061283b906146b0565b9150506127f8565b5060008190505b6001838054905061285b91906146f8565b8110156128c057826001826128709190613cab565b8154811061288157612880614681565b5b906000526020600020015483828154811061289f5761289e614681565b5b906000526020600020018190555080806128b8906146b0565b91505061284a565b50818054806128d2576128d161472c565b5b6001900381819060005260206000200160009055905550505050565b6001816000016000828254019250508190555050565b6040518061014001604052806060815260200160608152602001606081526020016060815260200160608152602001600081526020016000815260200160608152602001600073ffffffffffffffffffffffffffffffffffffffff168152602001606081525090565b8280548282559060005260206000209081019282156129b5579160200282015b828111156129b45782518290816129a49190613fb6565b509160200191906001019061298d565b5b5090506129c29190612c56565b5090565b828054828255906000526020600020908101928215612a125760005260206000209182015b82811115612a115782829081612a0191906143fc565b50916001019190600101906129eb565b5b509050612a1f9190612c56565b5090565b508054612a2f90613bdf565b6000825580601f10612a415750612a60565b601f016020900490600052602060002090810190612a5f9190612c7a565b5b50565b5080546000825590600052602060002090810190612a819190612c56565b50565b828054828255906000526020600020908101928215612afd579160200282015b82811115612afc5782518260006101000a81548173ffffffffffffffffffffffffffffffffffffffff021916908373ffffffffffffffffffffffffffffffffffffffff16021790555091602001919060010190612aa4565b5b509050612b0a9190612c7a565b5090565b828054828255906000526020600020908101928215612b4f5760005260206000209182015b82811115612b4e578254825591600101919060010190612b33565b5b509050612b5c9190612c97565b5090565b828054828255906000526020600020908101928215612ba15760005260206000209182015b82811115612ba0578254825591600101919060010190612b85565b5b509050612bae9190612c7a565b5090565b604051806101c001604052806060815260200160008019168152602001600081526020016060815260200160001515815260200160001515815260200160008152602001600073ffffffffffffffffffffffffffffffffffffffff168152602001600073ffffffffffffffffffffffffffffffffffffffff168152602001606081526020016000815260200160008152602001600015158152602001600081525090565b5b80821115612c765760008181612c6d9190612a23565b50600101612c57565b5090565b5b80821115612c93576000816000905550600101612c7b565b5090565b5b80821115612cb0576000816000905550600101612c98565b5090565b6000819050919050565b612cc781612cb4565b82525050565b6000602082019050612ce26000830184612cbe565b92915050565b600081519050919050565b600082825260208201905092915050565b60005b83811015612d22578082015181840152602081019050612d07565b83811115612d31576000848401525b50505050565b6000601f19601f8301169050919050565b6000612d5382612ce8565b612d5d8185612cf3565b9350612d6d818560208601612d04565b612d7681612d37565b840191505092915050565b612d8a81612cb4565b82525050565b600081519050919050565b600082825260208201905092915050565b6000819050602082019050919050565b6000819050919050565b612dcf81612dbc565b82525050565b6000612de18383612dc6565b60208301905092915050565b6000602082019050919050565b6000612e0582612d90565b612e0f8185612d9b565b9350612e1a83612dac565b8060005b83811015612e4b578151612e328882612dd5565b9750612e3d83612ded565b925050600181019050612e1e565b5085935050505092915050565b600073ffffffffffffffffffffffffffffffffffffffff82169050919050565b6000612e8382612e58565b9050919050565b612e9381612e78565b82525050565b600081519050919050565b600082825260208201905092915050565b6000819050602082019050919050565b6000612ed18383612e8a565b60208301905092915050565b6000602082019050919050565b6000612ef582612e99565b612eff8185612ea4565b9350612f0a83612eb5565b8060005b83811015612f3b578151612f228882612ec5565b9750612f2d83612edd565b925050600181019050612f0e565b5085935050505092915050565b6000610140830160008301518482036000860152612f668282612d48565b91505060208301518482036020860152612f808282612d48565b91505060408301518482036040860152612f9a8282612d48565b91505060608301518482036060860152612fb48282612d48565b91505060808301518482036080860152612fce8282612d48565b91505060a0830151612fe360a0860182612d81565b5060c0830151612ff660c0860182612d81565b5060e083015184820360e086015261300e8282612dfa565b915050610100830151613025610100860182612e8a565b5061012083015184820361012086015261303f8282612eea565b9150508091505092915050565b600060208201905081810360008301526130668184612f48565b905092915050565b6000604051905090565b600080fd5b600080fd5b61308b81612e78565b811461309657600080fd5b50565b6000813590506130a881613082565b92915050565b6130b781612dbc565b81146130c257600080fd5b50565b6000813590506130d4816130ae565b92915050565b600080604083850312156130f1576130f0613078565b5b60006130ff85828601613099565b9250506020613110858286016130c5565b9150509250929050565b600080fd5b600080fd5b7f4e487b7100000000000000000000000000000000000000000000000000000000600052604160045260246000fd5b61315c82612d37565b810181811067ffffffffffffffff8211171561317b5761317a613124565b5b80604052505050565b600061318e61306e565b905061319a8282613153565b919050565b600067ffffffffffffffff8211156131ba576131b9613124565b5b6131c382612d37565b9050602081019050919050565b82818337600083830152505050565b60006131f26131ed8461319f565b613184565b90508281526020810184848401111561320e5761320d61311f565b5b6132198482856131d0565b509392505050565b600082601f8301126132365761323561311a565b5b81356132468482602086016131df565b91505092915050565b60008115159050919050565b6132648161324f565b811461326f57600080fd5b50565b6000813590506132818161325b565b92915050565b61329081612cb4565b811461329b57600080fd5b50565b6000813590506132ad81613287565b92915050565b600080600080600060a086880312156132cf576132ce613078565b5b600086013567ffffffffffffffff8111156132ed576132ec61307d565b5b6132f988828901613221565b955050602086013567ffffffffffffffff81111561331a5761331961307d565b5b61332688828901613221565b945050604061333788828901613272565b93505060606133488882890161329e565b925050608061335988828901613272565b9150509295509295909350565b60008060006060848603121561337f5761337e613078565b5b600061338d86828701613099565b935050602061339e868287016130c5565b92505060406133af86828701613099565b9150509250925092565b6000806000606084860312156133d2576133d1613078565b5b60006133e086828701613099565b935050602084013567ffffffffffffffff8111156134015761340061307d565b5b61340d86828701613221565b925050604061341e868287016130c5565b9150509250925092565b600080600080600060a0868803121561344457613443613078565b5b600086013567ffffffffffffffff8111156134625761346161307d565b5b61346e88828901613221565b955050602086013567ffffffffffffffff81111561348f5761348e61307d565b5b61349b88828901613221565b945050604086013567ffffffffffffffff8111156134bc576134bb61307d565b5b6134c888828901613221565b935050606086013567ffffffffffffffff8111156134e9576134e861307d565b5b6134f588828901613221565b925050608086013567ffffffffffffffff8111156135165761351561307d565b5b61352288828901613221565b9150509295509295909350565b60006020828403121561354557613544613078565b5b600082013567ffffffffffffffff8111156135635761356261307d565b5b61356f84828501613221565b91505092915050565b61358181612dbc565b82525050565b600060208201905061359c6000830184613578565b92915050565b600081519050919050565b600082825260208201905092915050565b6000819050602082019050919050565b60006101408301600083015184820360008601526135ec8282612d48565b915050602083015184820360208601526136068282612d48565b915050604083015184820360408601526136208282612d48565b9150506060830151848203606086015261363a8282612d48565b915050608083015184820360808601526136548282612d48565b91505060a083015161366960a0860182612d81565b5060c083015161367c60c0860182612d81565b5060e083015184820360e08601526136948282612dfa565b9150506101008301516136ab610100860182612e8a565b506101208301518482036101208601526136c58282612eea565b9150508091505092915050565b60006136de83836135ce565b905092915050565b6000602082019050919050565b60006136fe826135a2565b61370881856135ad565b93508360208202850161371a856135be565b8060005b85811015613756578484038952815161373785826136d2565b9450613742836136e6565b925060208a0199505060018101905061371e565b50829750879550505050505092915050565b6000602082019050818103600083015261378281846136f3565b905092915050565b600080604083850312156137a1576137a0613078565b5b60006137af858286016130c5565b92505060206137c085828601613272565b9150509250929050565b600081519050919050565b600082825260208201905092915050565b6000819050602082019050919050565b6137ff8161324f565b82525050565b600061381082612e58565b9050919050565b61382081613805565b82525050565b600081519050919050565b600082825260208201905092915050565b6000819050602082019050919050565b600061385e8383612d48565b905092915050565b6000602082019050919050565b600061387e82613826565b6138888185613831565b93508360208202850161389a85613842565b8060005b858110156138d657848403895281516138b78582613852565b94506138c283613866565b925060208a0199505060018101905061389e565b50829750879550505050505092915050565b60006101c08301600083015184820360008601526139068282612d48565b915050602083015161391b6020860182612dc6565b50604083015161392e6040860182612d81565b50606083015184820360608601526139468282612d48565b915050608083015161395b60808601826137f6565b5060a083015161396e60a08601826137f6565b5060c083015161398160c0860182612d81565b5060e083015161399460e0860182612e8a565b506101008301516139a9610100860182613817565b506101208301518482036101208601526139c38282613873565b9150506101408301516139da610140860182612d81565b506101608301516139ef610160860182612d81565b50610180830151613a046101808601826137f6565b506101a0830151613a196101a0860182612d81565b508091505092915050565b6000613a3083836138e8565b905092915050565b6000602082019050919050565b6000613a50826137ca565b613a5a81856137d5565b935083602082028501613a6c856137e6565b8060005b85811015613aa85784840389528151613a898582613a24565b9450613a9483613a38565b925060208a01995050600181019050613a70565b50829750879550505050505092915050565b60006020820190508181036000830152613ad48184613a45565b905092915050565b600060208284031215613af257613af1613078565b5b6000613b0084828501613099565b91505092915050565b613b128161324f565b82525050565b6000602082019050613b2d6000830184613b09565b92915050565b600082825260208201905092915050565b7f55736572206e6f7420726567697374657265642e000000000000000000000000600082015250565b6000613b7a601483613b33565b9150613b8582613b44565b602082019050919050565b60006020820190508181036000830152613ba981613b6d565b9050919050565b7f4e487b7100000000000000000000000000000000000000000000000000000000600052602260045260246000fd5b60006002820490506001821680613bf757607f821691505b602082108103613c0a57613c09613bb0565b5b50919050565b7f55736572206e6f74207265676973746572656400000000000000000000000000600082015250565b6000613c46601383613b33565b9150613c5182613c10565b602082019050919050565b60006020820190508181036000830152613c7581613c39565b9050919050565b7f4e487b7100000000000000000000000000000000000000000000000000000000600052601160045260246000fd5b6000613cb682612cb4565b9150613cc183612cb4565b9250827fffffffffffffffffffffffffffffffffffffffffffffffffffffffffffffffff03821115613cf657613cf5613c7c565b5b828201905092915050565b7f5265656e7472616e637947756172643a207265656e7472616e742063616c6c00600082015250565b6000613d37601f83613b33565b9150613d4282613d01565b602082019050919050565b60006020820190508181036000830152613d6681613d2a565b9050919050565b6000613d7882612ce8565b613d828185613b33565b9350613d92818560208601612d04565b613d9b81612d37565b840191505092915050565b60006020820190508181036000830152613dc08184613d6d565b905092915050565b600081519050613dd781613287565b92915050565b600060208284031215613df357613df2613078565b5b6000613e0184828501613dc8565b91505092915050565b60008190508160005260206000209050919050565b60006020601f8301049050919050565b600082821b905092915050565b600060088302613e6c7fffffffffffffffffffffffffffffffffffffffffffffffffffffffffffffffff82613e2f565b613e768683613e2f565b95508019841693508086168417925050509392505050565b6000819050919050565b6000613eb3613eae613ea984612cb4565b613e8e565b612cb4565b9050919050565b6000819050919050565b613ecd83613e98565b613ee1613ed982613eba565b848454613e3c565b825550505050565b600090565b613ef6613ee9565b613f01818484613ec4565b505050565b5b81811015613f2557613f1a600082613eee565b600181019050613f07565b5050565b601f821115613f6a57613f3b81613e0a565b613f4484613e1f565b81016020851015613f53578190505b613f67613f5f85613e1f565b830182613f06565b50505b505050565b600082821c905092915050565b6000613f8d60001984600802613f6f565b1980831691505092915050565b6000613fa68383613f7c565b9150826002028217905092915050565b613fbf82612ce8565b67ffffffffffffffff811115613fd857613fd7613124565b5b613fe28254613bdf565b613fed828285613f29565b600060209050601f831160018114614020576000841561400e578287015190505b6140188582613f9a565b865550614080565b601f19841661402e86613e0a565b60005b8281101561405657848901518255600182019150602085019450602081019050614031565b86831015614073578489015161406f601f891682613f7c565b8355505b6001600288020188555050505b505050505050565b6000819050919050565b60006140ad6140a86140a384614088565b613e8e565b612cb4565b9050919050565b6140bd81614092565b82525050565b6140cc81612e78565b82525050565b60006140ed6140e86140e384612e58565b613e8e565b612e58565b9050919050565b60006140ff826140d2565b9050919050565b6000614111826140f4565b9050919050565b61412181614106565b82525050565b6000610100820190508181036000830152614142818b613d6d565b90508181036020830152614156818a613d6d565b90506141656040830189613578565b6141726060830188612cbe565b61417f6080830187612cbe565b61418c60a08301866140b4565b61419960c08301856140c3565b6141a660e0830184614118565b9998505050505050505050565b7f506f7374206973206e6f7420616e206e66740000000000000000000000000000600082015250565b60006141e9601283613b33565b91506141f4826141b3565b602082019050919050565b60006020820190508181036000830152614218816141dc565b9050919050565b7f556e6d617463686564207472616e73616374696f6e2c20692e652e2c2074686560008201527f2070617965722073686f756c6420626520746865206e6577206f776e65720000602082015250565b600061427b603e83613b33565b91506142868261421f565b604082019050919050565b600060208201905081810360008301526142aa8161426e565b9050919050565b7f506f7374206e6f7420666f722073616c65000000000000000000000000000000600082015250565b60006142e7601183613b33565b91506142f2826142b1565b602082019050919050565b60006020820190508181036000830152614316816142da565b9050919050565b7f416d6f756e742073686f756c642062652067726561746572207468616e20626160008201527f7365207072696365206f662074686520706f73742e0000000000000000000000602082015250565b6000614379603583613b33565b91506143848261431d565b604082019050919050565b600060208201905081810360008301526143a88161436c565b9050919050565b60006060820190506143c460008301866140c3565b6143d160208301856140c3565b6143de6040830184612cbe565b949350505050565b6000815490506143f581613bdf565b9050919050565b81810361440a5750506144e2565b614413826143e6565b67ffffffffffffffff81111561442c5761442b613124565b5b6144368254613bdf565b614441828285613f29565b6000601f831160018114614470576000841561445e578287015490505b6144688582613f9a565b8655506144db565b601f19841661447e87613e0a565b965061448986613e0a565b60005b828110156144b15784890154825560018201915060018501945060208101905061448c565b868310156144ce57848901546144ca601f891682613f7c565b8355505b6001600288020188555050505b5050505050505b565b7f5573657220616c72656164792065786973747300000000000000000000000000600082015250565b600061451a601383613b33565b9150614525826144e4565b602082019050919050565b600060208201905081810360008301526145498161450d565b9050919050565b6000815461455d81613bdf565b6145678186613b33565b945060018216600081146145825760018114614598576145cb565b60ff1983168652811515602002860193506145cb565b6145a185613e0a565b60005b838110156145c3578154818901526001820191506020810190506145a4565b808801955050505b50505092915050565b600060808201905081810360008301526145ee8187614550565b905081810360208301526146028186614550565b905081810360408301526146168185614550565b905061462560608301846140c3565b95945050505050565b600081905092915050565b600061464482612ce8565b61464e818561462e565b935061465e818560208601612d04565b80840191505092915050565b60006146768284614639565b915081905092915050565b7f4e487b7100000000000000000000000000000000000000000000000000000000600052603260045260246000fd5b60006146bb82612cb4565b91507fffffffffffffffffffffffffffffffffffffffffffffffffffffffffffffffff82036146ed576146ec613c7c565b5b600182019050919050565b600061470382612cb4565b915061470e83612cb4565b92508282101561472157614720613c7c565b5b828203905092915050565b7f4e487b7100000000000000000000000000000000000000000000000000000000600052603160045260246000fdfea264697066735822122015c807e6509f6b591ba77a983835d2dd4217cdcd8528dc3a6a9f667b8d0f901564736f6c634300080f0033",
  "immutableReferences": {},
  "source": "// SPDX-License-Identifier: GPL-3.0\n\npragma solidity >=0.7.0 <0.9.0;\n\nimport \"@openzeppelin/contracts/utils/Counters.sol\";\nimport \"@openzeppelin/contracts/utils/Counters.sol\";\nimport \"@openzeppelin/contracts/token/ERC721/extensions/ERC721URIStorage.sol\";\nimport \"@openzeppelin/contracts/security/ReentrancyGuard.sol\";\nimport \"@openzeppelin/contracts/token/ERC721/ERC721.sol\";\n\ncontract TrisNFT is ERC721URIStorage{\n    using Counters for Counters.Counter;\n    constructor() ERC721(\"TrisNFT\", \"TRI\"){}\n    Counters.Counter private _tokenId;\n    address contractAddress = address(this);\n\n    function mintToken(string memory tokenUri) public returns(uint256 itemId){\n        require(contractAddress == msg.sender, \"Only the marketplace contract can call this function\");\n        _tokenId.increment();\n        uint256 currentId = _tokenId.current();\n        _mint(contractAddress, currentId);\n        _setTokenURI(currentId, tokenUri);\n        return currentId;\n    }\n\n    function updateContractAddress( address marketPlaceAddress) public  {\n        require(\n            contractAddress == address(this) || contractAddress == msg.sender,\n         \"Address is already declared or only the  owner contract can change the address.\");\n        contractAddress = marketPlaceAddress;\n    }\n\n    function returnCurrentUser() public view returns(address){\n        return msg.sender;\n    }\n\n    /*\n        A custom function to transfer ownership from on owner to another.\n    */\n    function transferNft(address currOwner, address newOwner, uint tokenId) public {\n        transferFrom(currOwner, newOwner, tokenId);\n    }\n\n    function getLatestTokenId() public view returns(uint256 itemId){\n        return _tokenId.current();\n    }\n\n    function returnOwner(uint id) public view returns(address){\n        return ownerOf(id);\n    }\n}\n\ncontract UserContract is ReentrancyGuard{\n    using Counters for Counters.Counter;\n    Counters.Counter public userCount;\n    mapping(address => bool) public userIsRegistered;\n    mapping(address => User) private mapToUser;\n    address private trisNftAddress;\n    address private owner;\n    User[] private usersList;\n    mapping(address => mapping(bytes32 => Post)) private _postsOfUsers;\n\n    constructor(address nftAddress, address ownerAddress){\n        trisNftAddress = nftAddress;\n        owner = ownerAddress;\n        TrisNFT(nftAddress).updateContractAddress(address(this));\n    }\n\n\n\n    /*\n        User struct for storing user data.\n        name, userName, userAddress are required as in the UI the rest can be 0 or empty.\n     */\n    struct User{\n        string name;\n        string userName;\n        string avatarUrl;\n        string bio;\n        string wallUrl;\n        uint256 followers;\n        uint256 following;\n        bytes32[] postCount;\n        address userAddress;\n        address[] friends;\n    }\n\n    /*\n        Post struct for storing the posts of each user.\n        The token id connects post to the nft in ./Tris_NFT.sol\n\n        A post can be either NFT or a regular post\n     */\n    struct Post{\n        string post;\n        bytes32 postId;\n        uint256 likes;\n        string title;\n        bool isForSale;\n        bool postIsBought;\n        uint256 commentsCount;\n        address owner;\n        address payable seller;\n        string[] comments;\n        uint256 priceByOwner;\n        uint256 basePrice;\n        bool isNft;\n        uint256 tokenId;\n    }\n\n    /*\n        Events\n     */\n    event UserCreated (string name, string userName, string avatarUrl, address userAddress);\n    event PostUploaded(string title, string post,\n     bytes32 postId, uint256 tokenId, uint256 priceByOwner, uint256 basePrice, address owner, address seller);\n    event PostSold(string post, address owner, address seller, uint256 price);\n\n    function createUser(string memory name, string memory userName, string memory avatarUrl, string memory bio, string memory wallUrl) public {\n        require(userIsRegistered[msg.sender] != true, \"User already exists\");\n        User storage userData = mapToUser[msg.sender];\n        userData.name = name;\n        userData.userName = userName;\n        userData.avatarUrl = avatarUrl;\n        userData.bio = bio;\n        userData.wallUrl = wallUrl;\n        userData.followers = 0;\n        userData.following = 0;\n        userData.userAddress = msg.sender;\n        userData.friends = new address[](0);\n        userCount.increment();\n        userIsRegistered[msg.sender] = true;\n        usersList.push(userData);\n        emit UserCreated(userData.name, userData.userName, userData.avatarUrl, userData.userAddress);\n    }\n\n    /*\n        Function to upload post. This requires the post parameters,\n        and uploads the post as either nft or a regular post.\n    */\n    function uploadPost(string memory title, string memory post, bool isNft, uint256 priceByOwner, bool isForSale) public nonReentrant{\n        require(userIsRegistered[msg.sender] == true, \"User not registered.\");\n        User storage currUser = mapToUser[msg.sender];\n\n        uint256 tokenId;\n\n        if(isNft){\n            tokenId = TrisNFT(trisNftAddress).mintToken(post);\n        }\n\n        currUser.postCount.push(callKeccak256(post));\n        Post memory currPost = Post(\n            {\n                post: post,\n                postId: callKeccak256(post),\n                likes: 0,\n                title: title,\n                postIsBought: false,\n                isForSale: isNft ? isForSale : false,\n                isNft: isNft,\n                commentsCount: 0,\n                priceByOwner: isNft ? priceByOwner : 0,\n                comments: new string[](0),\n                tokenId: isNft ? tokenId : 0,\n                basePrice: isNft ? 10 : 0,\n                owner: isNft ? (address(this)) : (address(0)),\n                seller: isNft ? payable(msg.sender) : payable(address(0))\n            }\n        );\n\n        _postsOfUsers[msg.sender][callKeccak256(post)] = currPost;\n        emit PostUploaded(currPost.title, currPost.post, currPost.postId, currPost.tokenId, priceByOwner, 10, currPost.owner, currPost.seller);\n    }\n\n\n    /*\n        Dedicated function to buy/sell nfts before selling the nft owner should make sure he has\n        made the NFT avaialbe for sale and the post is NFT.\n        Before call this function the transferNFT in TrisNFT contract should be called to transfer the ownership.\n        That function can't be called form this function because that checks for msg.sender to be equal to\n        post owner but when called from here msg.sender is the address of this contract and not the owner.\n        - If the post is already sold then it will be checked in the frontend throught the postIsBought parameter\n          only if the postIsBought turns out to be true then the the method in the TrisNft will be called.\n    */\n    function buyPost(address ownerAddress, bytes32 postId, address newOwnerAddress) public payable nonReentrant{\n        Post storage currPost = _postsOfUsers[ownerAddress][postId];\n        require(userIsRegistered[msg.sender] == true, \"User not registered\");\n        require(currPost.isNft == true, \"Post is not an nft\");\n        require(msg.sender == newOwnerAddress, \"Unmatched transaction, i.e., the payer should be the new owner\");\n        require(userIsRegistered[ownerAddress] == true, \"User not registered\");\n        require(currPost.isForSale == true, \"Post not for sale\");\n        uint256 price = msg.value;\n        User storage newUser = mapToUser[newOwnerAddress];\n        require(price >= currPost.basePrice, \"Amount should be greater than base price of the post.\");\n        if(currPost.postIsBought == false){\n            IERC721(trisNftAddress).transferFrom(address(this), newOwnerAddress, currPost.tokenId);\n        }\n        currPost.seller.transfer(msg.value);\n        currPost.owner = (newOwnerAddress);\n        currPost.seller = payable(newOwnerAddress);\n        removePost(postId, ownerAddress);\n        currPost.postIsBought = true;\n        _postsOfUsers[newOwnerAddress][postId] = currPost;\n        delete _postsOfUsers[ownerAddress][postId];\n        newUser.postCount.push(postId);\n    }\n\n    function getUserList() public view returns(User[] memory){\n        return usersList;\n    }\n\n    function updatePostForSale(bytes32 id, bool isForSale) public {\n        require(userIsRegistered[msg.sender] == true, \"User not registered\");\n        _postsOfUsers[msg.sender][id].isForSale = isForSale;\n    }\n\n    function getUserPosts() public view returns (Post[] memory userPosts){\n        require(userIsRegistered[msg.sender] == true, \"User not registered.\");\n        User storage currUser = mapToUser[msg.sender];\n        uint userPostCount = currUser.postCount.length;\n        Post[] memory currUserPosts = new Post[](userPostCount);\n        uint currentIndex = 0;\n        for(uint i = 0; i < userPostCount; i++){\n           Post storage currPost = _postsOfUsers[msg.sender][currUser.postCount[currentIndex]];\n           currUserPosts[currentIndex] = currPost;\n           currentIndex += 1;\n        }\n\n        return currUserPosts;\n    }\n\n    function removePost(bytes32 postId, address postOwner) internal {\n        bytes32[] storage postCount = mapToUser[postOwner].postCount;\n        uint index;\n        for(uint i = 0; i < postCount.length; i++){\n            if(postCount[i] == postId){\n                index = i;\n                break;\n            }\n        }\n        for(uint i = index; i < postCount.length - 1; i++){\n            postCount[i] = postCount[i + 1];\n        }\n        postCount.pop();\n    }\n\n    function likeAPost(address postOwner, bytes32 postId) public {\n        require(userIsRegistered[msg.sender] == true, \"User not registered\");\n        Post storage currPost = _postsOfUsers[postOwner][postId];\n        currPost.likes += 1;\n    }\n\n    function postComment( address postOwner, string memory comment, bytes32 postId ) public {\n        require(userIsRegistered[msg.sender] == true, \"User not registered\");\n        Post storage currPost = _postsOfUsers[postOwner][postId];\n        currPost.commentsCount += 1;\n        currPost.comments.push(comment);\n    }\n\n    function getUserData() public view returns(User memory){\n        require(userIsRegistered[msg.sender] == true, \"User not registered.\");\n        return mapToUser[msg.sender];\n}\n\n    function callKeccak256(string memory post) public pure returns( bytes32 result){\n      return keccak256(abi.encodePacked(post));\n}\n\n}\n",
  "sourcePath": "/home/astar/Documents/tris/contracts/User.sol",
  "compiler": {
    "name": "solc",
    "version": "0.8.15+commit.e14f2714.Emscripten.clang"
  },
  "schemaVersion": "3.4.8",
  "updatedAt": "2022-07-17T11:37:44.661Z",
  "networkType": "ethereum",
  "devdoc": {
    "kind": "dev",
    "methods": {},
    "version": 1
  },
  "userdoc": {
    "kind": "user",
    "methods": {},
    "version": 1
  }
}