{
  "contractName": "UserContract",
  "abi": [
    {
      "inputs": [
        {
          "internalType": "address",
          "name": "nftAddress",
          "type": "address"
        },
        {
          "internalType": "address",
          "name": "ownerAddress",
          "type": "address"
        }
      ],
      "stateMutability": "nonpayable",
      "type": "constructor"
    },
    {
      "anonymous": false,
      "inputs": [
        {
          "indexed": false,
          "internalType": "string",
          "name": "post",
          "type": "string"
        },
        {
          "indexed": false,
          "internalType": "address",
          "name": "owner",
          "type": "address"
        },
        {
          "indexed": false,
          "internalType": "address",
          "name": "seller",
          "type": "address"
        },
        {
          "indexed": false,
          "internalType": "uint256",
          "name": "price",
          "type": "uint256"
        }
      ],
      "name": "PostSold",
      "type": "event"
    },
    {
      "anonymous": false,
      "inputs": [
        {
          "indexed": false,
          "internalType": "string",
          "name": "title",
          "type": "string"
        },
        {
          "indexed": false,
          "internalType": "string",
          "name": "post",
          "type": "string"
        },
        {
          "indexed": false,
          "internalType": "bytes32",
          "name": "postId",
          "type": "bytes32"
        },
        {
          "indexed": false,
          "internalType": "uint256",
          "name": "tokenId",
          "type": "uint256"
        },
        {
          "indexed": false,
          "internalType": "uint256",
          "name": "priceByOwner",
          "type": "uint256"
        },
        {
          "indexed": false,
          "internalType": "uint256",
          "name": "basePrice",
          "type": "uint256"
        },
        {
          "indexed": false,
          "internalType": "address",
          "name": "owner",
          "type": "address"
        },
        {
          "indexed": false,
          "internalType": "address",
          "name": "seller",
          "type": "address"
        }
      ],
      "name": "PostUploaded",
      "type": "event"
    },
    {
      "anonymous": false,
      "inputs": [
        {
          "indexed": false,
          "internalType": "string",
          "name": "name",
          "type": "string"
        },
        {
          "indexed": false,
          "internalType": "string",
          "name": "userName",
          "type": "string"
        },
        {
          "indexed": false,
          "internalType": "string",
          "name": "avatarUrl",
          "type": "string"
        },
        {
          "indexed": false,
          "internalType": "address",
          "name": "userAddress",
          "type": "address"
        }
      ],
      "name": "UserCreated",
      "type": "event"
    },
    {
      "inputs": [],
      "name": "userCount",
      "outputs": [
        {
          "internalType": "uint256",
          "name": "_value",
          "type": "uint256"
        }
      ],
      "stateMutability": "view",
      "type": "function",
      "constant": true
    },
    {
      "inputs": [
        {
          "internalType": "address",
          "name": "",
          "type": "address"
        }
      ],
      "name": "userIsRegistered",
      "outputs": [
        {
          "internalType": "bool",
          "name": "",
          "type": "bool"
        }
      ],
      "stateMutability": "view",
      "type": "function",
      "constant": true
    },
    {
      "inputs": [
        {
          "internalType": "address",
          "name": "account",
          "type": "address"
        },
        {
          "internalType": "string",
          "name": "name",
          "type": "string"
        },
        {
          "internalType": "string",
          "name": "userName",
          "type": "string"
        },
        {
          "internalType": "string",
          "name": "avatarUrl",
          "type": "string"
        },
        {
          "internalType": "string",
          "name": "email",
          "type": "string"
        },
        {
          "internalType": "string",
          "name": "bio",
          "type": "string"
        },
        {
          "internalType": "string",
          "name": "wallUrl",
          "type": "string"
        }
      ],
      "name": "createUser",
      "outputs": [],
      "stateMutability": "nonpayable",
      "type": "function"
    },
    {
      "inputs": [
        {
          "internalType": "string",
          "name": "title",
          "type": "string"
        },
        {
          "internalType": "string",
          "name": "post",
          "type": "string"
        },
        {
          "internalType": "bool",
          "name": "isNft",
          "type": "bool"
        },
        {
          "internalType": "uint256",
          "name": "priceByOwner",
          "type": "uint256"
        },
        {
          "internalType": "bool",
          "name": "isForSale",
          "type": "bool"
        },
        {
          "internalType": "address",
          "name": "account",
          "type": "address"
        }
      ],
      "name": "uploadPost",
      "outputs": [
        {
          "internalType": "bytes32",
          "name": "",
          "type": "bytes32"
        }
      ],
      "stateMutability": "nonpayable",
      "type": "function"
    },
    {
      "inputs": [
        {
          "internalType": "address",
          "name": "ownerAddress",
          "type": "address"
        },
        {
          "internalType": "bytes32",
          "name": "postId",
          "type": "bytes32"
        },
        {
          "internalType": "address",
          "name": "newOwnerAddress",
          "type": "address"
        }
      ],
      "name": "buyPost",
      "outputs": [],
      "stateMutability": "payable",
      "type": "function",
      "payable": true
    },
    {
      "inputs": [],
      "name": "getUserList",
      "outputs": [
        {
          "components": [
            {
              "internalType": "string",
              "name": "name",
              "type": "string"
            },
            {
              "internalType": "string",
              "name": "userName",
              "type": "string"
            },
            {
              "internalType": "string",
              "name": "avatarUrl",
              "type": "string"
            },
            {
              "internalType": "string",
              "name": "bio",
              "type": "string"
            },
            {
              "internalType": "string",
              "name": "wallUrl",
              "type": "string"
            },
            {
              "internalType": "string",
              "name": "email",
              "type": "string"
            },
            {
              "internalType": "uint256",
              "name": "followersCount",
              "type": "uint256"
            },
            {
              "internalType": "uint256",
              "name": "followingCount",
              "type": "uint256"
            },
            {
              "internalType": "bytes32[]",
              "name": "postCount",
              "type": "bytes32[]"
            },
            {
              "internalType": "address",
              "name": "userAddress",
              "type": "address"
            },
            {
              "internalType": "address[]",
              "name": "followers",
              "type": "address[]"
            },
            {
              "internalType": "address[]",
              "name": "following",
              "type": "address[]"
            }
          ],
          "internalType": "struct UserContract.User[]",
          "name": "",
          "type": "tuple[]"
        }
      ],
      "stateMutability": "view",
      "type": "function",
      "constant": true
    },
    {
      "inputs": [
        {
          "internalType": "bytes32",
          "name": "id",
          "type": "bytes32"
        },
        {
          "internalType": "bool",
          "name": "isForSale",
          "type": "bool"
        },
        {
          "internalType": "address",
          "name": "account",
          "type": "address"
        }
      ],
      "name": "updatePostForSale",
      "outputs": [],
      "stateMutability": "nonpayable",
      "type": "function"
    },
    {
      "inputs": [
        {
          "internalType": "address",
          "name": "follower",
          "type": "address"
        },
        {
          "internalType": "address",
          "name": "account",
          "type": "address"
        }
      ],
      "name": "follow",
      "outputs": [],
      "stateMutability": "nonpayable",
      "type": "function"
    },
    {
      "inputs": [
        {
          "internalType": "address",
          "name": "sender",
          "type": "address"
        }
      ],
      "name": "getUserPosts",
      "outputs": [
        {
          "components": [
            {
              "internalType": "string",
              "name": "post",
              "type": "string"
            },
            {
              "internalType": "bytes32",
              "name": "postId",
              "type": "bytes32"
            },
            {
              "internalType": "uint256",
              "name": "likes",
              "type": "uint256"
            },
            {
              "internalType": "string",
              "name": "title",
              "type": "string"
            },
            {
              "internalType": "bool",
              "name": "isForSale",
              "type": "bool"
            },
            {
              "internalType": "bool",
              "name": "postIsBought",
              "type": "bool"
            },
            {
              "internalType": "uint256",
              "name": "commentsCount",
              "type": "uint256"
            },
            {
              "internalType": "address",
              "name": "owner",
              "type": "address"
            },
            {
              "internalType": "address payable",
              "name": "seller",
              "type": "address"
            },
            {
              "internalType": "string[]",
              "name": "comments",
              "type": "string[]"
            },
            {
              "internalType": "uint256",
              "name": "priceByOwner",
              "type": "uint256"
            },
            {
              "internalType": "uint256",
              "name": "basePrice",
              "type": "uint256"
            },
            {
              "internalType": "bool",
              "name": "isNft",
              "type": "bool"
            },
            {
              "internalType": "uint256",
              "name": "tokenId",
              "type": "uint256"
            }
          ],
          "internalType": "struct UserContract.Post[]",
          "name": "userPosts",
          "type": "tuple[]"
        }
      ],
      "stateMutability": "view",
      "type": "function",
      "constant": true
    },
    {
      "inputs": [
        {
          "internalType": "address",
          "name": "postOwner",
          "type": "address"
        },
        {
          "internalType": "bytes32",
          "name": "postId",
          "type": "bytes32"
        },
        {
          "internalType": "address",
          "name": "userAddress",
          "type": "address"
        }
      ],
      "name": "likePost",
      "outputs": [],
      "stateMutability": "nonpayable",
      "type": "function"
    },
    {
      "inputs": [
        {
          "internalType": "address",
          "name": "postOwner",
          "type": "address"
        },
        {
          "internalType": "string",
          "name": "comment",
          "type": "string"
        },
        {
          "internalType": "bytes32",
          "name": "postId",
          "type": "bytes32"
        },
        {
          "internalType": "address",
          "name": "sender",
          "type": "address"
        }
      ],
      "name": "postComment",
      "outputs": [],
      "stateMutability": "nonpayable",
      "type": "function"
    },
    {
      "inputs": [
        {
          "internalType": "address",
          "name": "userAddress",
          "type": "address"
        }
      ],
      "name": "getAllPost",
      "outputs": [
        {
          "components": [
            {
              "internalType": "string",
              "name": "post",
              "type": "string"
            },
            {
              "internalType": "bytes32",
              "name": "postId",
              "type": "bytes32"
            },
            {
              "internalType": "uint256",
              "name": "likes",
              "type": "uint256"
            },
            {
              "internalType": "string",
              "name": "title",
              "type": "string"
            },
            {
              "internalType": "bool",
              "name": "isForSale",
              "type": "bool"
            },
            {
              "internalType": "bool",
              "name": "postIsBought",
              "type": "bool"
            },
            {
              "internalType": "uint256",
              "name": "commentsCount",
              "type": "uint256"
            },
            {
              "internalType": "address",
              "name": "owner",
              "type": "address"
            },
            {
              "internalType": "address payable",
              "name": "seller",
              "type": "address"
            },
            {
              "internalType": "string[]",
              "name": "comments",
              "type": "string[]"
            },
            {
              "internalType": "uint256",
              "name": "priceByOwner",
              "type": "uint256"
            },
            {
              "internalType": "uint256",
              "name": "basePrice",
              "type": "uint256"
            },
            {
              "internalType": "bool",
              "name": "isNft",
              "type": "bool"
            },
            {
              "internalType": "uint256",
              "name": "tokenId",
              "type": "uint256"
            }
          ],
          "internalType": "struct UserContract.Post[]",
          "name": "",
          "type": "tuple[]"
        }
      ],
      "stateMutability": "view",
      "type": "function",
      "constant": true
    },
    {
      "inputs": [
        {
          "internalType": "address",
          "name": "account",
          "type": "address"
        }
      ],
      "name": "getUserData",
      "outputs": [
        {
          "components": [
            {
              "internalType": "string",
              "name": "name",
              "type": "string"
            },
            {
              "internalType": "string",
              "name": "userName",
              "type": "string"
            },
            {
              "internalType": "string",
              "name": "avatarUrl",
              "type": "string"
            },
            {
              "internalType": "string",
              "name": "bio",
              "type": "string"
            },
            {
              "internalType": "string",
              "name": "wallUrl",
              "type": "string"
            },
            {
              "internalType": "string",
              "name": "email",
              "type": "string"
            },
            {
              "internalType": "uint256",
              "name": "followersCount",
              "type": "uint256"
            },
            {
              "internalType": "uint256",
              "name": "followingCount",
              "type": "uint256"
            },
            {
              "internalType": "bytes32[]",
              "name": "postCount",
              "type": "bytes32[]"
            },
            {
              "internalType": "address",
              "name": "userAddress",
              "type": "address"
            },
            {
              "internalType": "address[]",
              "name": "followers",
              "type": "address[]"
            },
            {
              "internalType": "address[]",
              "name": "following",
              "type": "address[]"
            }
          ],
          "internalType": "struct UserContract.User",
          "name": "",
          "type": "tuple"
        }
      ],
      "stateMutability": "view",
      "type": "function",
      "constant": true
    },
    {
      "inputs": [
        {
          "internalType": "string",
          "name": "post",
          "type": "string"
        }
      ],
      "name": "callKeccak256",
      "outputs": [
        {
          "internalType": "bytes32",
          "name": "result",
          "type": "bytes32"
        }
      ],
      "stateMutability": "pure",
      "type": "function",
      "constant": true
    }
  ],
  "bytecode": "0x60806040523480156200001157600080fd5b506040516200552f3803806200552f8339818101604052810190620000379190620001a2565b600160008190555081600460006101000a81548173ffffffffffffffffffffffffffffffffffffffff021916908373ffffffffffffffffffffffffffffffffffffffff16021790555080600560006101000a81548173ffffffffffffffffffffffffffffffffffffffff021916908373ffffffffffffffffffffffffffffffffffffffff1602179055508173ffffffffffffffffffffffffffffffffffffffff1663bdf3e088306040518263ffffffff1660e01b8152600401620000fc9190620001fa565b600060405180830381600087803b1580156200011757600080fd5b505af11580156200012c573d6000803e3d6000fd5b50505050505062000217565b600080fd5b600073ffffffffffffffffffffffffffffffffffffffff82169050919050565b60006200016a826200013d565b9050919050565b6200017c816200015d565b81146200018857600080fd5b50565b6000815190506200019c8162000171565b92915050565b60008060408385031215620001bc57620001bb62000138565b5b6000620001cc858286016200018b565b9250506020620001df858286016200018b565b9150509250929050565b620001f4816200015d565b82525050565b6000602082019050620002116000830184620001e9565b92915050565b61530880620002276000396000f3fe6080604052600436106100dd5760003560e01c806399d147c21161007f578063b852204311610059578063b8522043146102c1578063cb224411146102ec578063f6f1971514610315578063ffc9896b14610352576100dd565b806399d147c2146102325780639a2194a91461025b578063a4b2467414610298576100dd565b80634546a98e116100bb5780634546a98e146101735780635c8557fd1461018f5780636c216d06146101b857806393f72685146101f5576100dd565b806307973ccf146100e257806308acdddf1461010d5780632b9462521461014a575b600080fd5b3480156100ee57600080fd5b506100f761038f565b60405161010491906137ea565b60405180910390f35b34801561011957600080fd5b50610134600480360381019061012f9190613a21565b61039b565b6040516101419190613aff565b60405180910390f35b34801561015657600080fd5b50610171600480360381019061016c9190613b1a565b610acf565b005b61018d60048036038101906101889190613c90565b610e96565b005b34801561019b57600080fd5b506101b660048036038101906101b19190613ce3565b611705565b005b3480156101c457600080fd5b506101df60048036038101906101da9190613d36565b611808565b6040516101ec9190613aff565b60405180910390f35b34801561020157600080fd5b5061021c60048036038101906102179190613d7f565b611838565b6040516102299190614151565b60405180910390f35b34801561023e57600080fd5b5061025960048036038101906102549190614173565b611ce9565b005b34801561026757600080fd5b50610282600480360381019061027d9190613d7f565b611f9d565b60405161028f9190614151565b60405180910390f35b3480156102a457600080fd5b506102bf60048036038101906102ba91906141b3565b6124ea565b005b3480156102cd57600080fd5b506102d661262b565b6040516102e39190614592565b60405180910390f35b3480156102f857600080fd5b50610313600480360381019061030e9190613c90565b612bd5565b005b34801561032157600080fd5b5061033c60048036038101906103379190613d7f565b612cde565b60405161034991906145c3565b60405180910390f35b34801561035e57600080fd5b5061037960048036038101906103749190613d7f565b612cfe565b604051610386919061471a565b60405180910390f35b60018060000154905081565b60006002600054036103e2576040517f08c379a00000000000000000000000000000000000000000000000000000000081526004016103d990614799565b60405180910390fd5b600260008190555060011515600260008473ffffffffffffffffffffffffffffffffffffffff1673ffffffffffffffffffffffffffffffffffffffff16815260200190815260200160002060009054906101000a900460ff1615151461047d576040517f08c379a000000000000000000000000000000000000000000000000000000000815260040161047490614805565b60405180910390fd5b6000600360008473ffffffffffffffffffffffffffffffffffffffff1673ffffffffffffffffffffffffffffffffffffffff16815260200190815260200160002090506000861561056957600460009054906101000a900473ffffffffffffffffffffffffffffffffffffffff1673ffffffffffffffffffffffffffffffffffffffff166333eba49a896040518263ffffffff1660e01b8152600401610523919061485e565b6020604051808303816000875af1158015610542573d6000803e3d6000fd5b505050506040513d601f19601f820116820180604052508101906105669190614895565b90505b8160080161057689611808565b90806001815401808255809150506001900390600052602060002001600090919091909150556000604051806101c001604052808a81526020016105b98b611808565b8152602001600081526020018b8152602001896105d75760006105d9565b875b1515815260200160001515815260200160008152602001896105fc5760006105fe565b305b73ffffffffffffffffffffffffffffffffffffffff16815260200189610625576000610627565b865b73ffffffffffffffffffffffffffffffffffffffff168152602001600067ffffffffffffffff81111561065d5761065c613834565b5b60405190808252806020026020018201604052801561069057816020015b606081526020019060019003908161067b5790505b508152602001896106a25760006106a4565b885b8152602001896106b55760006106b8565b600a5b60ff1681526020018915158152602001896106d45760006106d6565b835b81525090506106e56007613335565b80600860006106f4600761334b565b815260200190815260200160002060008201518160000190816107179190614ace565b50602082015181600101556040820151816002015560608201518160030190816107419190614ace565b5060808201518160040160006101000a81548160ff02191690831515021790555060a08201518160040160016101000a81548160ff02191690831515021790555060c0820151816005015560e08201518160060160006101000a81548173ffffffffffffffffffffffffffffffffffffffff021916908373ffffffffffffffffffffffffffffffffffffffff1602179055506101008201518160070160006101000a81548173ffffffffffffffffffffffffffffffffffffffff021916908373ffffffffffffffffffffffffffffffffffffffff16021790555061012082015181600801908051906020019061083892919061349d565b50610140820151816009015561016082015181600a015561018082015181600b0160006101000a81548160ff0219169083151502179055506101a082015181600c015590505080600960008773ffffffffffffffffffffffffffffffffffffffff1673ffffffffffffffffffffffffffffffffffffffff16815260200190815260200160002060006108c98c611808565b815260200190815260200160002060008201518160000190816108ec9190614ace565b50602082015181600101556040820151816002015560608201518160030190816109169190614ace565b5060808201518160040160006101000a81548160ff02191690831515021790555060a08201518160040160016101000a81548160ff02191690831515021790555060c0820151816005015560e08201518160060160006101000a81548173ffffffffffffffffffffffffffffffffffffffff021916908373ffffffffffffffffffffffffffffffffffffffff1602179055506101008201518160070160006101000a81548173ffffffffffffffffffffffffffffffffffffffff021916908373ffffffffffffffffffffffffffffffffffffffff160217905550610120820151816008019080519060200190610a0d92919061349d565b50610140820151816009015561016082015181600a015561018082015181600b0160006101000a81548160ff0219169083151502179055506101a082015181600c01559050507f72d2ff68e942d073bdcb19dbadc9e768208026219f8d884b765175ff7f671a9c816060015182600001518360200151846101a001518b600a8760e00151886101000151604051610aab989796959493929190614c3f565b60405180910390a18060200151935050505060016000819055509695505050505050565b60011515600260008973ffffffffffffffffffffffffffffffffffffffff1673ffffffffffffffffffffffffffffffffffffffff16815260200190815260200160002060009054906101000a900460ff16151503610b62576040517f08c379a0000000000000000000000000000000000000000000000000000000008152600401610b5990614d17565b60405180910390fd5b6000600360008973ffffffffffffffffffffffffffffffffffffffff1673ffffffffffffffffffffffffffffffffffffffff168152602001908152602001600020905086816000019081610bb69190614ace565b5085816001019081610bc89190614ace565b5084816002019081610bda9190614ace565b5082816003019081610bec9190614ace565b5081816004019081610bfe9190614ace565b50878160090160006101000a81548173ffffffffffffffffffffffffffffffffffffffff021916908373ffffffffffffffffffffffffffffffffffffffff16021790555083816005019081610c539190614ace565b50610c5e6001613335565b6001600260008a73ffffffffffffffffffffffffffffffffffffffff1673ffffffffffffffffffffffffffffffffffffffff16815260200190815260200160002060006101000a81548160ff02191690831515021790555060068190806001815401808255809150506001900390600052602060002090600c020160009091909190915060008201816000019081610cf69190614d4d565b5060018201816001019081610d0b9190614d4d565b5060028201816002019081610d209190614d4d565b5060038201816003019081610d359190614d4d565b5060048201816004019081610d4a9190614d4d565b5060058201816005019081610d5f9190614d4d565b5060068201548160060155600782015481600701556008820181600801908054610d8a9291906134f6565b506009820160009054906101000a900473ffffffffffffffffffffffffffffffffffffffff168160090160006101000a81548173ffffffffffffffffffffffffffffffffffffffff021916908373ffffffffffffffffffffffffffffffffffffffff160217905550600a820181600a01908054610e08929190613548565b50600b820181600b01908054610e1f929190613548565b5050507f3500268ebdfdd25b305294ab9516187c34eb908aa8b91d7a48ea6ccfafe4158a8160000182600101836002018460090160009054906101000a900473ffffffffffffffffffffffffffffffffffffffff16604051610e849493929190614eb9565b60405180910390a15050505050505050565b600260005403610edb576040517f08c379a0000000000000000000000000000000000000000000000000000000008152600401610ed290614799565b60405180910390fd5b60026000819055506000600960008573ffffffffffffffffffffffffffffffffffffffff1673ffffffffffffffffffffffffffffffffffffffff1681526020019081526020016000206000848152602001908152602001600020905060011515600260008473ffffffffffffffffffffffffffffffffffffffff1673ffffffffffffffffffffffffffffffffffffffff16815260200190815260200160002060009054906101000a900460ff16151514610fca576040517f08c379a0000000000000000000000000000000000000000000000000000000008152600401610fc190614f5f565b60405180910390fd5b6001151581600b0160009054906101000a900460ff16151514611022576040517f08c379a000000000000000000000000000000000000000000000000000000000815260040161101990614fcb565b60405180910390fd5b60011515600260008673ffffffffffffffffffffffffffffffffffffffff1673ffffffffffffffffffffffffffffffffffffffff16815260200190815260200160002060009054906101000a900460ff161515146110b5576040517f08c379a00000000000000000000000000000000000000000000000000000000081526004016110ac90614f5f565b60405180910390fd5b600115158160040160009054906101000a900460ff1615151461110d576040517f08c379a000000000000000000000000000000000000000000000000000000000815260040161110490615037565b60405180910390fd5b60003490506000600360008573ffffffffffffffffffffffffffffffffffffffff1673ffffffffffffffffffffffffffffffffffffffff168152602001908152602001600020905082600a015482101561119c576040517f08c379a0000000000000000000000000000000000000000000000000000000008152600401611193906150c9565b60405180910390fd5b600015158360040160019054906101000a900460ff1615150361124f57600460009054906101000a900473ffffffffffffffffffffffffffffffffffffffff1673ffffffffffffffffffffffffffffffffffffffff166323b872dd308686600c01546040518463ffffffff1660e01b815260040161121c939291906150e9565b600060405180830381600087803b15801561123657600080fd5b505af115801561124a573d6000803e3d6000fd5b505050505b8260070160009054906101000a900473ffffffffffffffffffffffffffffffffffffffff1673ffffffffffffffffffffffffffffffffffffffff166108fc349081150290604051600060405180830381858888f193505050501580156112b9573d6000803e3d6000fd5b50838360060160006101000a81548173ffffffffffffffffffffffffffffffffffffffff021916908373ffffffffffffffffffffffffffffffffffffffff160217905550838360070160006101000a81548173ffffffffffffffffffffffffffffffffffffffff021916908373ffffffffffffffffffffffffffffffffffffffff16021790555061134a8587613359565b60018360040160016101000a81548160ff02191690831515021790555082600960008673ffffffffffffffffffffffffffffffffffffffff1673ffffffffffffffffffffffffffffffffffffffff1681526020019081526020016000206000878152602001908152602001600020600082018160000190816113cc9190614d4d565b506001820154816001015560028201548160020155600382018160030190816113f59190614d4d565b506004820160009054906101000a900460ff168160040160006101000a81548160ff0219169083151502179055506004820160019054906101000a900460ff168160040160016101000a81548160ff021916908315150217905550600582015481600501556006820160009054906101000a900473ffffffffffffffffffffffffffffffffffffffff168160060160006101000a81548173ffffffffffffffffffffffffffffffffffffffff021916908373ffffffffffffffffffffffffffffffffffffffff1602179055506007820160009054906101000a900473ffffffffffffffffffffffffffffffffffffffff168160070160006101000a81548173ffffffffffffffffffffffffffffffffffffffff021916908373ffffffffffffffffffffffffffffffffffffffff160217905550600882018160080190805461153e92919061359a565b5060098201548160090155600a82015481600a0155600b820160009054906101000a900460ff1681600b0160006101000a81548160ff021916908315150217905550600c82015481600c0155905050600960008773ffffffffffffffffffffffffffffffffffffffff1673ffffffffffffffffffffffffffffffffffffffff1681526020019081526020016000206000868152602001908152602001600020600080820160006115ee91906135f7565b6001820160009055600282016000905560038201600061160e91906135f7565b6004820160006101000a81549060ff02191690556004820160016101000a81549060ff021916905560058201600090556006820160006101000a81549073ffffffffffffffffffffffffffffffffffffffff02191690556007820160006101000a81549073ffffffffffffffffffffffffffffffffffffffff021916905560088201600061169c9190613637565b6009820160009055600a820160009055600b820160006101000a81549060ff0219169055600c8201600090555050806008018590806001815401808255809150506001900390600052602060002001600090919091909150555050506001600081905550505050565b60011515600260008373ffffffffffffffffffffffffffffffffffffffff1673ffffffffffffffffffffffffffffffffffffffff16815260200190815260200160002060009054906101000a900460ff16151514611798576040517f08c379a000000000000000000000000000000000000000000000000000000000815260040161178f90614f5f565b60405180910390fd5b81600960008373ffffffffffffffffffffffffffffffffffffffff1673ffffffffffffffffffffffffffffffffffffffff168152602001908152602001600020600085815260200190815260200160002060040160006101000a81548160ff021916908315150217905550505050565b60008160405160200161181b919061515c565b604051602081830303815290604052805190602001209050919050565b606060011515600260008473ffffffffffffffffffffffffffffffffffffffff1673ffffffffffffffffffffffffffffffffffffffff16815260200190815260200160002060009054906101000a900460ff161515146118cd576040517f08c379a00000000000000000000000000000000000000000000000000000000081526004016118c490614805565b60405180910390fd5b60006118d9600761334b565b90506000808267ffffffffffffffff8111156118f8576118f7613834565b5b60405190808252806020026020018201604052801561193157816020015b61191e613658565b8152602001906001900390816119165790505b5090506000600190505b838111611cdd57600060086000838152602001908152602001600020905080604051806101c0016040529081600082018054611976906148f1565b80601f01602080910402602001604051908101604052809291908181526020018280546119a2906148f1565b80156119ef5780601f106119c4576101008083540402835291602001916119ef565b820191906000526020600020905b8154815290600101906020018083116119d257829003601f168201915b505050505081526020016001820154815260200160028201548152602001600382018054611a1c906148f1565b80601f0160208091040260200160405190810160405280929190818152602001828054611a48906148f1565b8015611a955780601f10611a6a57610100808354040283529160200191611a95565b820191906000526020600020905b815481529060010190602001808311611a7857829003601f168201915b505050505081526020016004820160009054906101000a900460ff161515151581526020016004820160019054906101000a900460ff16151515158152602001600582015481526020016006820160009054906101000a900473ffffffffffffffffffffffffffffffffffffffff1673ffffffffffffffffffffffffffffffffffffffff1673ffffffffffffffffffffffffffffffffffffffff1681526020016007820160009054906101000a900473ffffffffffffffffffffffffffffffffffffffff1673ffffffffffffffffffffffffffffffffffffffff1673ffffffffffffffffffffffffffffffffffffffff16815260200160088201805480602002602001604051908101604052809291908181526020016000905b82821015611c5b578382906000526020600020018054611bce906148f1565b80601f0160208091040260200160405190810160405280929190818152602001828054611bfa906148f1565b8015611c475780601f10611c1c57610100808354040283529160200191611c47565b820191906000526020600020905b815481529060010190602001808311611c2a57829003601f168201915b505050505081526020019060010190611baf565b50505050815260200160098201548152602001600a8201548152602001600b820160009054906101000a900460ff16151515158152602001600c82015481525050838581518110611caf57611cae615173565b5b6020026020010181905250600184611cc791906151d1565b9350508080611cd590615227565b91505061193b565b50809350505050919050565b60011515600260008473ffffffffffffffffffffffffffffffffffffffff1673ffffffffffffffffffffffffffffffffffffffff16815260200190815260200160002060009054906101000a900460ff16151514611d7c576040517f08c379a0000000000000000000000000000000000000000000000000000000008152600401611d7390614f5f565b60405180910390fd5b60011515600260008373ffffffffffffffffffffffffffffffffffffffff1673ffffffffffffffffffffffffffffffffffffffff16815260200190815260200160002060009054906101000a900460ff16151514611e0f576040517f08c379a0000000000000000000000000000000000000000000000000000000008152600401611e0690614f5f565b60405180910390fd5b6000600360008373ffffffffffffffffffffffffffffffffffffffff1673ffffffffffffffffffffffffffffffffffffffff16815260200190815260200160002090506000600360008573ffffffffffffffffffffffffffffffffffffffff1673ffffffffffffffffffffffffffffffffffffffff16815260200190815260200160002090506001826006016000828254611eaa91906151d1565b925050819055506001816007016000828254611ec691906151d1565b9250508190555081600a01849080600181540180825580915050600190039060005260206000200160009091909190916101000a81548173ffffffffffffffffffffffffffffffffffffffff021916908373ffffffffffffffffffffffffffffffffffffffff16021790555080600b01839080600181540180825580915050600190039060005260206000200160009091909190916101000a81548173ffffffffffffffffffffffffffffffffffffffff021916908373ffffffffffffffffffffffffffffffffffffffff16021790555050505050565b606060011515600260008473ffffffffffffffffffffffffffffffffffffffff1673ffffffffffffffffffffffffffffffffffffffff16815260200190815260200160002060009054906101000a900460ff16151514612032576040517f08c379a000000000000000000000000000000000000000000000000000000000815260040161202990614805565b60405180910390fd5b6000600360008473ffffffffffffffffffffffffffffffffffffffff1673ffffffffffffffffffffffffffffffffffffffff168152602001908152602001600020905060008160080180549050905060008167ffffffffffffffff81111561209d5761209c613834565b5b6040519080825280602002602001820160405280156120d657816020015b6120c3613658565b8152602001906001900390816120bb5790505b5090506000805b838110156124dd576000600960008973ffffffffffffffffffffffffffffffffffffffff1673ffffffffffffffffffffffffffffffffffffffff168152602001908152602001600020600087600801858154811061213e5761213d615173565b5b90600052602060002001548152602001908152602001600020905080604051806101c0016040529081600082018054612176906148f1565b80601f01602080910402602001604051908101604052809291908181526020018280546121a2906148f1565b80156121ef5780601f106121c4576101008083540402835291602001916121ef565b820191906000526020600020905b8154815290600101906020018083116121d257829003601f168201915b50505050508152602001600182015481526020016002820154815260200160038201805461221c906148f1565b80601f0160208091040260200160405190810160405280929190818152602001828054612248906148f1565b80156122955780601f1061226a57610100808354040283529160200191612295565b820191906000526020600020905b81548152906001019060200180831161227857829003601f168201915b505050505081526020016004820160009054906101000a900460ff161515151581526020016004820160019054906101000a900460ff16151515158152602001600582015481526020016006820160009054906101000a900473ffffffffffffffffffffffffffffffffffffffff1673ffffffffffffffffffffffffffffffffffffffff1673ffffffffffffffffffffffffffffffffffffffff1681526020016007820160009054906101000a900473ffffffffffffffffffffffffffffffffffffffff1673ffffffffffffffffffffffffffffffffffffffff1673ffffffffffffffffffffffffffffffffffffffff16815260200160088201805480602002602001604051908101604052809291908181526020016000905b8282101561245b5783829060005260206000200180546123ce906148f1565b80601f01602080910402602001604051908101604052809291908181526020018280546123fa906148f1565b80156124475780601f1061241c57610100808354040283529160200191612447565b820191906000526020600020905b81548152906001019060200180831161242a57829003601f168201915b5050505050815260200190600101906123af565b50505050815260200160098201548152602001600a8201548152602001600b820160009054906101000a900460ff16151515158152602001600c820154815250508484815181106124af576124ae615173565b5b60200260200101819052506001836124c791906151d1565b92505080806124d590615227565b9150506120dd565b5081945050505050919050565b60011515600260008373ffffffffffffffffffffffffffffffffffffffff1673ffffffffffffffffffffffffffffffffffffffff16815260200190815260200160002060009054906101000a900460ff1615151461257d576040517f08c379a000000000000000000000000000000000000000000000000000000000815260040161257490614f5f565b60405180910390fd5b6000600960008673ffffffffffffffffffffffffffffffffffffffff1673ffffffffffffffffffffffffffffffffffffffff1681526020019081526020016000206000848152602001908152602001600020905060018160050160008282546125e691906151d1565b9250508190555080600801849080600181540180825580915050600190039060005260206000200160009091909190915090816126239190614ace565b505050505050565b60606006805480602002602001604051908101604052809291908181526020016000905b82821015612bcc57838290600052602060002090600c020160405180610180016040529081600082018054612683906148f1565b80601f01602080910402602001604051908101604052809291908181526020018280546126af906148f1565b80156126fc5780601f106126d1576101008083540402835291602001916126fc565b820191906000526020600020905b8154815290600101906020018083116126df57829003601f168201915b50505050508152602001600182018054612715906148f1565b80601f0160208091040260200160405190810160405280929190818152602001828054612741906148f1565b801561278e5780601f106127635761010080835404028352916020019161278e565b820191906000526020600020905b81548152906001019060200180831161277157829003601f168201915b505050505081526020016002820180546127a7906148f1565b80601f01602080910402602001604051908101604052809291908181526020018280546127d3906148f1565b80156128205780601f106127f557610100808354040283529160200191612820565b820191906000526020600020905b81548152906001019060200180831161280357829003601f168201915b50505050508152602001600382018054612839906148f1565b80601f0160208091040260200160405190810160405280929190818152602001828054612865906148f1565b80156128b25780601f10612887576101008083540402835291602001916128b2565b820191906000526020600020905b81548152906001019060200180831161289557829003601f168201915b505050505081526020016004820180546128cb906148f1565b80601f01602080910402602001604051908101604052809291908181526020018280546128f7906148f1565b80156129445780601f1061291957610100808354040283529160200191612944565b820191906000526020600020905b81548152906001019060200180831161292757829003601f168201915b5050505050815260200160058201805461295d906148f1565b80601f0160208091040260200160405190810160405280929190818152602001828054612989906148f1565b80156129d65780601f106129ab576101008083540402835291602001916129d6565b820191906000526020600020905b8154815290600101906020018083116129b957829003601f168201915b50505050508152602001600682015481526020016007820154815260200160088201805480602002602001604051908101604052809291908181526020018280548015612a4257602002820191906000526020600020905b815481526020019060010190808311612a2e575b505050505081526020016009820160009054906101000a900473ffffffffffffffffffffffffffffffffffffffff1673ffffffffffffffffffffffffffffffffffffffff1673ffffffffffffffffffffffffffffffffffffffff168152602001600a8201805480602002602001604051908101604052809291908181526020018280548015612b2657602002820191906000526020600020905b8160009054906101000a900473ffffffffffffffffffffffffffffffffffffffff1673ffffffffffffffffffffffffffffffffffffffff1681526020019060010190808311612adc575b50505050508152602001600b8201805480602002602001604051908101604052809291908181526020018280548015612bb457602002820191906000526020600020905b8160009054906101000a900473ffffffffffffffffffffffffffffffffffffffff1673ffffffffffffffffffffffffffffffffffffffff1681526020019060010190808311612b6a575b5050505050815250508152602001906001019061264f565b50505050905090565b60011515600260008373ffffffffffffffffffffffffffffffffffffffff1673ffffffffffffffffffffffffffffffffffffffff16815260200190815260200160002060009054906101000a900460ff16151514612c68576040517f08c379a0000000000000000000000000000000000000000000000000000000008152600401612c5f90614f5f565b60405180910390fd5b6000600960008573ffffffffffffffffffffffffffffffffffffffff1673ffffffffffffffffffffffffffffffffffffffff168152602001908152602001600020600084815260200190815260200160002090506001816002016000828254612cd191906151d1565b9250508190555050505050565b60026020528060005260406000206000915054906101000a900460ff1681565b612d066136fc565b60011515600260008473ffffffffffffffffffffffffffffffffffffffff1673ffffffffffffffffffffffffffffffffffffffff16815260200190815260200160002060009054906101000a900460ff16151514612d99576040517f08c379a0000000000000000000000000000000000000000000000000000000008152600401612d9090614805565b60405180910390fd5b600360008373ffffffffffffffffffffffffffffffffffffffff1673ffffffffffffffffffffffffffffffffffffffff16815260200190815260200160002060405180610180016040529081600082018054612df4906148f1565b80601f0160208091040260200160405190810160405280929190818152602001828054612e20906148f1565b8015612e6d5780601f10612e4257610100808354040283529160200191612e6d565b820191906000526020600020905b815481529060010190602001808311612e5057829003601f168201915b50505050508152602001600182018054612e86906148f1565b80601f0160208091040260200160405190810160405280929190818152602001828054612eb2906148f1565b8015612eff5780601f10612ed457610100808354040283529160200191612eff565b820191906000526020600020905b815481529060010190602001808311612ee257829003601f168201915b50505050508152602001600282018054612f18906148f1565b80601f0160208091040260200160405190810160405280929190818152602001828054612f44906148f1565b8015612f915780601f10612f6657610100808354040283529160200191612f91565b820191906000526020600020905b815481529060010190602001808311612f7457829003601f168201915b50505050508152602001600382018054612faa906148f1565b80601f0160208091040260200160405190810160405280929190818152602001828054612fd6906148f1565b80156130235780601f10612ff857610100808354040283529160200191613023565b820191906000526020600020905b81548152906001019060200180831161300657829003601f168201915b5050505050815260200160048201805461303c906148f1565b80601f0160208091040260200160405190810160405280929190818152602001828054613068906148f1565b80156130b55780601f1061308a576101008083540402835291602001916130b5565b820191906000526020600020905b81548152906001019060200180831161309857829003601f168201915b505050505081526020016005820180546130ce906148f1565b80601f01602080910402602001604051908101604052809291908181526020018280546130fa906148f1565b80156131475780601f1061311c57610100808354040283529160200191613147565b820191906000526020600020905b81548152906001019060200180831161312a57829003601f168201915b505050505081526020016006820154815260200160078201548152602001600882018054806020026020016040519081016040528092919081815260200182805480156131b357602002820191906000526020600020905b81548152602001906001019080831161319f575b505050505081526020016009820160009054906101000a900473ffffffffffffffffffffffffffffffffffffffff1673ffffffffffffffffffffffffffffffffffffffff1673ffffffffffffffffffffffffffffffffffffffff168152602001600a820180548060200260200160405190810160405280929190818152602001828054801561329757602002820191906000526020600020905b8160009054906101000a900473ffffffffffffffffffffffffffffffffffffffff1673ffffffffffffffffffffffffffffffffffffffff168152602001906001019080831161324d575b50505050508152602001600b820180548060200260200160405190810160405280929190818152602001828054801561332557602002820191906000526020600020905b8160009054906101000a900473ffffffffffffffffffffffffffffffffffffffff1673ffffffffffffffffffffffffffffffffffffffff16815260200190600101908083116132db575b5050505050815250509050919050565b6001816000016000828254019250508190555050565b600081600001549050919050565b6000600360008373ffffffffffffffffffffffffffffffffffffffff1673ffffffffffffffffffffffffffffffffffffffff1681526020019081526020016000206008019050600080600090505b82805490508110156133f257848382815481106133c7576133c6615173565b5b9060005260206000200154036133df578091506133f2565b80806133ea90615227565b9150506133a7565b5060008190505b6001838054905061340a919061526f565b81101561346f578260018261341f91906151d1565b815481106134305761342f615173565b5b906000526020600020015483828154811061344e5761344d615173565b5b9060005260206000200181905550808061346790615227565b9150506133f9565b5081805480613481576134806152a3565b5b6001900381819060005260206000200160009055905550505050565b8280548282559060005260206000209081019282156134e5579160200282015b828111156134e45782518290816134d49190614ace565b50916020019190600101906134bd565b5b5090506134f29190613773565b5090565b8280548282559060005260206000209081019282156135375760005260206000209182015b8281111561353657825482559160010191906001019061351b565b5b5090506135449190613797565b5090565b8280548282559060005260206000209081019282156135895760005260206000209182015b8281111561358857825482559160010191906001019061356d565b5b50905061359691906137b4565b5090565b8280548282559060005260206000209081019282156135e65760005260206000209182015b828111156135e557828290816135d59190614d4d565b50916001019190600101906135bf565b5b5090506135f39190613773565b5090565b508054613603906148f1565b6000825580601f106136155750613634565b601f01602090049060005260206000209081019061363391906137b4565b5b50565b50805460008255906000526020600020908101906136559190613773565b50565b604051806101c001604052806060815260200160008019168152602001600081526020016060815260200160001515815260200160001515815260200160008152602001600073ffffffffffffffffffffffffffffffffffffffff168152602001600073ffffffffffffffffffffffffffffffffffffffff168152602001606081526020016000815260200160008152602001600015158152602001600081525090565b604051806101800160405280606081526020016060815260200160608152602001606081526020016060815260200160608152602001600081526020016000815260200160608152602001600073ffffffffffffffffffffffffffffffffffffffff16815260200160608152602001606081525090565b5b80821115613793576000818161378a91906135f7565b50600101613774565b5090565b5b808211156137b0576000816000905550600101613798565b5090565b5b808211156137cd5760008160009055506001016137b5565b5090565b6000819050919050565b6137e4816137d1565b82525050565b60006020820190506137ff60008301846137db565b92915050565b6000604051905090565b600080fd5b600080fd5b600080fd5b600080fd5b6000601f19601f8301169050919050565b7f4e487b7100000000000000000000000000000000000000000000000000000000600052604160045260246000fd5b61386c82613823565b810181811067ffffffffffffffff8211171561388b5761388a613834565b5b80604052505050565b600061389e613805565b90506138aa8282613863565b919050565b600067ffffffffffffffff8211156138ca576138c9613834565b5b6138d382613823565b9050602081019050919050565b82818337600083830152505050565b60006139026138fd846138af565b613894565b90508281526020810184848401111561391e5761391d61381e565b5b6139298482856138e0565b509392505050565b600082601f83011261394657613945613819565b5b81356139568482602086016138ef565b91505092915050565b60008115159050919050565b6139748161395f565b811461397f57600080fd5b50565b6000813590506139918161396b565b92915050565b6139a0816137d1565b81146139ab57600080fd5b50565b6000813590506139bd81613997565b92915050565b600073ffffffffffffffffffffffffffffffffffffffff82169050919050565b60006139ee826139c3565b9050919050565b6139fe816139e3565b8114613a0957600080fd5b50565b600081359050613a1b816139f5565b92915050565b60008060008060008060c08789031215613a3e57613a3d61380f565b5b600087013567ffffffffffffffff811115613a5c57613a5b613814565b5b613a6889828a01613931565b965050602087013567ffffffffffffffff811115613a8957613a88613814565b5b613a9589828a01613931565b9550506040613aa689828a01613982565b9450506060613ab789828a016139ae565b9350506080613ac889828a01613982565b92505060a0613ad989828a01613a0c565b9150509295509295509295565b6000819050919050565b613af981613ae6565b82525050565b6000602082019050613b146000830184613af0565b92915050565b600080600080600080600060e0888a031215613b3957613b3861380f565b5b6000613b478a828b01613a0c565b975050602088013567ffffffffffffffff811115613b6857613b67613814565b5b613b748a828b01613931565b965050604088013567ffffffffffffffff811115613b9557613b94613814565b5b613ba18a828b01613931565b955050606088013567ffffffffffffffff811115613bc257613bc1613814565b5b613bce8a828b01613931565b945050608088013567ffffffffffffffff811115613bef57613bee613814565b5b613bfb8a828b01613931565b93505060a088013567ffffffffffffffff811115613c1c57613c1b613814565b5b613c288a828b01613931565b92505060c088013567ffffffffffffffff811115613c4957613c48613814565b5b613c558a828b01613931565b91505092959891949750929550565b613c6d81613ae6565b8114613c7857600080fd5b50565b600081359050613c8a81613c64565b92915050565b600080600060608486031215613ca957613ca861380f565b5b6000613cb786828701613a0c565b9350506020613cc886828701613c7b565b9250506040613cd986828701613a0c565b9150509250925092565b600080600060608486031215613cfc57613cfb61380f565b5b6000613d0a86828701613c7b565b9350506020613d1b86828701613982565b9250506040613d2c86828701613a0c565b9150509250925092565b600060208284031215613d4c57613d4b61380f565b5b600082013567ffffffffffffffff811115613d6a57613d69613814565b5b613d7684828501613931565b91505092915050565b600060208284031215613d9557613d9461380f565b5b6000613da384828501613a0c565b91505092915050565b600081519050919050565b600082825260208201905092915050565b6000819050602082019050919050565b600081519050919050565b600082825260208201905092915050565b60005b83811015613e12578082015181840152602081019050613df7565b83811115613e21576000848401525b50505050565b6000613e3282613dd8565b613e3c8185613de3565b9350613e4c818560208601613df4565b613e5581613823565b840191505092915050565b613e6981613ae6565b82525050565b613e78816137d1565b82525050565b613e878161395f565b82525050565b613e96816139e3565b82525050565b6000613ea7826139c3565b9050919050565b613eb781613e9c565b82525050565b600081519050919050565b600082825260208201905092915050565b6000819050602082019050919050565b6000613ef58383613e27565b905092915050565b6000602082019050919050565b6000613f1582613ebd565b613f1f8185613ec8565b935083602082028501613f3185613ed9565b8060005b85811015613f6d5784840389528151613f4e8582613ee9565b9450613f5983613efd565b925060208a01995050600181019050613f35565b50829750879550505050505092915050565b60006101c0830160008301518482036000860152613f9d8282613e27565b9150506020830151613fb26020860182613e60565b506040830151613fc56040860182613e6f565b5060608301518482036060860152613fdd8282613e27565b9150506080830151613ff26080860182613e7e565b5060a083015161400560a0860182613e7e565b5060c083015161401860c0860182613e6f565b5060e083015161402b60e0860182613e8d565b50610100830151614040610100860182613eae565b5061012083015184820361012086015261405a8282613f0a565b915050610140830151614071610140860182613e6f565b50610160830151614086610160860182613e6f565b5061018083015161409b610180860182613e7e565b506101a08301516140b06101a0860182613e6f565b508091505092915050565b60006140c78383613f7f565b905092915050565b6000602082019050919050565b60006140e782613dac565b6140f18185613db7565b93508360208202850161410385613dc8565b8060005b8581101561413f578484038952815161412085826140bb565b945061412b836140cf565b925060208a01995050600181019050614107565b50829750879550505050505092915050565b6000602082019050818103600083015261416b81846140dc565b905092915050565b6000806040838503121561418a5761418961380f565b5b600061419885828601613a0c565b92505060206141a985828601613a0c565b9150509250929050565b600080600080608085870312156141cd576141cc61380f565b5b60006141db87828801613a0c565b945050602085013567ffffffffffffffff8111156141fc576141fb613814565b5b61420887828801613931565b935050604061421987828801613c7b565b925050606061422a87828801613a0c565b91505092959194509250565b600081519050919050565b600082825260208201905092915050565b6000819050602082019050919050565b600081519050919050565b600082825260208201905092915050565b6000819050602082019050919050565b600061429a8383613e60565b60208301905092915050565b6000602082019050919050565b60006142be82614262565b6142c8818561426d565b93506142d38361427e565b8060005b838110156143045781516142eb888261428e565b97506142f6836142a6565b9250506001810190506142d7565b5085935050505092915050565b600081519050919050565b600082825260208201905092915050565b6000819050602082019050919050565b60006143498383613e8d565b60208301905092915050565b6000602082019050919050565b600061436d82614311565b614377818561431c565b93506143828361432d565b8060005b838110156143b357815161439a888261433d565b97506143a583614355565b925050600181019050614386565b5085935050505092915050565b60006101808301600083015184820360008601526143de8282613e27565b915050602083015184820360208601526143f88282613e27565b915050604083015184820360408601526144128282613e27565b9150506060830151848203606086015261442c8282613e27565b915050608083015184820360808601526144468282613e27565b91505060a083015184820360a08601526144608282613e27565b91505060c083015161447560c0860182613e6f565b5060e083015161448860e0860182613e6f565b506101008301518482036101008601526144a282826142b3565b9150506101208301516144b9610120860182613e8d565b506101408301518482036101408601526144d38282614362565b9150506101608301518482036101608601526144ef8282614362565b9150508091505092915050565b600061450883836143c0565b905092915050565b6000602082019050919050565b600061452882614236565b6145328185614241565b93508360208202850161454485614252565b8060005b85811015614580578484038952815161456185826144fc565b945061456c83614510565b925060208a01995050600181019050614548565b50829750879550505050505092915050565b600060208201905081810360008301526145ac818461451d565b905092915050565b6145bd8161395f565b82525050565b60006020820190506145d860008301846145b4565b92915050565b60006101808301600083015184820360008601526145fc8282613e27565b915050602083015184820360208601526146168282613e27565b915050604083015184820360408601526146308282613e27565b9150506060830151848203606086015261464a8282613e27565b915050608083015184820360808601526146648282613e27565b91505060a083015184820360a086015261467e8282613e27565b91505060c083015161469360c0860182613e6f565b5060e08301516146a660e0860182613e6f565b506101008301518482036101008601526146c082826142b3565b9150506101208301516146d7610120860182613e8d565b506101408301518482036101408601526146f18282614362565b91505061016083015184820361016086015261470d8282614362565b9150508091505092915050565b6000602082019050818103600083015261473481846145de565b905092915050565b600082825260208201905092915050565b7f5265656e7472616e637947756172643a207265656e7472616e742063616c6c00600082015250565b6000614783601f8361473c565b915061478e8261474d565b602082019050919050565b600060208201905081810360008301526147b281614776565b9050919050565b7f55736572206e6f7420726567697374657265642e000000000000000000000000600082015250565b60006147ef60148361473c565b91506147fa826147b9565b602082019050919050565b6000602082019050818103600083015261481e816147e2565b9050919050565b600061483082613dd8565b61483a818561473c565b935061484a818560208601613df4565b61485381613823565b840191505092915050565b600060208201905081810360008301526148788184614825565b905092915050565b60008151905061488f81613997565b92915050565b6000602082840312156148ab576148aa61380f565b5b60006148b984828501614880565b91505092915050565b7f4e487b7100000000000000000000000000000000000000000000000000000000600052602260045260246000fd5b6000600282049050600182168061490957607f821691505b60208210810361491c5761491b6148c2565b5b50919050565b60008190508160005260206000209050919050565b60006020601f8301049050919050565b600082821b905092915050565b6000600883026149847fffffffffffffffffffffffffffffffffffffffffffffffffffffffffffffffff82614947565b61498e8683614947565b95508019841693508086168417925050509392505050565b6000819050919050565b60006149cb6149c66149c1846137d1565b6149a6565b6137d1565b9050919050565b6000819050919050565b6149e5836149b0565b6149f96149f1826149d2565b848454614954565b825550505050565b600090565b614a0e614a01565b614a198184846149dc565b505050565b5b81811015614a3d57614a32600082614a06565b600181019050614a1f565b5050565b601f821115614a8257614a5381614922565b614a5c84614937565b81016020851015614a6b578190505b614a7f614a7785614937565b830182614a1e565b50505b505050565b600082821c905092915050565b6000614aa560001984600802614a87565b1980831691505092915050565b6000614abe8383614a94565b9150826002028217905092915050565b614ad782613dd8565b67ffffffffffffffff811115614af057614aef613834565b5b614afa82546148f1565b614b05828285614a41565b600060209050601f831160018114614b385760008415614b26578287015190505b614b308582614ab2565b865550614b98565b601f198416614b4686614922565b60005b82811015614b6e57848901518255600182019150602085019450602081019050614b49565b86831015614b8b5784890151614b87601f891682614a94565b8355505b6001600288020188555050505b505050505050565b6000819050919050565b6000614bc5614bc0614bbb84614ba0565b6149a6565b6137d1565b9050919050565b614bd581614baa565b82525050565b614be4816139e3565b82525050565b6000614c05614c00614bfb846139c3565b6149a6565b6139c3565b9050919050565b6000614c1782614bea565b9050919050565b6000614c2982614c0c565b9050919050565b614c3981614c1e565b82525050565b6000610100820190508181036000830152614c5a818b614825565b90508181036020830152614c6e818a614825565b9050614c7d6040830189613af0565b614c8a60608301886137db565b614c9760808301876137db565b614ca460a0830186614bcc565b614cb160c0830185614bdb565b614cbe60e0830184614c30565b9998505050505050505050565b7f5573657220616c72656164792065786973747300000000000000000000000000600082015250565b6000614d0160138361473c565b9150614d0c82614ccb565b602082019050919050565b60006020820190508181036000830152614d3081614cf4565b9050919050565b600081549050614d46816148f1565b9050919050565b818103614d5b575050614e33565b614d6482614d37565b67ffffffffffffffff811115614d7d57614d7c613834565b5b614d8782546148f1565b614d92828285614a41565b6000601f831160018114614dc15760008415614daf578287015490505b614db98582614ab2565b865550614e2c565b601f198416614dcf87614922565b9650614dda86614922565b60005b82811015614e0257848901548255600182019150600185019450602081019050614ddd565b86831015614e1f5784890154614e1b601f891682614a94565b8355505b6001600288020188555050505b5050505050505b565b60008154614e42816148f1565b614e4c818661473c565b94506001821660008114614e675760018114614e7d57614eb0565b60ff198316865281151560200286019350614eb0565b614e8685614922565b60005b83811015614ea857815481890152600182019150602081019050614e89565b808801955050505b50505092915050565b60006080820190508181036000830152614ed38187614e35565b90508181036020830152614ee78186614e35565b90508181036040830152614efb8185614e35565b9050614f0a6060830184614bdb565b95945050505050565b7f55736572206e6f74207265676973746572656400000000000000000000000000600082015250565b6000614f4960138361473c565b9150614f5482614f13565b602082019050919050565b60006020820190508181036000830152614f7881614f3c565b9050919050565b7f506f7374206973206e6f7420616e206e66740000000000000000000000000000600082015250565b6000614fb560128361473c565b9150614fc082614f7f565b602082019050919050565b60006020820190508181036000830152614fe481614fa8565b9050919050565b7f506f7374206e6f7420666f722073616c65000000000000000000000000000000600082015250565b600061502160118361473c565b915061502c82614feb565b602082019050919050565b6000602082019050818103600083015261505081615014565b9050919050565b7f416d6f756e742073686f756c642062652067726561746572207468616e20626160008201527f7365207072696365206f662074686520706f73742e0000000000000000000000602082015250565b60006150b360358361473c565b91506150be82615057565b604082019050919050565b600060208201905081810360008301526150e2816150a6565b9050919050565b60006060820190506150fe6000830186614bdb565b61510b6020830185614bdb565b61511860408301846137db565b949350505050565b600081905092915050565b600061513682613dd8565b6151408185615120565b9350615150818560208601613df4565b80840191505092915050565b6000615168828461512b565b915081905092915050565b7f4e487b7100000000000000000000000000000000000000000000000000000000600052603260045260246000fd5b7f4e487b7100000000000000000000000000000000000000000000000000000000600052601160045260246000fd5b60006151dc826137d1565b91506151e7836137d1565b9250827fffffffffffffffffffffffffffffffffffffffffffffffffffffffffffffffff0382111561521c5761521b6151a2565b5b828201905092915050565b6000615232826137d1565b91507fffffffffffffffffffffffffffffffffffffffffffffffffffffffffffffffff8203615264576152636151a2565b5b600182019050919050565b600061527a826137d1565b9150615285836137d1565b925082821015615298576152976151a2565b5b828203905092915050565b7f4e487b7100000000000000000000000000000000000000000000000000000000600052603160045260246000fdfea2646970667358221220d3d8dcf3ed4ed4b003a6e369b54a834c4e9284ad9b36ed815a6634b362cbee8964736f6c634300080f0033",
  "immutableReferences": {},
  "source": "// SPDX-License-Identifier: GPL-3.0\n\npragma solidity >=0.7.0 <0.9.0;\n\nimport \"@openzeppelin/contracts/utils/Counters.sol\";\nimport \"@openzeppelin/contracts/utils/Counters.sol\";\nimport \"@openzeppelin/contracts/token/ERC721/extensions/ERC721URIStorage.sol\";\nimport \"@openzeppelin/contracts/security/ReentrancyGuard.sol\";\nimport \"@openzeppelin/contracts/token/ERC721/ERC721.sol\";\n\ncontract TrisNFT is ERC721URIStorage{\n    using Counters for Counters.Counter;\n    \n    constructor() ERC721(\"TrisNFT\", \"TRI\"){}   \n    Counters.Counter private _tokenId;\n    address contractAddress = address(this);\n\n    function mintToken(string memory tokenUri) public returns(uint256 itemId){\n        require(contractAddress == msg.sender, \"Only the marketplace contract can call this function\");\n        _tokenId.increment();\n        uint256 currentId = _tokenId.current();\n        _mint(contractAddress, currentId);\n        _setTokenURI(currentId, tokenUri);\n        return currentId;\n    }\n\n    function updateContractAddress( address marketPlaceAddress) public  {\n        require(contractAddress == address(this) || contractAddress == msg.sender, \"Address is already declared or only the  owner contract can change the address.\");\n        contractAddress = marketPlaceAddress;\n    }\n\n    function returnCurrentUser() public view returns(address){\n        return msg.sender;\n    }\n\n    /*\n        A custom function to transfer ownership from on owner to another.\n    */\n    function transferNft(address currOwner, address newOwner, uint tokenId) public {\n        transferFrom(currOwner, newOwner, tokenId);\n    }\n\n    function getLatestTokenId() public view returns(uint256 itemId){\n        return _tokenId.current();\n    }\n\n    function returnOwner(uint id) public view returns(address){\n        return ownerOf(id);\n    }\n}\n\ncontract UserContract is ReentrancyGuard{\n    using Counters for Counters.Counter;\n    Counters.Counter public userCount;\n    mapping(address => bool) public userIsRegistered;\n    mapping(address => User) private mapToUser;\n    address private trisNftAddress;\n    address private owner;\n    User[] private usersList;\n    Counters.Counter totalPostCount;\n    mapping(uint256 => Post) totalPost;\n    mapping(address => mapping(bytes32 => Post)) private _postsOfUsers;\n\n    constructor(address nftAddress, address ownerAddress){\n        trisNftAddress = nftAddress;\n        owner = ownerAddress;\n        TrisNFT(nftAddress).updateContractAddress(address(this));\n    }\n\n    \n\n    /*\n        User struct for storing user data. \n        name, userName, userAddress are required as in the UI the rest can be 0 or empty.\n     */\n    struct User{\n        string name;\n        string userName;\n        string avatarUrl;\n        string bio;\n        string wallUrl;\n        string email;\n        uint256 followersCount;\n        uint256 followingCount;\n        bytes32[] postCount;\n        address userAddress;\n        address[] followers;\n        address[] following;\n    }\n\n    /*\n        Post struct for storing the posts of each user.\n        The token id connects post to the nft in ./Tris_NFT.sol\n\n        A post can be either NFT or a regular post\n     */\n    struct Post{\n        string post;\n        bytes32 postId;\n        uint256 likes;\n        string title;\n        bool isForSale;\n        bool postIsBought;\n        uint256 commentsCount;\n        address owner;\n        address payable seller;\n        string[] comments;\n        uint256 priceByOwner;\n        uint256 basePrice;\n        bool isNft;\n        uint256 tokenId;\n    }\n\n    /*\n        Events \n     */\n    event UserCreated (string name, string userName, string avatarUrl, address userAddress);\n    event PostUploaded(string title, string post, bytes32 postId, uint256 tokenId, uint256 priceByOwner, uint256 basePrice, address owner, address seller);\n    event PostSold(string post, address owner, address seller, uint256 price);\n\n    function createUser(address account, string memory name, string memory userName, string memory avatarUrl, string memory email, string memory bio, string memory wallUrl) public {\n        require(userIsRegistered[account] != true, \"User already exists\");\n        User storage userData = mapToUser[account];\n        userData.name = name;\n        userData.userName = userName;\n        userData.avatarUrl = avatarUrl;\n        userData.bio = bio;\n        userData.wallUrl = wallUrl;\n        userData.userAddress = account;\n        userData.email = email;\n        userCount.increment();\n        userIsRegistered[account] = true;\n        usersList.push(userData);\n        emit UserCreated(userData.name, userData.userName, userData.avatarUrl, userData.userAddress);\n    }\n\n    /*\n        Function to upload post. This requires the post parameters, \n        and uploads the post as either nft or a regular post.\n    */\n    function uploadPost(string memory title, string memory post, bool isNft, uint256 priceByOwner, bool isForSale, address account) public nonReentrant returns(bytes32){\n        require(userIsRegistered[account] == true, \"User not registered.\");\n        User storage currUser = mapToUser[account];\n\n        uint256 tokenId;\n\n        if(isNft){\n            tokenId = TrisNFT(trisNftAddress).mintToken(post);\n        }\n\n        currUser.postCount.push(callKeccak256(post));\n        Post memory currPost = Post(\n            {\n                post: post,\n                postId: callKeccak256(post),\n                likes: 0,\n                title: title,\n                postIsBought: false,\n                isForSale: isNft ? isForSale : false,\n                isNft: isNft,\n                commentsCount: 0,\n                priceByOwner: isNft ? priceByOwner : 0,\n                comments: new string[](0),\n                tokenId: isNft ? tokenId : 0,\n                basePrice: isNft ? 10 : 0,\n                owner: isNft ? (address(this)) : (address(0)),\n                seller: isNft ? payable(account) : payable(address(0))\n            }\n        );\n        totalPostCount.increment();\n        totalPost[totalPostCount.current()] = currPost;\n        _postsOfUsers[account][callKeccak256(post)] = currPost;\n        emit PostUploaded(currPost.title, currPost.post, currPost.postId, currPost.tokenId, priceByOwner, 10, currPost.owner, currPost.seller);\n        return currPost.postId;\n    }\n\n\n    /*\n        Dedicated function to buy/sell nfts before selling the nft owner should make sure he has \n        made the NFT avaialbe for sale and the post is NFT. \n        Before call this function the transferNFT in TrisNFT contract should be called to transfer the ownership.\n        That function can't be called form this function because that checks for msg.sender to be equal to \n        post owner but when called from here msg.sender is the address of this contract and not the owner.\n        - If the post is already sold then it will be checked in the frontend throught the postIsBought parameter\n          only if the postIsBought turns out to be true then the the method in the TrisNft will be called.\n    */\n    function buyPost(address ownerAddress, bytes32 postId, address newOwnerAddress) public payable nonReentrant{\n        Post storage currPost = _postsOfUsers[ownerAddress][postId];\n        require(userIsRegistered[newOwnerAddress] == true, \"User not registered\");\n        require(currPost.isNft == true, \"Post is not an nft\");\n        require(userIsRegistered[ownerAddress] == true, \"User not registered\");\n        require(currPost.isForSale == true, \"Post not for sale\");\n        uint256 price = msg.value;\n        User storage newUser = mapToUser[newOwnerAddress];\n        require(price >= currPost.basePrice, \"Amount should be greater than base price of the post.\");\n        if(currPost.postIsBought == false){\n            IERC721(trisNftAddress).transferFrom(address(this), newOwnerAddress, currPost.tokenId);\n        }\n        currPost.seller.transfer(msg.value);\n        currPost.owner = (newOwnerAddress);\n        currPost.seller = payable(newOwnerAddress);\n        removePost(postId, ownerAddress);\n        currPost.postIsBought = true;\n        _postsOfUsers[newOwnerAddress][postId] = currPost;\n        delete _postsOfUsers[ownerAddress][postId];\n        newUser.postCount.push(postId);\n    }\n\n    function getUserList() public view returns(User[] memory){\n        return usersList;\n    }\n\n    function updatePostForSale(bytes32 id, bool isForSale, address account) public {\n        require(userIsRegistered[account] == true, \"User not registered\");\n        _postsOfUsers[account][id].isForSale = isForSale;\n    }\n\n    function follow (address follower, address account) public {\n     require(userIsRegistered[follower] == true, \"User not registered\");\n     require(userIsRegistered[account] == true, \"User not registered\"); \n     User storage currUser = mapToUser[account];\n     User storage currFollower = mapToUser[follower];\n     currUser.followersCount += 1;\n     currFollower.followingCount += 1;\n     currUser.followers.push(follower);\n     currFollower.following.push(account);\n    }\n\n    function getUserPosts(address sender) public view returns (Post[] memory userPosts){\n        require(userIsRegistered[sender] == true, \"User not registered.\");\n        User storage currUser = mapToUser[sender];\n        uint userPostCount = currUser.postCount.length;\n        Post[] memory currUserPosts = new Post[](userPostCount);\n        uint currentIndex = 0;\n        for(uint i = 0; i < userPostCount; i++){\n           Post storage currPost = _postsOfUsers[sender][currUser.postCount[currentIndex]];\n           currUserPosts[currentIndex] = currPost;\n           currentIndex += 1;\n        }\n\n        return currUserPosts;\n    }\n\n    function removePost(bytes32 postId, address postOwner) internal {\n        bytes32[] storage postCount = mapToUser[postOwner].postCount;\n        uint index;\n        for(uint i = 0; i < postCount.length; i++){\n            if(postCount[i] == postId){\n                index = i;\n                break;\n            }\n        }\n        for(uint i = index; i < postCount.length - 1; i++){\n            postCount[i] = postCount[i + 1];\n        }\n        postCount.pop();\n    }\n\n    function likePost(address postOwner, bytes32 postId, address userAddress) public {\n        require(userIsRegistered[userAddress] == true, \"User not registered\");\n        Post storage currPost = _postsOfUsers[postOwner][postId];\n        currPost.likes += 1;\n    }\n\n    function postComment( address postOwner, string memory comment, bytes32 postId, address sender ) public {\n        require(userIsRegistered[sender] == true, \"User not registered\");\n        Post storage currPost = _postsOfUsers[postOwner][postId];\n        currPost.commentsCount += 1;\n        currPost.comments.push(comment);\n    }\n\n    function getAllPost(address userAddress) public view returns(Post[] memory){\n        require(userIsRegistered[userAddress] == true, \"User not registered.\");\n        uint256 allPostCount = totalPostCount.current();\n        uint256 currentIndex = 0;\n        Post[] memory posts = new Post[](allPostCount);\n        for(uint i = 1; i <= allPostCount; i++){\n            Post storage currPost = totalPost[i];\n            posts[currentIndex] = currPost;\n            currentIndex += 1;\n        }\n        return posts;\n    } \n\n    function getUserData(address account) public view returns(User memory){\n        require(userIsRegistered[account] == true, \"User not registered.\");\n        return mapToUser[account];\n    } \n\n    function callKeccak256(string memory post) public pure returns( bytes32 result){\n      return keccak256(abi.encodePacked(post));\n   }  \n\n}\n",
  "sourcePath": "/home/astar/Documents/tris/contracts/User.sol",
  "compiler": {
    "name": "solc",
    "version": "0.8.15+commit.e14f2714.Emscripten.clang"
  },
  "schemaVersion": "3.4.9",
  "updatedAt": "2022-08-12T08:30:53.760Z",
  "networkType": "ethereum",
  "devdoc": {
    "kind": "dev",
    "methods": {},
    "version": 1
  },
  "userdoc": {
    "kind": "user",
    "methods": {},
    "version": 1
  }
}