{
  "contractName": "UserContract",
  "abi": [
    {
      "inputs": [
        {
          "internalType": "address",
          "name": "nftAddress",
          "type": "address"
        },
        {
          "internalType": "address",
          "name": "ownerAddress",
          "type": "address"
        }
      ],
      "stateMutability": "nonpayable",
      "type": "constructor"
    },
    {
      "anonymous": false,
      "inputs": [
        {
          "indexed": false,
          "internalType": "string",
          "name": "post",
          "type": "string"
        },
        {
          "indexed": false,
          "internalType": "address",
          "name": "owner",
          "type": "address"
        },
        {
          "indexed": false,
          "internalType": "address",
          "name": "seller",
          "type": "address"
        },
        {
          "indexed": false,
          "internalType": "uint256",
          "name": "price",
          "type": "uint256"
        }
      ],
      "name": "PostSold",
      "type": "event"
    },
    {
      "anonymous": false,
      "inputs": [
        {
          "indexed": false,
          "internalType": "string",
          "name": "title",
          "type": "string"
        },
        {
          "indexed": false,
          "internalType": "string",
          "name": "post",
          "type": "string"
        },
        {
          "indexed": false,
          "internalType": "bytes32",
          "name": "postId",
          "type": "bytes32"
        },
        {
          "indexed": false,
          "internalType": "uint256",
          "name": "tokenId",
          "type": "uint256"
        },
        {
          "indexed": false,
          "internalType": "uint256",
          "name": "priceByOwner",
          "type": "uint256"
        },
        {
          "indexed": false,
          "internalType": "uint256",
          "name": "basePrice",
          "type": "uint256"
        },
        {
          "indexed": false,
          "internalType": "address",
          "name": "owner",
          "type": "address"
        },
        {
          "indexed": false,
          "internalType": "address",
          "name": "seller",
          "type": "address"
        }
      ],
      "name": "PostUploaded",
      "type": "event"
    },
    {
      "anonymous": false,
      "inputs": [
        {
          "indexed": false,
          "internalType": "string",
          "name": "name",
          "type": "string"
        },
        {
          "indexed": false,
          "internalType": "string",
          "name": "userName",
          "type": "string"
        },
        {
          "indexed": false,
          "internalType": "string",
          "name": "avatarUrl",
          "type": "string"
        },
        {
          "indexed": false,
          "internalType": "address",
          "name": "userAddress",
          "type": "address"
        }
      ],
      "name": "UserCreated",
      "type": "event"
    },
    {
      "inputs": [],
      "name": "userCount",
      "outputs": [
        {
          "internalType": "uint256",
          "name": "_value",
          "type": "uint256"
        }
      ],
      "stateMutability": "view",
      "type": "function",
      "constant": true
    },
    {
      "inputs": [
        {
          "internalType": "address",
          "name": "",
          "type": "address"
        }
      ],
      "name": "userIsRegistered",
      "outputs": [
        {
          "internalType": "bool",
          "name": "",
          "type": "bool"
        }
      ],
      "stateMutability": "view",
      "type": "function",
      "constant": true
    },
    {
      "inputs": [
        {
          "internalType": "string",
          "name": "name",
          "type": "string"
        },
        {
          "internalType": "string",
          "name": "userName",
          "type": "string"
        },
        {
          "internalType": "string",
          "name": "avatarUrl",
          "type": "string"
        },
        {
          "internalType": "string",
          "name": "email",
          "type": "string"
        },
        {
          "internalType": "string",
          "name": "bio",
          "type": "string"
        },
        {
          "internalType": "string",
          "name": "wallUrl",
          "type": "string"
        }
      ],
      "name": "createUser",
      "outputs": [],
      "stateMutability": "nonpayable",
      "type": "function"
    },
    {
      "inputs": [
        {
          "internalType": "string",
          "name": "title",
          "type": "string"
        },
        {
          "internalType": "string",
          "name": "post",
          "type": "string"
        },
        {
          "internalType": "bool",
          "name": "isNft",
          "type": "bool"
        },
        {
          "internalType": "uint256",
          "name": "priceByOwner",
          "type": "uint256"
        },
        {
          "internalType": "bool",
          "name": "isForSale",
          "type": "bool"
        }
      ],
      "name": "uploadPost",
      "outputs": [],
      "stateMutability": "nonpayable",
      "type": "function"
    },
    {
      "inputs": [
        {
          "internalType": "address",
          "name": "ownerAddress",
          "type": "address"
        },
        {
          "internalType": "bytes32",
          "name": "postId",
          "type": "bytes32"
        },
        {
          "internalType": "address",
          "name": "newOwnerAddress",
          "type": "address"
        }
      ],
      "name": "buyPost",
      "outputs": [],
      "stateMutability": "payable",
      "type": "function",
      "payable": true
    },
    {
      "inputs": [],
      "name": "getUserList",
      "outputs": [
        {
          "components": [
            {
              "internalType": "string",
              "name": "name",
              "type": "string"
            },
            {
              "internalType": "string",
              "name": "userName",
              "type": "string"
            },
            {
              "internalType": "string",
              "name": "avatarUrl",
              "type": "string"
            },
            {
              "internalType": "string",
              "name": "bio",
              "type": "string"
            },
            {
              "internalType": "string",
              "name": "wallUrl",
              "type": "string"
            },
            {
              "internalType": "string",
              "name": "email",
              "type": "string"
            },
            {
              "internalType": "uint256",
              "name": "followersCount",
              "type": "uint256"
            },
            {
              "internalType": "uint256",
              "name": "followingCount",
              "type": "uint256"
            },
            {
              "internalType": "bytes32[]",
              "name": "postCount",
              "type": "bytes32[]"
            },
            {
              "internalType": "address",
              "name": "userAddress",
              "type": "address"
            },
            {
              "internalType": "address[]",
              "name": "followers",
              "type": "address[]"
            },
            {
              "internalType": "address[]",
              "name": "following",
              "type": "address[]"
            }
          ],
          "internalType": "struct UserContract.User[]",
          "name": "",
          "type": "tuple[]"
        }
      ],
      "stateMutability": "view",
      "type": "function",
      "constant": true
    },
    {
      "inputs": [
        {
          "internalType": "bytes32",
          "name": "id",
          "type": "bytes32"
        },
        {
          "internalType": "bool",
          "name": "isForSale",
          "type": "bool"
        }
      ],
      "name": "updatePostForSale",
      "outputs": [],
      "stateMutability": "nonpayable",
      "type": "function"
    },
    {
      "inputs": [],
      "name": "getUserPosts",
      "outputs": [
        {
          "components": [
            {
              "internalType": "string",
              "name": "post",
              "type": "string"
            },
            {
              "internalType": "bytes32",
              "name": "postId",
              "type": "bytes32"
            },
            {
              "internalType": "uint256",
              "name": "likes",
              "type": "uint256"
            },
            {
              "internalType": "string",
              "name": "title",
              "type": "string"
            },
            {
              "internalType": "bool",
              "name": "isForSale",
              "type": "bool"
            },
            {
              "internalType": "bool",
              "name": "postIsBought",
              "type": "bool"
            },
            {
              "internalType": "uint256",
              "name": "commentsCount",
              "type": "uint256"
            },
            {
              "internalType": "address",
              "name": "owner",
              "type": "address"
            },
            {
              "internalType": "address payable",
              "name": "seller",
              "type": "address"
            },
            {
              "internalType": "string[]",
              "name": "comments",
              "type": "string[]"
            },
            {
              "internalType": "uint256",
              "name": "priceByOwner",
              "type": "uint256"
            },
            {
              "internalType": "uint256",
              "name": "basePrice",
              "type": "uint256"
            },
            {
              "internalType": "bool",
              "name": "isNft",
              "type": "bool"
            },
            {
              "internalType": "uint256",
              "name": "tokenId",
              "type": "uint256"
            }
          ],
          "internalType": "struct UserContract.Post[]",
          "name": "userPosts",
          "type": "tuple[]"
        }
      ],
      "stateMutability": "view",
      "type": "function",
      "constant": true
    },
    {
      "inputs": [
        {
          "internalType": "address",
          "name": "postOwner",
          "type": "address"
        },
        {
          "internalType": "bytes32",
          "name": "postId",
          "type": "bytes32"
        }
      ],
      "name": "likePost",
      "outputs": [],
      "stateMutability": "nonpayable",
      "type": "function"
    },
    {
      "inputs": [
        {
          "internalType": "address",
          "name": "postOwner",
          "type": "address"
        },
        {
          "internalType": "string",
          "name": "comment",
          "type": "string"
        },
        {
          "internalType": "bytes32",
          "name": "postId",
          "type": "bytes32"
        }
      ],
      "name": "postComment",
      "outputs": [],
      "stateMutability": "nonpayable",
      "type": "function"
    },
    {
      "inputs": [],
      "name": "getUserData",
      "outputs": [
        {
          "components": [
            {
              "internalType": "string",
              "name": "name",
              "type": "string"
            },
            {
              "internalType": "string",
              "name": "userName",
              "type": "string"
            },
            {
              "internalType": "string",
              "name": "avatarUrl",
              "type": "string"
            },
            {
              "internalType": "string",
              "name": "bio",
              "type": "string"
            },
            {
              "internalType": "string",
              "name": "wallUrl",
              "type": "string"
            },
            {
              "internalType": "string",
              "name": "email",
              "type": "string"
            },
            {
              "internalType": "uint256",
              "name": "followersCount",
              "type": "uint256"
            },
            {
              "internalType": "uint256",
              "name": "followingCount",
              "type": "uint256"
            },
            {
              "internalType": "bytes32[]",
              "name": "postCount",
              "type": "bytes32[]"
            },
            {
              "internalType": "address",
              "name": "userAddress",
              "type": "address"
            },
            {
              "internalType": "address[]",
              "name": "followers",
              "type": "address[]"
            },
            {
              "internalType": "address[]",
              "name": "following",
              "type": "address[]"
            }
          ],
          "internalType": "struct UserContract.User",
          "name": "",
          "type": "tuple"
        }
      ],
      "stateMutability": "view",
      "type": "function",
      "constant": true
    },
    {
      "inputs": [
        {
          "internalType": "string",
          "name": "post",
          "type": "string"
        }
      ],
      "name": "callKeccak256",
      "outputs": [
        {
          "internalType": "bytes32",
          "name": "result",
          "type": "bytes32"
        }
      ],
      "stateMutability": "pure",
      "type": "function",
      "constant": true
    }
  ],
  "bytecode": "0x60806040523480156200001157600080fd5b5060405162004be338038062004be38339818101604052810190620000379190620001a2565b600160008190555081600460006101000a81548173ffffffffffffffffffffffffffffffffffffffff021916908373ffffffffffffffffffffffffffffffffffffffff16021790555080600560006101000a81548173ffffffffffffffffffffffffffffffffffffffff021916908373ffffffffffffffffffffffffffffffffffffffff1602179055508173ffffffffffffffffffffffffffffffffffffffff1663bdf3e088306040518263ffffffff1660e01b8152600401620000fc9190620001fa565b600060405180830381600087803b1580156200011757600080fd5b505af11580156200012c573d6000803e3d6000fd5b50505050505062000217565b600080fd5b600073ffffffffffffffffffffffffffffffffffffffff82169050919050565b60006200016a826200013d565b9050919050565b6200017c816200015d565b81146200018857600080fd5b50565b6000815190506200019c8162000171565b92915050565b60008060408385031215620001bc57620001bb62000138565b5b6000620001cc858286016200018b565b9250506020620001df858286016200018b565b9150509250929050565b620001f4816200015d565b82525050565b6000602082019050620002116000830184620001e9565b92915050565b6149bc80620002276000396000f3fe6080604052600436106100a75760003560e01c806362d5f2601161006457806362d5f260146101995780636c216d06146101c2578063b8522043146101ff578063c19c4d261461022a578063cc4ef2cc14610253578063f6f197151461027e576100a7565b806301dadb2b146100ac57806307973ccf146100d557806322e8c87d1461010057806333898b4f1461012b5780634546a98e14610154578063548627ba14610170575b600080fd5b3480156100b857600080fd5b506100d360048036038101906100ce9190612f9b565b6102bb565b005b3480156100e157600080fd5b506100ea610681565b6040516100f791906130e9565b60405180910390f35b34801561010c57600080fd5b5061011561068d565b604051610122919061348f565b60405180910390f35b34801561013757600080fd5b50610152600480360381019061014d9190613515565b610cc2565b005b61016e60048036038101906101699190613620565b611247565b005b34801561017c57600080fd5b5061019760048036038101906101929190613673565b611b24565b005b3480156101a557600080fd5b506101c060048036038101906101bb91906136e2565b611c64565b005b3480156101ce57600080fd5b506101e960048036038101906101e49190613722565b611d6c565b6040516101f6919061377a565b60405180910390f35b34801561020b57600080fd5b50610214611d9c565b6040516102219190613993565b60405180910390f35b34801561023657600080fd5b50610251600480360381019061024c91906139b5565b612346565b005b34801561025f57600080fd5b50610268612448565b6040516102759190613ce5565b60405180910390f35b34801561028a57600080fd5b506102a560048036038101906102a09190613d07565b612993565b6040516102b29190613d43565b60405180910390f35b60011515600260003373ffffffffffffffffffffffffffffffffffffffff1673ffffffffffffffffffffffffffffffffffffffff16815260200190815260200160002060009054906101000a900460ff1615150361034e576040517f08c379a000000000000000000000000000000000000000000000000000000000815260040161034590613dbb565b60405180910390fd5b6000600360003373ffffffffffffffffffffffffffffffffffffffff1673ffffffffffffffffffffffffffffffffffffffff1681526020019081526020016000209050868160000190816103a29190613fe7565b50858160010190816103b49190613fe7565b50848160020190816103c69190613fe7565b50828160030190816103d89190613fe7565b50818160040190816103ea9190613fe7565b50338160090160006101000a81548173ffffffffffffffffffffffffffffffffffffffff021916908373ffffffffffffffffffffffffffffffffffffffff1602179055508381600501908161043f9190613fe7565b5061044a60016129b3565b6001600260003373ffffffffffffffffffffffffffffffffffffffff1673ffffffffffffffffffffffffffffffffffffffff16815260200190815260200160002060006101000a81548160ff02191690831515021790555060068190806001815401808255809150506001900390600052602060002090600c0201600090919091909150600082018160000190816104e291906140cf565b50600182018160010190816104f791906140cf565b506002820181600201908161050c91906140cf565b506003820181600301908161052191906140cf565b506004820181600401908161053691906140cf565b506005820181600501908161054b91906140cf565b5060068201548160060155600782015481600701556008820181600801908054610576929190612b0d565b506009820160009054906101000a900473ffffffffffffffffffffffffffffffffffffffff168160090160006101000a81548173ffffffffffffffffffffffffffffffffffffffff021916908373ffffffffffffffffffffffffffffffffffffffff160217905550600a820181600a019080546105f4929190612b5f565b50600b820181600b0190805461060b929190612b5f565b5050507f3500268ebdfdd25b305294ab9516187c34eb908aa8b91d7a48ea6ccfafe4158a8160000182600101836002018460090160009054906101000a900473ffffffffffffffffffffffffffffffffffffffff16604051610670949392919061424a565b60405180910390a150505050505050565b60018060000154905081565b610695612bb1565b60011515600260003373ffffffffffffffffffffffffffffffffffffffff1673ffffffffffffffffffffffffffffffffffffffff16815260200190815260200160002060009054906101000a900460ff16151514610728576040517f08c379a000000000000000000000000000000000000000000000000000000000815260040161071f906142f0565b60405180910390fd5b600360003373ffffffffffffffffffffffffffffffffffffffff1673ffffffffffffffffffffffffffffffffffffffff1681526020019081526020016000206040518061018001604052908160008201805461078390613e0a565b80601f01602080910402602001604051908101604052809291908181526020018280546107af90613e0a565b80156107fc5780601f106107d1576101008083540402835291602001916107fc565b820191906000526020600020905b8154815290600101906020018083116107df57829003601f168201915b5050505050815260200160018201805461081590613e0a565b80601f016020809104026020016040519081016040528092919081815260200182805461084190613e0a565b801561088e5780601f106108635761010080835404028352916020019161088e565b820191906000526020600020905b81548152906001019060200180831161087157829003601f168201915b505050505081526020016002820180546108a790613e0a565b80601f01602080910402602001604051908101604052809291908181526020018280546108d390613e0a565b80156109205780601f106108f557610100808354040283529160200191610920565b820191906000526020600020905b81548152906001019060200180831161090357829003601f168201915b5050505050815260200160038201805461093990613e0a565b80601f016020809104026020016040519081016040528092919081815260200182805461096590613e0a565b80156109b25780601f10610987576101008083540402835291602001916109b2565b820191906000526020600020905b81548152906001019060200180831161099557829003601f168201915b505050505081526020016004820180546109cb90613e0a565b80601f01602080910402602001604051908101604052809291908181526020018280546109f790613e0a565b8015610a445780601f10610a1957610100808354040283529160200191610a44565b820191906000526020600020905b815481529060010190602001808311610a2757829003601f168201915b50505050508152602001600582018054610a5d90613e0a565b80601f0160208091040260200160405190810160405280929190818152602001828054610a8990613e0a565b8015610ad65780601f10610aab57610100808354040283529160200191610ad6565b820191906000526020600020905b815481529060010190602001808311610ab957829003601f168201915b50505050508152602001600682015481526020016007820154815260200160088201805480602002602001604051908101604052809291908181526020018280548015610b4257602002820191906000526020600020905b815481526020019060010190808311610b2e575b505050505081526020016009820160009054906101000a900473ffffffffffffffffffffffffffffffffffffffff1673ffffffffffffffffffffffffffffffffffffffff1673ffffffffffffffffffffffffffffffffffffffff168152602001600a8201805480602002602001604051908101604052809291908181526020018280548015610c2657602002820191906000526020600020905b8160009054906101000a900473ffffffffffffffffffffffffffffffffffffffff1673ffffffffffffffffffffffffffffffffffffffff1681526020019060010190808311610bdc575b50505050508152602001600b8201805480602002602001604051908101604052809291908181526020018280548015610cb457602002820191906000526020600020905b8160009054906101000a900473ffffffffffffffffffffffffffffffffffffffff1673ffffffffffffffffffffffffffffffffffffffff1681526020019060010190808311610c6a575b505050505081525050905090565b600260005403610d07576040517f08c379a0000000000000000000000000000000000000000000000000000000008152600401610cfe9061435c565b60405180910390fd5b600260008190555060011515600260003373ffffffffffffffffffffffffffffffffffffffff1673ffffffffffffffffffffffffffffffffffffffff16815260200190815260200160002060009054906101000a900460ff16151514610da2576040517f08c379a0000000000000000000000000000000000000000000000000000000008152600401610d99906142f0565b60405180910390fd5b6000600360003373ffffffffffffffffffffffffffffffffffffffff1673ffffffffffffffffffffffffffffffffffffffff168152602001908152602001600020905060008415610e8e57600460009054906101000a900473ffffffffffffffffffffffffffffffffffffffff1673ffffffffffffffffffffffffffffffffffffffff166333eba49a876040518263ffffffff1660e01b8152600401610e4891906143b5565b6020604051808303816000875af1158015610e67573d6000803e3d6000fd5b505050506040513d601f19601f82011682018060405250810190610e8b91906143ec565b90505b81600801610e9b87611d6c565b90806001815401808255809150506001900390600052602060002001600090919091909150556000604051806101c00160405280888152602001610ede89611d6c565b81526020016000815260200189815260200187610efc576000610efe565b855b151581526020016000151581526020016000815260200187610f21576000610f23565b305b73ffffffffffffffffffffffffffffffffffffffff16815260200187610f4a576000610f4c565b335b73ffffffffffffffffffffffffffffffffffffffff168152602001600067ffffffffffffffff811115610f8257610f81612e70565b5b604051908082528060200260200182016040528015610fb557816020015b6060815260200190600190039081610fa05790505b50815260200187610fc7576000610fc9565b865b815260200187610fda576000610fdd565b600a5b60ff168152602001871515815260200187610ff9576000610ffb565b835b815250905080600760003373ffffffffffffffffffffffffffffffffffffffff1673ffffffffffffffffffffffffffffffffffffffff168152602001908152602001600020600061104b8a611d6c565b8152602001908152602001600020600082015181600001908161106e9190613fe7565b50602082015181600101556040820151816002015560608201518160030190816110989190613fe7565b5060808201518160040160006101000a81548160ff02191690831515021790555060a08201518160040160016101000a81548160ff02191690831515021790555060c0820151816005015560e08201518160060160006101000a81548173ffffffffffffffffffffffffffffffffffffffff021916908373ffffffffffffffffffffffffffffffffffffffff1602179055506101008201518160070160006101000a81548173ffffffffffffffffffffffffffffffffffffffff021916908373ffffffffffffffffffffffffffffffffffffffff16021790555061012082015181600801908051906020019061118f929190612c28565b50610140820151816009015561016082015181600a015561018082015181600b0160006101000a81548160ff0219169083151502179055506101a082015181600c01559050507f72d2ff68e942d073bdcb19dbadc9e768208026219f8d884b765175ff7f671a9c816060015182600001518360200151846101a0015189600a8760e0015188610100015160405161122d9897969594939291906144a9565b60405180910390a150505060016000819055505050505050565b60026000540361128c576040517f08c379a00000000000000000000000000000000000000000000000000000000081526004016112839061435c565b60405180910390fd5b60026000819055506000600760008573ffffffffffffffffffffffffffffffffffffffff1673ffffffffffffffffffffffffffffffffffffffff1681526020019081526020016000206000848152602001908152602001600020905060011515600260003373ffffffffffffffffffffffffffffffffffffffff1673ffffffffffffffffffffffffffffffffffffffff16815260200190815260200160002060009054906101000a900460ff1615151461137b576040517f08c379a000000000000000000000000000000000000000000000000000000000815260040161137290614581565b60405180910390fd5b6001151581600b0160009054906101000a900460ff161515146113d3576040517f08c379a00000000000000000000000000000000000000000000000000000000081526004016113ca906145ed565b60405180910390fd5b8173ffffffffffffffffffffffffffffffffffffffff163373ffffffffffffffffffffffffffffffffffffffff1614611441576040517f08c379a00000000000000000000000000000000000000000000000000000000081526004016114389061467f565b60405180910390fd5b60011515600260008673ffffffffffffffffffffffffffffffffffffffff1673ffffffffffffffffffffffffffffffffffffffff16815260200190815260200160002060009054906101000a900460ff161515146114d4576040517f08c379a00000000000000000000000000000000000000000000000000000000081526004016114cb90614581565b60405180910390fd5b600115158160040160009054906101000a900460ff1615151461152c576040517f08c379a0000000000000000000000000000000000000000000000000000000008152600401611523906146eb565b60405180910390fd5b60003490506000600360008573ffffffffffffffffffffffffffffffffffffffff1673ffffffffffffffffffffffffffffffffffffffff168152602001908152602001600020905082600a01548210156115bb576040517f08c379a00000000000000000000000000000000000000000000000000000000081526004016115b29061477d565b60405180910390fd5b600015158360040160019054906101000a900460ff1615150361166e57600460009054906101000a900473ffffffffffffffffffffffffffffffffffffffff1673ffffffffffffffffffffffffffffffffffffffff166323b872dd308686600c01546040518463ffffffff1660e01b815260040161163b9392919061479d565b600060405180830381600087803b15801561165557600080fd5b505af1158015611669573d6000803e3d6000fd5b505050505b8260070160009054906101000a900473ffffffffffffffffffffffffffffffffffffffff1673ffffffffffffffffffffffffffffffffffffffff166108fc349081150290604051600060405180830381858888f193505050501580156116d8573d6000803e3d6000fd5b50838360060160006101000a81548173ffffffffffffffffffffffffffffffffffffffff021916908373ffffffffffffffffffffffffffffffffffffffff160217905550838360070160006101000a81548173ffffffffffffffffffffffffffffffffffffffff021916908373ffffffffffffffffffffffffffffffffffffffff16021790555061176985876129c9565b60018360040160016101000a81548160ff02191690831515021790555082600760008673ffffffffffffffffffffffffffffffffffffffff1673ffffffffffffffffffffffffffffffffffffffff1681526020019081526020016000206000878152602001908152602001600020600082018160000190816117eb91906140cf565b5060018201548160010155600282015481600201556003820181600301908161181491906140cf565b506004820160009054906101000a900460ff168160040160006101000a81548160ff0219169083151502179055506004820160019054906101000a900460ff168160040160016101000a81548160ff021916908315150217905550600582015481600501556006820160009054906101000a900473ffffffffffffffffffffffffffffffffffffffff168160060160006101000a81548173ffffffffffffffffffffffffffffffffffffffff021916908373ffffffffffffffffffffffffffffffffffffffff1602179055506007820160009054906101000a900473ffffffffffffffffffffffffffffffffffffffff168160070160006101000a81548173ffffffffffffffffffffffffffffffffffffffff021916908373ffffffffffffffffffffffffffffffffffffffff160217905550600882018160080190805461195d929190612c81565b5060098201548160090155600a82015481600a0155600b820160009054906101000a900460ff1681600b0160006101000a81548160ff021916908315150217905550600c82015481600c0155905050600760008773ffffffffffffffffffffffffffffffffffffffff1673ffffffffffffffffffffffffffffffffffffffff168152602001908152602001600020600086815260200190815260200160002060008082016000611a0d9190612cde565b60018201600090556002820160009055600382016000611a2d9190612cde565b6004820160006101000a81549060ff02191690556004820160016101000a81549060ff021916905560058201600090556006820160006101000a81549073ffffffffffffffffffffffffffffffffffffffff02191690556007820160006101000a81549073ffffffffffffffffffffffffffffffffffffffff0219169055600882016000611abb9190612d1e565b6009820160009055600a820160009055600b820160006101000a81549060ff0219169055600c8201600090555050806008018590806001815401808255809150506001900390600052602060002001600090919091909150555050506001600081905550505050565b60011515600260003373ffffffffffffffffffffffffffffffffffffffff1673ffffffffffffffffffffffffffffffffffffffff16815260200190815260200160002060009054906101000a900460ff16151514611bb7576040517f08c379a0000000000000000000000000000000000000000000000000000000008152600401611bae90614581565b60405180910390fd5b6000600760008573ffffffffffffffffffffffffffffffffffffffff1673ffffffffffffffffffffffffffffffffffffffff168152602001908152602001600020600083815260200190815260200160002090506001816005016000828254611c209190614803565b925050819055508060080183908060018154018082558091505060019003906000526020600020016000909190919091509081611c5d9190613fe7565b5050505050565b60011515600260003373ffffffffffffffffffffffffffffffffffffffff1673ffffffffffffffffffffffffffffffffffffffff16815260200190815260200160002060009054906101000a900460ff16151514611cf7576040517f08c379a0000000000000000000000000000000000000000000000000000000008152600401611cee90614581565b60405180910390fd5b6000600760008473ffffffffffffffffffffffffffffffffffffffff1673ffffffffffffffffffffffffffffffffffffffff168152602001908152602001600020600083815260200190815260200160002090506001816002016000828254611d609190614803565b92505081905550505050565b600081604051602001611d7f9190614895565b604051602081830303815290604052805190602001209050919050565b60606006805480602002602001604051908101604052809291908181526020016000905b8282101561233d57838290600052602060002090600c020160405180610180016040529081600082018054611df490613e0a565b80601f0160208091040260200160405190810160405280929190818152602001828054611e2090613e0a565b8015611e6d5780601f10611e4257610100808354040283529160200191611e6d565b820191906000526020600020905b815481529060010190602001808311611e5057829003601f168201915b50505050508152602001600182018054611e8690613e0a565b80601f0160208091040260200160405190810160405280929190818152602001828054611eb290613e0a565b8015611eff5780601f10611ed457610100808354040283529160200191611eff565b820191906000526020600020905b815481529060010190602001808311611ee257829003601f168201915b50505050508152602001600282018054611f1890613e0a565b80601f0160208091040260200160405190810160405280929190818152602001828054611f4490613e0a565b8015611f915780601f10611f6657610100808354040283529160200191611f91565b820191906000526020600020905b815481529060010190602001808311611f7457829003601f168201915b50505050508152602001600382018054611faa90613e0a565b80601f0160208091040260200160405190810160405280929190818152602001828054611fd690613e0a565b80156120235780601f10611ff857610100808354040283529160200191612023565b820191906000526020600020905b81548152906001019060200180831161200657829003601f168201915b5050505050815260200160048201805461203c90613e0a565b80601f016020809104026020016040519081016040528092919081815260200182805461206890613e0a565b80156120b55780601f1061208a576101008083540402835291602001916120b5565b820191906000526020600020905b81548152906001019060200180831161209857829003601f168201915b505050505081526020016005820180546120ce90613e0a565b80601f01602080910402602001604051908101604052809291908181526020018280546120fa90613e0a565b80156121475780601f1061211c57610100808354040283529160200191612147565b820191906000526020600020905b81548152906001019060200180831161212a57829003601f168201915b505050505081526020016006820154815260200160078201548152602001600882018054806020026020016040519081016040528092919081815260200182805480156121b357602002820191906000526020600020905b81548152602001906001019080831161219f575b505050505081526020016009820160009054906101000a900473ffffffffffffffffffffffffffffffffffffffff1673ffffffffffffffffffffffffffffffffffffffff1673ffffffffffffffffffffffffffffffffffffffff168152602001600a820180548060200260200160405190810160405280929190818152602001828054801561229757602002820191906000526020600020905b8160009054906101000a900473ffffffffffffffffffffffffffffffffffffffff1673ffffffffffffffffffffffffffffffffffffffff168152602001906001019080831161224d575b50505050508152602001600b820180548060200260200160405190810160405280929190818152602001828054801561232557602002820191906000526020600020905b8160009054906101000a900473ffffffffffffffffffffffffffffffffffffffff1673ffffffffffffffffffffffffffffffffffffffff16815260200190600101908083116122db575b50505050508152505081526020019060010190611dc0565b50505050905090565b60011515600260003373ffffffffffffffffffffffffffffffffffffffff1673ffffffffffffffffffffffffffffffffffffffff16815260200190815260200160002060009054906101000a900460ff161515146123d9576040517f08c379a00000000000000000000000000000000000000000000000000000000081526004016123d090614581565b60405180910390fd5b80600760003373ffffffffffffffffffffffffffffffffffffffff1673ffffffffffffffffffffffffffffffffffffffff168152602001908152602001600020600084815260200190815260200160002060040160006101000a81548160ff0219169083151502179055505050565b606060011515600260003373ffffffffffffffffffffffffffffffffffffffff1673ffffffffffffffffffffffffffffffffffffffff16815260200190815260200160002060009054906101000a900460ff161515146124dd576040517f08c379a00000000000000000000000000000000000000000000000000000000081526004016124d4906142f0565b60405180910390fd5b6000600360003373ffffffffffffffffffffffffffffffffffffffff1673ffffffffffffffffffffffffffffffffffffffff168152602001908152602001600020905060008160080180549050905060008167ffffffffffffffff81111561254857612547612e70565b5b60405190808252806020026020018201604052801561258157816020015b61256e612d3f565b8152602001906001900390816125665790505b5090506000805b83811015612988576000600760003373ffffffffffffffffffffffffffffffffffffffff1673ffffffffffffffffffffffffffffffffffffffff16815260200190815260200160002060008760080185815481106125e9576125e86148ac565b5b90600052602060002001548152602001908152602001600020905080604051806101c001604052908160008201805461262190613e0a565b80601f016020809104026020016040519081016040528092919081815260200182805461264d90613e0a565b801561269a5780601f1061266f5761010080835404028352916020019161269a565b820191906000526020600020905b81548152906001019060200180831161267d57829003601f168201915b5050505050815260200160018201548152602001600282015481526020016003820180546126c790613e0a565b80601f01602080910402602001604051908101604052809291908181526020018280546126f390613e0a565b80156127405780601f1061271557610100808354040283529160200191612740565b820191906000526020600020905b81548152906001019060200180831161272357829003601f168201915b505050505081526020016004820160009054906101000a900460ff161515151581526020016004820160019054906101000a900460ff16151515158152602001600582015481526020016006820160009054906101000a900473ffffffffffffffffffffffffffffffffffffffff1673ffffffffffffffffffffffffffffffffffffffff1673ffffffffffffffffffffffffffffffffffffffff1681526020016007820160009054906101000a900473ffffffffffffffffffffffffffffffffffffffff1673ffffffffffffffffffffffffffffffffffffffff1673ffffffffffffffffffffffffffffffffffffffff16815260200160088201805480602002602001604051908101604052809291908181526020016000905b8282101561290657838290600052602060002001805461287990613e0a565b80601f01602080910402602001604051908101604052809291908181526020018280546128a590613e0a565b80156128f25780601f106128c7576101008083540402835291602001916128f2565b820191906000526020600020905b8154815290600101906020018083116128d557829003601f168201915b50505050508152602001906001019061285a565b50505050815260200160098201548152602001600a8201548152602001600b820160009054906101000a900460ff16151515158152602001600c8201548152505084848151811061295a576129596148ac565b5b60200260200101819052506001836129729190614803565b9250508080612980906148db565b915050612588565b508194505050505090565b60026020528060005260406000206000915054906101000a900460ff1681565b6001816000016000828254019250508190555050565b6000600360008373ffffffffffffffffffffffffffffffffffffffff1673ffffffffffffffffffffffffffffffffffffffff1681526020019081526020016000206008019050600080600090505b8280549050811015612a625784838281548110612a3757612a366148ac565b5b906000526020600020015403612a4f57809150612a62565b8080612a5a906148db565b915050612a17565b5060008190505b60018380549050612a7a9190614923565b811015612adf5782600182612a8f9190614803565b81548110612aa057612a9f6148ac565b5b9060005260206000200154838281548110612abe57612abd6148ac565b5b90600052602060002001819055508080612ad7906148db565b915050612a69565b5081805480612af157612af0614957565b5b6001900381819060005260206000200160009055905550505050565b828054828255906000526020600020908101928215612b4e5760005260206000209182015b82811115612b4d578254825591600101919060010190612b32565b5b509050612b5b9190612de3565b5090565b828054828255906000526020600020908101928215612ba05760005260206000209182015b82811115612b9f578254825591600101919060010190612b84565b5b509050612bad9190612e00565b5090565b604051806101800160405280606081526020016060815260200160608152602001606081526020016060815260200160608152602001600081526020016000815260200160608152602001600073ffffffffffffffffffffffffffffffffffffffff16815260200160608152602001606081525090565b828054828255906000526020600020908101928215612c70579160200282015b82811115612c6f578251829081612c5f9190613fe7565b5091602001919060010190612c48565b5b509050612c7d9190612e1d565b5090565b828054828255906000526020600020908101928215612ccd5760005260206000209182015b82811115612ccc5782829081612cbc91906140cf565b5091600101919060010190612ca6565b5b509050612cda9190612e1d565b5090565b508054612cea90613e0a565b6000825580601f10612cfc5750612d1b565b601f016020900490600052602060002090810190612d1a9190612e00565b5b50565b5080546000825590600052602060002090810190612d3c9190612e1d565b50565b604051806101c001604052806060815260200160008019168152602001600081526020016060815260200160001515815260200160001515815260200160008152602001600073ffffffffffffffffffffffffffffffffffffffff168152602001600073ffffffffffffffffffffffffffffffffffffffff168152602001606081526020016000815260200160008152602001600015158152602001600081525090565b5b80821115612dfc576000816000905550600101612de4565b5090565b5b80821115612e19576000816000905550600101612e01565b5090565b5b80821115612e3d5760008181612e349190612cde565b50600101612e1e565b5090565b6000604051905090565b600080fd5b600080fd5b600080fd5b600080fd5b6000601f19601f8301169050919050565b7f4e487b7100000000000000000000000000000000000000000000000000000000600052604160045260246000fd5b612ea882612e5f565b810181811067ffffffffffffffff82111715612ec757612ec6612e70565b5b80604052505050565b6000612eda612e41565b9050612ee68282612e9f565b919050565b600067ffffffffffffffff821115612f0657612f05612e70565b5b612f0f82612e5f565b9050602081019050919050565b82818337600083830152505050565b6000612f3e612f3984612eeb565b612ed0565b905082815260208101848484011115612f5a57612f59612e5a565b5b612f65848285612f1c565b509392505050565b600082601f830112612f8257612f81612e55565b5b8135612f92848260208601612f2b565b91505092915050565b60008060008060008060c08789031215612fb857612fb7612e4b565b5b600087013567ffffffffffffffff811115612fd657612fd5612e50565b5b612fe289828a01612f6d565b965050602087013567ffffffffffffffff81111561300357613002612e50565b5b61300f89828a01612f6d565b955050604087013567ffffffffffffffff8111156130305761302f612e50565b5b61303c89828a01612f6d565b945050606087013567ffffffffffffffff81111561305d5761305c612e50565b5b61306989828a01612f6d565b935050608087013567ffffffffffffffff81111561308a57613089612e50565b5b61309689828a01612f6d565b92505060a087013567ffffffffffffffff8111156130b7576130b6612e50565b5b6130c389828a01612f6d565b9150509295509295509295565b6000819050919050565b6130e3816130d0565b82525050565b60006020820190506130fe60008301846130da565b92915050565b600081519050919050565b600082825260208201905092915050565b60005b8381101561313e578082015181840152602081019050613123565b8381111561314d576000848401525b50505050565b600061315e82613104565b613168818561310f565b9350613178818560208601613120565b61318181612e5f565b840191505092915050565b613195816130d0565b82525050565b600081519050919050565b600082825260208201905092915050565b6000819050602082019050919050565b6000819050919050565b6131da816131c7565b82525050565b60006131ec83836131d1565b60208301905092915050565b6000602082019050919050565b60006132108261319b565b61321a81856131a6565b9350613225836131b7565b8060005b8381101561325657815161323d88826131e0565b9750613248836131f8565b925050600181019050613229565b5085935050505092915050565b600073ffffffffffffffffffffffffffffffffffffffff82169050919050565b600061328e82613263565b9050919050565b61329e81613283565b82525050565b600081519050919050565b600082825260208201905092915050565b6000819050602082019050919050565b60006132dc8383613295565b60208301905092915050565b6000602082019050919050565b6000613300826132a4565b61330a81856132af565b9350613315836132c0565b8060005b8381101561334657815161332d88826132d0565b9750613338836132e8565b925050600181019050613319565b5085935050505092915050565b60006101808301600083015184820360008601526133718282613153565b9150506020830151848203602086015261338b8282613153565b915050604083015184820360408601526133a58282613153565b915050606083015184820360608601526133bf8282613153565b915050608083015184820360808601526133d98282613153565b91505060a083015184820360a08601526133f38282613153565b91505060c083015161340860c086018261318c565b5060e083015161341b60e086018261318c565b506101008301518482036101008601526134358282613205565b91505061012083015161344c610120860182613295565b5061014083015184820361014086015261346682826132f5565b91505061016083015184820361016086015261348282826132f5565b9150508091505092915050565b600060208201905081810360008301526134a98184613353565b905092915050565b60008115159050919050565b6134c6816134b1565b81146134d157600080fd5b50565b6000813590506134e3816134bd565b92915050565b6134f2816130d0565b81146134fd57600080fd5b50565b60008135905061350f816134e9565b92915050565b600080600080600060a0868803121561353157613530612e4b565b5b600086013567ffffffffffffffff81111561354f5761354e612e50565b5b61355b88828901612f6d565b955050602086013567ffffffffffffffff81111561357c5761357b612e50565b5b61358888828901612f6d565b9450506040613599888289016134d4565b93505060606135aa88828901613500565b92505060806135bb888289016134d4565b9150509295509295909350565b6135d181613283565b81146135dc57600080fd5b50565b6000813590506135ee816135c8565b92915050565b6135fd816131c7565b811461360857600080fd5b50565b60008135905061361a816135f4565b92915050565b60008060006060848603121561363957613638612e4b565b5b6000613647868287016135df565b93505060206136588682870161360b565b9250506040613669868287016135df565b9150509250925092565b60008060006060848603121561368c5761368b612e4b565b5b600061369a868287016135df565b935050602084013567ffffffffffffffff8111156136bb576136ba612e50565b5b6136c786828701612f6d565b92505060406136d88682870161360b565b9150509250925092565b600080604083850312156136f9576136f8612e4b565b5b6000613707858286016135df565b92505060206137188582860161360b565b9150509250929050565b60006020828403121561373857613737612e4b565b5b600082013567ffffffffffffffff81111561375657613755612e50565b5b61376284828501612f6d565b91505092915050565b613774816131c7565b82525050565b600060208201905061378f600083018461376b565b92915050565b600081519050919050565b600082825260208201905092915050565b6000819050602082019050919050565b60006101808301600083015184820360008601526137df8282613153565b915050602083015184820360208601526137f98282613153565b915050604083015184820360408601526138138282613153565b9150506060830151848203606086015261382d8282613153565b915050608083015184820360808601526138478282613153565b91505060a083015184820360a08601526138618282613153565b91505060c083015161387660c086018261318c565b5060e083015161388960e086018261318c565b506101008301518482036101008601526138a38282613205565b9150506101208301516138ba610120860182613295565b506101408301518482036101408601526138d482826132f5565b9150506101608301518482036101608601526138f082826132f5565b9150508091505092915050565b600061390983836137c1565b905092915050565b6000602082019050919050565b600061392982613795565b61393381856137a0565b935083602082028501613945856137b1565b8060005b85811015613981578484038952815161396285826138fd565b945061396d83613911565b925060208a01995050600181019050613949565b50829750879550505050505092915050565b600060208201905081810360008301526139ad818461391e565b905092915050565b600080604083850312156139cc576139cb612e4b565b5b60006139da8582860161360b565b92505060206139eb858286016134d4565b9150509250929050565b600081519050919050565b600082825260208201905092915050565b6000819050602082019050919050565b613a2a816134b1565b82525050565b6000613a3b82613263565b9050919050565b613a4b81613a30565b82525050565b600081519050919050565b600082825260208201905092915050565b6000819050602082019050919050565b6000613a898383613153565b905092915050565b6000602082019050919050565b6000613aa982613a51565b613ab38185613a5c565b935083602082028501613ac585613a6d565b8060005b85811015613b015784840389528151613ae28582613a7d565b9450613aed83613a91565b925060208a01995050600181019050613ac9565b50829750879550505050505092915050565b60006101c0830160008301518482036000860152613b318282613153565b9150506020830151613b4660208601826131d1565b506040830151613b59604086018261318c565b5060608301518482036060860152613b718282613153565b9150506080830151613b866080860182613a21565b5060a0830151613b9960a0860182613a21565b5060c0830151613bac60c086018261318c565b5060e0830151613bbf60e0860182613295565b50610100830151613bd4610100860182613a42565b50610120830151848203610120860152613bee8282613a9e565b915050610140830151613c0561014086018261318c565b50610160830151613c1a61016086018261318c565b50610180830151613c2f610180860182613a21565b506101a0830151613c446101a086018261318c565b508091505092915050565b6000613c5b8383613b13565b905092915050565b6000602082019050919050565b6000613c7b826139f5565b613c858185613a00565b935083602082028501613c9785613a11565b8060005b85811015613cd35784840389528151613cb48582613c4f565b9450613cbf83613c63565b925060208a01995050600181019050613c9b565b50829750879550505050505092915050565b60006020820190508181036000830152613cff8184613c70565b905092915050565b600060208284031215613d1d57613d1c612e4b565b5b6000613d2b848285016135df565b91505092915050565b613d3d816134b1565b82525050565b6000602082019050613d586000830184613d34565b92915050565b600082825260208201905092915050565b7f5573657220616c72656164792065786973747300000000000000000000000000600082015250565b6000613da5601383613d5e565b9150613db082613d6f565b602082019050919050565b60006020820190508181036000830152613dd481613d98565b9050919050565b7f4e487b7100000000000000000000000000000000000000000000000000000000600052602260045260246000fd5b60006002820490506001821680613e2257607f821691505b602082108103613e3557613e34613ddb565b5b50919050565b60008190508160005260206000209050919050565b60006020601f8301049050919050565b600082821b905092915050565b600060088302613e9d7fffffffffffffffffffffffffffffffffffffffffffffffffffffffffffffffff82613e60565b613ea78683613e60565b95508019841693508086168417925050509392505050565b6000819050919050565b6000613ee4613edf613eda846130d0565b613ebf565b6130d0565b9050919050565b6000819050919050565b613efe83613ec9565b613f12613f0a82613eeb565b848454613e6d565b825550505050565b600090565b613f27613f1a565b613f32818484613ef5565b505050565b5b81811015613f5657613f4b600082613f1f565b600181019050613f38565b5050565b601f821115613f9b57613f6c81613e3b565b613f7584613e50565b81016020851015613f84578190505b613f98613f9085613e50565b830182613f37565b50505b505050565b600082821c905092915050565b6000613fbe60001984600802613fa0565b1980831691505092915050565b6000613fd78383613fad565b9150826002028217905092915050565b613ff082613104565b67ffffffffffffffff81111561400957614008612e70565b5b6140138254613e0a565b61401e828285613f5a565b600060209050601f831160018114614051576000841561403f578287015190505b6140498582613fcb565b8655506140b1565b601f19841661405f86613e3b565b60005b8281101561408757848901518255600182019150602085019450602081019050614062565b868310156140a457848901516140a0601f891682613fad565b8355505b6001600288020188555050505b505050505050565b6000815490506140c881613e0a565b9050919050565b8181036140dd5750506141b5565b6140e6826140b9565b67ffffffffffffffff8111156140ff576140fe612e70565b5b6141098254613e0a565b614114828285613f5a565b6000601f8311600181146141435760008415614131578287015490505b61413b8582613fcb565b8655506141ae565b601f19841661415187613e3b565b965061415c86613e3b565b60005b828110156141845784890154825560018201915060018501945060208101905061415f565b868310156141a1578489015461419d601f891682613fad565b8355505b6001600288020188555050505b5050505050505b565b600081546141c481613e0a565b6141ce8186613d5e565b945060018216600081146141e957600181146141ff57614232565b60ff198316865281151560200286019350614232565b61420885613e3b565b60005b8381101561422a5781548189015260018201915060208101905061420b565b808801955050505b50505092915050565b61424481613283565b82525050565b6000608082019050818103600083015261426481876141b7565b9050818103602083015261427881866141b7565b9050818103604083015261428c81856141b7565b905061429b606083018461423b565b95945050505050565b7f55736572206e6f7420726567697374657265642e000000000000000000000000600082015250565b60006142da601483613d5e565b91506142e5826142a4565b602082019050919050565b60006020820190508181036000830152614309816142cd565b9050919050565b7f5265656e7472616e637947756172643a207265656e7472616e742063616c6c00600082015250565b6000614346601f83613d5e565b915061435182614310565b602082019050919050565b6000602082019050818103600083015261437581614339565b9050919050565b600061438782613104565b6143918185613d5e565b93506143a1818560208601613120565b6143aa81612e5f565b840191505092915050565b600060208201905081810360008301526143cf818461437c565b905092915050565b6000815190506143e6816134e9565b92915050565b60006020828403121561440257614401612e4b565b5b6000614410848285016143d7565b91505092915050565b6000819050919050565b600061443e61443961443484614419565b613ebf565b6130d0565b9050919050565b61444e81614423565b82525050565b600061446f61446a61446584613263565b613ebf565b613263565b9050919050565b600061448182614454565b9050919050565b600061449382614476565b9050919050565b6144a381614488565b82525050565b60006101008201905081810360008301526144c4818b61437c565b905081810360208301526144d8818a61437c565b90506144e7604083018961376b565b6144f460608301886130da565b61450160808301876130da565b61450e60a0830186614445565b61451b60c083018561423b565b61452860e083018461449a565b9998505050505050505050565b7f55736572206e6f74207265676973746572656400000000000000000000000000600082015250565b600061456b601383613d5e565b915061457682614535565b602082019050919050565b6000602082019050818103600083015261459a8161455e565b9050919050565b7f506f7374206973206e6f7420616e206e66740000000000000000000000000000600082015250565b60006145d7601283613d5e565b91506145e2826145a1565b602082019050919050565b60006020820190508181036000830152614606816145ca565b9050919050565b7f556e6d617463686564207472616e73616374696f6e2c20692e652e2c2074686560008201527f2070617965722073686f756c6420626520746865206e6577206f776e65720000602082015250565b6000614669603e83613d5e565b91506146748261460d565b604082019050919050565b600060208201905081810360008301526146988161465c565b9050919050565b7f506f7374206e6f7420666f722073616c65000000000000000000000000000000600082015250565b60006146d5601183613d5e565b91506146e08261469f565b602082019050919050565b60006020820190508181036000830152614704816146c8565b9050919050565b7f416d6f756e742073686f756c642062652067726561746572207468616e20626160008201527f7365207072696365206f662074686520706f73742e0000000000000000000000602082015250565b6000614767603583613d5e565b91506147728261470b565b604082019050919050565b600060208201905081810360008301526147968161475a565b9050919050565b60006060820190506147b2600083018661423b565b6147bf602083018561423b565b6147cc60408301846130da565b949350505050565b7f4e487b7100000000000000000000000000000000000000000000000000000000600052601160045260246000fd5b600061480e826130d0565b9150614819836130d0565b9250827fffffffffffffffffffffffffffffffffffffffffffffffffffffffffffffffff0382111561484e5761484d6147d4565b5b828201905092915050565b600081905092915050565b600061486f82613104565b6148798185614859565b9350614889818560208601613120565b80840191505092915050565b60006148a18284614864565b915081905092915050565b7f4e487b7100000000000000000000000000000000000000000000000000000000600052603260045260246000fd5b60006148e6826130d0565b91507fffffffffffffffffffffffffffffffffffffffffffffffffffffffffffffffff8203614918576149176147d4565b5b600182019050919050565b600061492e826130d0565b9150614939836130d0565b92508282101561494c5761494b6147d4565b5b828203905092915050565b7f4e487b7100000000000000000000000000000000000000000000000000000000600052603160045260246000fdfea264697066735822122090b432fb35497cf2fb08013045d4e0ad9798bbdd76847fbde8f6f16efe987a8d64736f6c634300080f0033",
  "immutableReferences": {},
  "source": "// SPDX-License-Identifier: GPL-3.0\n\npragma solidity >=0.7.0 <0.9.0;\n\nimport \"@openzeppelin/contracts/utils/Counters.sol\";\nimport \"@openzeppelin/contracts/utils/Counters.sol\";\nimport \"@openzeppelin/contracts/token/ERC721/extensions/ERC721URIStorage.sol\";\nimport \"@openzeppelin/contracts/security/ReentrancyGuard.sol\";\nimport \"@openzeppelin/contracts/token/ERC721/ERC721.sol\";\n\ncontract TrisNFT is ERC721URIStorage{\n    using Counters for Counters.Counter;\n    \n    constructor() ERC721(\"TrisNFT\", \"TRI\"){}   \n    Counters.Counter private _tokenId;\n    address contractAddress = address(this);\n\n    function mintToken(string memory tokenUri) public returns(uint256 itemId){\n        require(contractAddress == msg.sender, \"Only the marketplace contract can call this function\");\n        _tokenId.increment();\n        uint256 currentId = _tokenId.current();\n        _mint(contractAddress, currentId);\n        _setTokenURI(currentId, tokenUri);\n        return currentId;\n    }\n\n    function updateContractAddress( address marketPlaceAddress) public  {\n        require(contractAddress == address(this) || contractAddress == msg.sender, \"Address is already declared or only the  owner contract can change the address.\");\n        contractAddress = marketPlaceAddress;\n    }\n\n    function returnCurrentUser() public view returns(address){\n        return msg.sender;\n    }\n\n    /*\n        A custom function to transfer ownership from on owner to another.\n    */\n    function transferNft(address currOwner, address newOwner, uint tokenId) public {\n        transferFrom(currOwner, newOwner, tokenId);\n    }\n\n    function getLatestTokenId() public view returns(uint256 itemId){\n        return _tokenId.current();\n    }\n\n    function returnOwner(uint id) public view returns(address){\n        return ownerOf(id);\n    }\n}\n\ncontract UserContract is ReentrancyGuard{\n    using Counters for Counters.Counter;\n    Counters.Counter public userCount;\n    mapping(address => bool) public userIsRegistered;\n    mapping(address => User) private mapToUser;\n    address private trisNftAddress;\n    address private owner;\n    User[] private usersList;\n    mapping(address => mapping(bytes32 => Post)) private _postsOfUsers;\n\n    constructor(address nftAddress, address ownerAddress){\n        trisNftAddress = nftAddress;\n        owner = ownerAddress;\n        TrisNFT(nftAddress).updateContractAddress(address(this));\n    }\n\n    \n\n    /*\n        User struct for storing user data. \n        name, userName, userAddress are required as in the UI the rest can be 0 or empty.\n     */\n    struct User{\n        string name;\n        string userName;\n        string avatarUrl;\n        string bio;\n        string wallUrl;\n        string email;\n        uint256 followersCount;\n        uint256 followingCount;\n        bytes32[] postCount;\n        address userAddress;\n        address[] followers;\n        address[] following;\n    }\n\n    /*\n        Post struct for storing the posts of each user.\n        The token id connects post to the nft in ./Tris_NFT.sol\n\n        A post can be either NFT or a regular post\n     */\n    struct Post{\n        string post;\n        bytes32 postId;\n        uint256 likes;\n        string title;\n        bool isForSale;\n        bool postIsBought;\n        uint256 commentsCount;\n        address owner;\n        address payable seller;\n        string[] comments;\n        uint256 priceByOwner;\n        uint256 basePrice;\n        bool isNft;\n        uint256 tokenId;\n    }\n\n    /*\n        Events \n     */\n    event UserCreated (string name, string userName, string avatarUrl, address userAddress);\n    event PostUploaded(string title, string post, bytes32 postId, uint256 tokenId, uint256 priceByOwner, uint256 basePrice, address owner, address seller);\n    event PostSold(string post, address owner, address seller, uint256 price);\n\n    function createUser(string memory name, string memory userName, string memory avatarUrl, string memory email, string memory bio, string memory wallUrl) public {\n        require(userIsRegistered[msg.sender] != true, \"User already exists\");\n        User storage userData = mapToUser[msg.sender];\n        userData.name = name;\n        userData.userName = userName;\n        userData.avatarUrl = avatarUrl;\n        userData.bio = bio;\n        userData.wallUrl = wallUrl;\n        userData.userAddress = msg.sender;\n        userData.email = email;\n        userCount.increment();\n        userIsRegistered[msg.sender] = true;\n        usersList.push(userData);\n        emit UserCreated(userData.name, userData.userName, userData.avatarUrl, userData.userAddress);\n    }\n\n    /*\n        Function to upload post. This requires the post parameters, \n        and uploads the post as either nft or a regular post.\n    */\n    function uploadPost(string memory title, string memory post, bool isNft, uint256 priceByOwner, bool isForSale) public nonReentrant{\n        require(userIsRegistered[msg.sender] == true, \"User not registered.\");\n        User storage currUser = mapToUser[msg.sender];\n\n        uint256 tokenId;\n\n        if(isNft){\n            tokenId = TrisNFT(trisNftAddress).mintToken(post);\n        }\n\n        currUser.postCount.push(callKeccak256(post));\n        Post memory currPost = Post(\n            {\n                post: post,\n                postId: callKeccak256(post),\n                likes: 0,\n                title: title,\n                postIsBought: false,\n                isForSale: isNft ? isForSale : false,\n                isNft: isNft,\n                commentsCount: 0,\n                priceByOwner: isNft ? priceByOwner : 0,\n                comments: new string[](0),\n                tokenId: isNft ? tokenId : 0,\n                basePrice: isNft ? 10 : 0,\n                owner: isNft ? (address(this)) : (address(0)),\n                seller: isNft ? payable(msg.sender) : payable(address(0))\n            }\n        );\n\n        _postsOfUsers[msg.sender][callKeccak256(post)] = currPost;\n        emit PostUploaded(currPost.title, currPost.post, currPost.postId, currPost.tokenId, priceByOwner, 10, currPost.owner, currPost.seller);\n    }\n\n\n    /*\n        Dedicated function to buy/sell nfts before selling the nft owner should make sure he has \n        made the NFT avaialbe for sale and the post is NFT. \n        Before call this function the transferNFT in TrisNFT contract should be called to transfer the ownership.\n        That function can't be called form this function because that checks for msg.sender to be equal to \n        post owner but when called from here msg.sender is the address of this contract and not the owner.\n        - If the post is already sold then it will be checked in the frontend throught the postIsBought parameter\n          only if the postIsBought turns out to be true then the the method in the TrisNft will be called.\n    */\n    function buyPost(address ownerAddress, bytes32 postId, address newOwnerAddress) public payable nonReentrant{\n        Post storage currPost = _postsOfUsers[ownerAddress][postId];\n        require(userIsRegistered[msg.sender] == true, \"User not registered\");\n        require(currPost.isNft == true, \"Post is not an nft\");\n        require(msg.sender == newOwnerAddress, \"Unmatched transaction, i.e., the payer should be the new owner\");\n        require(userIsRegistered[ownerAddress] == true, \"User not registered\");\n        require(currPost.isForSale == true, \"Post not for sale\");\n        uint256 price = msg.value;\n        User storage newUser = mapToUser[newOwnerAddress];\n        require(price >= currPost.basePrice, \"Amount should be greater than base price of the post.\");\n        if(currPost.postIsBought == false){\n            IERC721(trisNftAddress).transferFrom(address(this), newOwnerAddress, currPost.tokenId);\n        }\n        currPost.seller.transfer(msg.value);\n        currPost.owner = (newOwnerAddress);\n        currPost.seller = payable(newOwnerAddress);\n        removePost(postId, ownerAddress);\n        currPost.postIsBought = true;\n        _postsOfUsers[newOwnerAddress][postId] = currPost;\n        delete _postsOfUsers[ownerAddress][postId];\n        newUser.postCount.push(postId);\n    }\n\n    function getUserList() public view returns(User[] memory){\n        return usersList;\n    }\n\n    function updatePostForSale(bytes32 id, bool isForSale) public {\n        require(userIsRegistered[msg.sender] == true, \"User not registered\");\n        _postsOfUsers[msg.sender][id].isForSale = isForSale;\n    }\n\n    \n\n    function getUserPosts() public view returns (Post[] memory userPosts){\n        require(userIsRegistered[msg.sender] == true, \"User not registered.\");\n        User storage currUser = mapToUser[msg.sender];\n        uint userPostCount = currUser.postCount.length;\n        Post[] memory currUserPosts = new Post[](userPostCount);\n        uint currentIndex = 0;\n        for(uint i = 0; i < userPostCount; i++){\n           Post storage currPost = _postsOfUsers[msg.sender][currUser.postCount[currentIndex]];\n           currUserPosts[currentIndex] = currPost;\n           currentIndex += 1;\n        }\n\n        return currUserPosts;\n    }\n\n    function removePost(bytes32 postId, address postOwner) internal {\n        bytes32[] storage postCount = mapToUser[postOwner].postCount;\n        uint index;\n        for(uint i = 0; i < postCount.length; i++){\n            if(postCount[i] == postId){\n                index = i;\n                break;\n            }\n        }\n        for(uint i = index; i < postCount.length - 1; i++){\n            postCount[i] = postCount[i + 1];\n        }\n        postCount.pop();\n    }\n\n    function likePost(address postOwner, bytes32 postId) public {\n        require(userIsRegistered[msg.sender] == true, \"User not registered\");\n        Post storage currPost = _postsOfUsers[postOwner][postId];\n        currPost.likes += 1;\n    }\n\n    function postComment( address postOwner, string memory comment, bytes32 postId ) public {\n        require(userIsRegistered[msg.sender] == true, \"User not registered\");\n        Post storage currPost = _postsOfUsers[postOwner][postId];\n        currPost.commentsCount += 1;\n        currPost.comments.push(comment);\n    }\n\n    function getUserData() public view returns(User memory){\n        require(userIsRegistered[msg.sender] == true, \"User not registered.\");\n        return mapToUser[msg.sender];\n    } \n\n    function callKeccak256(string memory post) public pure returns( bytes32 result){\n      return keccak256(abi.encodePacked(post));\n   }  \n\n}\n",
  "sourcePath": "/home/astar/Documents/tris/contracts/User.sol",
  "compiler": {
    "name": "solc",
    "version": "0.8.15+commit.e14f2714.Emscripten.clang"
  },
  "schemaVersion": "3.4.8",
  "updatedAt": "2022-07-21T16:30:05.800Z",
  "networkType": "ethereum",
  "devdoc": {
    "kind": "dev",
    "methods": {},
    "version": 1
  },
  "userdoc": {
    "kind": "user",
    "methods": {},
    "version": 1
  }
}