{
  "contractName": "TrisNFT",
  "abi": [
    {
      "inputs": [],
      "stateMutability": "nonpayable",
      "type": "constructor"
    },
    {
      "anonymous": false,
      "inputs": [
        {
          "indexed": true,
          "internalType": "address",
          "name": "owner",
          "type": "address"
        },
        {
          "indexed": true,
          "internalType": "address",
          "name": "approved",
          "type": "address"
        },
        {
          "indexed": true,
          "internalType": "uint256",
          "name": "tokenId",
          "type": "uint256"
        }
      ],
      "name": "Approval",
      "type": "event"
    },
    {
      "anonymous": false,
      "inputs": [
        {
          "indexed": true,
          "internalType": "address",
          "name": "owner",
          "type": "address"
        },
        {
          "indexed": true,
          "internalType": "address",
          "name": "operator",
          "type": "address"
        },
        {
          "indexed": false,
          "internalType": "bool",
          "name": "approved",
          "type": "bool"
        }
      ],
      "name": "ApprovalForAll",
      "type": "event"
    },
    {
      "anonymous": false,
      "inputs": [
        {
          "indexed": true,
          "internalType": "address",
          "name": "from",
          "type": "address"
        },
        {
          "indexed": true,
          "internalType": "address",
          "name": "to",
          "type": "address"
        },
        {
          "indexed": true,
          "internalType": "uint256",
          "name": "tokenId",
          "type": "uint256"
        }
      ],
      "name": "Transfer",
      "type": "event"
    },
    {
      "inputs": [
        {
          "internalType": "address",
          "name": "to",
          "type": "address"
        },
        {
          "internalType": "uint256",
          "name": "tokenId",
          "type": "uint256"
        }
      ],
      "name": "approve",
      "outputs": [],
      "stateMutability": "nonpayable",
      "type": "function"
    },
    {
      "inputs": [
        {
          "internalType": "address",
          "name": "owner",
          "type": "address"
        }
      ],
      "name": "balanceOf",
      "outputs": [
        {
          "internalType": "uint256",
          "name": "",
          "type": "uint256"
        }
      ],
      "stateMutability": "view",
      "type": "function",
      "constant": true
    },
    {
      "inputs": [
        {
          "internalType": "uint256",
          "name": "tokenId",
          "type": "uint256"
        }
      ],
      "name": "getApproved",
      "outputs": [
        {
          "internalType": "address",
          "name": "",
          "type": "address"
        }
      ],
      "stateMutability": "view",
      "type": "function",
      "constant": true
    },
    {
      "inputs": [
        {
          "internalType": "address",
          "name": "owner",
          "type": "address"
        },
        {
          "internalType": "address",
          "name": "operator",
          "type": "address"
        }
      ],
      "name": "isApprovedForAll",
      "outputs": [
        {
          "internalType": "bool",
          "name": "",
          "type": "bool"
        }
      ],
      "stateMutability": "view",
      "type": "function",
      "constant": true
    },
    {
      "inputs": [],
      "name": "name",
      "outputs": [
        {
          "internalType": "string",
          "name": "",
          "type": "string"
        }
      ],
      "stateMutability": "view",
      "type": "function",
      "constant": true
    },
    {
      "inputs": [
        {
          "internalType": "uint256",
          "name": "tokenId",
          "type": "uint256"
        }
      ],
      "name": "ownerOf",
      "outputs": [
        {
          "internalType": "address",
          "name": "",
          "type": "address"
        }
      ],
      "stateMutability": "view",
      "type": "function",
      "constant": true
    },
    {
      "inputs": [
        {
          "internalType": "address",
          "name": "from",
          "type": "address"
        },
        {
          "internalType": "address",
          "name": "to",
          "type": "address"
        },
        {
          "internalType": "uint256",
          "name": "tokenId",
          "type": "uint256"
        }
      ],
      "name": "safeTransferFrom",
      "outputs": [],
      "stateMutability": "nonpayable",
      "type": "function"
    },
    {
      "inputs": [
        {
          "internalType": "address",
          "name": "from",
          "type": "address"
        },
        {
          "internalType": "address",
          "name": "to",
          "type": "address"
        },
        {
          "internalType": "uint256",
          "name": "tokenId",
          "type": "uint256"
        },
        {
          "internalType": "bytes",
          "name": "data",
          "type": "bytes"
        }
      ],
      "name": "safeTransferFrom",
      "outputs": [],
      "stateMutability": "nonpayable",
      "type": "function"
    },
    {
      "inputs": [
        {
          "internalType": "address",
          "name": "operator",
          "type": "address"
        },
        {
          "internalType": "bool",
          "name": "approved",
          "type": "bool"
        }
      ],
      "name": "setApprovalForAll",
      "outputs": [],
      "stateMutability": "nonpayable",
      "type": "function"
    },
    {
      "inputs": [
        {
          "internalType": "bytes4",
          "name": "interfaceId",
          "type": "bytes4"
        }
      ],
      "name": "supportsInterface",
      "outputs": [
        {
          "internalType": "bool",
          "name": "",
          "type": "bool"
        }
      ],
      "stateMutability": "view",
      "type": "function",
      "constant": true
    },
    {
      "inputs": [],
      "name": "symbol",
      "outputs": [
        {
          "internalType": "string",
          "name": "",
          "type": "string"
        }
      ],
      "stateMutability": "view",
      "type": "function",
      "constant": true
    },
    {
      "inputs": [
        {
          "internalType": "uint256",
          "name": "tokenId",
          "type": "uint256"
        }
      ],
      "name": "tokenURI",
      "outputs": [
        {
          "internalType": "string",
          "name": "",
          "type": "string"
        }
      ],
      "stateMutability": "view",
      "type": "function",
      "constant": true
    },
    {
      "inputs": [
        {
          "internalType": "address",
          "name": "from",
          "type": "address"
        },
        {
          "internalType": "address",
          "name": "to",
          "type": "address"
        },
        {
          "internalType": "uint256",
          "name": "tokenId",
          "type": "uint256"
        }
      ],
      "name": "transferFrom",
      "outputs": [],
      "stateMutability": "nonpayable",
      "type": "function"
    },
    {
      "inputs": [
        {
          "internalType": "string",
          "name": "tokenUri",
          "type": "string"
        }
      ],
      "name": "mintToken",
      "outputs": [
        {
          "internalType": "uint256",
          "name": "itemId",
          "type": "uint256"
        }
      ],
      "stateMutability": "nonpayable",
      "type": "function"
    },
    {
      "inputs": [
        {
          "internalType": "address",
          "name": "marketPlaceAddress",
          "type": "address"
        }
      ],
      "name": "updateContractAddress",
      "outputs": [],
      "stateMutability": "nonpayable",
      "type": "function"
    },
    {
      "inputs": [],
      "name": "returnCurrentUser",
      "outputs": [
        {
          "internalType": "address",
          "name": "",
          "type": "address"
        }
      ],
      "stateMutability": "view",
      "type": "function",
      "constant": true
    },
    {
      "inputs": [
        {
          "internalType": "address",
          "name": "currOwner",
          "type": "address"
        },
        {
          "internalType": "address",
          "name": "newOwner",
          "type": "address"
        },
        {
          "internalType": "uint256",
          "name": "tokenId",
          "type": "uint256"
        }
      ],
      "name": "transferNft",
      "outputs": [],
      "stateMutability": "nonpayable",
      "type": "function"
    },
    {
      "inputs": [],
      "name": "getLatestTokenId",
      "outputs": [
        {
          "internalType": "uint256",
          "name": "itemId",
          "type": "uint256"
        }
      ],
      "stateMutability": "view",
      "type": "function",
      "constant": true
    },
    {
      "inputs": [
        {
          "internalType": "uint256",
          "name": "id",
          "type": "uint256"
        }
      ],
      "name": "returnOwner",
      "outputs": [
        {
          "internalType": "address",
          "name": "",
          "type": "address"
        }
      ],
      "stateMutability": "view",
      "type": "function",
      "constant": true
    }
  ],
  "bytecode": "0x608060405230600860006101000a81548173ffffffffffffffffffffffffffffffffffffffff021916908373ffffffffffffffffffffffffffffffffffffffff1602179055503480156200005257600080fd5b506040518060400160405280600781526020017f547269734e4654000000000000000000000000000000000000000000000000008152506040518060400160405280600381526020017f54524900000000000000000000000000000000000000000000000000000000008152508160009081620000d0919062000365565b508060019081620000e2919062000365565b5050506200044c565b600081519050919050565b7f4e487b7100000000000000000000000000000000000000000000000000000000600052604160045260246000fd5b7f4e487b7100000000000000000000000000000000000000000000000000000000600052602260045260246000fd5b600060028204905060018216806200016d57607f821691505b60208210810362000183576200018262000125565b5b50919050565b60008190508160005260206000209050919050565b60006020601f8301049050919050565b600082821b905092915050565b600060088302620001ed7fffffffffffffffffffffffffffffffffffffffffffffffffffffffffffffffff82620001ae565b620001f98683620001ae565b95508019841693508086168417925050509392505050565b6000819050919050565b6000819050919050565b600062000246620002406200023a8462000211565b6200021b565b62000211565b9050919050565b6000819050919050565b620002628362000225565b6200027a62000271826200024d565b848454620001bb565b825550505050565b600090565b6200029162000282565b6200029e81848462000257565b505050565b5b81811015620002c657620002ba60008262000287565b600181019050620002a4565b5050565b601f8211156200031557620002df8162000189565b620002ea846200019e565b81016020851015620002fa578190505b6200031262000309856200019e565b830182620002a3565b50505b505050565b600082821c905092915050565b60006200033a600019846008026200031a565b1980831691505092915050565b600062000355838362000327565b9150826002028217905092915050565b6200037082620000eb565b67ffffffffffffffff8111156200038c576200038b620000f6565b5b62000398825462000154565b620003a5828285620002ca565b600060209050601f831160018114620003dd5760008415620003c8578287015190505b620003d4858262000347565b86555062000444565b601f198416620003ed8662000189565b60005b828110156200041757848901518255600182019150602085019450602081019050620003f0565b8683101562000437578489015162000433601f89168262000327565b8355505b6001600288020188555050505b505050505050565b612e8c806200045c6000396000f3fe608060405234801561001057600080fd5b50600436106101215760003560e01c806370a08231116100ad578063c87b56dd11610071578063c87b56dd14610318578063d11eccd614610348578063e985e9c514610364578063f7b435e914610394578063fd0f7abc146103c457610121565b806370a082311461027657806395d89b41146102a6578063a22cb465146102c4578063b88d4fde146102e0578063bdf3e088146102fc57610121565b806323b872dd116100f457806323b872dd146101c057806325d112a9146101dc57806333eba49a146101fa57806342842e0e1461022a5780636352211e1461024657610121565b806301ffc9a71461012657806306fdde0314610156578063081812fc14610174578063095ea7b3146101a4575b600080fd5b610140600480360381019061013b9190611aa9565b6103e2565b60405161014d9190611af1565b60405180910390f35b61015e6104c4565b60405161016b9190611ba5565b60405180910390f35b61018e60048036038101906101899190611bfd565b610556565b60405161019b9190611c6b565b60405180910390f35b6101be60048036038101906101b99190611cb2565b61059c565b005b6101da60048036038101906101d59190611cf2565b6106b3565b005b6101e4610713565b6040516101f19190611d54565b60405180910390f35b610214600480360381019061020f9190611ea4565b610724565b6040516102219190611d54565b60405180910390f35b610244600480360381019061023f9190611cf2565b61080d565b005b610260600480360381019061025b9190611bfd565b61082d565b60405161026d9190611c6b565b60405180910390f35b610290600480360381019061028b9190611eed565b6108de565b60405161029d9190611d54565b60405180910390f35b6102ae610995565b6040516102bb9190611ba5565b60405180910390f35b6102de60048036038101906102d99190611f46565b610a27565b005b6102fa60048036038101906102f59190612027565b610a3d565b005b61031660048036038101906103119190611eed565b610a9f565b005b610332600480360381019061032d9190611bfd565b610bcb565b60405161033f9190611ba5565b60405180910390f35b610362600480360381019061035d9190611cf2565b610cdd565b005b61037e600480360381019061037991906120aa565b610ced565b60405161038b9190611af1565b60405180910390f35b6103ae60048036038101906103a99190611bfd565b610d81565b6040516103bb9190611c6b565b60405180910390f35b6103cc610d93565b6040516103d99190611c6b565b60405180910390f35b60007f80ac58cd000000000000000000000000000000000000000000000000000000007bffffffffffffffffffffffffffffffffffffffffffffffffffffffff1916827bffffffffffffffffffffffffffffffffffffffffffffffffffffffff191614806104ad57507f5b5e139f000000000000000000000000000000000000000000000000000000007bffffffffffffffffffffffffffffffffffffffffffffffffffffffff1916827bffffffffffffffffffffffffffffffffffffffffffffffffffffffff1916145b806104bd57506104bc82610d9b565b5b9050919050565b6060600080546104d390612119565b80601f01602080910402602001604051908101604052809291908181526020018280546104ff90612119565b801561054c5780601f106105215761010080835404028352916020019161054c565b820191906000526020600020905b81548152906001019060200180831161052f57829003601f168201915b5050505050905090565b600061056182610e05565b6004600083815260200190815260200160002060009054906101000a900473ffffffffffffffffffffffffffffffffffffffff169050919050565b60006105a78261082d565b90508073ffffffffffffffffffffffffffffffffffffffff168373ffffffffffffffffffffffffffffffffffffffff1603610617576040517f08c379a000000000000000000000000000000000000000000000000000000000815260040161060e906121bc565b60405180910390fd5b8073ffffffffffffffffffffffffffffffffffffffff16610636610e50565b73ffffffffffffffffffffffffffffffffffffffff16148061066557506106648161065f610e50565b610ced565b5b6106a4576040517f08c379a000000000000000000000000000000000000000000000000000000000815260040161069b9061224e565b60405180910390fd5b6106ae8383610e58565b505050565b6106c46106be610e50565b82610f11565b610703576040517f08c379a00000000000000000000000000000000000000000000000000000000081526004016106fa906122e0565b60405180910390fd5b61070e838383610fa6565b505050565b600061071f600761120c565b905090565b60003373ffffffffffffffffffffffffffffffffffffffff16600860009054906101000a900473ffffffffffffffffffffffffffffffffffffffff1673ffffffffffffffffffffffffffffffffffffffff16146107b6576040517f08c379a00000000000000000000000000000000000000000000000000000000081526004016107ad90612372565b60405180910390fd5b6107c0600761121a565b60006107cc600761120c565b90506107fa600860009054906101000a900473ffffffffffffffffffffffffffffffffffffffff1682611230565b6108048184611409565b80915050919050565b61082883838360405180602001604052806000815250610a3d565b505050565b6000806002600084815260200190815260200160002060009054906101000a900473ffffffffffffffffffffffffffffffffffffffff169050600073ffffffffffffffffffffffffffffffffffffffff168173ffffffffffffffffffffffffffffffffffffffff16036108d5576040517f08c379a00000000000000000000000000000000000000000000000000000000081526004016108cc906123de565b60405180910390fd5b80915050919050565b60008073ffffffffffffffffffffffffffffffffffffffff168273ffffffffffffffffffffffffffffffffffffffff160361094e576040517f08c379a000000000000000000000000000000000000000000000000000000000815260040161094590612470565b60405180910390fd5b600360008373ffffffffffffffffffffffffffffffffffffffff1673ffffffffffffffffffffffffffffffffffffffff168152602001908152602001600020549050919050565b6060600180546109a490612119565b80601f01602080910402602001604051908101604052809291908181526020018280546109d090612119565b8015610a1d5780601f106109f257610100808354040283529160200191610a1d565b820191906000526020600020905b815481529060010190602001808311610a0057829003601f168201915b5050505050905090565b610a39610a32610e50565b8383611476565b5050565b610a4e610a48610e50565b83610f11565b610a8d576040517f08c379a0000000000000000000000000000000000000000000000000000000008152600401610a84906122e0565b60405180910390fd5b610a99848484846115e2565b50505050565b3073ffffffffffffffffffffffffffffffffffffffff16600860009054906101000a900473ffffffffffffffffffffffffffffffffffffffff1673ffffffffffffffffffffffffffffffffffffffff161480610b4857503373ffffffffffffffffffffffffffffffffffffffff16600860009054906101000a900473ffffffffffffffffffffffffffffffffffffffff1673ffffffffffffffffffffffffffffffffffffffff16145b610b87576040517f08c379a0000000000000000000000000000000000000000000000000000000008152600401610b7e90612528565b60405180910390fd5b80600860006101000a81548173ffffffffffffffffffffffffffffffffffffffff021916908373ffffffffffffffffffffffffffffffffffffffff16021790555050565b6060610bd682610e05565b6000600660008481526020019081526020016000208054610bf690612119565b80601f0160208091040260200160405190810160405280929190818152602001828054610c2290612119565b8015610c6f5780601f10610c4457610100808354040283529160200191610c6f565b820191906000526020600020905b815481529060010190602001808311610c5257829003601f168201915b505050505090506000610c8061163e565b90506000815103610c95578192505050610cd8565b600082511115610cca578082604051602001610cb2929190612584565b60405160208183030381529060405292505050610cd8565b610cd384611655565b925050505b919050565b610ce88383836106b3565b505050565b6000600560008473ffffffffffffffffffffffffffffffffffffffff1673ffffffffffffffffffffffffffffffffffffffff16815260200190815260200160002060008373ffffffffffffffffffffffffffffffffffffffff1673ffffffffffffffffffffffffffffffffffffffff16815260200190815260200160002060009054906101000a900460ff16905092915050565b6000610d8c8261082d565b9050919050565b600033905090565b60007f01ffc9a7000000000000000000000000000000000000000000000000000000007bffffffffffffffffffffffffffffffffffffffffffffffffffffffff1916827bffffffffffffffffffffffffffffffffffffffffffffffffffffffff1916149050919050565b610e0e816116bd565b610e4d576040517f08c379a0000000000000000000000000000000000000000000000000000000008152600401610e44906123de565b60405180910390fd5b50565b600033905090565b816004600083815260200190815260200160002060006101000a81548173ffffffffffffffffffffffffffffffffffffffff021916908373ffffffffffffffffffffffffffffffffffffffff160217905550808273ffffffffffffffffffffffffffffffffffffffff16610ecb8361082d565b73ffffffffffffffffffffffffffffffffffffffff167f8c5be1e5ebec7d5bd14f71427d1e84f3dd0314c0f7b2291e5b200ac8c7c3b92560405160405180910390a45050565b600080610f1d8361082d565b90508073ffffffffffffffffffffffffffffffffffffffff168473ffffffffffffffffffffffffffffffffffffffff161480610f5f5750610f5e8185610ced565b5b80610f9d57508373ffffffffffffffffffffffffffffffffffffffff16610f8584610556565b73ffffffffffffffffffffffffffffffffffffffff16145b91505092915050565b8273ffffffffffffffffffffffffffffffffffffffff16610fc68261082d565b73ffffffffffffffffffffffffffffffffffffffff161461101c576040517f08c379a00000000000000000000000000000000000000000000000000000000081526004016110139061261a565b60405180910390fd5b600073ffffffffffffffffffffffffffffffffffffffff168273ffffffffffffffffffffffffffffffffffffffff160361108b576040517f08c379a0000000000000000000000000000000000000000000000000000000008152600401611082906126ac565b60405180910390fd5b611096838383611729565b6110a1600082610e58565b6001600360008573ffffffffffffffffffffffffffffffffffffffff1673ffffffffffffffffffffffffffffffffffffffff16815260200190815260200160002060008282546110f191906126fb565b925050819055506001600360008473ffffffffffffffffffffffffffffffffffffffff1673ffffffffffffffffffffffffffffffffffffffff1681526020019081526020016000206000828254611148919061272f565b92505081905550816002600083815260200190815260200160002060006101000a81548173ffffffffffffffffffffffffffffffffffffffff021916908373ffffffffffffffffffffffffffffffffffffffff160217905550808273ffffffffffffffffffffffffffffffffffffffff168473ffffffffffffffffffffffffffffffffffffffff167fddf252ad1be2c89b69c2b068fc378daa952ba7f163c4a11628f55a4df523b3ef60405160405180910390a461120783838361172e565b505050565b600081600001549050919050565b6001816000016000828254019250508190555050565b600073ffffffffffffffffffffffffffffffffffffffff168273ffffffffffffffffffffffffffffffffffffffff160361129f576040517f08c379a0000000000000000000000000000000000000000000000000000000008152600401611296906127d1565b60405180910390fd5b6112a8816116bd565b156112e8576040517f08c379a00000000000000000000000000000000000000000000000000000000081526004016112df9061283d565b60405180910390fd5b6112f460008383611729565b6001600360008473ffffffffffffffffffffffffffffffffffffffff1673ffffffffffffffffffffffffffffffffffffffff1681526020019081526020016000206000828254611344919061272f565b92505081905550816002600083815260200190815260200160002060006101000a81548173ffffffffffffffffffffffffffffffffffffffff021916908373ffffffffffffffffffffffffffffffffffffffff160217905550808273ffffffffffffffffffffffffffffffffffffffff16600073ffffffffffffffffffffffffffffffffffffffff167fddf252ad1be2c89b69c2b068fc378daa952ba7f163c4a11628f55a4df523b3ef60405160405180910390a46114056000838361172e565b5050565b611412826116bd565b611451576040517f08c379a0000000000000000000000000000000000000000000000000000000008152600401611448906128cf565b60405180910390fd5b806006600084815260200190815260200160002090816114719190612a9b565b505050565b8173ffffffffffffffffffffffffffffffffffffffff168373ffffffffffffffffffffffffffffffffffffffff16036114e4576040517f08c379a00000000000000000000000000000000000000000000000000000000081526004016114db90612bb9565b60405180910390fd5b80600560008573ffffffffffffffffffffffffffffffffffffffff1673ffffffffffffffffffffffffffffffffffffffff16815260200190815260200160002060008473ffffffffffffffffffffffffffffffffffffffff1673ffffffffffffffffffffffffffffffffffffffff16815260200190815260200160002060006101000a81548160ff0219169083151502179055508173ffffffffffffffffffffffffffffffffffffffff168373ffffffffffffffffffffffffffffffffffffffff167f17307eab39ab6107e8899845ad3d59bd9653f200f220920489ca2b5937696c31836040516115d59190611af1565b60405180910390a3505050565b6115ed848484610fa6565b6115f984848484611733565b611638576040517f08c379a000000000000000000000000000000000000000000000000000000000815260040161162f90612c4b565b60405180910390fd5b50505050565b606060405180602001604052806000815250905090565b606061166082610e05565b600061166a61163e565b9050600081511161168a57604051806020016040528060008152506116b5565b80611694846118ba565b6040516020016116a5929190612584565b6040516020818303038152906040525b915050919050565b60008073ffffffffffffffffffffffffffffffffffffffff166002600084815260200190815260200160002060009054906101000a900473ffffffffffffffffffffffffffffffffffffffff1673ffffffffffffffffffffffffffffffffffffffff1614159050919050565b505050565b505050565b60006117548473ffffffffffffffffffffffffffffffffffffffff16611a1a565b156118ad578373ffffffffffffffffffffffffffffffffffffffff1663150b7a0261177d610e50565b8786866040518563ffffffff1660e01b815260040161179f9493929190612cc0565b6020604051808303816000875af19250505080156117db57506040513d601f19601f820116820180604052508101906117d89190612d21565b60015b61185d573d806000811461180b576040519150601f19603f3d011682016040523d82523d6000602084013e611810565b606091505b506000815103611855576040517f08c379a000000000000000000000000000000000000000000000000000000000815260040161184c90612c4b565b60405180910390fd5b805181602001fd5b63150b7a0260e01b7bffffffffffffffffffffffffffffffffffffffffffffffffffffffff1916817bffffffffffffffffffffffffffffffffffffffffffffffffffffffff1916149150506118b2565b600190505b949350505050565b606060008203611901576040518060400160405280600181526020017f30000000000000000000000000000000000000000000000000000000000000008152509050611a15565b600082905060005b6000821461193357808061191c90612d4e565b915050600a8261192c9190612dc5565b9150611909565b60008167ffffffffffffffff81111561194f5761194e611d79565b5b6040519080825280601f01601f1916602001820160405280156119815781602001600182028036833780820191505090505b5090505b60008514611a0e5760018261199a91906126fb565b9150600a856119a99190612df6565b60306119b5919061272f565b60f81b8183815181106119cb576119ca612e27565b5b60200101907effffffffffffffffffffffffffffffffffffffffffffffffffffffffffffff1916908160001a905350600a85611a079190612dc5565b9450611985565b8093505050505b919050565b6000808273ffffffffffffffffffffffffffffffffffffffff163b119050919050565b6000604051905090565b600080fd5b600080fd5b60007fffffffff0000000000000000000000000000000000000000000000000000000082169050919050565b611a8681611a51565b8114611a9157600080fd5b50565b600081359050611aa381611a7d565b92915050565b600060208284031215611abf57611abe611a47565b5b6000611acd84828501611a94565b91505092915050565b60008115159050919050565b611aeb81611ad6565b82525050565b6000602082019050611b066000830184611ae2565b92915050565b600081519050919050565b600082825260208201905092915050565b60005b83811015611b46578082015181840152602081019050611b2b565b83811115611b55576000848401525b50505050565b6000601f19601f8301169050919050565b6000611b7782611b0c565b611b818185611b17565b9350611b91818560208601611b28565b611b9a81611b5b565b840191505092915050565b60006020820190508181036000830152611bbf8184611b6c565b905092915050565b6000819050919050565b611bda81611bc7565b8114611be557600080fd5b50565b600081359050611bf781611bd1565b92915050565b600060208284031215611c1357611c12611a47565b5b6000611c2184828501611be8565b91505092915050565b600073ffffffffffffffffffffffffffffffffffffffff82169050919050565b6000611c5582611c2a565b9050919050565b611c6581611c4a565b82525050565b6000602082019050611c806000830184611c5c565b92915050565b611c8f81611c4a565b8114611c9a57600080fd5b50565b600081359050611cac81611c86565b92915050565b60008060408385031215611cc957611cc8611a47565b5b6000611cd785828601611c9d565b9250506020611ce885828601611be8565b9150509250929050565b600080600060608486031215611d0b57611d0a611a47565b5b6000611d1986828701611c9d565b9350506020611d2a86828701611c9d565b9250506040611d3b86828701611be8565b9150509250925092565b611d4e81611bc7565b82525050565b6000602082019050611d696000830184611d45565b92915050565b600080fd5b600080fd5b7f4e487b7100000000000000000000000000000000000000000000000000000000600052604160045260246000fd5b611db182611b5b565b810181811067ffffffffffffffff82111715611dd057611dcf611d79565b5b80604052505050565b6000611de3611a3d565b9050611def8282611da8565b919050565b600067ffffffffffffffff821115611e0f57611e0e611d79565b5b611e1882611b5b565b9050602081019050919050565b82818337600083830152505050565b6000611e47611e4284611df4565b611dd9565b905082815260208101848484011115611e6357611e62611d74565b5b611e6e848285611e25565b509392505050565b600082601f830112611e8b57611e8a611d6f565b5b8135611e9b848260208601611e34565b91505092915050565b600060208284031215611eba57611eb9611a47565b5b600082013567ffffffffffffffff811115611ed857611ed7611a4c565b5b611ee484828501611e76565b91505092915050565b600060208284031215611f0357611f02611a47565b5b6000611f1184828501611c9d565b91505092915050565b611f2381611ad6565b8114611f2e57600080fd5b50565b600081359050611f4081611f1a565b92915050565b60008060408385031215611f5d57611f5c611a47565b5b6000611f6b85828601611c9d565b9250506020611f7c85828601611f31565b9150509250929050565b600067ffffffffffffffff821115611fa157611fa0611d79565b5b611faa82611b5b565b9050602081019050919050565b6000611fca611fc584611f86565b611dd9565b905082815260208101848484011115611fe657611fe5611d74565b5b611ff1848285611e25565b509392505050565b600082601f83011261200e5761200d611d6f565b5b813561201e848260208601611fb7565b91505092915050565b6000806000806080858703121561204157612040611a47565b5b600061204f87828801611c9d565b945050602061206087828801611c9d565b935050604061207187828801611be8565b925050606085013567ffffffffffffffff81111561209257612091611a4c565b5b61209e87828801611ff9565b91505092959194509250565b600080604083850312156120c1576120c0611a47565b5b60006120cf85828601611c9d565b92505060206120e085828601611c9d565b9150509250929050565b7f4e487b7100000000000000000000000000000000000000000000000000000000600052602260045260246000fd5b6000600282049050600182168061213157607f821691505b602082108103612144576121436120ea565b5b50919050565b7f4552433732313a20617070726f76616c20746f2063757272656e74206f776e6560008201527f7200000000000000000000000000000000000000000000000000000000000000602082015250565b60006121a6602183611b17565b91506121b18261214a565b604082019050919050565b600060208201905081810360008301526121d581612199565b9050919050565b7f4552433732313a20617070726f76652063616c6c6572206973206e6f7420746f60008201527f6b656e206f776e6572206e6f7220617070726f76656420666f7220616c6c0000602082015250565b6000612238603e83611b17565b9150612243826121dc565b604082019050919050565b600060208201905081810360008301526122678161222b565b9050919050565b7f4552433732313a2063616c6c6572206973206e6f7420746f6b656e206f776e6560008201527f72206e6f7220617070726f766564000000000000000000000000000000000000602082015250565b60006122ca602e83611b17565b91506122d58261226e565b604082019050919050565b600060208201905081810360008301526122f9816122bd565b9050919050565b7f4f6e6c7920746865206d61726b6574706c61636520636f6e747261637420636160008201527f6e2063616c6c20746869732066756e6374696f6e000000000000000000000000602082015250565b600061235c603483611b17565b915061236782612300565b604082019050919050565b6000602082019050818103600083015261238b8161234f565b9050919050565b7f4552433732313a20696e76616c696420746f6b656e2049440000000000000000600082015250565b60006123c8601883611b17565b91506123d382612392565b602082019050919050565b600060208201905081810360008301526123f7816123bb565b9050919050565b7f4552433732313a2061646472657373207a65726f206973206e6f74206120766160008201527f6c6964206f776e65720000000000000000000000000000000000000000000000602082015250565b600061245a602983611b17565b9150612465826123fe565b604082019050919050565b600060208201905081810360008301526124898161244d565b9050919050565b7f4164647265737320697320616c7265616479206465636c61726564206f72206f60008201527f6e6c792074686520206f776e657220636f6e74726163742063616e206368616e60208201527f67652074686520616464726573732e0000000000000000000000000000000000604082015250565b6000612512604f83611b17565b915061251d82612490565b606082019050919050565b6000602082019050818103600083015261254181612505565b9050919050565b600081905092915050565b600061255e82611b0c565b6125688185612548565b9350612578818560208601611b28565b80840191505092915050565b60006125908285612553565b915061259c8284612553565b91508190509392505050565b7f4552433732313a207472616e736665722066726f6d20696e636f72726563742060008201527f6f776e6572000000000000000000000000000000000000000000000000000000602082015250565b6000612604602583611b17565b915061260f826125a8565b604082019050919050565b60006020820190508181036000830152612633816125f7565b9050919050565b7f4552433732313a207472616e7366657220746f20746865207a65726f2061646460008201527f7265737300000000000000000000000000000000000000000000000000000000602082015250565b6000612696602483611b17565b91506126a18261263a565b604082019050919050565b600060208201905081810360008301526126c581612689565b9050919050565b7f4e487b7100000000000000000000000000000000000000000000000000000000600052601160045260246000fd5b600061270682611bc7565b915061271183611bc7565b925082821015612724576127236126cc565b5b828203905092915050565b600061273a82611bc7565b915061274583611bc7565b9250827fffffffffffffffffffffffffffffffffffffffffffffffffffffffffffffffff0382111561277a576127796126cc565b5b828201905092915050565b7f4552433732313a206d696e7420746f20746865207a65726f2061646472657373600082015250565b60006127bb602083611b17565b91506127c682612785565b602082019050919050565b600060208201905081810360008301526127ea816127ae565b9050919050565b7f4552433732313a20746f6b656e20616c7265616479206d696e74656400000000600082015250565b6000612827601c83611b17565b9150612832826127f1565b602082019050919050565b600060208201905081810360008301526128568161281a565b9050919050565b7f45524337323155524953746f726167653a2055524920736574206f66206e6f6e60008201527f6578697374656e7420746f6b656e000000000000000000000000000000000000602082015250565b60006128b9602e83611b17565b91506128c48261285d565b604082019050919050565b600060208201905081810360008301526128e8816128ac565b9050919050565b60008190508160005260206000209050919050565b60006020601f8301049050919050565b600082821b905092915050565b6000600883026129517fffffffffffffffffffffffffffffffffffffffffffffffffffffffffffffffff82612914565b61295b8683612914565b95508019841693508086168417925050509392505050565b6000819050919050565b600061299861299361298e84611bc7565b612973565b611bc7565b9050919050565b6000819050919050565b6129b28361297d565b6129c66129be8261299f565b848454612921565b825550505050565b600090565b6129db6129ce565b6129e68184846129a9565b505050565b5b81811015612a0a576129ff6000826129d3565b6001810190506129ec565b5050565b601f821115612a4f57612a20816128ef565b612a2984612904565b81016020851015612a38578190505b612a4c612a4485612904565b8301826129eb565b50505b505050565b600082821c905092915050565b6000612a7260001984600802612a54565b1980831691505092915050565b6000612a8b8383612a61565b9150826002028217905092915050565b612aa482611b0c565b67ffffffffffffffff811115612abd57612abc611d79565b5b612ac78254612119565b612ad2828285612a0e565b600060209050601f831160018114612b055760008415612af3578287015190505b612afd8582612a7f565b865550612b65565b601f198416612b13866128ef565b60005b82811015612b3b57848901518255600182019150602085019450602081019050612b16565b86831015612b585784890151612b54601f891682612a61565b8355505b6001600288020188555050505b505050505050565b7f4552433732313a20617070726f766520746f2063616c6c657200000000000000600082015250565b6000612ba3601983611b17565b9150612bae82612b6d565b602082019050919050565b60006020820190508181036000830152612bd281612b96565b9050919050565b7f4552433732313a207472616e7366657220746f206e6f6e20455243373231526560008201527f63656976657220696d706c656d656e7465720000000000000000000000000000602082015250565b6000612c35603283611b17565b9150612c4082612bd9565b604082019050919050565b60006020820190508181036000830152612c6481612c28565b9050919050565b600081519050919050565b600082825260208201905092915050565b6000612c9282612c6b565b612c9c8185612c76565b9350612cac818560208601611b28565b612cb581611b5b565b840191505092915050565b6000608082019050612cd56000830187611c5c565b612ce26020830186611c5c565b612cef6040830185611d45565b8181036060830152612d018184612c87565b905095945050505050565b600081519050612d1b81611a7d565b92915050565b600060208284031215612d3757612d36611a47565b5b6000612d4584828501612d0c565b91505092915050565b6000612d5982611bc7565b91507fffffffffffffffffffffffffffffffffffffffffffffffffffffffffffffffff8203612d8b57612d8a6126cc565b5b600182019050919050565b7f4e487b7100000000000000000000000000000000000000000000000000000000600052601260045260246000fd5b6000612dd082611bc7565b9150612ddb83611bc7565b925082612deb57612dea612d96565b5b828204905092915050565b6000612e0182611bc7565b9150612e0c83611bc7565b925082612e1c57612e1b612d96565b5b828206905092915050565b7f4e487b7100000000000000000000000000000000000000000000000000000000600052603260045260246000fdfea2646970667358221220f321a5d9ed739a5ba7cdce39eced660406ec58404f7534c783de73218ad9aa8c64736f6c634300080f0033",
  "immutableReferences": {},
  "source": "// SPDX-License-Identifier: GPL-3.0\n\npragma solidity >=0.7.0 <0.9.0;\n\nimport \"@openzeppelin/contracts/utils/Counters.sol\";\nimport \"@openzeppelin/contracts/utils/Counters.sol\";\nimport \"@openzeppelin/contracts/token/ERC721/extensions/ERC721URIStorage.sol\";\nimport \"@openzeppelin/contracts/security/ReentrancyGuard.sol\";\nimport \"@openzeppelin/contracts/token/ERC721/ERC721.sol\";\n\ncontract TrisNFT is ERC721URIStorage{\n    using Counters for Counters.Counter;\n    \n    constructor() ERC721(\"TrisNFT\", \"TRI\"){}   \n    Counters.Counter private _tokenId;\n    address contractAddress = address(this);\n\n    function mintToken(string memory tokenUri) public returns(uint256 itemId){\n        require(contractAddress == msg.sender, \"Only the marketplace contract can call this function\");\n        _tokenId.increment();\n        uint256 currentId = _tokenId.current();\n        _mint(contractAddress, currentId);\n        _setTokenURI(currentId, tokenUri);\n        return currentId;\n    }\n\n    function updateContractAddress( address marketPlaceAddress) public  {\n        require(contractAddress == address(this) || contractAddress == msg.sender, \"Address is already declared or only the  owner contract can change the address.\");\n        contractAddress = marketPlaceAddress;\n    }\n\n    function returnCurrentUser() public view returns(address){\n        return msg.sender;\n    }\n\n    /*\n        A custom function to transfer ownership from on owner to another.\n    */\n    function transferNft(address currOwner, address newOwner, uint tokenId) public {\n        transferFrom(currOwner, newOwner, tokenId);\n    }\n\n    function getLatestTokenId() public view returns(uint256 itemId){\n        return _tokenId.current();\n    }\n\n    function returnOwner(uint id) public view returns(address){\n        return ownerOf(id);\n    }\n}\n\ncontract UserContract is ReentrancyGuard{\n    using Counters for Counters.Counter;\n    Counters.Counter public userCount;\n    mapping(address => bool) public userIsRegistered;\n    mapping(address => User) private mapToUser;\n    address private trisNftAddress;\n    address private owner;\n    User[] private usersList;\n    mapping(address => mapping(bytes32 => Post)) private _postsOfUsers;\n\n    constructor(address nftAddress, address ownerAddress){\n        trisNftAddress = nftAddress;\n        owner = ownerAddress;\n        TrisNFT(nftAddress).updateContractAddress(address(this));\n    }\n\n    \n\n    /*\n        User struct for storing user data. \n        name, userName, userAddress are required as in the UI the rest can be 0 or empty.\n     */\n    struct User{\n        string name;\n        string userName;\n        string avatarUrl;\n        string bio;\n        string wallUrl;\n        string email;\n        uint256 followersCount;\n        uint256 followingCount;\n        bytes32[] postCount;\n        address userAddress;\n        address[] followers;\n        address[] following;\n    }\n\n    /*\n        Post struct for storing the posts of each user.\n        The token id connects post to the nft in ./Tris_NFT.sol\n\n        A post can be either NFT or a regular post\n     */\n    struct Post{\n        string post;\n        bytes32 postId;\n        uint256 likes;\n        string title;\n        bool isForSale;\n        bool postIsBought;\n        uint256 commentsCount;\n        address owner;\n        address payable seller;\n        string[] comments;\n        uint256 priceByOwner;\n        uint256 basePrice;\n        bool isNft;\n        uint256 tokenId;\n    }\n\n    /*\n        Events \n     */\n    event UserCreated (string name, string userName, string avatarUrl, address userAddress);\n    event PostUploaded(string title, string post, bytes32 postId, uint256 tokenId, uint256 priceByOwner, uint256 basePrice, address owner, address seller);\n    event PostSold(string post, address owner, address seller, uint256 price);\n\n    function createUser(address account, string memory name, string memory userName, string memory avatarUrl, string memory email, string memory bio, string memory wallUrl) public {\n        require(userIsRegistered[account] != true, \"User already exists\");\n        User storage userData = mapToUser[account];\n        userData.name = name;\n        userData.userName = userName;\n        userData.avatarUrl = avatarUrl;\n        userData.bio = bio;\n        userData.wallUrl = wallUrl;\n        userData.userAddress = account;\n        userData.email = email;\n        userCount.increment();\n        userIsRegistered[account] = true;\n        usersList.push(userData);\n        emit UserCreated(userData.name, userData.userName, userData.avatarUrl, userData.userAddress);\n    }\n\n    /*\n        Function to upload post. This requires the post parameters, \n        and uploads the post as either nft or a regular post.\n    */\n    function uploadPost(string memory title, string memory post, bool isNft, uint256 priceByOwner, bool isForSale, address account) public nonReentrant{\n        require(userIsRegistered[account] == true, \"User not registered.\");\n        User storage currUser = mapToUser[account];\n\n        uint256 tokenId;\n\n        if(isNft){\n            tokenId = TrisNFT(trisNftAddress).mintToken(post);\n        }\n\n        currUser.postCount.push(callKeccak256(post));\n        Post memory currPost = Post(\n            {\n                post: post,\n                postId: callKeccak256(post),\n                likes: 0,\n                title: title,\n                postIsBought: false,\n                isForSale: isNft ? isForSale : false,\n                isNft: isNft,\n                commentsCount: 0,\n                priceByOwner: isNft ? priceByOwner : 0,\n                comments: new string[](0),\n                tokenId: isNft ? tokenId : 0,\n                basePrice: isNft ? 10 : 0,\n                owner: isNft ? (address(this)) : (address(0)),\n                seller: isNft ? payable(account) : payable(address(0))\n            }\n        );\n\n        _postsOfUsers[account][callKeccak256(post)] = currPost;\n        emit PostUploaded(currPost.title, currPost.post, currPost.postId, currPost.tokenId, priceByOwner, 10, currPost.owner, currPost.seller);\n    }\n\n\n    /*\n        Dedicated function to buy/sell nfts before selling the nft owner should make sure he has \n        made the NFT avaialbe for sale and the post is NFT. \n        Before call this function the transferNFT in TrisNFT contract should be called to transfer the ownership.\n        That function can't be called form this function because that checks for msg.sender to be equal to \n        post owner but when called from here msg.sender is the address of this contract and not the owner.\n        - If the post is already sold then it will be checked in the frontend throught the postIsBought parameter\n          only if the postIsBought turns out to be true then the the method in the TrisNft will be called.\n    */\n    function buyPost(address ownerAddress, bytes32 postId, address newOwnerAddress) public payable nonReentrant{\n        Post storage currPost = _postsOfUsers[ownerAddress][postId];\n        require(userIsRegistered[newOwnerAddress] == true, \"User not registered\");\n        require(currPost.isNft == true, \"Post is not an nft\");\n        require(userIsRegistered[ownerAddress] == true, \"User not registered\");\n        require(currPost.isForSale == true, \"Post not for sale\");\n        uint256 price = msg.value;\n        User storage newUser = mapToUser[newOwnerAddress];\n        require(price >= currPost.basePrice, \"Amount should be greater than base price of the post.\");\n        if(currPost.postIsBought == false){\n            IERC721(trisNftAddress).transferFrom(address(this), newOwnerAddress, currPost.tokenId);\n        }\n        currPost.seller.transfer(msg.value);\n        currPost.owner = (newOwnerAddress);\n        currPost.seller = payable(newOwnerAddress);\n        removePost(postId, ownerAddress);\n        currPost.postIsBought = true;\n        _postsOfUsers[newOwnerAddress][postId] = currPost;\n        delete _postsOfUsers[ownerAddress][postId];\n        newUser.postCount.push(postId);\n    }\n\n    function getUserList() public view returns(User[] memory){\n        return usersList;\n    }\n\n    function updatePostForSale(bytes32 id, bool isForSale, address account) public {\n        require(userIsRegistered[account] == true, \"User not registered\");\n        _postsOfUsers[account][id].isForSale = isForSale;\n    }\n\n    \n\n    function getUserPosts(address sender) public view returns (Post[] memory userPosts){\n        require(userIsRegistered[sender] == true, \"User not registered.\");\n        User storage currUser = mapToUser[sender];\n        uint userPostCount = currUser.postCount.length;\n        Post[] memory currUserPosts = new Post[](userPostCount);\n        uint currentIndex = 0;\n        for(uint i = 0; i < userPostCount; i++){\n           Post storage currPost = _postsOfUsers[sender][currUser.postCount[currentIndex]];\n           currUserPosts[currentIndex] = currPost;\n           currentIndex += 1;\n        }\n\n        return currUserPosts;\n    }\n\n    function removePost(bytes32 postId, address postOwner) internal {\n        bytes32[] storage postCount = mapToUser[postOwner].postCount;\n        uint index;\n        for(uint i = 0; i < postCount.length; i++){\n            if(postCount[i] == postId){\n                index = i;\n                break;\n            }\n        }\n        for(uint i = index; i < postCount.length - 1; i++){\n            postCount[i] = postCount[i + 1];\n        }\n        postCount.pop();\n    }\n\n    function likePost(address postOwner, bytes32 postId, address userAddress) public {\n        require(userIsRegistered[userAddress] == true, \"User not registered\");\n        Post storage currPost = _postsOfUsers[postOwner][postId];\n        currPost.likes += 1;\n    }\n\n    function postComment( address postOwner, string memory comment, bytes32 postId, address sender ) public {\n        require(userIsRegistered[sender] == true, \"User not registered\");\n        Post storage currPost = _postsOfUsers[postOwner][postId];\n        currPost.commentsCount += 1;\n        currPost.comments.push(comment);\n    }\n\n    function getUserData(address account) public view returns(User memory){\n        require(userIsRegistered[account] == true, \"User not registered.\");\n        return mapToUser[account];\n    } \n\n    function callKeccak256(string memory post) public pure returns( bytes32 result){\n      return keccak256(abi.encodePacked(post));\n   }  \n\n}\n",
  "sourcePath": "/home/astar/Documents/tris/contracts/User.sol",
  "compiler": {
    "name": "solc",
    "version": "0.8.15+commit.e14f2714.Emscripten.clang"
  },
  "schemaVersion": "3.4.8",
  "updatedAt": "2022-07-24T13:52:18.945Z",
  "networkType": "ethereum",
  "devdoc": {
    "kind": "dev",
    "methods": {
      "approve(address,uint256)": {
        "details": "See {IERC721-approve}."
      },
      "balanceOf(address)": {
        "details": "See {IERC721-balanceOf}."
      },
      "getApproved(uint256)": {
        "details": "See {IERC721-getApproved}."
      },
      "isApprovedForAll(address,address)": {
        "details": "See {IERC721-isApprovedForAll}."
      },
      "name()": {
        "details": "See {IERC721Metadata-name}."
      },
      "ownerOf(uint256)": {
        "details": "See {IERC721-ownerOf}."
      },
      "safeTransferFrom(address,address,uint256)": {
        "details": "See {IERC721-safeTransferFrom}."
      },
      "safeTransferFrom(address,address,uint256,bytes)": {
        "details": "See {IERC721-safeTransferFrom}."
      },
      "setApprovalForAll(address,bool)": {
        "details": "See {IERC721-setApprovalForAll}."
      },
      "supportsInterface(bytes4)": {
        "details": "See {IERC165-supportsInterface}."
      },
      "symbol()": {
        "details": "See {IERC721Metadata-symbol}."
      },
      "tokenURI(uint256)": {
        "details": "See {IERC721Metadata-tokenURI}."
      },
      "transferFrom(address,address,uint256)": {
        "details": "See {IERC721-transferFrom}."
      }
    },
    "version": 1
  },
  "userdoc": {
    "kind": "user",
    "methods": {},
    "version": 1
  }
}