{
  "contractName": "UserContract",
  "abi": [
    {
      "inputs": [
        {
          "internalType": "address",
          "name": "nftAddress",
          "type": "address"
        },
        {
          "internalType": "address",
          "name": "ownerAddress",
          "type": "address"
        }
      ],
      "stateMutability": "nonpayable",
      "type": "constructor"
    },
    {
      "anonymous": false,
      "inputs": [
        {
          "indexed": false,
          "internalType": "string",
          "name": "post",
          "type": "string"
        },
        {
          "indexed": false,
          "internalType": "address",
          "name": "owner",
          "type": "address"
        },
        {
          "indexed": false,
          "internalType": "address",
          "name": "seller",
          "type": "address"
        },
        {
          "indexed": false,
          "internalType": "uint256",
          "name": "price",
          "type": "uint256"
        }
      ],
      "name": "PostSold",
      "type": "event"
    },
    {
      "anonymous": false,
      "inputs": [
        {
          "indexed": false,
          "internalType": "string",
          "name": "title",
          "type": "string"
        },
        {
          "indexed": false,
          "internalType": "string",
          "name": "post",
          "type": "string"
        },
        {
          "indexed": false,
          "internalType": "bytes32",
          "name": "postId",
          "type": "bytes32"
        },
        {
          "indexed": false,
          "internalType": "uint256",
          "name": "tokenId",
          "type": "uint256"
        },
        {
          "indexed": false,
          "internalType": "uint256",
          "name": "priceByOwner",
          "type": "uint256"
        },
        {
          "indexed": false,
          "internalType": "uint256",
          "name": "basePrice",
          "type": "uint256"
        },
        {
          "indexed": false,
          "internalType": "address",
          "name": "owner",
          "type": "address"
        },
        {
          "indexed": false,
          "internalType": "address",
          "name": "seller",
          "type": "address"
        }
      ],
      "name": "PostUploaded",
      "type": "event"
    },
    {
      "anonymous": false,
      "inputs": [
        {
          "indexed": false,
          "internalType": "string",
          "name": "name",
          "type": "string"
        },
        {
          "indexed": false,
          "internalType": "string",
          "name": "userName",
          "type": "string"
        },
        {
          "indexed": false,
          "internalType": "string",
          "name": "avatarUrl",
          "type": "string"
        },
        {
          "indexed": false,
          "internalType": "address",
          "name": "userAddress",
          "type": "address"
        }
      ],
      "name": "UserCreated",
      "type": "event"
    },
    {
      "inputs": [],
      "name": "userCount",
      "outputs": [
        {
          "internalType": "uint256",
          "name": "_value",
          "type": "uint256"
        }
      ],
      "stateMutability": "view",
      "type": "function"
    },
    {
      "inputs": [
        {
          "internalType": "address",
          "name": "",
          "type": "address"
        }
      ],
      "name": "userIsRegistered",
      "outputs": [
        {
          "internalType": "bool",
          "name": "",
          "type": "bool"
        }
      ],
      "stateMutability": "view",
      "type": "function"
    },
    {
      "inputs": [
        {
          "internalType": "address",
          "name": "account",
          "type": "address"
        },
        {
          "internalType": "string",
          "name": "name",
          "type": "string"
        },
        {
          "internalType": "string",
          "name": "userName",
          "type": "string"
        },
        {
          "internalType": "string",
          "name": "avatarUrl",
          "type": "string"
        },
        {
          "internalType": "string",
          "name": "email",
          "type": "string"
        },
        {
          "internalType": "string",
          "name": "bio",
          "type": "string"
        },
        {
          "internalType": "string",
          "name": "wallUrl",
          "type": "string"
        }
      ],
      "name": "createUser",
      "outputs": [],
      "stateMutability": "nonpayable",
      "type": "function"
    },
    {
      "inputs": [
        {
          "internalType": "string",
          "name": "title",
          "type": "string"
        },
        {
          "internalType": "string",
          "name": "post",
          "type": "string"
        },
        {
          "internalType": "bool",
          "name": "isNft",
          "type": "bool"
        },
        {
          "internalType": "uint256",
          "name": "priceByOwner",
          "type": "uint256"
        },
        {
          "internalType": "bool",
          "name": "isForSale",
          "type": "bool"
        }
      ],
      "name": "uploadPost",
      "outputs": [],
      "stateMutability": "nonpayable",
      "type": "function"
    },
    {
      "inputs": [
        {
          "internalType": "address",
          "name": "ownerAddress",
          "type": "address"
        },
        {
          "internalType": "bytes32",
          "name": "postId",
          "type": "bytes32"
        },
        {
          "internalType": "address",
          "name": "newOwnerAddress",
          "type": "address"
        }
      ],
      "name": "buyPost",
      "outputs": [],
      "stateMutability": "payable",
      "type": "function"
    },
    {
      "inputs": [],
      "name": "getUserList",
      "outputs": [
        {
          "components": [
            {
              "internalType": "string",
              "name": "name",
              "type": "string"
            },
            {
              "internalType": "string",
              "name": "userName",
              "type": "string"
            },
            {
              "internalType": "string",
              "name": "avatarUrl",
              "type": "string"
            },
            {
              "internalType": "string",
              "name": "bio",
              "type": "string"
            },
            {
              "internalType": "string",
              "name": "wallUrl",
              "type": "string"
            },
            {
              "internalType": "string",
              "name": "email",
              "type": "string"
            },
            {
              "internalType": "uint256",
              "name": "followersCount",
              "type": "uint256"
            },
            {
              "internalType": "uint256",
              "name": "followingCount",
              "type": "uint256"
            },
            {
              "internalType": "bytes32[]",
              "name": "postCount",
              "type": "bytes32[]"
            },
            {
              "internalType": "address",
              "name": "userAddress",
              "type": "address"
            },
            {
              "internalType": "address[]",
              "name": "followers",
              "type": "address[]"
            },
            {
              "internalType": "address[]",
              "name": "following",
              "type": "address[]"
            }
          ],
          "internalType": "struct UserContract.User[]",
          "name": "",
          "type": "tuple[]"
        }
      ],
      "stateMutability": "view",
      "type": "function"
    },
    {
      "inputs": [
        {
          "internalType": "bytes32",
          "name": "id",
          "type": "bytes32"
        },
        {
          "internalType": "bool",
          "name": "isForSale",
          "type": "bool"
        },
        {
          "internalType": "address",
          "name": "account",
          "type": "address"
        }
      ],
      "name": "updatePostForSale",
      "outputs": [],
      "stateMutability": "nonpayable",
      "type": "function"
    },
    {
      "inputs": [],
      "name": "getUserPosts",
      "outputs": [
        {
          "components": [
            {
              "internalType": "string",
              "name": "post",
              "type": "string"
            },
            {
              "internalType": "bytes32",
              "name": "postId",
              "type": "bytes32"
            },
            {
              "internalType": "uint256",
              "name": "likes",
              "type": "uint256"
            },
            {
              "internalType": "string",
              "name": "title",
              "type": "string"
            },
            {
              "internalType": "bool",
              "name": "isForSale",
              "type": "bool"
            },
            {
              "internalType": "bool",
              "name": "postIsBought",
              "type": "bool"
            },
            {
              "internalType": "uint256",
              "name": "commentsCount",
              "type": "uint256"
            },
            {
              "internalType": "address",
              "name": "owner",
              "type": "address"
            },
            {
              "internalType": "address payable",
              "name": "seller",
              "type": "address"
            },
            {
              "internalType": "string[]",
              "name": "comments",
              "type": "string[]"
            },
            {
              "internalType": "uint256",
              "name": "priceByOwner",
              "type": "uint256"
            },
            {
              "internalType": "uint256",
              "name": "basePrice",
              "type": "uint256"
            },
            {
              "internalType": "bool",
              "name": "isNft",
              "type": "bool"
            },
            {
              "internalType": "uint256",
              "name": "tokenId",
              "type": "uint256"
            }
          ],
          "internalType": "struct UserContract.Post[]",
          "name": "userPosts",
          "type": "tuple[]"
        }
      ],
      "stateMutability": "view",
      "type": "function"
    },
    {
      "inputs": [
        {
          "internalType": "address",
          "name": "postOwner",
          "type": "address"
        },
        {
          "internalType": "bytes32",
          "name": "postId",
          "type": "bytes32"
        }
      ],
      "name": "likePost",
      "outputs": [],
      "stateMutability": "nonpayable",
      "type": "function"
    },
    {
      "inputs": [
        {
          "internalType": "address",
          "name": "postOwner",
          "type": "address"
        },
        {
          "internalType": "string",
          "name": "comment",
          "type": "string"
        },
        {
          "internalType": "bytes32",
          "name": "postId",
          "type": "bytes32"
        }
      ],
      "name": "postComment",
      "outputs": [],
      "stateMutability": "nonpayable",
      "type": "function"
    },
    {
      "inputs": [
        {
          "internalType": "address",
          "name": "account",
          "type": "address"
        }
      ],
      "name": "getUserData",
      "outputs": [
        {
          "components": [
            {
              "internalType": "string",
              "name": "name",
              "type": "string"
            },
            {
              "internalType": "string",
              "name": "userName",
              "type": "string"
            },
            {
              "internalType": "string",
              "name": "avatarUrl",
              "type": "string"
            },
            {
              "internalType": "string",
              "name": "bio",
              "type": "string"
            },
            {
              "internalType": "string",
              "name": "wallUrl",
              "type": "string"
            },
            {
              "internalType": "string",
              "name": "email",
              "type": "string"
            },
            {
              "internalType": "uint256",
              "name": "followersCount",
              "type": "uint256"
            },
            {
              "internalType": "uint256",
              "name": "followingCount",
              "type": "uint256"
            },
            {
              "internalType": "bytes32[]",
              "name": "postCount",
              "type": "bytes32[]"
            },
            {
              "internalType": "address",
              "name": "userAddress",
              "type": "address"
            },
            {
              "internalType": "address[]",
              "name": "followers",
              "type": "address[]"
            },
            {
              "internalType": "address[]",
              "name": "following",
              "type": "address[]"
            }
          ],
          "internalType": "struct UserContract.User",
          "name": "",
          "type": "tuple"
        }
      ],
      "stateMutability": "view",
      "type": "function"
    },
    {
      "inputs": [
        {
          "internalType": "string",
          "name": "post",
          "type": "string"
        }
      ],
      "name": "callKeccak256",
      "outputs": [
        {
          "internalType": "bytes32",
          "name": "result",
          "type": "bytes32"
        }
      ],
      "stateMutability": "pure",
      "type": "function"
    }
  ],
  "bytecode": "0x60806040523480156200001157600080fd5b5060405162004c2138038062004c218339818101604052810190620000379190620001a2565b600160008190555081600460006101000a81548173ffffffffffffffffffffffffffffffffffffffff021916908373ffffffffffffffffffffffffffffffffffffffff16021790555080600560006101000a81548173ffffffffffffffffffffffffffffffffffffffff021916908373ffffffffffffffffffffffffffffffffffffffff1602179055508173ffffffffffffffffffffffffffffffffffffffff1663bdf3e088306040518263ffffffff1660e01b8152600401620000fc9190620001fa565b600060405180830381600087803b1580156200011757600080fd5b505af11580156200012c573d6000803e3d6000fd5b50505050505062000217565b600080fd5b600073ffffffffffffffffffffffffffffffffffffffff82169050919050565b60006200016a826200013d565b9050919050565b6200017c816200015d565b81146200018857600080fd5b50565b6000815190506200019c8162000171565b92915050565b60008060408385031215620001bc57620001bb62000138565b5b6000620001cc858286016200018b565b9250506020620001df858286016200018b565b9150509250929050565b620001f4816200015d565b82525050565b6000602082019050620002116000830184620001e9565b92915050565b6149fa80620002276000396000f3fe6080604052600436106100a75760003560e01c806362d5f2601161006457806362d5f260146101975780636c216d06146101c0578063b8522043146101fd578063cc4ef2cc14610228578063f6f1971514610253578063ffc9896b14610290576100a7565b806307973ccf146100ac5780632b946252146100d757806333898b4f146101005780634546a98e14610129578063548627ba146101455780635c8557fd1461016e575b600080fd5b3480156100b857600080fd5b506100c16102cd565b6040516100ce9190612e70565b60405180910390f35b3480156100e357600080fd5b506100fe60048036038101906100f99190613043565b6102d9565b005b34801561010c57600080fd5b50610127600480360381019061012291906131f1565b6106a0565b005b610143600480360381019061013e91906132da565b610c25565b005b34801561015157600080fd5b5061016c6004803603810190610167919061332d565b611502565b005b34801561017a57600080fd5b506101956004803603810190610190919061339c565b611642565b005b3480156101a357600080fd5b506101be60048036038101906101b991906133ef565b611745565b005b3480156101cc57600080fd5b506101e760048036038101906101e2919061342f565b61184d565b6040516101f49190613487565b60405180910390f35b34801561020957600080fd5b5061021261187d565b60405161021f91906138b3565b60405180910390f35b34801561023457600080fd5b5061023d611e27565b60405161024a9190613bc5565b60405180910390f35b34801561025f57600080fd5b5061027a60048036038101906102759190613be7565b612372565b6040516102879190613c23565b60405180910390f35b34801561029c57600080fd5b506102b760048036038101906102b29190613be7565b612392565b6040516102c49190613d7a565b60405180910390f35b60018060000154905081565b60011515600260008973ffffffffffffffffffffffffffffffffffffffff1673ffffffffffffffffffffffffffffffffffffffff16815260200190815260200160002060009054906101000a900460ff1615150361036c576040517f08c379a000000000000000000000000000000000000000000000000000000000815260040161036390613df9565b60405180910390fd5b6000600360008973ffffffffffffffffffffffffffffffffffffffff1673ffffffffffffffffffffffffffffffffffffffff1681526020019081526020016000209050868160000190816103c09190614025565b50858160010190816103d29190614025565b50848160020190816103e49190614025565b50828160030190816103f69190614025565b50818160040190816104089190614025565b50878160090160006101000a81548173ffffffffffffffffffffffffffffffffffffffff021916908373ffffffffffffffffffffffffffffffffffffffff1602179055508381600501908161045d9190614025565b5061046860016129c9565b6001600260008a73ffffffffffffffffffffffffffffffffffffffff1673ffffffffffffffffffffffffffffffffffffffff16815260200190815260200160002060006101000a81548160ff02191690831515021790555060068190806001815401808255809150506001900390600052602060002090600c020160009091909190915060008201816000019081610500919061410d565b5060018201816001019081610515919061410d565b506002820181600201908161052a919061410d565b506003820181600301908161053f919061410d565b5060048201816004019081610554919061410d565b5060058201816005019081610569919061410d565b5060068201548160060155600782015481600701556008820181600801908054610594929190612b23565b506009820160009054906101000a900473ffffffffffffffffffffffffffffffffffffffff168160090160006101000a81548173ffffffffffffffffffffffffffffffffffffffff021916908373ffffffffffffffffffffffffffffffffffffffff160217905550600a820181600a01908054610612929190612b75565b50600b820181600b01908054610629929190612b75565b5050507f3500268ebdfdd25b305294ab9516187c34eb908aa8b91d7a48ea6ccfafe4158a8160000182600101836002018460090160009054906101000a900473ffffffffffffffffffffffffffffffffffffffff1660405161068e9493929190614288565b60405180910390a15050505050505050565b6002600054036106e5576040517f08c379a00000000000000000000000000000000000000000000000000000000081526004016106dc9061432e565b60405180910390fd5b600260008190555060011515600260003373ffffffffffffffffffffffffffffffffffffffff1673ffffffffffffffffffffffffffffffffffffffff16815260200190815260200160002060009054906101000a900460ff16151514610780576040517f08c379a00000000000000000000000000000000000000000000000000000000081526004016107779061439a565b60405180910390fd5b6000600360003373ffffffffffffffffffffffffffffffffffffffff1673ffffffffffffffffffffffffffffffffffffffff16815260200190815260200160002090506000841561086c57600460009054906101000a900473ffffffffffffffffffffffffffffffffffffffff1673ffffffffffffffffffffffffffffffffffffffff166333eba49a876040518263ffffffff1660e01b815260040161082691906143f3565b6020604051808303816000875af1158015610845573d6000803e3d6000fd5b505050506040513d601f19601f82011682018060405250810190610869919061442a565b90505b816008016108798761184d565b90806001815401808255809150506001900390600052602060002001600090919091909150556000604051806101c001604052808881526020016108bc8961184d565b815260200160008152602001898152602001876108da5760006108dc565b855b1515815260200160001515815260200160008152602001876108ff576000610901565b305b73ffffffffffffffffffffffffffffffffffffffff1681526020018761092857600061092a565b335b73ffffffffffffffffffffffffffffffffffffffff168152602001600067ffffffffffffffff8111156109605761095f612f18565b5b60405190808252806020026020018201604052801561099357816020015b606081526020019060019003908161097e5790505b508152602001876109a55760006109a7565b865b8152602001876109b85760006109bb565b600a5b60ff1681526020018715158152602001876109d75760006109d9565b835b815250905080600760003373ffffffffffffffffffffffffffffffffffffffff1673ffffffffffffffffffffffffffffffffffffffff1681526020019081526020016000206000610a298a61184d565b81526020019081526020016000206000820151816000019081610a4c9190614025565b5060208201518160010155604082015181600201556060820151816003019081610a769190614025565b5060808201518160040160006101000a81548160ff02191690831515021790555060a08201518160040160016101000a81548160ff02191690831515021790555060c0820151816005015560e08201518160060160006101000a81548173ffffffffffffffffffffffffffffffffffffffff021916908373ffffffffffffffffffffffffffffffffffffffff1602179055506101008201518160070160006101000a81548173ffffffffffffffffffffffffffffffffffffffff021916908373ffffffffffffffffffffffffffffffffffffffff160217905550610120820151816008019080519060200190610b6d929190612bc7565b50610140820151816009015561016082015181600a015561018082015181600b0160006101000a81548160ff0219169083151502179055506101a082015181600c01559050507f72d2ff68e942d073bdcb19dbadc9e768208026219f8d884b765175ff7f671a9c816060015182600001518360200151846101a0015189600a8760e00151886101000151604051610c0b9897969594939291906144e7565b60405180910390a150505060016000819055505050505050565b600260005403610c6a576040517f08c379a0000000000000000000000000000000000000000000000000000000008152600401610c619061432e565b60405180910390fd5b60026000819055506000600760008573ffffffffffffffffffffffffffffffffffffffff1673ffffffffffffffffffffffffffffffffffffffff1681526020019081526020016000206000848152602001908152602001600020905060011515600260003373ffffffffffffffffffffffffffffffffffffffff1673ffffffffffffffffffffffffffffffffffffffff16815260200190815260200160002060009054906101000a900460ff16151514610d59576040517f08c379a0000000000000000000000000000000000000000000000000000000008152600401610d50906145bf565b60405180910390fd5b6001151581600b0160009054906101000a900460ff16151514610db1576040517f08c379a0000000000000000000000000000000000000000000000000000000008152600401610da89061462b565b60405180910390fd5b8173ffffffffffffffffffffffffffffffffffffffff163373ffffffffffffffffffffffffffffffffffffffff1614610e1f576040517f08c379a0000000000000000000000000000000000000000000000000000000008152600401610e16906146bd565b60405180910390fd5b60011515600260008673ffffffffffffffffffffffffffffffffffffffff1673ffffffffffffffffffffffffffffffffffffffff16815260200190815260200160002060009054906101000a900460ff16151514610eb2576040517f08c379a0000000000000000000000000000000000000000000000000000000008152600401610ea9906145bf565b60405180910390fd5b600115158160040160009054906101000a900460ff16151514610f0a576040517f08c379a0000000000000000000000000000000000000000000000000000000008152600401610f0190614729565b60405180910390fd5b60003490506000600360008573ffffffffffffffffffffffffffffffffffffffff1673ffffffffffffffffffffffffffffffffffffffff168152602001908152602001600020905082600a0154821015610f99576040517f08c379a0000000000000000000000000000000000000000000000000000000008152600401610f90906147bb565b60405180910390fd5b600015158360040160019054906101000a900460ff1615150361104c57600460009054906101000a900473ffffffffffffffffffffffffffffffffffffffff1673ffffffffffffffffffffffffffffffffffffffff166323b872dd308686600c01546040518463ffffffff1660e01b8152600401611019939291906147db565b600060405180830381600087803b15801561103357600080fd5b505af1158015611047573d6000803e3d6000fd5b505050505b8260070160009054906101000a900473ffffffffffffffffffffffffffffffffffffffff1673ffffffffffffffffffffffffffffffffffffffff166108fc349081150290604051600060405180830381858888f193505050501580156110b6573d6000803e3d6000fd5b50838360060160006101000a81548173ffffffffffffffffffffffffffffffffffffffff021916908373ffffffffffffffffffffffffffffffffffffffff160217905550838360070160006101000a81548173ffffffffffffffffffffffffffffffffffffffff021916908373ffffffffffffffffffffffffffffffffffffffff16021790555061114785876129df565b60018360040160016101000a81548160ff02191690831515021790555082600760008673ffffffffffffffffffffffffffffffffffffffff1673ffffffffffffffffffffffffffffffffffffffff1681526020019081526020016000206000878152602001908152602001600020600082018160000190816111c9919061410d565b506001820154816001015560028201548160020155600382018160030190816111f2919061410d565b506004820160009054906101000a900460ff168160040160006101000a81548160ff0219169083151502179055506004820160019054906101000a900460ff168160040160016101000a81548160ff021916908315150217905550600582015481600501556006820160009054906101000a900473ffffffffffffffffffffffffffffffffffffffff168160060160006101000a81548173ffffffffffffffffffffffffffffffffffffffff021916908373ffffffffffffffffffffffffffffffffffffffff1602179055506007820160009054906101000a900473ffffffffffffffffffffffffffffffffffffffff168160070160006101000a81548173ffffffffffffffffffffffffffffffffffffffff021916908373ffffffffffffffffffffffffffffffffffffffff160217905550600882018160080190805461133b929190612c20565b5060098201548160090155600a82015481600a0155600b820160009054906101000a900460ff1681600b0160006101000a81548160ff021916908315150217905550600c82015481600c0155905050600760008773ffffffffffffffffffffffffffffffffffffffff1673ffffffffffffffffffffffffffffffffffffffff1681526020019081526020016000206000868152602001908152602001600020600080820160006113eb9190612c7d565b6001820160009055600282016000905560038201600061140b9190612c7d565b6004820160006101000a81549060ff02191690556004820160016101000a81549060ff021916905560058201600090556006820160006101000a81549073ffffffffffffffffffffffffffffffffffffffff02191690556007820160006101000a81549073ffffffffffffffffffffffffffffffffffffffff02191690556008820160006114999190612cbd565b6009820160009055600a820160009055600b820160006101000a81549060ff0219169055600c8201600090555050806008018590806001815401808255809150506001900390600052602060002001600090919091909150555050506001600081905550505050565b60011515600260003373ffffffffffffffffffffffffffffffffffffffff1673ffffffffffffffffffffffffffffffffffffffff16815260200190815260200160002060009054906101000a900460ff16151514611595576040517f08c379a000000000000000000000000000000000000000000000000000000000815260040161158c906145bf565b60405180910390fd5b6000600760008573ffffffffffffffffffffffffffffffffffffffff1673ffffffffffffffffffffffffffffffffffffffff1681526020019081526020016000206000838152602001908152602001600020905060018160050160008282546115fe9190614841565b92505081905550806008018390806001815401808255809150506001900390600052602060002001600090919091909150908161163b9190614025565b5050505050565b60011515600260008373ffffffffffffffffffffffffffffffffffffffff1673ffffffffffffffffffffffffffffffffffffffff16815260200190815260200160002060009054906101000a900460ff161515146116d5576040517f08c379a00000000000000000000000000000000000000000000000000000000081526004016116cc906145bf565b60405180910390fd5b81600760008373ffffffffffffffffffffffffffffffffffffffff1673ffffffffffffffffffffffffffffffffffffffff168152602001908152602001600020600085815260200190815260200160002060040160006101000a81548160ff021916908315150217905550505050565b60011515600260003373ffffffffffffffffffffffffffffffffffffffff1673ffffffffffffffffffffffffffffffffffffffff16815260200190815260200160002060009054906101000a900460ff161515146117d8576040517f08c379a00000000000000000000000000000000000000000000000000000000081526004016117cf906145bf565b60405180910390fd5b6000600760008473ffffffffffffffffffffffffffffffffffffffff1673ffffffffffffffffffffffffffffffffffffffff1681526020019081526020016000206000838152602001908152602001600020905060018160020160008282546118419190614841565b92505081905550505050565b60008160405160200161186091906148d3565b604051602081830303815290604052805190602001209050919050565b60606006805480602002602001604051908101604052809291908181526020016000905b82821015611e1e57838290600052602060002090600c0201604051806101800160405290816000820180546118d590613e48565b80601f016020809104026020016040519081016040528092919081815260200182805461190190613e48565b801561194e5780601f106119235761010080835404028352916020019161194e565b820191906000526020600020905b81548152906001019060200180831161193157829003601f168201915b5050505050815260200160018201805461196790613e48565b80601f016020809104026020016040519081016040528092919081815260200182805461199390613e48565b80156119e05780601f106119b5576101008083540402835291602001916119e0565b820191906000526020600020905b8154815290600101906020018083116119c357829003601f168201915b505050505081526020016002820180546119f990613e48565b80601f0160208091040260200160405190810160405280929190818152602001828054611a2590613e48565b8015611a725780601f10611a4757610100808354040283529160200191611a72565b820191906000526020600020905b815481529060010190602001808311611a5557829003601f168201915b50505050508152602001600382018054611a8b90613e48565b80601f0160208091040260200160405190810160405280929190818152602001828054611ab790613e48565b8015611b045780601f10611ad957610100808354040283529160200191611b04565b820191906000526020600020905b815481529060010190602001808311611ae757829003601f168201915b50505050508152602001600482018054611b1d90613e48565b80601f0160208091040260200160405190810160405280929190818152602001828054611b4990613e48565b8015611b965780601f10611b6b57610100808354040283529160200191611b96565b820191906000526020600020905b815481529060010190602001808311611b7957829003601f168201915b50505050508152602001600582018054611baf90613e48565b80601f0160208091040260200160405190810160405280929190818152602001828054611bdb90613e48565b8015611c285780601f10611bfd57610100808354040283529160200191611c28565b820191906000526020600020905b815481529060010190602001808311611c0b57829003601f168201915b50505050508152602001600682015481526020016007820154815260200160088201805480602002602001604051908101604052809291908181526020018280548015611c9457602002820191906000526020600020905b815481526020019060010190808311611c80575b505050505081526020016009820160009054906101000a900473ffffffffffffffffffffffffffffffffffffffff1673ffffffffffffffffffffffffffffffffffffffff1673ffffffffffffffffffffffffffffffffffffffff168152602001600a8201805480602002602001604051908101604052809291908181526020018280548015611d7857602002820191906000526020600020905b8160009054906101000a900473ffffffffffffffffffffffffffffffffffffffff1673ffffffffffffffffffffffffffffffffffffffff1681526020019060010190808311611d2e575b50505050508152602001600b8201805480602002602001604051908101604052809291908181526020018280548015611e0657602002820191906000526020600020905b8160009054906101000a900473ffffffffffffffffffffffffffffffffffffffff1673ffffffffffffffffffffffffffffffffffffffff1681526020019060010190808311611dbc575b505050505081525050815260200190600101906118a1565b50505050905090565b606060011515600260003373ffffffffffffffffffffffffffffffffffffffff1673ffffffffffffffffffffffffffffffffffffffff16815260200190815260200160002060009054906101000a900460ff16151514611ebc576040517f08c379a0000000000000000000000000000000000000000000000000000000008152600401611eb39061439a565b60405180910390fd5b6000600360003373ffffffffffffffffffffffffffffffffffffffff1673ffffffffffffffffffffffffffffffffffffffff168152602001908152602001600020905060008160080180549050905060008167ffffffffffffffff811115611f2757611f26612f18565b5b604051908082528060200260200182016040528015611f6057816020015b611f4d612cde565b815260200190600190039081611f455790505b5090506000805b83811015612367576000600760003373ffffffffffffffffffffffffffffffffffffffff1673ffffffffffffffffffffffffffffffffffffffff1681526020019081526020016000206000876008018581548110611fc857611fc76148ea565b5b90600052602060002001548152602001908152602001600020905080604051806101c001604052908160008201805461200090613e48565b80601f016020809104026020016040519081016040528092919081815260200182805461202c90613e48565b80156120795780601f1061204e57610100808354040283529160200191612079565b820191906000526020600020905b81548152906001019060200180831161205c57829003601f168201915b5050505050815260200160018201548152602001600282015481526020016003820180546120a690613e48565b80601f01602080910402602001604051908101604052809291908181526020018280546120d290613e48565b801561211f5780601f106120f45761010080835404028352916020019161211f565b820191906000526020600020905b81548152906001019060200180831161210257829003601f168201915b505050505081526020016004820160009054906101000a900460ff161515151581526020016004820160019054906101000a900460ff16151515158152602001600582015481526020016006820160009054906101000a900473ffffffffffffffffffffffffffffffffffffffff1673ffffffffffffffffffffffffffffffffffffffff1673ffffffffffffffffffffffffffffffffffffffff1681526020016007820160009054906101000a900473ffffffffffffffffffffffffffffffffffffffff1673ffffffffffffffffffffffffffffffffffffffff1673ffffffffffffffffffffffffffffffffffffffff16815260200160088201805480602002602001604051908101604052809291908181526020016000905b828210156122e557838290600052602060002001805461225890613e48565b80601f016020809104026020016040519081016040528092919081815260200182805461228490613e48565b80156122d15780601f106122a6576101008083540402835291602001916122d1565b820191906000526020600020905b8154815290600101906020018083116122b457829003601f168201915b505050505081526020019060010190612239565b50505050815260200160098201548152602001600a8201548152602001600b820160009054906101000a900460ff16151515158152602001600c82015481525050848481518110612339576123386148ea565b5b60200260200101819052506001836123519190614841565b925050808061235f90614919565b915050611f67565b508194505050505090565b60026020528060005260406000206000915054906101000a900460ff1681565b61239a612d82565b60011515600260008473ffffffffffffffffffffffffffffffffffffffff1673ffffffffffffffffffffffffffffffffffffffff16815260200190815260200160002060009054906101000a900460ff1615151461242d576040517f08c379a00000000000000000000000000000000000000000000000000000000081526004016124249061439a565b60405180910390fd5b600360008373ffffffffffffffffffffffffffffffffffffffff1673ffffffffffffffffffffffffffffffffffffffff1681526020019081526020016000206040518061018001604052908160008201805461248890613e48565b80601f01602080910402602001604051908101604052809291908181526020018280546124b490613e48565b80156125015780601f106124d657610100808354040283529160200191612501565b820191906000526020600020905b8154815290600101906020018083116124e457829003601f168201915b5050505050815260200160018201805461251a90613e48565b80601f016020809104026020016040519081016040528092919081815260200182805461254690613e48565b80156125935780601f1061256857610100808354040283529160200191612593565b820191906000526020600020905b81548152906001019060200180831161257657829003601f168201915b505050505081526020016002820180546125ac90613e48565b80601f01602080910402602001604051908101604052809291908181526020018280546125d890613e48565b80156126255780601f106125fa57610100808354040283529160200191612625565b820191906000526020600020905b81548152906001019060200180831161260857829003601f168201915b5050505050815260200160038201805461263e90613e48565b80601f016020809104026020016040519081016040528092919081815260200182805461266a90613e48565b80156126b75780601f1061268c576101008083540402835291602001916126b7565b820191906000526020600020905b81548152906001019060200180831161269a57829003601f168201915b505050505081526020016004820180546126d090613e48565b80601f01602080910402602001604051908101604052809291908181526020018280546126fc90613e48565b80156127495780601f1061271e57610100808354040283529160200191612749565b820191906000526020600020905b81548152906001019060200180831161272c57829003601f168201915b5050505050815260200160058201805461276290613e48565b80601f016020809104026020016040519081016040528092919081815260200182805461278e90613e48565b80156127db5780601f106127b0576101008083540402835291602001916127db565b820191906000526020600020905b8154815290600101906020018083116127be57829003601f168201915b5050505050815260200160068201548152602001600782015481526020016008820180548060200260200160405190810160405280929190818152602001828054801561284757602002820191906000526020600020905b815481526020019060010190808311612833575b505050505081526020016009820160009054906101000a900473ffffffffffffffffffffffffffffffffffffffff1673ffffffffffffffffffffffffffffffffffffffff1673ffffffffffffffffffffffffffffffffffffffff168152602001600a820180548060200260200160405190810160405280929190818152602001828054801561292b57602002820191906000526020600020905b8160009054906101000a900473ffffffffffffffffffffffffffffffffffffffff1673ffffffffffffffffffffffffffffffffffffffff16815260200190600101908083116128e1575b50505050508152602001600b82018054806020026020016040519081016040528092919081815260200182805480156129b957602002820191906000526020600020905b8160009054906101000a900473ffffffffffffffffffffffffffffffffffffffff1673ffffffffffffffffffffffffffffffffffffffff168152602001906001019080831161296f575b5050505050815250509050919050565b6001816000016000828254019250508190555050565b6000600360008373ffffffffffffffffffffffffffffffffffffffff1673ffffffffffffffffffffffffffffffffffffffff1681526020019081526020016000206008019050600080600090505b8280549050811015612a785784838281548110612a4d57612a4c6148ea565b5b906000526020600020015403612a6557809150612a78565b8080612a7090614919565b915050612a2d565b5060008190505b60018380549050612a909190614961565b811015612af55782600182612aa59190614841565b81548110612ab657612ab56148ea565b5b9060005260206000200154838281548110612ad457612ad36148ea565b5b90600052602060002001819055508080612aed90614919565b915050612a7f565b5081805480612b0757612b06614995565b5b6001900381819060005260206000200160009055905550505050565b828054828255906000526020600020908101928215612b645760005260206000209182015b82811115612b63578254825591600101919060010190612b48565b5b509050612b719190612df9565b5090565b828054828255906000526020600020908101928215612bb65760005260206000209182015b82811115612bb5578254825591600101919060010190612b9a565b5b509050612bc39190612e16565b5090565b828054828255906000526020600020908101928215612c0f579160200282015b82811115612c0e578251829081612bfe9190614025565b5091602001919060010190612be7565b5b509050612c1c9190612e33565b5090565b828054828255906000526020600020908101928215612c6c5760005260206000209182015b82811115612c6b5782829081612c5b919061410d565b5091600101919060010190612c45565b5b509050612c799190612e33565b5090565b508054612c8990613e48565b6000825580601f10612c9b5750612cba565b601f016020900490600052602060002090810190612cb99190612e16565b5b50565b5080546000825590600052602060002090810190612cdb9190612e33565b50565b604051806101c001604052806060815260200160008019168152602001600081526020016060815260200160001515815260200160001515815260200160008152602001600073ffffffffffffffffffffffffffffffffffffffff168152602001600073ffffffffffffffffffffffffffffffffffffffff168152602001606081526020016000815260200160008152602001600015158152602001600081525090565b604051806101800160405280606081526020016060815260200160608152602001606081526020016060815260200160608152602001600081526020016000815260200160608152602001600073ffffffffffffffffffffffffffffffffffffffff16815260200160608152602001606081525090565b5b80821115612e12576000816000905550600101612dfa565b5090565b5b80821115612e2f576000816000905550600101612e17565b5090565b5b80821115612e535760008181612e4a9190612c7d565b50600101612e34565b5090565b6000819050919050565b612e6a81612e57565b82525050565b6000602082019050612e856000830184612e61565b92915050565b6000604051905090565b600080fd5b600080fd5b600073ffffffffffffffffffffffffffffffffffffffff82169050919050565b6000612eca82612e9f565b9050919050565b612eda81612ebf565b8114612ee557600080fd5b50565b600081359050612ef781612ed1565b92915050565b600080fd5b600080fd5b6000601f19601f8301169050919050565b7f4e487b7100000000000000000000000000000000000000000000000000000000600052604160045260246000fd5b612f5082612f07565b810181811067ffffffffffffffff82111715612f6f57612f6e612f18565b5b80604052505050565b6000612f82612e8b565b9050612f8e8282612f47565b919050565b600067ffffffffffffffff821115612fae57612fad612f18565b5b612fb782612f07565b9050602081019050919050565b82818337600083830152505050565b6000612fe6612fe184612f93565b612f78565b90508281526020810184848401111561300257613001612f02565b5b61300d848285612fc4565b509392505050565b600082601f83011261302a57613029612efd565b5b813561303a848260208601612fd3565b91505092915050565b600080600080600080600060e0888a03121561306257613061612e95565b5b60006130708a828b01612ee8565b975050602088013567ffffffffffffffff81111561309157613090612e9a565b5b61309d8a828b01613015565b965050604088013567ffffffffffffffff8111156130be576130bd612e9a565b5b6130ca8a828b01613015565b955050606088013567ffffffffffffffff8111156130eb576130ea612e9a565b5b6130f78a828b01613015565b945050608088013567ffffffffffffffff81111561311857613117612e9a565b5b6131248a828b01613015565b93505060a088013567ffffffffffffffff81111561314557613144612e9a565b5b6131518a828b01613015565b92505060c088013567ffffffffffffffff81111561317257613171612e9a565b5b61317e8a828b01613015565b91505092959891949750929550565b60008115159050919050565b6131a28161318d565b81146131ad57600080fd5b50565b6000813590506131bf81613199565b92915050565b6131ce81612e57565b81146131d957600080fd5b50565b6000813590506131eb816131c5565b92915050565b600080600080600060a0868803121561320d5761320c612e95565b5b600086013567ffffffffffffffff81111561322b5761322a612e9a565b5b61323788828901613015565b955050602086013567ffffffffffffffff81111561325857613257612e9a565b5b61326488828901613015565b9450506040613275888289016131b0565b9350506060613286888289016131dc565b9250506080613297888289016131b0565b9150509295509295909350565b6000819050919050565b6132b7816132a4565b81146132c257600080fd5b50565b6000813590506132d4816132ae565b92915050565b6000806000606084860312156132f3576132f2612e95565b5b600061330186828701612ee8565b9350506020613312868287016132c5565b925050604061332386828701612ee8565b9150509250925092565b60008060006060848603121561334657613345612e95565b5b600061335486828701612ee8565b935050602084013567ffffffffffffffff81111561337557613374612e9a565b5b61338186828701613015565b9250506040613392868287016132c5565b9150509250925092565b6000806000606084860312156133b5576133b4612e95565b5b60006133c3868287016132c5565b93505060206133d4868287016131b0565b92505060406133e586828701612ee8565b9150509250925092565b6000806040838503121561340657613405612e95565b5b600061341485828601612ee8565b9250506020613425858286016132c5565b9150509250929050565b60006020828403121561344557613444612e95565b5b600082013567ffffffffffffffff81111561346357613462612e9a565b5b61346f84828501613015565b91505092915050565b613481816132a4565b82525050565b600060208201905061349c6000830184613478565b92915050565b600081519050919050565b600082825260208201905092915050565b6000819050602082019050919050565b600081519050919050565b600082825260208201905092915050565b60005b838110156135085780820151818401526020810190506134ed565b83811115613517576000848401525b50505050565b6000613528826134ce565b61353281856134d9565b93506135428185602086016134ea565b61354b81612f07565b840191505092915050565b61355f81612e57565b82525050565b600081519050919050565b600082825260208201905092915050565b6000819050602082019050919050565b61359a816132a4565b82525050565b60006135ac8383613591565b60208301905092915050565b6000602082019050919050565b60006135d082613565565b6135da8185613570565b93506135e583613581565b8060005b838110156136165781516135fd88826135a0565b9750613608836135b8565b9250506001810190506135e9565b5085935050505092915050565b61362c81612ebf565b82525050565b600081519050919050565b600082825260208201905092915050565b6000819050602082019050919050565b600061366a8383613623565b60208301905092915050565b6000602082019050919050565b600061368e82613632565b613698818561363d565b93506136a38361364e565b8060005b838110156136d45781516136bb888261365e565b97506136c683613676565b9250506001810190506136a7565b5085935050505092915050565b60006101808301600083015184820360008601526136ff828261351d565b91505060208301518482036020860152613719828261351d565b91505060408301518482036040860152613733828261351d565b9150506060830151848203606086015261374d828261351d565b91505060808301518482036080860152613767828261351d565b91505060a083015184820360a0860152613781828261351d565b91505060c083015161379660c0860182613556565b5060e08301516137a960e0860182613556565b506101008301518482036101008601526137c382826135c5565b9150506101208301516137da610120860182613623565b506101408301518482036101408601526137f48282613683565b9150506101608301518482036101608601526138108282613683565b9150508091505092915050565b600061382983836136e1565b905092915050565b6000602082019050919050565b6000613849826134a2565b61385381856134ad565b935083602082028501613865856134be565b8060005b858110156138a15784840389528151613882858261381d565b945061388d83613831565b925060208a01995050600181019050613869565b50829750879550505050505092915050565b600060208201905081810360008301526138cd818461383e565b905092915050565b600081519050919050565b600082825260208201905092915050565b6000819050602082019050919050565b61390a8161318d565b82525050565b600061391b82612e9f565b9050919050565b61392b81613910565b82525050565b600081519050919050565b600082825260208201905092915050565b6000819050602082019050919050565b6000613969838361351d565b905092915050565b6000602082019050919050565b600061398982613931565b613993818561393c565b9350836020820285016139a58561394d565b8060005b858110156139e157848403895281516139c2858261395d565b94506139cd83613971565b925060208a019950506001810190506139a9565b50829750879550505050505092915050565b60006101c0830160008301518482036000860152613a11828261351d565b9150506020830151613a266020860182613591565b506040830151613a396040860182613556565b5060608301518482036060860152613a51828261351d565b9150506080830151613a666080860182613901565b5060a0830151613a7960a0860182613901565b5060c0830151613a8c60c0860182613556565b5060e0830151613a9f60e0860182613623565b50610100830151613ab4610100860182613922565b50610120830151848203610120860152613ace828261397e565b915050610140830151613ae5610140860182613556565b50610160830151613afa610160860182613556565b50610180830151613b0f610180860182613901565b506101a0830151613b246101a0860182613556565b508091505092915050565b6000613b3b83836139f3565b905092915050565b6000602082019050919050565b6000613b5b826138d5565b613b6581856138e0565b935083602082028501613b77856138f1565b8060005b85811015613bb35784840389528151613b948582613b2f565b9450613b9f83613b43565b925060208a01995050600181019050613b7b565b50829750879550505050505092915050565b60006020820190508181036000830152613bdf8184613b50565b905092915050565b600060208284031215613bfd57613bfc612e95565b5b6000613c0b84828501612ee8565b91505092915050565b613c1d8161318d565b82525050565b6000602082019050613c386000830184613c14565b92915050565b6000610180830160008301518482036000860152613c5c828261351d565b91505060208301518482036020860152613c76828261351d565b91505060408301518482036040860152613c90828261351d565b91505060608301518482036060860152613caa828261351d565b91505060808301518482036080860152613cc4828261351d565b91505060a083015184820360a0860152613cde828261351d565b91505060c0830151613cf360c0860182613556565b5060e0830151613d0660e0860182613556565b50610100830151848203610100860152613d2082826135c5565b915050610120830151613d37610120860182613623565b50610140830151848203610140860152613d518282613683565b915050610160830151848203610160860152613d6d8282613683565b9150508091505092915050565b60006020820190508181036000830152613d948184613c3e565b905092915050565b600082825260208201905092915050565b7f5573657220616c72656164792065786973747300000000000000000000000000600082015250565b6000613de3601383613d9c565b9150613dee82613dad565b602082019050919050565b60006020820190508181036000830152613e1281613dd6565b9050919050565b7f4e487b7100000000000000000000000000000000000000000000000000000000600052602260045260246000fd5b60006002820490506001821680613e6057607f821691505b602082108103613e7357613e72613e19565b5b50919050565b60008190508160005260206000209050919050565b60006020601f8301049050919050565b600082821b905092915050565b600060088302613edb7fffffffffffffffffffffffffffffffffffffffffffffffffffffffffffffffff82613e9e565b613ee58683613e9e565b95508019841693508086168417925050509392505050565b6000819050919050565b6000613f22613f1d613f1884612e57565b613efd565b612e57565b9050919050565b6000819050919050565b613f3c83613f07565b613f50613f4882613f29565b848454613eab565b825550505050565b600090565b613f65613f58565b613f70818484613f33565b505050565b5b81811015613f9457613f89600082613f5d565b600181019050613f76565b5050565b601f821115613fd957613faa81613e79565b613fb384613e8e565b81016020851015613fc2578190505b613fd6613fce85613e8e565b830182613f75565b50505b505050565b600082821c905092915050565b6000613ffc60001984600802613fde565b1980831691505092915050565b60006140158383613feb565b9150826002028217905092915050565b61402e826134ce565b67ffffffffffffffff81111561404757614046612f18565b5b6140518254613e48565b61405c828285613f98565b600060209050601f83116001811461408f576000841561407d578287015190505b6140878582614009565b8655506140ef565b601f19841661409d86613e79565b60005b828110156140c5578489015182556001820191506020850194506020810190506140a0565b868310156140e257848901516140de601f891682613feb565b8355505b6001600288020188555050505b505050505050565b60008154905061410681613e48565b9050919050565b81810361411b5750506141f3565b614124826140f7565b67ffffffffffffffff81111561413d5761413c612f18565b5b6141478254613e48565b614152828285613f98565b6000601f831160018114614181576000841561416f578287015490505b6141798582614009565b8655506141ec565b601f19841661418f87613e79565b965061419a86613e79565b60005b828110156141c25784890154825560018201915060018501945060208101905061419d565b868310156141df57848901546141db601f891682613feb565b8355505b6001600288020188555050505b5050505050505b565b6000815461420281613e48565b61420c8186613d9c565b94506001821660008114614227576001811461423d57614270565b60ff198316865281151560200286019350614270565b61424685613e79565b60005b8381101561426857815481890152600182019150602081019050614249565b808801955050505b50505092915050565b61428281612ebf565b82525050565b600060808201905081810360008301526142a281876141f5565b905081810360208301526142b681866141f5565b905081810360408301526142ca81856141f5565b90506142d96060830184614279565b95945050505050565b7f5265656e7472616e637947756172643a207265656e7472616e742063616c6c00600082015250565b6000614318601f83613d9c565b9150614323826142e2565b602082019050919050565b600060208201905081810360008301526143478161430b565b9050919050565b7f55736572206e6f7420726567697374657265642e000000000000000000000000600082015250565b6000614384601483613d9c565b915061438f8261434e565b602082019050919050565b600060208201905081810360008301526143b381614377565b9050919050565b60006143c5826134ce565b6143cf8185613d9c565b93506143df8185602086016134ea565b6143e881612f07565b840191505092915050565b6000602082019050818103600083015261440d81846143ba565b905092915050565b600081519050614424816131c5565b92915050565b6000602082840312156144405761443f612e95565b5b600061444e84828501614415565b91505092915050565b6000819050919050565b600061447c61447761447284614457565b613efd565b612e57565b9050919050565b61448c81614461565b82525050565b60006144ad6144a86144a384612e9f565b613efd565b612e9f565b9050919050565b60006144bf82614492565b9050919050565b60006144d1826144b4565b9050919050565b6144e1816144c6565b82525050565b6000610100820190508181036000830152614502818b6143ba565b90508181036020830152614516818a6143ba565b90506145256040830189613478565b6145326060830188612e61565b61453f6080830187612e61565b61454c60a0830186614483565b61455960c0830185614279565b61456660e08301846144d8565b9998505050505050505050565b7f55736572206e6f74207265676973746572656400000000000000000000000000600082015250565b60006145a9601383613d9c565b91506145b482614573565b602082019050919050565b600060208201905081810360008301526145d88161459c565b9050919050565b7f506f7374206973206e6f7420616e206e66740000000000000000000000000000600082015250565b6000614615601283613d9c565b9150614620826145df565b602082019050919050565b6000602082019050818103600083015261464481614608565b9050919050565b7f556e6d617463686564207472616e73616374696f6e2c20692e652e2c2074686560008201527f2070617965722073686f756c6420626520746865206e6577206f776e65720000602082015250565b60006146a7603e83613d9c565b91506146b28261464b565b604082019050919050565b600060208201905081810360008301526146d68161469a565b9050919050565b7f506f7374206e6f7420666f722073616c65000000000000000000000000000000600082015250565b6000614713601183613d9c565b915061471e826146dd565b602082019050919050565b6000602082019050818103600083015261474281614706565b9050919050565b7f416d6f756e742073686f756c642062652067726561746572207468616e20626160008201527f7365207072696365206f662074686520706f73742e0000000000000000000000602082015250565b60006147a5603583613d9c565b91506147b082614749565b604082019050919050565b600060208201905081810360008301526147d481614798565b9050919050565b60006060820190506147f06000830186614279565b6147fd6020830185614279565b61480a6040830184612e61565b949350505050565b7f4e487b7100000000000000000000000000000000000000000000000000000000600052601160045260246000fd5b600061484c82612e57565b915061485783612e57565b9250827fffffffffffffffffffffffffffffffffffffffffffffffffffffffffffffffff0382111561488c5761488b614812565b5b828201905092915050565b600081905092915050565b60006148ad826134ce565b6148b78185614897565b93506148c78185602086016134ea565b80840191505092915050565b60006148df82846148a2565b915081905092915050565b7f4e487b7100000000000000000000000000000000000000000000000000000000600052603260045260246000fd5b600061492482612e57565b91507fffffffffffffffffffffffffffffffffffffffffffffffffffffffffffffffff820361495657614955614812565b5b600182019050919050565b600061496c82612e57565b915061497783612e57565b92508282101561498a57614989614812565b5b828203905092915050565b7f4e487b7100000000000000000000000000000000000000000000000000000000600052603160045260246000fdfea2646970667358221220c258d0f5b37190d64cf25bdeb08b6daf757bc30c1a24a8be2315c1f0001f283364736f6c634300080f0033",
  "immutableReferences": {},
  "source": "// SPDX-License-Identifier: GPL-3.0\n\npragma solidity >=0.7.0 <0.9.0;\n\nimport \"@openzeppelin/contracts/utils/Counters.sol\";\nimport \"@openzeppelin/contracts/utils/Counters.sol\";\nimport \"@openzeppelin/contracts/token/ERC721/extensions/ERC721URIStorage.sol\";\nimport \"@openzeppelin/contracts/security/ReentrancyGuard.sol\";\nimport \"@openzeppelin/contracts/token/ERC721/ERC721.sol\";\n\ncontract TrisNFT is ERC721URIStorage{\n    using Counters for Counters.Counter;\n    \n    constructor() ERC721(\"TrisNFT\", \"TRI\"){}   \n    Counters.Counter private _tokenId;\n    address contractAddress = address(this);\n\n    function mintToken(string memory tokenUri) public returns(uint256 itemId){\n        require(contractAddress == msg.sender, \"Only the marketplace contract can call this function\");\n        _tokenId.increment();\n        uint256 currentId = _tokenId.current();\n        _mint(contractAddress, currentId);\n        _setTokenURI(currentId, tokenUri);\n        return currentId;\n    }\n\n    function updateContractAddress( address marketPlaceAddress) public  {\n        require(contractAddress == address(this) || contractAddress == msg.sender, \"Address is already declared or only the  owner contract can change the address.\");\n        contractAddress = marketPlaceAddress;\n    }\n\n    function returnCurrentUser() public view returns(address){\n        return msg.sender;\n    }\n\n    /*\n        A custom function to transfer ownership from on owner to another.\n    */\n    function transferNft(address currOwner, address newOwner, uint tokenId) public {\n        transferFrom(currOwner, newOwner, tokenId);\n    }\n\n    function getLatestTokenId() public view returns(uint256 itemId){\n        return _tokenId.current();\n    }\n\n    function returnOwner(uint id) public view returns(address){\n        return ownerOf(id);\n    }\n}\n\ncontract UserContract is ReentrancyGuard{\n    using Counters for Counters.Counter;\n    Counters.Counter public userCount;\n    mapping(address => bool) public userIsRegistered;\n    mapping(address => User) private mapToUser;\n    address private trisNftAddress;\n    address private owner;\n    User[] private usersList;\n    mapping(address => mapping(bytes32 => Post)) private _postsOfUsers;\n\n    constructor(address nftAddress, address ownerAddress){\n        trisNftAddress = nftAddress;\n        owner = ownerAddress;\n        TrisNFT(nftAddress).updateContractAddress(address(this));\n    }\n\n    \n\n    /*\n        User struct for storing user data. \n        name, userName, userAddress are required as in the UI the rest can be 0 or empty.\n     */\n    struct User{\n        string name;\n        string userName;\n        string avatarUrl;\n        string bio;\n        string wallUrl;\n        string email;\n        uint256 followersCount;\n        uint256 followingCount;\n        bytes32[] postCount;\n        address userAddress;\n        address[] followers;\n        address[] following;\n    }\n\n    /*\n        Post struct for storing the posts of each user.\n        The token id connects post to the nft in ./Tris_NFT.sol\n\n        A post can be either NFT or a regular post\n     */\n    struct Post{\n        string post;\n        bytes32 postId;\n        uint256 likes;\n        string title;\n        bool isForSale;\n        bool postIsBought;\n        uint256 commentsCount;\n        address owner;\n        address payable seller;\n        string[] comments;\n        uint256 priceByOwner;\n        uint256 basePrice;\n        bool isNft;\n        uint256 tokenId;\n    }\n\n    /*\n        Events \n     */\n    event UserCreated (string name, string userName, string avatarUrl, address userAddress);\n    event PostUploaded(string title, string post, bytes32 postId, uint256 tokenId, uint256 priceByOwner, uint256 basePrice, address owner, address seller);\n    event PostSold(string post, address owner, address seller, uint256 price);\n\n    function createUser(address account, string memory name, string memory userName, string memory avatarUrl, string memory email, string memory bio, string memory wallUrl) public {\n        require(userIsRegistered[account] != true, \"User already exists\");\n        User storage userData = mapToUser[account];\n        userData.name = name;\n        userData.userName = userName;\n        userData.avatarUrl = avatarUrl;\n        userData.bio = bio;\n        userData.wallUrl = wallUrl;\n        userData.userAddress = account;\n        userData.email = email;\n        userCount.increment();\n        userIsRegistered[account] = true;\n        usersList.push(userData);\n        emit UserCreated(userData.name, userData.userName, userData.avatarUrl, userData.userAddress);\n    }\n\n    /*\n        Function to upload post. This requires the post parameters, \n        and uploads the post as either nft or a regular post.\n    */\n    function uploadPost(string memory title, string memory post, bool isNft, uint256 priceByOwner, bool isForSale) public nonReentrant{\n        require(userIsRegistered[msg.sender] == true, \"User not registered.\");\n        User storage currUser = mapToUser[msg.sender];\n\n        uint256 tokenId;\n\n        if(isNft){\n            tokenId = TrisNFT(trisNftAddress).mintToken(post);\n        }\n\n        currUser.postCount.push(callKeccak256(post));\n        Post memory currPost = Post(\n            {\n                post: post,\n                postId: callKeccak256(post),\n                likes: 0,\n                title: title,\n                postIsBought: false,\n                isForSale: isNft ? isForSale : false,\n                isNft: isNft,\n                commentsCount: 0,\n                priceByOwner: isNft ? priceByOwner : 0,\n                comments: new string[](0),\n                tokenId: isNft ? tokenId : 0,\n                basePrice: isNft ? 10 : 0,\n                owner: isNft ? (address(this)) : (address(0)),\n                seller: isNft ? payable(msg.sender) : payable(address(0))\n            }\n        );\n\n        _postsOfUsers[msg.sender][callKeccak256(post)] = currPost;\n        emit PostUploaded(currPost.title, currPost.post, currPost.postId, currPost.tokenId, priceByOwner, 10, currPost.owner, currPost.seller);\n    }\n\n\n    /*\n        Dedicated function to buy/sell nfts before selling the nft owner should make sure he has \n        made the NFT avaialbe for sale and the post is NFT. \n        Before call this function the transferNFT in TrisNFT contract should be called to transfer the ownership.\n        That function can't be called form this function because that checks for msg.sender to be equal to \n        post owner but when called from here msg.sender is the address of this contract and not the owner.\n        - If the post is already sold then it will be checked in the frontend throught the postIsBought parameter\n          only if the postIsBought turns out to be true then the the method in the TrisNft will be called.\n    */\n    function buyPost(address ownerAddress, bytes32 postId, address newOwnerAddress) public payable nonReentrant{\n        Post storage currPost = _postsOfUsers[ownerAddress][postId];\n        require(userIsRegistered[msg.sender] == true, \"User not registered\");\n        require(currPost.isNft == true, \"Post is not an nft\");\n        require(msg.sender == newOwnerAddress, \"Unmatched transaction, i.e., the payer should be the new owner\");\n        require(userIsRegistered[ownerAddress] == true, \"User not registered\");\n        require(currPost.isForSale == true, \"Post not for sale\");\n        uint256 price = msg.value;\n        User storage newUser = mapToUser[newOwnerAddress];\n        require(price >= currPost.basePrice, \"Amount should be greater than base price of the post.\");\n        if(currPost.postIsBought == false){\n            IERC721(trisNftAddress).transferFrom(address(this), newOwnerAddress, currPost.tokenId);\n        }\n        currPost.seller.transfer(msg.value);\n        currPost.owner = (newOwnerAddress);\n        currPost.seller = payable(newOwnerAddress);\n        removePost(postId, ownerAddress);\n        currPost.postIsBought = true;\n        _postsOfUsers[newOwnerAddress][postId] = currPost;\n        delete _postsOfUsers[ownerAddress][postId];\n        newUser.postCount.push(postId);\n    }\n\n    function getUserList() public view returns(User[] memory){\n        return usersList;\n    }\n\n    function updatePostForSale(bytes32 id, bool isForSale, address account) public {\n        require(userIsRegistered[account] == true, \"User not registered\");\n        _postsOfUsers[account][id].isForSale = isForSale;\n    }\n\n    \n\n    function getUserPosts() public view returns (Post[] memory userPosts){\n        require(userIsRegistered[msg.sender] == true, \"User not registered.\");\n        User storage currUser = mapToUser[msg.sender];\n        uint userPostCount = currUser.postCount.length;\n        Post[] memory currUserPosts = new Post[](userPostCount);\n        uint currentIndex = 0;\n        for(uint i = 0; i < userPostCount; i++){\n           Post storage currPost = _postsOfUsers[msg.sender][currUser.postCount[currentIndex]];\n           currUserPosts[currentIndex] = currPost;\n           currentIndex += 1;\n        }\n\n        return currUserPosts;\n    }\n\n    function removePost(bytes32 postId, address postOwner) internal {\n        bytes32[] storage postCount = mapToUser[postOwner].postCount;\n        uint index;\n        for(uint i = 0; i < postCount.length; i++){\n            if(postCount[i] == postId){\n                index = i;\n                break;\n            }\n        }\n        for(uint i = index; i < postCount.length - 1; i++){\n            postCount[i] = postCount[i + 1];\n        }\n        postCount.pop();\n    }\n\n    function likePost(address postOwner, bytes32 postId) public {\n        require(userIsRegistered[msg.sender] == true, \"User not registered\");\n        Post storage currPost = _postsOfUsers[postOwner][postId];\n        currPost.likes += 1;\n    }\n\n    function postComment( address postOwner, string memory comment, bytes32 postId ) public {\n        require(userIsRegistered[msg.sender] == true, \"User not registered\");\n        Post storage currPost = _postsOfUsers[postOwner][postId];\n        currPost.commentsCount += 1;\n        currPost.comments.push(comment);\n    }\n\n    function getUserData(address account) public view returns(User memory){\n        require(userIsRegistered[account] == true, \"User not registered.\");\n        return mapToUser[account];\n    } \n\n    function callKeccak256(string memory post) public pure returns( bytes32 result){\n      return keccak256(abi.encodePacked(post));\n   }  \n\n}\n",
  "sourcePath": "/home/astar/Documents/tris/contracts/User.sol",
  "compiler": {
    "name": "solc",
    "version": "0.8.15+commit.e14f2714.Emscripten.clang"
  },
  "schemaVersion": "3.4.8",
  "updatedAt": "2022-07-23T16:03:25.400Z",
  "devdoc": {
    "kind": "dev",
    "methods": {},
    "version": 1
  },
  "userdoc": {
    "kind": "user",
    "methods": {},
    "version": 1
  }
}