{
  "contractName": "UserContract",
  "abi": [
    {
      "inputs": [
        {
          "internalType": "address",
          "name": "nftAddress",
          "type": "address"
        },
        {
          "internalType": "address",
          "name": "ownerAddress",
          "type": "address"
        }
      ],
      "stateMutability": "nonpayable",
      "type": "constructor"
    },
    {
      "anonymous": false,
      "inputs": [
        {
          "indexed": false,
          "internalType": "string",
          "name": "post",
          "type": "string"
        },
        {
          "indexed": false,
          "internalType": "address",
          "name": "owner",
          "type": "address"
        },
        {
          "indexed": false,
          "internalType": "address",
          "name": "seller",
          "type": "address"
        },
        {
          "indexed": false,
          "internalType": "uint256",
          "name": "price",
          "type": "uint256"
        }
      ],
      "name": "PostSold",
      "type": "event"
    },
    {
      "anonymous": false,
      "inputs": [
        {
          "indexed": false,
          "internalType": "string",
          "name": "title",
          "type": "string"
        },
        {
          "indexed": false,
          "internalType": "string",
          "name": "post",
          "type": "string"
        },
        {
          "indexed": false,
          "internalType": "bytes32",
          "name": "postId",
          "type": "bytes32"
        },
        {
          "indexed": false,
          "internalType": "uint256",
          "name": "tokenId",
          "type": "uint256"
        },
        {
          "indexed": false,
          "internalType": "uint256",
          "name": "priceByOwner",
          "type": "uint256"
        },
        {
          "indexed": false,
          "internalType": "uint256",
          "name": "basePrice",
          "type": "uint256"
        },
        {
          "indexed": false,
          "internalType": "address",
          "name": "owner",
          "type": "address"
        },
        {
          "indexed": false,
          "internalType": "address",
          "name": "seller",
          "type": "address"
        }
      ],
      "name": "PostUploaded",
      "type": "event"
    },
    {
      "anonymous": false,
      "inputs": [
        {
          "indexed": false,
          "internalType": "string",
          "name": "name",
          "type": "string"
        },
        {
          "indexed": false,
          "internalType": "string",
          "name": "userName",
          "type": "string"
        },
        {
          "indexed": false,
          "internalType": "string",
          "name": "avatarUrl",
          "type": "string"
        },
        {
          "indexed": false,
          "internalType": "address",
          "name": "userAddress",
          "type": "address"
        }
      ],
      "name": "UserCreated",
      "type": "event"
    },
    {
      "inputs": [],
      "name": "userCount",
      "outputs": [
        {
          "internalType": "uint256",
          "name": "_value",
          "type": "uint256"
        }
      ],
      "stateMutability": "view",
      "type": "function",
      "constant": true
    },
    {
      "inputs": [
        {
          "internalType": "address",
          "name": "",
          "type": "address"
        }
      ],
      "name": "userIsRegistered",
      "outputs": [
        {
          "internalType": "bool",
          "name": "",
          "type": "bool"
        }
      ],
      "stateMutability": "view",
      "type": "function",
      "constant": true
    },
    {
      "inputs": [
        {
          "internalType": "string",
          "name": "name",
          "type": "string"
        },
        {
          "internalType": "string",
          "name": "userName",
          "type": "string"
        },
        {
          "internalType": "string",
          "name": "avatarUrl",
          "type": "string"
        },
        {
          "internalType": "string",
          "name": "bio",
          "type": "string"
        },
        {
          "internalType": "string",
          "name": "wallUrl",
          "type": "string"
        }
      ],
      "name": "createUser",
      "outputs": [],
      "stateMutability": "nonpayable",
      "type": "function"
    },
    {
      "inputs": [
        {
          "internalType": "string",
          "name": "title",
          "type": "string"
        },
        {
          "internalType": "string",
          "name": "post",
          "type": "string"
        },
        {
          "internalType": "bool",
          "name": "isNft",
          "type": "bool"
        },
        {
          "internalType": "uint256",
          "name": "priceByOwner",
          "type": "uint256"
        },
        {
          "internalType": "bool",
          "name": "isForSale",
          "type": "bool"
        }
      ],
      "name": "uploadPost",
      "outputs": [],
      "stateMutability": "nonpayable",
      "type": "function"
    },
    {
      "inputs": [
        {
          "internalType": "address",
          "name": "ownerAddress",
          "type": "address"
        },
        {
          "internalType": "bytes32",
          "name": "postId",
          "type": "bytes32"
        },
        {
          "internalType": "address",
          "name": "newOwnerAddress",
          "type": "address"
        }
      ],
      "name": "buyPost",
      "outputs": [],
      "stateMutability": "payable",
      "type": "function",
      "payable": true
    },
    {
      "inputs": [],
      "name": "getUserList",
      "outputs": [
        {
          "components": [
            {
              "internalType": "string",
              "name": "name",
              "type": "string"
            },
            {
              "internalType": "string",
              "name": "userName",
              "type": "string"
            },
            {
              "internalType": "string",
              "name": "avatarUrl",
              "type": "string"
            },
            {
              "internalType": "string",
              "name": "bio",
              "type": "string"
            },
            {
              "internalType": "string",
              "name": "wallUrl",
              "type": "string"
            },
            {
              "internalType": "uint256",
              "name": "followersCount",
              "type": "uint256"
            },
            {
              "internalType": "uint256",
              "name": "followingCount",
              "type": "uint256"
            },
            {
              "internalType": "bytes32[]",
              "name": "postCount",
              "type": "bytes32[]"
            },
            {
              "internalType": "address",
              "name": "userAddress",
              "type": "address"
            },
            {
              "internalType": "address[]",
              "name": "followers",
              "type": "address[]"
            },
            {
              "internalType": "address[]",
              "name": "following",
              "type": "address[]"
            }
          ],
          "internalType": "struct UserContract.User[]",
          "name": "",
          "type": "tuple[]"
        }
      ],
      "stateMutability": "view",
      "type": "function",
      "constant": true
    },
    {
      "inputs": [
        {
          "internalType": "bytes32",
          "name": "id",
          "type": "bytes32"
        },
        {
          "internalType": "bool",
          "name": "isForSale",
          "type": "bool"
        }
      ],
      "name": "updatePostForSale",
      "outputs": [],
      "stateMutability": "nonpayable",
      "type": "function"
    },
    {
      "inputs": [],
      "name": "getUserPosts",
      "outputs": [
        {
          "components": [
            {
              "internalType": "string",
              "name": "post",
              "type": "string"
            },
            {
              "internalType": "bytes32",
              "name": "postId",
              "type": "bytes32"
            },
            {
              "internalType": "uint256",
              "name": "likes",
              "type": "uint256"
            },
            {
              "internalType": "string",
              "name": "title",
              "type": "string"
            },
            {
              "internalType": "bool",
              "name": "isForSale",
              "type": "bool"
            },
            {
              "internalType": "bool",
              "name": "postIsBought",
              "type": "bool"
            },
            {
              "internalType": "uint256",
              "name": "commentsCount",
              "type": "uint256"
            },
            {
              "internalType": "address",
              "name": "owner",
              "type": "address"
            },
            {
              "internalType": "address payable",
              "name": "seller",
              "type": "address"
            },
            {
              "internalType": "string[]",
              "name": "comments",
              "type": "string[]"
            },
            {
              "internalType": "uint256",
              "name": "priceByOwner",
              "type": "uint256"
            },
            {
              "internalType": "uint256",
              "name": "basePrice",
              "type": "uint256"
            },
            {
              "internalType": "bool",
              "name": "isNft",
              "type": "bool"
            },
            {
              "internalType": "uint256",
              "name": "tokenId",
              "type": "uint256"
            }
          ],
          "internalType": "struct UserContract.Post[]",
          "name": "userPosts",
          "type": "tuple[]"
        }
      ],
      "stateMutability": "view",
      "type": "function",
      "constant": true
    },
    {
      "inputs": [
        {
          "internalType": "address",
          "name": "postOwner",
          "type": "address"
        },
        {
          "internalType": "bytes32",
          "name": "postId",
          "type": "bytes32"
        }
      ],
      "name": "likeAPost",
      "outputs": [],
      "stateMutability": "nonpayable",
      "type": "function"
    },
    {
      "inputs": [
        {
          "internalType": "address",
          "name": "postOwner",
          "type": "address"
        },
        {
          "internalType": "string",
          "name": "comment",
          "type": "string"
        },
        {
          "internalType": "bytes32",
          "name": "postId",
          "type": "bytes32"
        }
      ],
      "name": "postComment",
      "outputs": [],
      "stateMutability": "nonpayable",
      "type": "function"
    },
    {
      "inputs": [],
      "name": "getUserData",
      "outputs": [
        {
          "components": [
            {
              "internalType": "string",
              "name": "name",
              "type": "string"
            },
            {
              "internalType": "string",
              "name": "userName",
              "type": "string"
            },
            {
              "internalType": "string",
              "name": "avatarUrl",
              "type": "string"
            },
            {
              "internalType": "string",
              "name": "bio",
              "type": "string"
            },
            {
              "internalType": "string",
              "name": "wallUrl",
              "type": "string"
            },
            {
              "internalType": "uint256",
              "name": "followersCount",
              "type": "uint256"
            },
            {
              "internalType": "uint256",
              "name": "followingCount",
              "type": "uint256"
            },
            {
              "internalType": "bytes32[]",
              "name": "postCount",
              "type": "bytes32[]"
            },
            {
              "internalType": "address",
              "name": "userAddress",
              "type": "address"
            },
            {
              "internalType": "address[]",
              "name": "followers",
              "type": "address[]"
            },
            {
              "internalType": "address[]",
              "name": "following",
              "type": "address[]"
            }
          ],
          "internalType": "struct UserContract.User",
          "name": "",
          "type": "tuple"
        }
      ],
      "stateMutability": "view",
      "type": "function",
      "constant": true
    },
    {
      "inputs": [
        {
          "internalType": "string",
          "name": "post",
          "type": "string"
        }
      ],
      "name": "callKeccak256",
      "outputs": [
        {
          "internalType": "bytes32",
          "name": "result",
          "type": "bytes32"
        }
      ],
      "stateMutability": "pure",
      "type": "function",
      "constant": true
    }
  ],
  "bytecode": "0x60806040523480156200001157600080fd5b5060405162004a2a38038062004a2a8339818101604052810190620000379190620001a2565b600160008190555081600460006101000a81548173ffffffffffffffffffffffffffffffffffffffff021916908373ffffffffffffffffffffffffffffffffffffffff16021790555080600560006101000a81548173ffffffffffffffffffffffffffffffffffffffff021916908373ffffffffffffffffffffffffffffffffffffffff1602179055508173ffffffffffffffffffffffffffffffffffffffff1663bdf3e088306040518263ffffffff1660e01b8152600401620000fc9190620001fa565b600060405180830381600087803b1580156200011757600080fd5b505af11580156200012c573d6000803e3d6000fd5b50505050505062000217565b600080fd5b600073ffffffffffffffffffffffffffffffffffffffff82169050919050565b60006200016a826200013d565b9050919050565b6200017c816200015d565b81146200018857600080fd5b50565b6000815190506200019c8162000171565b92915050565b60008060408385031215620001bc57620001bb62000138565b5b6000620001cc858286016200018b565b9250506020620001df858286016200018b565b9150509250929050565b620001f4816200015d565b82525050565b6000602082019050620002116000830184620001e9565b92915050565b61480380620002276000396000f3fe6080604052600436106100a75760003560e01c806365c06f701161006457806365c06f70146101995780636c216d06146101c2578063b8522043146101ff578063c19c4d261461022a578063cc4ef2cc14610253578063f6f197151461027e576100a7565b806307973ccf146100ac57806322e8c87d146100d75780632b89a7111461010257806333898b4f1461012b5780634546a98e14610154578063548627ba14610170575b600080fd5b3480156100b857600080fd5b506100c16102bb565b6040516100ce9190612d07565b60405180910390f35b3480156100e357600080fd5b506100ec6102c7565b6040516100f991906130a2565b60405180910390f35b34801561010e57600080fd5b5061012960048036038101906101249190613130565b61086a565b005b34801561013757600080fd5b50610152600480360381019061014d9190613309565b610972565b005b61016e600480360381019061016991906133bc565b610ef7565b005b34801561017c57600080fd5b506101976004803603810190610192919061340f565b6117d4565b005b3480156101a557600080fd5b506101c060048036038101906101bb919061347e565b611914565b005b3480156101ce57600080fd5b506101e960048036038101906101e49190613585565b611cb2565b6040516101f691906135dd565b60405180910390f35b34801561020b57600080fd5b50610214611ce2565b60405161022191906137da565b60405180910390f35b34801561023657600080fd5b50610251600480360381019061024c91906137fc565b6121fa565b005b34801561025f57600080fd5b506102686122fc565b6040516102759190613b2c565b60405180910390f35b34801561028a57600080fd5b506102a560048036038101906102a09190613b4e565b612847565b6040516102b29190613b8a565b60405180910390f35b60018060000154905081565b6102cf6129c1565b60011515600260003373ffffffffffffffffffffffffffffffffffffffff1673ffffffffffffffffffffffffffffffffffffffff16815260200190815260200160002060009054906101000a900460ff16151514610362576040517f08c379a000000000000000000000000000000000000000000000000000000000815260040161035990613c02565b60405180910390fd5b600360003373ffffffffffffffffffffffffffffffffffffffff1673ffffffffffffffffffffffffffffffffffffffff168152602001908152602001600020604051806101600160405290816000820180546103bd90613c51565b80601f01602080910402602001604051908101604052809291908181526020018280546103e990613c51565b80156104365780601f1061040b57610100808354040283529160200191610436565b820191906000526020600020905b81548152906001019060200180831161041957829003601f168201915b5050505050815260200160018201805461044f90613c51565b80601f016020809104026020016040519081016040528092919081815260200182805461047b90613c51565b80156104c85780601f1061049d576101008083540402835291602001916104c8565b820191906000526020600020905b8154815290600101906020018083116104ab57829003601f168201915b505050505081526020016002820180546104e190613c51565b80601f016020809104026020016040519081016040528092919081815260200182805461050d90613c51565b801561055a5780601f1061052f5761010080835404028352916020019161055a565b820191906000526020600020905b81548152906001019060200180831161053d57829003601f168201915b5050505050815260200160038201805461057390613c51565b80601f016020809104026020016040519081016040528092919081815260200182805461059f90613c51565b80156105ec5780601f106105c1576101008083540402835291602001916105ec565b820191906000526020600020905b8154815290600101906020018083116105cf57829003601f168201915b5050505050815260200160048201805461060590613c51565b80601f016020809104026020016040519081016040528092919081815260200182805461063190613c51565b801561067e5780601f106106535761010080835404028352916020019161067e565b820191906000526020600020905b81548152906001019060200180831161066157829003601f168201915b505050505081526020016005820154815260200160068201548152602001600782018054806020026020016040519081016040528092919081815260200182805480156106ea57602002820191906000526020600020905b8154815260200190600101908083116106d6575b505050505081526020016008820160009054906101000a900473ffffffffffffffffffffffffffffffffffffffff1673ffffffffffffffffffffffffffffffffffffffff1673ffffffffffffffffffffffffffffffffffffffff168152602001600982018054806020026020016040519081016040528092919081815260200182805480156107ce57602002820191906000526020600020905b8160009054906101000a900473ffffffffffffffffffffffffffffffffffffffff1673ffffffffffffffffffffffffffffffffffffffff1681526020019060010190808311610784575b50505050508152602001600a820180548060200260200160405190810160405280929190818152602001828054801561085c57602002820191906000526020600020905b8160009054906101000a900473ffffffffffffffffffffffffffffffffffffffff1673ffffffffffffffffffffffffffffffffffffffff1681526020019060010190808311610812575b505050505081525050905090565b60011515600260003373ffffffffffffffffffffffffffffffffffffffff1673ffffffffffffffffffffffffffffffffffffffff16815260200190815260200160002060009054906101000a900460ff161515146108fd576040517f08c379a00000000000000000000000000000000000000000000000000000000081526004016108f490613cce565b60405180910390fd5b6000600760008473ffffffffffffffffffffffffffffffffffffffff1673ffffffffffffffffffffffffffffffffffffffff1681526020019081526020016000206000838152602001908152602001600020905060018160020160008282546109669190613d1d565b92505081905550505050565b6002600054036109b7576040517f08c379a00000000000000000000000000000000000000000000000000000000081526004016109ae90613dbf565b60405180910390fd5b600260008190555060011515600260003373ffffffffffffffffffffffffffffffffffffffff1673ffffffffffffffffffffffffffffffffffffffff16815260200190815260200160002060009054906101000a900460ff16151514610a52576040517f08c379a0000000000000000000000000000000000000000000000000000000008152600401610a4990613c02565b60405180910390fd5b6000600360003373ffffffffffffffffffffffffffffffffffffffff1673ffffffffffffffffffffffffffffffffffffffff168152602001908152602001600020905060008415610b3e57600460009054906101000a900473ffffffffffffffffffffffffffffffffffffffff1673ffffffffffffffffffffffffffffffffffffffff166333eba49a876040518263ffffffff1660e01b8152600401610af89190613e18565b6020604051808303816000875af1158015610b17573d6000803e3d6000fd5b505050506040513d601f19601f82011682018060405250810190610b3b9190613e4f565b90505b81600701610b4b87611cb2565b90806001815401808255809150506001900390600052602060002001600090919091909150556000604051806101c00160405280888152602001610b8e89611cb2565b81526020016000815260200189815260200187610bac576000610bae565b855b151581526020016000151581526020016000815260200187610bd1576000610bd3565b305b73ffffffffffffffffffffffffffffffffffffffff16815260200187610bfa576000610bfc565b335b73ffffffffffffffffffffffffffffffffffffffff168152602001600067ffffffffffffffff811115610c3257610c3161317a565b5b604051908082528060200260200182016040528015610c6557816020015b6060815260200190600190039081610c505790505b50815260200187610c77576000610c79565b865b815260200187610c8a576000610c8d565b600a5b60ff168152602001871515815260200187610ca9576000610cab565b835b815250905080600760003373ffffffffffffffffffffffffffffffffffffffff1673ffffffffffffffffffffffffffffffffffffffff1681526020019081526020016000206000610cfb8a611cb2565b81526020019081526020016000206000820151816000019081610d1e9190614028565b5060208201518160010155604082015181600201556060820151816003019081610d489190614028565b5060808201518160040160006101000a81548160ff02191690831515021790555060a08201518160040160016101000a81548160ff02191690831515021790555060c0820151816005015560e08201518160060160006101000a81548173ffffffffffffffffffffffffffffffffffffffff021916908373ffffffffffffffffffffffffffffffffffffffff1602179055506101008201518160070160006101000a81548173ffffffffffffffffffffffffffffffffffffffff021916908373ffffffffffffffffffffffffffffffffffffffff160217905550610120820151816008019080519060200190610e3f929190612a31565b50610140820151816009015561016082015181600a015561018082015181600b0160006101000a81548160ff0219169083151502179055506101a082015181600c01559050507f72d2ff68e942d073bdcb19dbadc9e768208026219f8d884b765175ff7f671a9c816060015182600001518360200151846101a0015189600a8760e00151886101000151604051610edd989796959493929190614199565b60405180910390a150505060016000819055505050505050565b600260005403610f3c576040517f08c379a0000000000000000000000000000000000000000000000000000000008152600401610f3390613dbf565b60405180910390fd5b60026000819055506000600760008573ffffffffffffffffffffffffffffffffffffffff1673ffffffffffffffffffffffffffffffffffffffff1681526020019081526020016000206000848152602001908152602001600020905060011515600260003373ffffffffffffffffffffffffffffffffffffffff1673ffffffffffffffffffffffffffffffffffffffff16815260200190815260200160002060009054906101000a900460ff1615151461102b576040517f08c379a000000000000000000000000000000000000000000000000000000000815260040161102290613cce565b60405180910390fd5b6001151581600b0160009054906101000a900460ff16151514611083576040517f08c379a000000000000000000000000000000000000000000000000000000000815260040161107a90614271565b60405180910390fd5b8173ffffffffffffffffffffffffffffffffffffffff163373ffffffffffffffffffffffffffffffffffffffff16146110f1576040517f08c379a00000000000000000000000000000000000000000000000000000000081526004016110e890614303565b60405180910390fd5b60011515600260008673ffffffffffffffffffffffffffffffffffffffff1673ffffffffffffffffffffffffffffffffffffffff16815260200190815260200160002060009054906101000a900460ff16151514611184576040517f08c379a000000000000000000000000000000000000000000000000000000000815260040161117b90613cce565b60405180910390fd5b600115158160040160009054906101000a900460ff161515146111dc576040517f08c379a00000000000000000000000000000000000000000000000000000000081526004016111d39061436f565b60405180910390fd5b60003490506000600360008573ffffffffffffffffffffffffffffffffffffffff1673ffffffffffffffffffffffffffffffffffffffff168152602001908152602001600020905082600a015482101561126b576040517f08c379a000000000000000000000000000000000000000000000000000000000815260040161126290614401565b60405180910390fd5b600015158360040160019054906101000a900460ff1615150361131e57600460009054906101000a900473ffffffffffffffffffffffffffffffffffffffff1673ffffffffffffffffffffffffffffffffffffffff166323b872dd308686600c01546040518463ffffffff1660e01b81526004016112eb93929190614421565b600060405180830381600087803b15801561130557600080fd5b505af1158015611319573d6000803e3d6000fd5b505050505b8260070160009054906101000a900473ffffffffffffffffffffffffffffffffffffffff1673ffffffffffffffffffffffffffffffffffffffff166108fc349081150290604051600060405180830381858888f19350505050158015611388573d6000803e3d6000fd5b50838360060160006101000a81548173ffffffffffffffffffffffffffffffffffffffff021916908373ffffffffffffffffffffffffffffffffffffffff160217905550838360070160006101000a81548173ffffffffffffffffffffffffffffffffffffffff021916908373ffffffffffffffffffffffffffffffffffffffff1602179055506114198587612867565b60018360040160016101000a81548160ff02191690831515021790555082600760008673ffffffffffffffffffffffffffffffffffffffff1673ffffffffffffffffffffffffffffffffffffffff16815260200190815260200160002060008781526020019081526020016000206000820181600001908161149b919061446e565b506001820154816001015560028201548160020155600382018160030190816114c4919061446e565b506004820160009054906101000a900460ff168160040160006101000a81548160ff0219169083151502179055506004820160019054906101000a900460ff168160040160016101000a81548160ff021916908315150217905550600582015481600501556006820160009054906101000a900473ffffffffffffffffffffffffffffffffffffffff168160060160006101000a81548173ffffffffffffffffffffffffffffffffffffffff021916908373ffffffffffffffffffffffffffffffffffffffff1602179055506007820160009054906101000a900473ffffffffffffffffffffffffffffffffffffffff168160070160006101000a81548173ffffffffffffffffffffffffffffffffffffffff021916908373ffffffffffffffffffffffffffffffffffffffff160217905550600882018160080190805461160d929190612a8a565b5060098201548160090155600a82015481600a0155600b820160009054906101000a900460ff1681600b0160006101000a81548160ff021916908315150217905550600c82015481600c0155905050600760008773ffffffffffffffffffffffffffffffffffffffff1673ffffffffffffffffffffffffffffffffffffffff1681526020019081526020016000206000868152602001908152602001600020600080820160006116bd9190612ae7565b600182016000905560028201600090556003820160006116dd9190612ae7565b6004820160006101000a81549060ff02191690556004820160016101000a81549060ff021916905560058201600090556006820160006101000a81549073ffffffffffffffffffffffffffffffffffffffff02191690556007820160006101000a81549073ffffffffffffffffffffffffffffffffffffffff021916905560088201600061176b9190612b27565b6009820160009055600a820160009055600b820160006101000a81549060ff0219169055600c8201600090555050806007018590806001815401808255809150506001900390600052602060002001600090919091909150555050506001600081905550505050565b60011515600260003373ffffffffffffffffffffffffffffffffffffffff1673ffffffffffffffffffffffffffffffffffffffff16815260200190815260200160002060009054906101000a900460ff16151514611867576040517f08c379a000000000000000000000000000000000000000000000000000000000815260040161185e90613cce565b60405180910390fd5b6000600760008573ffffffffffffffffffffffffffffffffffffffff1673ffffffffffffffffffffffffffffffffffffffff1681526020019081526020016000206000838152602001908152602001600020905060018160050160008282546118d09190613d1d565b92505081905550806008018390806001815401808255809150506001900390600052602060002001600090919091909150908161190d9190614028565b5050505050565b60011515600260003373ffffffffffffffffffffffffffffffffffffffff1673ffffffffffffffffffffffffffffffffffffffff16815260200190815260200160002060009054906101000a900460ff161515036119a7576040517f08c379a000000000000000000000000000000000000000000000000000000000815260040161199e906145a2565b60405180910390fd5b6000600360003373ffffffffffffffffffffffffffffffffffffffff1673ffffffffffffffffffffffffffffffffffffffff1681526020019081526020016000209050858160000190816119fb9190614028565b5084816001019081611a0d9190614028565b5083816002019081611a1f9190614028565b5082816003019081611a319190614028565b5081816004019081611a439190614028565b50338160080160006101000a81548173ffffffffffffffffffffffffffffffffffffffff021916908373ffffffffffffffffffffffffffffffffffffffff160217905550611a9160016129ab565b6001600260003373ffffffffffffffffffffffffffffffffffffffff1673ffffffffffffffffffffffffffffffffffffffff16815260200190815260200160002060006101000a81548160ff02191690831515021790555060068190806001815401808255809150506001900390600052602060002090600b020160009091909190915060008201816000019081611b29919061446e565b5060018201816001019081611b3e919061446e565b5060028201816002019081611b53919061446e565b5060038201816003019081611b68919061446e565b5060048201816004019081611b7d919061446e565b5060058201548160050155600682015481600601556007820181600701908054611ba8929190612b48565b506008820160009054906101000a900473ffffffffffffffffffffffffffffffffffffffff168160080160006101000a81548173ffffffffffffffffffffffffffffffffffffffff021916908373ffffffffffffffffffffffffffffffffffffffff1602179055506009820181600901908054611c26929190612b9a565b50600a820181600a01908054611c3d929190612b9a565b5050507f3500268ebdfdd25b305294ab9516187c34eb908aa8b91d7a48ea6ccfafe4158a8160000182600101836002018460080160009054906101000a900473ffffffffffffffffffffffffffffffffffffffff16604051611ca29493929190614646565b60405180910390a1505050505050565b600081604051602001611cc591906146dc565b604051602081830303815290604052805190602001209050919050565b60606006805480602002602001604051908101604052809291908181526020016000905b828210156121f157838290600052602060002090600b020160405180610160016040529081600082018054611d3a90613c51565b80601f0160208091040260200160405190810160405280929190818152602001828054611d6690613c51565b8015611db35780601f10611d8857610100808354040283529160200191611db3565b820191906000526020600020905b815481529060010190602001808311611d9657829003601f168201915b50505050508152602001600182018054611dcc90613c51565b80601f0160208091040260200160405190810160405280929190818152602001828054611df890613c51565b8015611e455780601f10611e1a57610100808354040283529160200191611e45565b820191906000526020600020905b815481529060010190602001808311611e2857829003601f168201915b50505050508152602001600282018054611e5e90613c51565b80601f0160208091040260200160405190810160405280929190818152602001828054611e8a90613c51565b8015611ed75780601f10611eac57610100808354040283529160200191611ed7565b820191906000526020600020905b815481529060010190602001808311611eba57829003601f168201915b50505050508152602001600382018054611ef090613c51565b80601f0160208091040260200160405190810160405280929190818152602001828054611f1c90613c51565b8015611f695780601f10611f3e57610100808354040283529160200191611f69565b820191906000526020600020905b815481529060010190602001808311611f4c57829003601f168201915b50505050508152602001600482018054611f8290613c51565b80601f0160208091040260200160405190810160405280929190818152602001828054611fae90613c51565b8015611ffb5780601f10611fd057610100808354040283529160200191611ffb565b820191906000526020600020905b815481529060010190602001808311611fde57829003601f168201915b5050505050815260200160058201548152602001600682015481526020016007820180548060200260200160405190810160405280929190818152602001828054801561206757602002820191906000526020600020905b815481526020019060010190808311612053575b505050505081526020016008820160009054906101000a900473ffffffffffffffffffffffffffffffffffffffff1673ffffffffffffffffffffffffffffffffffffffff1673ffffffffffffffffffffffffffffffffffffffff1681526020016009820180548060200260200160405190810160405280929190818152602001828054801561214b57602002820191906000526020600020905b8160009054906101000a900473ffffffffffffffffffffffffffffffffffffffff1673ffffffffffffffffffffffffffffffffffffffff1681526020019060010190808311612101575b50505050508152602001600a82018054806020026020016040519081016040528092919081815260200182805480156121d957602002820191906000526020600020905b8160009054906101000a900473ffffffffffffffffffffffffffffffffffffffff1673ffffffffffffffffffffffffffffffffffffffff168152602001906001019080831161218f575b50505050508152505081526020019060010190611d06565b50505050905090565b60011515600260003373ffffffffffffffffffffffffffffffffffffffff1673ffffffffffffffffffffffffffffffffffffffff16815260200190815260200160002060009054906101000a900460ff1615151461228d576040517f08c379a000000000000000000000000000000000000000000000000000000000815260040161228490613cce565b60405180910390fd5b80600760003373ffffffffffffffffffffffffffffffffffffffff1673ffffffffffffffffffffffffffffffffffffffff168152602001908152602001600020600084815260200190815260200160002060040160006101000a81548160ff0219169083151502179055505050565b606060011515600260003373ffffffffffffffffffffffffffffffffffffffff1673ffffffffffffffffffffffffffffffffffffffff16815260200190815260200160002060009054906101000a900460ff16151514612391576040517f08c379a000000000000000000000000000000000000000000000000000000000815260040161238890613c02565b60405180910390fd5b6000600360003373ffffffffffffffffffffffffffffffffffffffff1673ffffffffffffffffffffffffffffffffffffffff168152602001908152602001600020905060008160070180549050905060008167ffffffffffffffff8111156123fc576123fb61317a565b5b60405190808252806020026020018201604052801561243557816020015b612422612bec565b81526020019060019003908161241a5790505b5090506000805b8381101561283c576000600760003373ffffffffffffffffffffffffffffffffffffffff1673ffffffffffffffffffffffffffffffffffffffff168152602001908152602001600020600087600701858154811061249d5761249c6146f3565b5b90600052602060002001548152602001908152602001600020905080604051806101c00160405290816000820180546124d590613c51565b80601f016020809104026020016040519081016040528092919081815260200182805461250190613c51565b801561254e5780601f106125235761010080835404028352916020019161254e565b820191906000526020600020905b81548152906001019060200180831161253157829003601f168201915b50505050508152602001600182015481526020016002820154815260200160038201805461257b90613c51565b80601f01602080910402602001604051908101604052809291908181526020018280546125a790613c51565b80156125f45780601f106125c9576101008083540402835291602001916125f4565b820191906000526020600020905b8154815290600101906020018083116125d757829003601f168201915b505050505081526020016004820160009054906101000a900460ff161515151581526020016004820160019054906101000a900460ff16151515158152602001600582015481526020016006820160009054906101000a900473ffffffffffffffffffffffffffffffffffffffff1673ffffffffffffffffffffffffffffffffffffffff1673ffffffffffffffffffffffffffffffffffffffff1681526020016007820160009054906101000a900473ffffffffffffffffffffffffffffffffffffffff1673ffffffffffffffffffffffffffffffffffffffff1673ffffffffffffffffffffffffffffffffffffffff16815260200160088201805480602002602001604051908101604052809291908181526020016000905b828210156127ba57838290600052602060002001805461272d90613c51565b80601f016020809104026020016040519081016040528092919081815260200182805461275990613c51565b80156127a65780601f1061277b576101008083540402835291602001916127a6565b820191906000526020600020905b81548152906001019060200180831161278957829003601f168201915b50505050508152602001906001019061270e565b50505050815260200160098201548152602001600a8201548152602001600b820160009054906101000a900460ff16151515158152602001600c8201548152505084848151811061280e5761280d6146f3565b5b60200260200101819052506001836128269190613d1d565b925050808061283490614722565b91505061243c565b508194505050505090565b60026020528060005260406000206000915054906101000a900460ff1681565b6000600360008373ffffffffffffffffffffffffffffffffffffffff1673ffffffffffffffffffffffffffffffffffffffff1681526020019081526020016000206007019050600080600090505b828054905081101561290057848382815481106128d5576128d46146f3565b5b9060005260206000200154036128ed57809150612900565b80806128f890614722565b9150506128b5565b5060008190505b60018380549050612918919061476a565b81101561297d578260018261292d9190613d1d565b8154811061293e5761293d6146f3565b5b906000526020600020015483828154811061295c5761295b6146f3565b5b9060005260206000200181905550808061297590614722565b915050612907565b508180548061298f5761298e61479e565b5b6001900381819060005260206000200160009055905550505050565b6001816000016000828254019250508190555050565b6040518061016001604052806060815260200160608152602001606081526020016060815260200160608152602001600081526020016000815260200160608152602001600073ffffffffffffffffffffffffffffffffffffffff16815260200160608152602001606081525090565b828054828255906000526020600020908101928215612a79579160200282015b82811115612a78578251829081612a689190614028565b5091602001919060010190612a51565b5b509050612a869190612c90565b5090565b828054828255906000526020600020908101928215612ad65760005260206000209182015b82811115612ad55782829081612ac5919061446e565b5091600101919060010190612aaf565b5b509050612ae39190612c90565b5090565b508054612af390613c51565b6000825580601f10612b055750612b24565b601f016020900490600052602060002090810190612b239190612cb4565b5b50565b5080546000825590600052602060002090810190612b459190612c90565b50565b828054828255906000526020600020908101928215612b895760005260206000209182015b82811115612b88578254825591600101919060010190612b6d565b5b509050612b969190612cd1565b5090565b828054828255906000526020600020908101928215612bdb5760005260206000209182015b82811115612bda578254825591600101919060010190612bbf565b5b509050612be89190612cb4565b5090565b604051806101c001604052806060815260200160008019168152602001600081526020016060815260200160001515815260200160001515815260200160008152602001600073ffffffffffffffffffffffffffffffffffffffff168152602001600073ffffffffffffffffffffffffffffffffffffffff168152602001606081526020016000815260200160008152602001600015158152602001600081525090565b5b80821115612cb05760008181612ca79190612ae7565b50600101612c91565b5090565b5b80821115612ccd576000816000905550600101612cb5565b5090565b5b80821115612cea576000816000905550600101612cd2565b5090565b6000819050919050565b612d0181612cee565b82525050565b6000602082019050612d1c6000830184612cf8565b92915050565b600081519050919050565b600082825260208201905092915050565b60005b83811015612d5c578082015181840152602081019050612d41565b83811115612d6b576000848401525b50505050565b6000601f19601f8301169050919050565b6000612d8d82612d22565b612d978185612d2d565b9350612da7818560208601612d3e565b612db081612d71565b840191505092915050565b612dc481612cee565b82525050565b600081519050919050565b600082825260208201905092915050565b6000819050602082019050919050565b6000819050919050565b612e0981612df6565b82525050565b6000612e1b8383612e00565b60208301905092915050565b6000602082019050919050565b6000612e3f82612dca565b612e498185612dd5565b9350612e5483612de6565b8060005b83811015612e85578151612e6c8882612e0f565b9750612e7783612e27565b925050600181019050612e58565b5085935050505092915050565b600073ffffffffffffffffffffffffffffffffffffffff82169050919050565b6000612ebd82612e92565b9050919050565b612ecd81612eb2565b82525050565b600081519050919050565b600082825260208201905092915050565b6000819050602082019050919050565b6000612f0b8383612ec4565b60208301905092915050565b6000602082019050919050565b6000612f2f82612ed3565b612f398185612ede565b9350612f4483612eef565b8060005b83811015612f75578151612f5c8882612eff565b9750612f6783612f17565b925050600181019050612f48565b5085935050505092915050565b6000610160830160008301518482036000860152612fa08282612d82565b91505060208301518482036020860152612fba8282612d82565b91505060408301518482036040860152612fd48282612d82565b91505060608301518482036060860152612fee8282612d82565b915050608083015184820360808601526130088282612d82565b91505060a083015161301d60a0860182612dbb565b5060c083015161303060c0860182612dbb565b5060e083015184820360e08601526130488282612e34565b91505061010083015161305f610100860182612ec4565b506101208301518482036101208601526130798282612f24565b9150506101408301518482036101408601526130958282612f24565b9150508091505092915050565b600060208201905081810360008301526130bc8184612f82565b905092915050565b6000604051905090565b600080fd5b600080fd5b6130e181612eb2565b81146130ec57600080fd5b50565b6000813590506130fe816130d8565b92915050565b61310d81612df6565b811461311857600080fd5b50565b60008135905061312a81613104565b92915050565b60008060408385031215613147576131466130ce565b5b6000613155858286016130ef565b92505060206131668582860161311b565b9150509250929050565b600080fd5b600080fd5b7f4e487b7100000000000000000000000000000000000000000000000000000000600052604160045260246000fd5b6131b282612d71565b810181811067ffffffffffffffff821117156131d1576131d061317a565b5b80604052505050565b60006131e46130c4565b90506131f082826131a9565b919050565b600067ffffffffffffffff8211156132105761320f61317a565b5b61321982612d71565b9050602081019050919050565b82818337600083830152505050565b6000613248613243846131f5565b6131da565b90508281526020810184848401111561326457613263613175565b5b61326f848285613226565b509392505050565b600082601f83011261328c5761328b613170565b5b813561329c848260208601613235565b91505092915050565b60008115159050919050565b6132ba816132a5565b81146132c557600080fd5b50565b6000813590506132d7816132b1565b92915050565b6132e681612cee565b81146132f157600080fd5b50565b600081359050613303816132dd565b92915050565b600080600080600060a08688031215613325576133246130ce565b5b600086013567ffffffffffffffff811115613343576133426130d3565b5b61334f88828901613277565b955050602086013567ffffffffffffffff8111156133705761336f6130d3565b5b61337c88828901613277565b945050604061338d888289016132c8565b935050606061339e888289016132f4565b92505060806133af888289016132c8565b9150509295509295909350565b6000806000606084860312156133d5576133d46130ce565b5b60006133e3868287016130ef565b93505060206133f48682870161311b565b9250506040613405868287016130ef565b9150509250925092565b600080600060608486031215613428576134276130ce565b5b6000613436868287016130ef565b935050602084013567ffffffffffffffff811115613457576134566130d3565b5b61346386828701613277565b92505060406134748682870161311b565b9150509250925092565b600080600080600060a0868803121561349a576134996130ce565b5b600086013567ffffffffffffffff8111156134b8576134b76130d3565b5b6134c488828901613277565b955050602086013567ffffffffffffffff8111156134e5576134e46130d3565b5b6134f188828901613277565b945050604086013567ffffffffffffffff811115613512576135116130d3565b5b61351e88828901613277565b935050606086013567ffffffffffffffff81111561353f5761353e6130d3565b5b61354b88828901613277565b925050608086013567ffffffffffffffff81111561356c5761356b6130d3565b5b61357888828901613277565b9150509295509295909350565b60006020828403121561359b5761359a6130ce565b5b600082013567ffffffffffffffff8111156135b9576135b86130d3565b5b6135c584828501613277565b91505092915050565b6135d781612df6565b82525050565b60006020820190506135f260008301846135ce565b92915050565b600081519050919050565b600082825260208201905092915050565b6000819050602082019050919050565b60006101608301600083015184820360008601526136428282612d82565b9150506020830151848203602086015261365c8282612d82565b915050604083015184820360408601526136768282612d82565b915050606083015184820360608601526136908282612d82565b915050608083015184820360808601526136aa8282612d82565b91505060a08301516136bf60a0860182612dbb565b5060c08301516136d260c0860182612dbb565b5060e083015184820360e08601526136ea8282612e34565b915050610100830151613701610100860182612ec4565b5061012083015184820361012086015261371b8282612f24565b9150506101408301518482036101408601526137378282612f24565b9150508091505092915050565b60006137508383613624565b905092915050565b6000602082019050919050565b6000613770826135f8565b61377a8185613603565b93508360208202850161378c85613614565b8060005b858110156137c857848403895281516137a98582613744565b94506137b483613758565b925060208a01995050600181019050613790565b50829750879550505050505092915050565b600060208201905081810360008301526137f48184613765565b905092915050565b60008060408385031215613813576138126130ce565b5b60006138218582860161311b565b9250506020613832858286016132c8565b9150509250929050565b600081519050919050565b600082825260208201905092915050565b6000819050602082019050919050565b613871816132a5565b82525050565b600061388282612e92565b9050919050565b61389281613877565b82525050565b600081519050919050565b600082825260208201905092915050565b6000819050602082019050919050565b60006138d08383612d82565b905092915050565b6000602082019050919050565b60006138f082613898565b6138fa81856138a3565b93508360208202850161390c856138b4565b8060005b85811015613948578484038952815161392985826138c4565b9450613934836138d8565b925060208a01995050600181019050613910565b50829750879550505050505092915050565b60006101c08301600083015184820360008601526139788282612d82565b915050602083015161398d6020860182612e00565b5060408301516139a06040860182612dbb565b50606083015184820360608601526139b88282612d82565b91505060808301516139cd6080860182613868565b5060a08301516139e060a0860182613868565b5060c08301516139f360c0860182612dbb565b5060e0830151613a0660e0860182612ec4565b50610100830151613a1b610100860182613889565b50610120830151848203610120860152613a3582826138e5565b915050610140830151613a4c610140860182612dbb565b50610160830151613a61610160860182612dbb565b50610180830151613a76610180860182613868565b506101a0830151613a8b6101a0860182612dbb565b508091505092915050565b6000613aa2838361395a565b905092915050565b6000602082019050919050565b6000613ac28261383c565b613acc8185613847565b935083602082028501613ade85613858565b8060005b85811015613b1a5784840389528151613afb8582613a96565b9450613b0683613aaa565b925060208a01995050600181019050613ae2565b50829750879550505050505092915050565b60006020820190508181036000830152613b468184613ab7565b905092915050565b600060208284031215613b6457613b636130ce565b5b6000613b72848285016130ef565b91505092915050565b613b84816132a5565b82525050565b6000602082019050613b9f6000830184613b7b565b92915050565b600082825260208201905092915050565b7f55736572206e6f7420726567697374657265642e000000000000000000000000600082015250565b6000613bec601483613ba5565b9150613bf782613bb6565b602082019050919050565b60006020820190508181036000830152613c1b81613bdf565b9050919050565b7f4e487b7100000000000000000000000000000000000000000000000000000000600052602260045260246000fd5b60006002820490506001821680613c6957607f821691505b602082108103613c7c57613c7b613c22565b5b50919050565b7f55736572206e6f74207265676973746572656400000000000000000000000000600082015250565b6000613cb8601383613ba5565b9150613cc382613c82565b602082019050919050565b60006020820190508181036000830152613ce781613cab565b9050919050565b7f4e487b7100000000000000000000000000000000000000000000000000000000600052601160045260246000fd5b6000613d2882612cee565b9150613d3383612cee565b9250827fffffffffffffffffffffffffffffffffffffffffffffffffffffffffffffffff03821115613d6857613d67613cee565b5b828201905092915050565b7f5265656e7472616e637947756172643a207265656e7472616e742063616c6c00600082015250565b6000613da9601f83613ba5565b9150613db482613d73565b602082019050919050565b60006020820190508181036000830152613dd881613d9c565b9050919050565b6000613dea82612d22565b613df48185613ba5565b9350613e04818560208601612d3e565b613e0d81612d71565b840191505092915050565b60006020820190508181036000830152613e328184613ddf565b905092915050565b600081519050613e49816132dd565b92915050565b600060208284031215613e6557613e646130ce565b5b6000613e7384828501613e3a565b91505092915050565b60008190508160005260206000209050919050565b60006020601f8301049050919050565b600082821b905092915050565b600060088302613ede7fffffffffffffffffffffffffffffffffffffffffffffffffffffffffffffffff82613ea1565b613ee88683613ea1565b95508019841693508086168417925050509392505050565b6000819050919050565b6000613f25613f20613f1b84612cee565b613f00565b612cee565b9050919050565b6000819050919050565b613f3f83613f0a565b613f53613f4b82613f2c565b848454613eae565b825550505050565b600090565b613f68613f5b565b613f73818484613f36565b505050565b5b81811015613f9757613f8c600082613f60565b600181019050613f79565b5050565b601f821115613fdc57613fad81613e7c565b613fb684613e91565b81016020851015613fc5578190505b613fd9613fd185613e91565b830182613f78565b50505b505050565b600082821c905092915050565b6000613fff60001984600802613fe1565b1980831691505092915050565b60006140188383613fee565b9150826002028217905092915050565b61403182612d22565b67ffffffffffffffff81111561404a5761404961317a565b5b6140548254613c51565b61405f828285613f9b565b600060209050601f8311600181146140925760008415614080578287015190505b61408a858261400c565b8655506140f2565b601f1984166140a086613e7c565b60005b828110156140c8578489015182556001820191506020850194506020810190506140a3565b868310156140e557848901516140e1601f891682613fee565b8355505b6001600288020188555050505b505050505050565b6000819050919050565b600061411f61411a614115846140fa565b613f00565b612cee565b9050919050565b61412f81614104565b82525050565b61413e81612eb2565b82525050565b600061415f61415a61415584612e92565b613f00565b612e92565b9050919050565b600061417182614144565b9050919050565b600061418382614166565b9050919050565b61419381614178565b82525050565b60006101008201905081810360008301526141b4818b613ddf565b905081810360208301526141c8818a613ddf565b90506141d760408301896135ce565b6141e46060830188612cf8565b6141f16080830187612cf8565b6141fe60a0830186614126565b61420b60c0830185614135565b61421860e083018461418a565b9998505050505050505050565b7f506f7374206973206e6f7420616e206e66740000000000000000000000000000600082015250565b600061425b601283613ba5565b915061426682614225565b602082019050919050565b6000602082019050818103600083015261428a8161424e565b9050919050565b7f556e6d617463686564207472616e73616374696f6e2c20692e652e2c2074686560008201527f2070617965722073686f756c6420626520746865206e6577206f776e65720000602082015250565b60006142ed603e83613ba5565b91506142f882614291565b604082019050919050565b6000602082019050818103600083015261431c816142e0565b9050919050565b7f506f7374206e6f7420666f722073616c65000000000000000000000000000000600082015250565b6000614359601183613ba5565b915061436482614323565b602082019050919050565b600060208201905081810360008301526143888161434c565b9050919050565b7f416d6f756e742073686f756c642062652067726561746572207468616e20626160008201527f7365207072696365206f662074686520706f73742e0000000000000000000000602082015250565b60006143eb603583613ba5565b91506143f68261438f565b604082019050919050565b6000602082019050818103600083015261441a816143de565b9050919050565b60006060820190506144366000830186614135565b6144436020830185614135565b6144506040830184612cf8565b949350505050565b60008154905061446781613c51565b9050919050565b81810361447c575050614554565b61448582614458565b67ffffffffffffffff81111561449e5761449d61317a565b5b6144a88254613c51565b6144b3828285613f9b565b6000601f8311600181146144e257600084156144d0578287015490505b6144da858261400c565b86555061454d565b601f1984166144f087613e7c565b96506144fb86613e7c565b60005b82811015614523578489015482556001820191506001850194506020810190506144fe565b86831015614540578489015461453c601f891682613fee565b8355505b6001600288020188555050505b5050505050505b565b7f5573657220616c72656164792065786973747300000000000000000000000000600082015250565b600061458c601383613ba5565b915061459782614556565b602082019050919050565b600060208201905081810360008301526145bb8161457f565b9050919050565b600081546145cf81613c51565b6145d98186613ba5565b945060018216600081146145f4576001811461460a5761463d565b60ff19831686528115156020028601935061463d565b61461385613e7c565b60005b8381101561463557815481890152600182019150602081019050614616565b808801955050505b50505092915050565b6000608082019050818103600083015261466081876145c2565b9050818103602083015261467481866145c2565b9050818103604083015261468881856145c2565b90506146976060830184614135565b95945050505050565b600081905092915050565b60006146b682612d22565b6146c081856146a0565b93506146d0818560208601612d3e565b80840191505092915050565b60006146e882846146ab565b915081905092915050565b7f4e487b7100000000000000000000000000000000000000000000000000000000600052603260045260246000fd5b600061472d82612cee565b91507fffffffffffffffffffffffffffffffffffffffffffffffffffffffffffffffff820361475f5761475e613cee565b5b600182019050919050565b600061477582612cee565b915061478083612cee565b92508282101561479357614792613cee565b5b828203905092915050565b7f4e487b7100000000000000000000000000000000000000000000000000000000600052603160045260246000fdfea2646970667358221220e5cea4d672732b29f5329dd6a413b254553e161351781e6818d711830a2cd75264736f6c634300080f0033",
  "immutableReferences": {},
  "source": "// SPDX-License-Identifier: GPL-3.0\n\npragma solidity >=0.7.0 <0.9.0;\n\nimport \"@openzeppelin/contracts/utils/Counters.sol\";\nimport \"@openzeppelin/contracts/utils/Counters.sol\";\nimport \"@openzeppelin/contracts/token/ERC721/extensions/ERC721URIStorage.sol\";\nimport \"@openzeppelin/contracts/security/ReentrancyGuard.sol\";\nimport \"@openzeppelin/contracts/token/ERC721/ERC721.sol\";\n\ncontract TrisNFT is ERC721URIStorage{\n    using Counters for Counters.Counter;\n    \n    constructor() ERC721(\"TrisNFT\", \"TRI\"){}   \n    Counters.Counter private _tokenId;\n    address contractAddress = address(this);\n\n    function mintToken(string memory tokenUri) public returns(uint256 itemId){\n        require(contractAddress == msg.sender, \"Only the marketplace contract can call this function\");\n        _tokenId.increment();\n        uint256 currentId = _tokenId.current();\n        _mint(contractAddress, currentId);\n        _setTokenURI(currentId, tokenUri);\n        return currentId;\n    }\n\n    function updateContractAddress( address marketPlaceAddress) public  {\n        require(contractAddress == address(this) || contractAddress == msg.sender, \"Address is already declared or only the  owner contract can change the address.\");\n        contractAddress = marketPlaceAddress;\n    }\n\n    function returnCurrentUser() public view returns(address){\n        return msg.sender;\n    }\n\n    /*\n        A custom function to transfer ownership from on owner to another.\n    */\n    function transferNft(address currOwner, address newOwner, uint tokenId) public {\n        transferFrom(currOwner, newOwner, tokenId);\n    }\n\n    function getLatestTokenId() public view returns(uint256 itemId){\n        return _tokenId.current();\n    }\n\n    function returnOwner(uint id) public view returns(address){\n        return ownerOf(id);\n    }\n}\n\ncontract UserContract is ReentrancyGuard{\n    using Counters for Counters.Counter;\n    Counters.Counter public userCount;\n    mapping(address => bool) public userIsRegistered;\n    mapping(address => User) private mapToUser;\n    address private trisNftAddress;\n    address private owner;\n    User[] private usersList;\n    mapping(address => mapping(bytes32 => Post)) private _postsOfUsers;\n\n    constructor(address nftAddress, address ownerAddress){\n        trisNftAddress = nftAddress;\n        owner = ownerAddress;\n        TrisNFT(nftAddress).updateContractAddress(address(this));\n    }\n\n    \n\n    /*\n        User struct for storing user data. \n        name, userName, userAddress are required as in the UI the rest can be 0 or empty.\n     */\n    struct User{\n        string name;\n        string userName;\n        string avatarUrl;\n        string bio;\n        string wallUrl;\n        uint256 followersCount;\n        uint256 followingCount;\n        bytes32[] postCount;\n        address userAddress;\n        address[] followers;\n        address[] following;\n    }\n\n    /*\n        Post struct for storing the posts of each user.\n        The token id connects post to the nft in ./Tris_NFT.sol\n\n        A post can be either NFT or a regular post\n     */\n    struct Post{\n        string post;\n        bytes32 postId;\n        uint256 likes;\n        string title;\n        bool isForSale;\n        bool postIsBought;\n        uint256 commentsCount;\n        address owner;\n        address payable seller;\n        string[] comments;\n        uint256 priceByOwner;\n        uint256 basePrice;\n        bool isNft;\n        uint256 tokenId;\n    }\n\n    /*\n        Events \n     */\n    event UserCreated (string name, string userName, string avatarUrl, address userAddress);\n    event PostUploaded(string title, string post, bytes32 postId, uint256 tokenId, uint256 priceByOwner, uint256 basePrice, address owner, address seller);\n    event PostSold(string post, address owner, address seller, uint256 price);\n\n    function createUser(string memory name, string memory userName, string memory avatarUrl, string memory bio, string memory wallUrl) public {\n        require(userIsRegistered[msg.sender] != true, \"User already exists\");\n        User storage userData = mapToUser[msg.sender];\n        userData.name = name;\n        userData.userName = userName;\n        userData.avatarUrl = avatarUrl;\n        userData.bio = bio;\n        userData.wallUrl = wallUrl;\n        userData.userAddress = msg.sender;\n        userCount.increment();\n        userIsRegistered[msg.sender] = true;\n        usersList.push(userData);\n        emit UserCreated(userData.name, userData.userName, userData.avatarUrl, userData.userAddress);\n    }\n\n    /*\n        Function to upload post. This requires the post parameters, \n        and uploads the post as either nft or a regular post.\n    */\n    function uploadPost(string memory title, string memory post, bool isNft, uint256 priceByOwner, bool isForSale) public nonReentrant{\n        require(userIsRegistered[msg.sender] == true, \"User not registered.\");\n        User storage currUser = mapToUser[msg.sender];\n\n        uint256 tokenId;\n\n        if(isNft){\n            tokenId = TrisNFT(trisNftAddress).mintToken(post);\n        }\n\n        currUser.postCount.push(callKeccak256(post));\n        Post memory currPost = Post(\n            {\n                post: post,\n                postId: callKeccak256(post),\n                likes: 0,\n                title: title,\n                postIsBought: false,\n                isForSale: isNft ? isForSale : false,\n                isNft: isNft,\n                commentsCount: 0,\n                priceByOwner: isNft ? priceByOwner : 0,\n                comments: new string[](0),\n                tokenId: isNft ? tokenId : 0,\n                basePrice: isNft ? 10 : 0,\n                owner: isNft ? (address(this)) : (address(0)),\n                seller: isNft ? payable(msg.sender) : payable(address(0))\n            }\n        );\n\n        _postsOfUsers[msg.sender][callKeccak256(post)] = currPost;\n        emit PostUploaded(currPost.title, currPost.post, currPost.postId, currPost.tokenId, priceByOwner, 10, currPost.owner, currPost.seller);\n    }\n\n\n    /*\n        Dedicated function to buy/sell nfts before selling the nft owner should make sure he has \n        made the NFT avaialbe for sale and the post is NFT. \n        Before call this function the transferNFT in TrisNFT contract should be called to transfer the ownership.\n        That function can't be called form this function because that checks for msg.sender to be equal to \n        post owner but when called from here msg.sender is the address of this contract and not the owner.\n        - If the post is already sold then it will be checked in the frontend throught the postIsBought parameter\n          only if the postIsBought turns out to be true then the the method in the TrisNft will be called.\n    */\n    function buyPost(address ownerAddress, bytes32 postId, address newOwnerAddress) public payable nonReentrant{\n        Post storage currPost = _postsOfUsers[ownerAddress][postId];\n        require(userIsRegistered[msg.sender] == true, \"User not registered\");\n        require(currPost.isNft == true, \"Post is not an nft\");\n        require(msg.sender == newOwnerAddress, \"Unmatched transaction, i.e., the payer should be the new owner\");\n        require(userIsRegistered[ownerAddress] == true, \"User not registered\");\n        require(currPost.isForSale == true, \"Post not for sale\");\n        uint256 price = msg.value;\n        User storage newUser = mapToUser[newOwnerAddress];\n        require(price >= currPost.basePrice, \"Amount should be greater than base price of the post.\");\n        if(currPost.postIsBought == false){\n            IERC721(trisNftAddress).transferFrom(address(this), newOwnerAddress, currPost.tokenId);\n        }\n        currPost.seller.transfer(msg.value);\n        currPost.owner = (newOwnerAddress);\n        currPost.seller = payable(newOwnerAddress);\n        removePost(postId, ownerAddress);\n        currPost.postIsBought = true;\n        _postsOfUsers[newOwnerAddress][postId] = currPost;\n        delete _postsOfUsers[ownerAddress][postId];\n        newUser.postCount.push(postId);\n    }\n\n    function getUserList() public view returns(User[] memory){\n        return usersList;\n    }\n\n    function updatePostForSale(bytes32 id, bool isForSale) public {\n        require(userIsRegistered[msg.sender] == true, \"User not registered\");\n        _postsOfUsers[msg.sender][id].isForSale = isForSale;\n    }\n\n    \n\n    function getUserPosts() public view returns (Post[] memory userPosts){\n        require(userIsRegistered[msg.sender] == true, \"User not registered.\");\n        User storage currUser = mapToUser[msg.sender];\n        uint userPostCount = currUser.postCount.length;\n        Post[] memory currUserPosts = new Post[](userPostCount);\n        uint currentIndex = 0;\n        for(uint i = 0; i < userPostCount; i++){\n           Post storage currPost = _postsOfUsers[msg.sender][currUser.postCount[currentIndex]];\n           currUserPosts[currentIndex] = currPost;\n           currentIndex += 1;\n        }\n\n        return currUserPosts;\n    }\n\n    function removePost(bytes32 postId, address postOwner) internal {\n        bytes32[] storage postCount = mapToUser[postOwner].postCount;\n        uint index;\n        for(uint i = 0; i < postCount.length; i++){\n            if(postCount[i] == postId){\n                index = i;\n                break;\n            }\n        }\n        for(uint i = index; i < postCount.length - 1; i++){\n            postCount[i] = postCount[i + 1];\n        }\n        postCount.pop();\n    }\n\n    function likeAPost(address postOwner, bytes32 postId) public {\n        require(userIsRegistered[msg.sender] == true, \"User not registered\");\n        Post storage currPost = _postsOfUsers[postOwner][postId];\n        currPost.likes += 1;\n    }\n\n    function postComment( address postOwner, string memory comment, bytes32 postId ) public {\n        require(userIsRegistered[msg.sender] == true, \"User not registered\");\n        Post storage currPost = _postsOfUsers[postOwner][postId];\n        currPost.commentsCount += 1;\n        currPost.comments.push(comment);\n    }\n\n    function getUserData() public view returns(User memory){\n        require(userIsRegistered[msg.sender] == true, \"User not registered.\");\n        return mapToUser[msg.sender];\n    } \n\n    function callKeccak256(string memory post) public pure returns( bytes32 result){\n      return keccak256(abi.encodePacked(post));\n   }  \n\n}\n",
  "sourcePath": "/home/astar/Documents/tris/contracts/User.sol",
  "compiler": {
    "name": "solc",
    "version": "0.8.15+commit.e14f2714.Emscripten.clang"
  },
  "schemaVersion": "3.4.8",
  "updatedAt": "2022-07-18T17:06:25.763Z",
  "networkType": "ethereum",
  "devdoc": {
    "kind": "dev",
    "methods": {},
    "version": 1
  },
  "userdoc": {
    "kind": "user",
    "methods": {},
    "version": 1
  }
}